{
	"contracts/PaintContract.sol": {
		"PaintContract": {
			"abi": [
				{
					"inputs": [],
					"stateMutability": "nonpayable",
					"type": "constructor"
				},
				{
					"anonymous": false,
					"inputs": [
						{
							"indexed": true,
							"internalType": "address",
							"name": "buyer",
							"type": "address"
						},
						{
							"indexed": true,
							"internalType": "uint256",
							"name": "paintId",
							"type": "uint256"
						}
					],
					"name": "purchasedPaint",
					"type": "event"
				},
				{
					"inputs": [
						{
							"internalType": "uint256",
							"name": "paintId",
							"type": "uint256"
						}
					],
					"name": "buyPaint",
					"outputs": [],
					"stateMutability": "payable",
					"type": "function"
				},
				{
					"inputs": [],
					"name": "counterPaints",
					"outputs": [
						{
							"internalType": "uint256",
							"name": "",
							"type": "uint256"
						}
					],
					"stateMutability": "view",
					"type": "function"
				},
				{
					"inputs": [
						{
							"internalType": "uint256",
							"name": "id",
							"type": "uint256"
						},
						{
							"internalType": "string",
							"name": "title",
							"type": "string"
						},
						{
							"internalType": "string",
							"name": "img",
							"type": "string"
						},
						{
							"internalType": "string",
							"name": "artist",
							"type": "string"
						},
						{
							"internalType": "string",
							"name": "price",
							"type": "string"
						}
					],
					"name": "createPaint",
					"outputs": [],
					"stateMutability": "nonpayable",
					"type": "function"
				},
				{
					"inputs": [],
					"name": "getAllPaintd",
					"outputs": [
						{
							"components": [
								{
									"internalType": "uint256",
									"name": "id",
									"type": "uint256"
								},
								{
									"internalType": "string",
									"name": "title",
									"type": "string"
								},
								{
									"internalType": "string",
									"name": "img",
									"type": "string"
								},
								{
									"internalType": "string",
									"name": "artist",
									"type": "string"
								},
								{
									"internalType": "string",
									"name": "price",
									"type": "string"
								},
								{
									"internalType": "bool",
									"name": "status",
									"type": "bool"
								}
							],
							"internalType": "struct PaintContract.Paint[]",
							"name": "",
							"type": "tuple[]"
						}
					],
					"stateMutability": "view",
					"type": "function"
				},
				{
					"inputs": [
						{
							"internalType": "uint256",
							"name": "paintId",
							"type": "uint256"
						}
					],
					"name": "getPaintDetails",
					"outputs": [
						{
							"internalType": "uint256",
							"name": "id",
							"type": "uint256"
						},
						{
							"internalType": "string",
							"name": "title",
							"type": "string"
						},
						{
							"internalType": "string",
							"name": "img",
							"type": "string"
						},
						{
							"internalType": "string",
							"name": "artist",
							"type": "string"
						},
						{
							"internalType": "string",
							"name": "price",
							"type": "string"
						},
						{
							"internalType": "bool",
							"name": "status",
							"type": "bool"
						}
					],
					"stateMutability": "view",
					"type": "function"
				},
				{
					"inputs": [
						{
							"internalType": "address",
							"name": "buyer",
							"type": "address"
						}
					],
					"name": "getPurchasedPaintIds",
					"outputs": [
						{
							"internalType": "uint256[]",
							"name": "",
							"type": "uint256[]"
						}
					],
					"stateMutability": "view",
					"type": "function"
				},
				{
					"inputs": [
						{
							"internalType": "address",
							"name": "buyer",
							"type": "address"
						}
					],
					"name": "getPurchasedPaints",
					"outputs": [
						{
							"components": [
								{
									"internalType": "uint256",
									"name": "id",
									"type": "uint256"
								},
								{
									"internalType": "string",
									"name": "title",
									"type": "string"
								},
								{
									"internalType": "string",
									"name": "img",
									"type": "string"
								},
								{
									"internalType": "string",
									"name": "artist",
									"type": "string"
								},
								{
									"internalType": "string",
									"name": "price",
									"type": "string"
								},
								{
									"internalType": "bool",
									"name": "status",
									"type": "bool"
								}
							],
							"internalType": "struct PaintContract.Paint[]",
							"name": "",
							"type": "tuple[]"
						}
					],
					"stateMutability": "view",
					"type": "function"
				},
				{
					"inputs": [
						{
							"internalType": "uint256",
							"name": "",
							"type": "uint256"
						}
					],
					"name": "paints",
					"outputs": [
						{
							"internalType": "uint256",
							"name": "id",
							"type": "uint256"
						},
						{
							"internalType": "string",
							"name": "title",
							"type": "string"
						},
						{
							"internalType": "string",
							"name": "img",
							"type": "string"
						},
						{
							"internalType": "string",
							"name": "artist",
							"type": "string"
						},
						{
							"internalType": "string",
							"name": "price",
							"type": "string"
						},
						{
							"internalType": "bool",
							"name": "status",
							"type": "bool"
						}
					],
					"stateMutability": "view",
					"type": "function"
				},
				{
					"inputs": [
						{
							"internalType": "address",
							"name": "",
							"type": "address"
						},
						{
							"internalType": "uint256",
							"name": "",
							"type": "uint256"
						}
					],
					"name": "purchasedPaints",
					"outputs": [
						{
							"internalType": "uint256",
							"name": "",
							"type": "uint256"
						}
					],
					"stateMutability": "view",
					"type": "function"
				}
			],
			"devdoc": {
				"kind": "dev",
				"methods": {},
				"version": 1
			},
			"evm": {
				"assembly": "    /* \"contracts/PaintContract.sol\":725:3708  contract PaintContract {... */\n  mstore(0x40, 0x80)\n    /* \"contracts/PaintContract.sol\":1111:1282  constructor() {... */\n  callvalue\n  dup1\n  iszero\n  tag_1\n  jumpi\n  0x00\n  dup1\n  revert\ntag_1:\n  pop\n    /* \"contracts/PaintContract.sol\":1150:1151  0 */\n  0x00\n    /* \"contracts/PaintContract.sol\":1134:1147  counterPaints */\n  dup1\n    /* \"contracts/PaintContract.sol\":1134:1151  counterPaints = 0 */\n  dup2\n  swap1\n  sstore\n  pop\n    /* \"contracts/PaintContract.sol\":725:3708  contract PaintContract {... */\n  dataSize(sub_0)\n  dup1\n  dataOffset(sub_0)\n  0x00\n  codecopy\n  0x00\n  return\nstop\n\nsub_0: assembly {\n        /* \"contracts/PaintContract.sol\":725:3708  contract PaintContract {... */\n      mstore(0x40, 0x80)\n      jumpi(tag_1, lt(calldatasize, 0x04))\n      shr(0xe0, calldataload(0x00))\n      dup1\n      0x6e65db3e\n      gt\n      tag_11\n      jumpi\n      dup1\n      0x6e65db3e\n      eq\n      tag_6\n      jumpi\n      dup1\n      0xa8eca8b2\n      eq\n      tag_7\n      jumpi\n      dup1\n      0xac75006e\n      eq\n      tag_8\n      jumpi\n      dup1\n      0xc7b92d70\n      eq\n      tag_9\n      jumpi\n      dup1\n      0xf7142694\n      eq\n      tag_10\n      jumpi\n      jump(tag_1)\n    tag_11:\n      dup1\n      0x03454b46\n      eq\n      tag_2\n      jumpi\n      dup1\n      0x10b46615\n      eq\n      tag_3\n      jumpi\n      dup1\n      0x15ec8815\n      eq\n      tag_4\n      jumpi\n      dup1\n      0x6963ba5c\n      eq\n      tag_5\n      jumpi\n    tag_1:\n      0x00\n      dup1\n      revert\n        /* \"contracts/PaintContract.sol\":754:779  uint public counterPaints */\n    tag_2:\n      callvalue\n      dup1\n      iszero\n      tag_12\n      jumpi\n      0x00\n      dup1\n      revert\n    tag_12:\n      pop\n      tag_13\n      tag_14\n      jump\t// in\n    tag_13:\n      mload(0x40)\n      tag_15\n      swap2\n      swap1\n      tag_16\n      jump\t// in\n    tag_15:\n      mload(0x40)\n      dup1\n      swap2\n      sub\n      swap1\n      return\n        /* \"contracts/PaintContract.sol\":3304:3695  function getPurchasedPaints(address buyer) public view returns (Paint[] memory){... */\n    tag_3:\n      callvalue\n      dup1\n      iszero\n      tag_17\n      jumpi\n      0x00\n      dup1\n      revert\n    tag_17:\n      pop\n      tag_18\n      0x04\n      dup1\n      calldatasize\n      sub\n      dup2\n      add\n      swap1\n      tag_19\n      swap2\n      swap1\n      tag_20\n      jump\t// in\n    tag_19:\n      tag_21\n      jump\t// in\n    tag_18:\n      mload(0x40)\n      tag_22\n      swap2\n      swap1\n      tag_23\n      jump\t// in\n    tag_22:\n      mload(0x40)\n      dup1\n      swap2\n      sub\n      swap1\n      return\n        /* \"contracts/PaintContract.sol\":3121:3298  function getPurchasedPaintIds(address buyer) public view returns (uint[] memory){... */\n    tag_4:\n      callvalue\n      dup1\n      iszero\n      tag_24\n      jumpi\n      0x00\n      dup1\n      revert\n    tag_24:\n      pop\n      tag_25\n      0x04\n      dup1\n      calldatasize\n      sub\n      dup2\n      add\n      swap1\n      tag_26\n      swap2\n      swap1\n      tag_20\n      jump\t// in\n    tag_26:\n      tag_27\n      jump\t// in\n    tag_25:\n      mload(0x40)\n      tag_28\n      swap2\n      swap1\n      tag_29\n      jump\t// in\n    tag_28:\n      mload(0x40)\n      dup1\n      swap2\n      sub\n      swap1\n      return\n        /* \"contracts/PaintContract.sol\":2872:3115  function getAllPaintd() public view returns (Paint[] memory){... */\n    tag_5:\n      callvalue\n      dup1\n      iszero\n      tag_30\n      jumpi\n      0x00\n      dup1\n      revert\n    tag_30:\n      pop\n      tag_31\n      tag_32\n      jump\t// in\n    tag_31:\n      mload(0x40)\n      tag_33\n      swap2\n      swap1\n      tag_23\n      jump\t// in\n    tag_33:\n      mload(0x40)\n      dup1\n      swap2\n      sub\n      swap1\n      return\n        /* \"contracts/PaintContract.sol\":936:973  mapping (uint => Paint) public paints */\n    tag_6:\n      callvalue\n      dup1\n      iszero\n      tag_34\n      jumpi\n      0x00\n      dup1\n      revert\n    tag_34:\n      pop\n      tag_35\n      0x04\n      dup1\n      calldatasize\n      sub\n      dup2\n      add\n      swap1\n      tag_36\n      swap2\n      swap1\n      tag_37\n      jump\t// in\n    tag_36:\n      tag_38\n      jump\t// in\n    tag_35:\n      mload(0x40)\n      tag_39\n      swap7\n      swap6\n      swap5\n      swap4\n      swap3\n      swap2\n      swap1\n      tag_40\n      jump\t// in\n    tag_39:\n      mload(0x40)\n      dup1\n      swap2\n      sub\n      swap1\n      return\n        /* \"contracts/PaintContract.sol\":2175:2533  function buyPaint(uint paintId) public payable {... */\n    tag_7:\n      tag_41\n      0x04\n      dup1\n      calldatasize\n      sub\n      dup2\n      add\n      swap1\n      tag_42\n      swap2\n      swap1\n      tag_37\n      jump\t// in\n    tag_42:\n      tag_43\n      jump\t// in\n    tag_41:\n      stop\n        /* \"contracts/PaintContract.sol\":1290:1716  function createPaint(... */\n    tag_8:\n      callvalue\n      dup1\n      iszero\n      tag_44\n      jumpi\n      0x00\n      dup1\n      revert\n    tag_44:\n      pop\n      tag_45\n      0x04\n      dup1\n      calldatasize\n      sub\n      dup2\n      add\n      swap1\n      tag_46\n      swap2\n      swap1\n      tag_47\n      jump\t// in\n    tag_46:\n      tag_48\n      jump\t// in\n    tag_45:\n      stop\n        /* \"contracts/PaintContract.sol\":1722:2169  function getPaintDetails(uint paintId) public view returns (... */\n    tag_9:\n      callvalue\n      dup1\n      iszero\n      tag_49\n      jumpi\n      0x00\n      dup1\n      revert\n    tag_49:\n      pop\n      tag_50\n      0x04\n      dup1\n      calldatasize\n      sub\n      dup2\n      add\n      swap1\n      tag_51\n      swap2\n      swap1\n      tag_37\n      jump\t// in\n    tag_51:\n      tag_52\n      jump\t// in\n    tag_50:\n      mload(0x40)\n      tag_53\n      swap7\n      swap6\n      swap5\n      swap4\n      swap3\n      swap2\n      swap1\n      tag_40\n      jump\t// in\n    tag_53:\n      mload(0x40)\n      dup1\n      swap2\n      sub\n      swap1\n      return\n        /* \"contracts/PaintContract.sol\":979:1029  mapping (address => uint[]) public purchasedPaints */\n    tag_10:\n      callvalue\n      dup1\n      iszero\n      tag_54\n      jumpi\n      0x00\n      dup1\n      revert\n    tag_54:\n      pop\n      tag_55\n      0x04\n      dup1\n      calldatasize\n      sub\n      dup2\n      add\n      swap1\n      tag_56\n      swap2\n      swap1\n      tag_57\n      jump\t// in\n    tag_56:\n      tag_58\n      jump\t// in\n    tag_55:\n      mload(0x40)\n      tag_59\n      swap2\n      swap1\n      tag_16\n      jump\t// in\n    tag_59:\n      mload(0x40)\n      dup1\n      swap2\n      sub\n      swap1\n      return\n        /* \"contracts/PaintContract.sol\":754:779  uint public counterPaints */\n    tag_14:\n      sload(0x00)\n      dup2\n      jump\t// out\n        /* \"contracts/PaintContract.sol\":3304:3695  function getPurchasedPaints(address buyer) public view returns (Paint[] memory){... */\n    tag_21:\n        /* \"contracts/PaintContract.sol\":3368:3382  Paint[] memory */\n      0x60\n        /* \"contracts/PaintContract.sol\":3393:3419  uint[] memory purchasedIds */\n      0x00\n        /* \"contracts/PaintContract.sol\":3422:3437  purchasedPaints */\n      0x02\n        /* \"contracts/PaintContract.sol\":3422:3444  purchasedPaints[buyer] */\n      0x00\n        /* \"contracts/PaintContract.sol\":3438:3443  buyer */\n      dup5\n        /* \"contracts/PaintContract.sol\":3422:3444  purchasedPaints[buyer] */\n      0xffffffffffffffffffffffffffffffffffffffff\n      and\n      0xffffffffffffffffffffffffffffffffffffffff\n      and\n      dup2\n      mstore\n      0x20\n      add\n      swap1\n      dup2\n      mstore\n      0x20\n      add\n      0x00\n      keccak256\n        /* \"contracts/PaintContract.sol\":3393:3444  uint[] memory purchasedIds = purchasedPaints[buyer] */\n      dup1\n      sload\n      dup1\n      0x20\n      mul\n      0x20\n      add\n      mload(0x40)\n      swap1\n      dup2\n      add\n      0x40\n      mstore\n      dup1\n      swap3\n      swap2\n      swap1\n      dup2\n      dup2\n      mstore\n      0x20\n      add\n      dup3\n      dup1\n      sload\n      dup1\n      iszero\n      tag_61\n      jumpi\n      0x20\n      mul\n      dup3\n      add\n      swap2\n      swap1\n      0x00\n      mstore\n      keccak256(0x00, 0x20)\n      swap1\n    tag_62:\n      dup2\n      sload\n      dup2\n      mstore\n      0x20\n      add\n      swap1\n      0x01\n      add\n      swap1\n      dup1\n      dup4\n      gt\n      tag_62\n      jumpi\n    tag_61:\n      pop\n      pop\n      pop\n      pop\n      pop\n      swap1\n      pop\n        /* \"contracts/PaintContract.sol\":3454:3489  Paint[] memory purchasedPaintsArray */\n      0x00\n        /* \"contracts/PaintContract.sol\":3504:3516  purchasedIds */\n      dup2\n        /* \"contracts/PaintContract.sol\":3504:3523  purchasedIds.length */\n      mload\n        /* \"contracts/PaintContract.sol\":3492:3524  new Paint[](purchasedIds.length) */\n      0xffffffffffffffff\n      dup2\n      gt\n      iszero\n      tag_63\n      jumpi\n      tag_64\n      tag_65\n      jump\t// in\n    tag_64:\n    tag_63:\n      mload(0x40)\n      swap1\n      dup1\n      dup3\n      mstore\n      dup1\n      0x20\n      mul\n      0x20\n      add\n      dup3\n      add\n      0x40\n      mstore\n      dup1\n      iszero\n      tag_66\n      jumpi\n      dup2\n      0x20\n      add\n    tag_67:\n      tag_68\n      tag_69\n      jump\t// in\n    tag_68:\n      dup2\n      mstore\n      0x20\n      add\n      swap1\n      0x01\n      swap1\n      sub\n      swap1\n      dup2\n      tag_67\n      jumpi\n      swap1\n      pop\n    tag_66:\n      pop\n        /* \"contracts/PaintContract.sol\":3454:3524  Paint[] memory purchasedPaintsArray = new Paint[](purchasedIds.length) */\n      swap1\n      pop\n        /* \"contracts/PaintContract.sol\":3539:3545  uint i */\n      0x00\n        /* \"contracts/PaintContract.sol\":3535:3652  for(uint i= 0; i< purchasedIds.length; i++){... */\n    tag_70:\n        /* \"contracts/PaintContract.sol\":3553:3565  purchasedIds */\n      dup3\n        /* \"contracts/PaintContract.sol\":3553:3572  purchasedIds.length */\n      mload\n        /* \"contracts/PaintContract.sol\":3550:3551  i */\n      dup2\n        /* \"contracts/PaintContract.sol\":3550:3572  i< purchasedIds.length */\n      lt\n        /* \"contracts/PaintContract.sol\":3535:3652  for(uint i= 0; i< purchasedIds.length; i++){... */\n      iszero\n      tag_71\n      jumpi\n        /* \"contracts/PaintContract.sol\":3618:3624  paints */\n      0x01\n        /* \"contracts/PaintContract.sol\":3618:3641  paints[purchasedIds[i]] */\n      0x00\n        /* \"contracts/PaintContract.sol\":3625:3637  purchasedIds */\n      dup5\n        /* \"contracts/PaintContract.sol\":3638:3639  i */\n      dup4\n        /* \"contracts/PaintContract.sol\":3625:3640  purchasedIds[i] */\n      dup2\n      mload\n      dup2\n      lt\n      tag_73\n      jumpi\n      tag_74\n      tag_75\n      jump\t// in\n    tag_74:\n    tag_73:\n      0x20\n      mul\n      0x20\n      add\n      add\n      mload\n        /* \"contracts/PaintContract.sol\":3618:3641  paints[purchasedIds[i]] */\n      dup2\n      mstore\n      0x20\n      add\n      swap1\n      dup2\n      mstore\n      0x20\n      add\n      0x00\n      keccak256\n        /* \"contracts/PaintContract.sol\":3592:3641  purchasedPaintsArray[i] = paints[purchasedIds[i]] */\n      mload(0x40)\n      dup1\n      0xc0\n      add\n      0x40\n      mstore\n      swap1\n      dup2\n      0x00\n      dup3\n      add\n      sload\n      dup2\n      mstore\n      0x20\n      add\n      0x01\n      dup3\n      add\n      dup1\n      sload\n      tag_76\n      swap1\n      tag_77\n      jump\t// in\n    tag_76:\n      dup1\n      0x1f\n      add\n      0x20\n      dup1\n      swap2\n      div\n      mul\n      0x20\n      add\n      mload(0x40)\n      swap1\n      dup2\n      add\n      0x40\n      mstore\n      dup1\n      swap3\n      swap2\n      swap1\n      dup2\n      dup2\n      mstore\n      0x20\n      add\n      dup3\n      dup1\n      sload\n      tag_78\n      swap1\n      tag_77\n      jump\t// in\n    tag_78:\n      dup1\n      iszero\n      tag_79\n      jumpi\n      dup1\n      0x1f\n      lt\n      tag_80\n      jumpi\n      0x0100\n      dup1\n      dup4\n      sload\n      div\n      mul\n      dup4\n      mstore\n      swap2\n      0x20\n      add\n      swap2\n      jump(tag_79)\n    tag_80:\n      dup3\n      add\n      swap2\n      swap1\n      0x00\n      mstore\n      keccak256(0x00, 0x20)\n      swap1\n    tag_81:\n      dup2\n      sload\n      dup2\n      mstore\n      swap1\n      0x01\n      add\n      swap1\n      0x20\n      add\n      dup1\n      dup4\n      gt\n      tag_81\n      jumpi\n      dup3\n      swap1\n      sub\n      0x1f\n      and\n      dup3\n      add\n      swap2\n    tag_79:\n      pop\n      pop\n      pop\n      pop\n      pop\n      dup2\n      mstore\n      0x20\n      add\n      0x02\n      dup3\n      add\n      dup1\n      sload\n      tag_82\n      swap1\n      tag_77\n      jump\t// in\n    tag_82:\n      dup1\n      0x1f\n      add\n      0x20\n      dup1\n      swap2\n      div\n      mul\n      0x20\n      add\n      mload(0x40)\n      swap1\n      dup2\n      add\n      0x40\n      mstore\n      dup1\n      swap3\n      swap2\n      swap1\n      dup2\n      dup2\n      mstore\n      0x20\n      add\n      dup3\n      dup1\n      sload\n      tag_83\n      swap1\n      tag_77\n      jump\t// in\n    tag_83:\n      dup1\n      iszero\n      tag_84\n      jumpi\n      dup1\n      0x1f\n      lt\n      tag_85\n      jumpi\n      0x0100\n      dup1\n      dup4\n      sload\n      div\n      mul\n      dup4\n      mstore\n      swap2\n      0x20\n      add\n      swap2\n      jump(tag_84)\n    tag_85:\n      dup3\n      add\n      swap2\n      swap1\n      0x00\n      mstore\n      keccak256(0x00, 0x20)\n      swap1\n    tag_86:\n      dup2\n      sload\n      dup2\n      mstore\n      swap1\n      0x01\n      add\n      swap1\n      0x20\n      add\n      dup1\n      dup4\n      gt\n      tag_86\n      jumpi\n      dup3\n      swap1\n      sub\n      0x1f\n      and\n      dup3\n      add\n      swap2\n    tag_84:\n      pop\n      pop\n      pop\n      pop\n      pop\n      dup2\n      mstore\n      0x20\n      add\n      0x03\n      dup3\n      add\n      dup1\n      sload\n      tag_87\n      swap1\n      tag_77\n      jump\t// in\n    tag_87:\n      dup1\n      0x1f\n      add\n      0x20\n      dup1\n      swap2\n      div\n      mul\n      0x20\n      add\n      mload(0x40)\n      swap1\n      dup2\n      add\n      0x40\n      mstore\n      dup1\n      swap3\n      swap2\n      swap1\n      dup2\n      dup2\n      mstore\n      0x20\n      add\n      dup3\n      dup1\n      sload\n      tag_88\n      swap1\n      tag_77\n      jump\t// in\n    tag_88:\n      dup1\n      iszero\n      tag_89\n      jumpi\n      dup1\n      0x1f\n      lt\n      tag_90\n      jumpi\n      0x0100\n      dup1\n      dup4\n      sload\n      div\n      mul\n      dup4\n      mstore\n      swap2\n      0x20\n      add\n      swap2\n      jump(tag_89)\n    tag_90:\n      dup3\n      add\n      swap2\n      swap1\n      0x00\n      mstore\n      keccak256(0x00, 0x20)\n      swap1\n    tag_91:\n      dup2\n      sload\n      dup2\n      mstore\n      swap1\n      0x01\n      add\n      swap1\n      0x20\n      add\n      dup1\n      dup4\n      gt\n      tag_91\n      jumpi\n      dup3\n      swap1\n      sub\n      0x1f\n      and\n      dup3\n      add\n      swap2\n    tag_89:\n      pop\n      pop\n      pop\n      pop\n      pop\n      dup2\n      mstore\n      0x20\n      add\n      0x04\n      dup3\n      add\n      dup1\n      sload\n      tag_92\n      swap1\n      tag_77\n      jump\t// in\n    tag_92:\n      dup1\n      0x1f\n      add\n      0x20\n      dup1\n      swap2\n      div\n      mul\n      0x20\n      add\n      mload(0x40)\n      swap1\n      dup2\n      add\n      0x40\n      mstore\n      dup1\n      swap3\n      swap2\n      swap1\n      dup2\n      dup2\n      mstore\n      0x20\n      add\n      dup3\n      dup1\n      sload\n      tag_93\n      swap1\n      tag_77\n      jump\t// in\n    tag_93:\n      dup1\n      iszero\n      tag_94\n      jumpi\n      dup1\n      0x1f\n      lt\n      tag_95\n      jumpi\n      0x0100\n      dup1\n      dup4\n      sload\n      div\n      mul\n      dup4\n      mstore\n      swap2\n      0x20\n      add\n      swap2\n      jump(tag_94)\n    tag_95:\n      dup3\n      add\n      swap2\n      swap1\n      0x00\n      mstore\n      keccak256(0x00, 0x20)\n      swap1\n    tag_96:\n      dup2\n      sload\n      dup2\n      mstore\n      swap1\n      0x01\n      add\n      swap1\n      0x20\n      add\n      dup1\n      dup4\n      gt\n      tag_96\n      jumpi\n      dup3\n      swap1\n      sub\n      0x1f\n      and\n      dup3\n      add\n      swap2\n    tag_94:\n      pop\n      pop\n      pop\n      pop\n      pop\n      dup2\n      mstore\n      0x20\n      add\n      0x05\n      dup3\n      add\n      0x00\n      swap1\n      sload\n      swap1\n      0x0100\n      exp\n      swap1\n      div\n      0xff\n      and\n      iszero\n      iszero\n      iszero\n      iszero\n      dup2\n      mstore\n      pop\n      pop\n        /* \"contracts/PaintContract.sol\":3592:3612  purchasedPaintsArray */\n      dup3\n        /* \"contracts/PaintContract.sol\":3613:3614  i */\n      dup3\n        /* \"contracts/PaintContract.sol\":3592:3615  purchasedPaintsArray[i] */\n      dup2\n      mload\n      dup2\n      lt\n      tag_97\n      jumpi\n      tag_98\n      tag_75\n      jump\t// in\n    tag_98:\n    tag_97:\n      0x20\n      mul\n      0x20\n      add\n      add\n        /* \"contracts/PaintContract.sol\":3592:3641  purchasedPaintsArray[i] = paints[purchasedIds[i]] */\n      dup2\n      swap1\n      mstore\n      pop\n        /* \"contracts/PaintContract.sol\":3574:3577  i++ */\n      dup1\n      dup1\n      0x01\n      add\n      swap2\n      pop\n      pop\n        /* \"contracts/PaintContract.sol\":3535:3652  for(uint i= 0; i< purchasedIds.length; i++){... */\n      jump(tag_70)\n    tag_71:\n      pop\n        /* \"contracts/PaintContract.sol\":3668:3688  purchasedPaintsArray */\n      dup1\n        /* \"contracts/PaintContract.sol\":3661:3688  return purchasedPaintsArray */\n      swap3\n      pop\n      pop\n      pop\n        /* \"contracts/PaintContract.sol\":3304:3695  function getPurchasedPaints(address buyer) public view returns (Paint[] memory){... */\n      swap2\n      swap1\n      pop\n      jump\t// out\n        /* \"contracts/PaintContract.sol\":3121:3298  function getPurchasedPaintIds(address buyer) public view returns (uint[] memory){... */\n    tag_27:\n        /* \"contracts/PaintContract.sol\":3187:3200  uint[] memory */\n      0x60\n        /* \"contracts/PaintContract.sol\":3211:3237  uint[] memory purchasedIds */\n      0x00\n        /* \"contracts/PaintContract.sol\":3240:3255  purchasedPaints */\n      0x02\n        /* \"contracts/PaintContract.sol\":3240:3262  purchasedPaints[buyer] */\n      0x00\n        /* \"contracts/PaintContract.sol\":3256:3261  buyer */\n      dup5\n        /* \"contracts/PaintContract.sol\":3240:3262  purchasedPaints[buyer] */\n      0xffffffffffffffffffffffffffffffffffffffff\n      and\n      0xffffffffffffffffffffffffffffffffffffffff\n      and\n      dup2\n      mstore\n      0x20\n      add\n      swap1\n      dup2\n      mstore\n      0x20\n      add\n      0x00\n      keccak256\n        /* \"contracts/PaintContract.sol\":3211:3262  uint[] memory purchasedIds = purchasedPaints[buyer] */\n      dup1\n      sload\n      dup1\n      0x20\n      mul\n      0x20\n      add\n      mload(0x40)\n      swap1\n      dup2\n      add\n      0x40\n      mstore\n      dup1\n      swap3\n      swap2\n      swap1\n      dup2\n      dup2\n      mstore\n      0x20\n      add\n      dup3\n      dup1\n      sload\n      dup1\n      iszero\n      tag_100\n      jumpi\n      0x20\n      mul\n      dup3\n      add\n      swap2\n      swap1\n      0x00\n      mstore\n      keccak256(0x00, 0x20)\n      swap1\n    tag_101:\n      dup2\n      sload\n      dup2\n      mstore\n      0x20\n      add\n      swap1\n      0x01\n      add\n      swap1\n      dup1\n      dup4\n      gt\n      tag_101\n      jumpi\n    tag_100:\n      pop\n      pop\n      pop\n      pop\n      pop\n      swap1\n      pop\n        /* \"contracts/PaintContract.sol\":3279:3291  purchasedIds */\n      dup1\n        /* \"contracts/PaintContract.sol\":3272:3291  return purchasedIds */\n      swap2\n      pop\n      pop\n        /* \"contracts/PaintContract.sol\":3121:3298  function getPurchasedPaintIds(address buyer) public view returns (uint[] memory){... */\n      swap2\n      swap1\n      pop\n      jump\t// out\n        /* \"contracts/PaintContract.sol\":2872:3115  function getAllPaintd() public view returns (Paint[] memory){... */\n    tag_32:\n        /* \"contracts/PaintContract.sol\":2917:2931  Paint[] memory */\n      0x60\n        /* \"contracts/PaintContract.sol\":2942:2963  Paint[] memory result */\n      0x00\n        /* \"contracts/PaintContract.sol\":2978:2991  counterPaints */\n      dup1\n      sload\n        /* \"contracts/PaintContract.sol\":2966:2992  new Paint[](counterPaints) */\n      0xffffffffffffffff\n      dup2\n      gt\n      iszero\n      tag_103\n      jumpi\n      tag_104\n      tag_65\n      jump\t// in\n    tag_104:\n    tag_103:\n      mload(0x40)\n      swap1\n      dup1\n      dup3\n      mstore\n      dup1\n      0x20\n      mul\n      0x20\n      add\n      dup3\n      add\n      0x40\n      mstore\n      dup1\n      iszero\n      tag_105\n      jumpi\n      dup2\n      0x20\n      add\n    tag_106:\n      tag_107\n      tag_69\n      jump\t// in\n    tag_107:\n      dup2\n      mstore\n      0x20\n      add\n      swap1\n      0x01\n      swap1\n      sub\n      swap1\n      dup2\n      tag_106\n      jumpi\n      swap1\n      pop\n    tag_105:\n      pop\n        /* \"contracts/PaintContract.sol\":2942:2992  Paint[] memory result = new Paint[](counterPaints) */\n      swap1\n      pop\n        /* \"contracts/PaintContract.sol\":3006:3012  uint i */\n      0x00\n        /* \"contracts/PaintContract.sol\":3002:3086  for(uint i = 0; i< counterPaints; i++){... */\n    tag_108:\n        /* \"contracts/PaintContract.sol\":3021:3034  counterPaints */\n      sload(0x00)\n        /* \"contracts/PaintContract.sol\":3018:3019  i */\n      dup2\n        /* \"contracts/PaintContract.sol\":3018:3034  i< counterPaints */\n      lt\n        /* \"contracts/PaintContract.sol\":3002:3086  for(uint i = 0; i< counterPaints; i++){... */\n      iszero\n      tag_109\n      jumpi\n        /* \"contracts/PaintContract.sol\":3066:3072  paints */\n      0x01\n        /* \"contracts/PaintContract.sol\":3066:3075  paints[i] */\n      0x00\n        /* \"contracts/PaintContract.sol\":3073:3074  i */\n      dup3\n        /* \"contracts/PaintContract.sol\":3066:3075  paints[i] */\n      dup2\n      mstore\n      0x20\n      add\n      swap1\n      dup2\n      mstore\n      0x20\n      add\n      0x00\n      keccak256\n        /* \"contracts/PaintContract.sol\":3054:3075  result[i] = paints[i] */\n      mload(0x40)\n      dup1\n      0xc0\n      add\n      0x40\n      mstore\n      swap1\n      dup2\n      0x00\n      dup3\n      add\n      sload\n      dup2\n      mstore\n      0x20\n      add\n      0x01\n      dup3\n      add\n      dup1\n      sload\n      tag_111\n      swap1\n      tag_77\n      jump\t// in\n    tag_111:\n      dup1\n      0x1f\n      add\n      0x20\n      dup1\n      swap2\n      div\n      mul\n      0x20\n      add\n      mload(0x40)\n      swap1\n      dup2\n      add\n      0x40\n      mstore\n      dup1\n      swap3\n      swap2\n      swap1\n      dup2\n      dup2\n      mstore\n      0x20\n      add\n      dup3\n      dup1\n      sload\n      tag_112\n      swap1\n      tag_77\n      jump\t// in\n    tag_112:\n      dup1\n      iszero\n      tag_113\n      jumpi\n      dup1\n      0x1f\n      lt\n      tag_114\n      jumpi\n      0x0100\n      dup1\n      dup4\n      sload\n      div\n      mul\n      dup4\n      mstore\n      swap2\n      0x20\n      add\n      swap2\n      jump(tag_113)\n    tag_114:\n      dup3\n      add\n      swap2\n      swap1\n      0x00\n      mstore\n      keccak256(0x00, 0x20)\n      swap1\n    tag_115:\n      dup2\n      sload\n      dup2\n      mstore\n      swap1\n      0x01\n      add\n      swap1\n      0x20\n      add\n      dup1\n      dup4\n      gt\n      tag_115\n      jumpi\n      dup3\n      swap1\n      sub\n      0x1f\n      and\n      dup3\n      add\n      swap2\n    tag_113:\n      pop\n      pop\n      pop\n      pop\n      pop\n      dup2\n      mstore\n      0x20\n      add\n      0x02\n      dup3\n      add\n      dup1\n      sload\n      tag_116\n      swap1\n      tag_77\n      jump\t// in\n    tag_116:\n      dup1\n      0x1f\n      add\n      0x20\n      dup1\n      swap2\n      div\n      mul\n      0x20\n      add\n      mload(0x40)\n      swap1\n      dup2\n      add\n      0x40\n      mstore\n      dup1\n      swap3\n      swap2\n      swap1\n      dup2\n      dup2\n      mstore\n      0x20\n      add\n      dup3\n      dup1\n      sload\n      tag_117\n      swap1\n      tag_77\n      jump\t// in\n    tag_117:\n      dup1\n      iszero\n      tag_118\n      jumpi\n      dup1\n      0x1f\n      lt\n      tag_119\n      jumpi\n      0x0100\n      dup1\n      dup4\n      sload\n      div\n      mul\n      dup4\n      mstore\n      swap2\n      0x20\n      add\n      swap2\n      jump(tag_118)\n    tag_119:\n      dup3\n      add\n      swap2\n      swap1\n      0x00\n      mstore\n      keccak256(0x00, 0x20)\n      swap1\n    tag_120:\n      dup2\n      sload\n      dup2\n      mstore\n      swap1\n      0x01\n      add\n      swap1\n      0x20\n      add\n      dup1\n      dup4\n      gt\n      tag_120\n      jumpi\n      dup3\n      swap1\n      sub\n      0x1f\n      and\n      dup3\n      add\n      swap2\n    tag_118:\n      pop\n      pop\n      pop\n      pop\n      pop\n      dup2\n      mstore\n      0x20\n      add\n      0x03\n      dup3\n      add\n      dup1\n      sload\n      tag_121\n      swap1\n      tag_77\n      jump\t// in\n    tag_121:\n      dup1\n      0x1f\n      add\n      0x20\n      dup1\n      swap2\n      div\n      mul\n      0x20\n      add\n      mload(0x40)\n      swap1\n      dup2\n      add\n      0x40\n      mstore\n      dup1\n      swap3\n      swap2\n      swap1\n      dup2\n      dup2\n      mstore\n      0x20\n      add\n      dup3\n      dup1\n      sload\n      tag_122\n      swap1\n      tag_77\n      jump\t// in\n    tag_122:\n      dup1\n      iszero\n      tag_123\n      jumpi\n      dup1\n      0x1f\n      lt\n      tag_124\n      jumpi\n      0x0100\n      dup1\n      dup4\n      sload\n      div\n      mul\n      dup4\n      mstore\n      swap2\n      0x20\n      add\n      swap2\n      jump(tag_123)\n    tag_124:\n      dup3\n      add\n      swap2\n      swap1\n      0x00\n      mstore\n      keccak256(0x00, 0x20)\n      swap1\n    tag_125:\n      dup2\n      sload\n      dup2\n      mstore\n      swap1\n      0x01\n      add\n      swap1\n      0x20\n      add\n      dup1\n      dup4\n      gt\n      tag_125\n      jumpi\n      dup3\n      swap1\n      sub\n      0x1f\n      and\n      dup3\n      add\n      swap2\n    tag_123:\n      pop\n      pop\n      pop\n      pop\n      pop\n      dup2\n      mstore\n      0x20\n      add\n      0x04\n      dup3\n      add\n      dup1\n      sload\n      tag_126\n      swap1\n      tag_77\n      jump\t// in\n    tag_126:\n      dup1\n      0x1f\n      add\n      0x20\n      dup1\n      swap2\n      div\n      mul\n      0x20\n      add\n      mload(0x40)\n      swap1\n      dup2\n      add\n      0x40\n      mstore\n      dup1\n      swap3\n      swap2\n      swap1\n      dup2\n      dup2\n      mstore\n      0x20\n      add\n      dup3\n      dup1\n      sload\n      tag_127\n      swap1\n      tag_77\n      jump\t// in\n    tag_127:\n      dup1\n      iszero\n      tag_128\n      jumpi\n      dup1\n      0x1f\n      lt\n      tag_129\n      jumpi\n      0x0100\n      dup1\n      dup4\n      sload\n      div\n      mul\n      dup4\n      mstore\n      swap2\n      0x20\n      add\n      swap2\n      jump(tag_128)\n    tag_129:\n      dup3\n      add\n      swap2\n      swap1\n      0x00\n      mstore\n      keccak256(0x00, 0x20)\n      swap1\n    tag_130:\n      dup2\n      sload\n      dup2\n      mstore\n      swap1\n      0x01\n      add\n      swap1\n      0x20\n      add\n      dup1\n      dup4\n      gt\n      tag_130\n      jumpi\n      dup3\n      swap1\n      sub\n      0x1f\n      and\n      dup3\n      add\n      swap2\n    tag_128:\n      pop\n      pop\n      pop\n      pop\n      pop\n      dup2\n      mstore\n      0x20\n      add\n      0x05\n      dup3\n      add\n      0x00\n      swap1\n      sload\n      swap1\n      0x0100\n      exp\n      swap1\n      div\n      0xff\n      and\n      iszero\n      iszero\n      iszero\n      iszero\n      dup2\n      mstore\n      pop\n      pop\n        /* \"contracts/PaintContract.sol\":3054:3060  result */\n      dup3\n        /* \"contracts/PaintContract.sol\":3061:3062  i */\n      dup3\n        /* \"contracts/PaintContract.sol\":3054:3063  result[i] */\n      dup2\n      mload\n      dup2\n      lt\n      tag_131\n      jumpi\n      tag_132\n      tag_75\n      jump\t// in\n    tag_132:\n    tag_131:\n      0x20\n      mul\n      0x20\n      add\n      add\n        /* \"contracts/PaintContract.sol\":3054:3075  result[i] = paints[i] */\n      dup2\n      swap1\n      mstore\n      pop\n        /* \"contracts/PaintContract.sol\":3036:3039  i++ */\n      dup1\n      dup1\n      0x01\n      add\n      swap2\n      pop\n      pop\n        /* \"contracts/PaintContract.sol\":3002:3086  for(uint i = 0; i< counterPaints; i++){... */\n      jump(tag_108)\n    tag_109:\n      pop\n        /* \"contracts/PaintContract.sol\":3102:3108  result */\n      dup1\n        /* \"contracts/PaintContract.sol\":3095:3108  return result */\n      swap2\n      pop\n      pop\n        /* \"contracts/PaintContract.sol\":2872:3115  function getAllPaintd() public view returns (Paint[] memory){... */\n      swap1\n      jump\t// out\n        /* \"contracts/PaintContract.sol\":936:973  mapping (uint => Paint) public paints */\n    tag_38:\n      mstore(0x20, 0x01)\n      dup1\n      0x00\n      mstore\n      keccak256(0x00, 0x40)\n      0x00\n      swap2\n      pop\n      swap1\n      pop\n      dup1\n      0x00\n      add\n      sload\n      swap1\n      dup1\n      0x01\n      add\n      dup1\n      sload\n      tag_133\n      swap1\n      tag_77\n      jump\t// in\n    tag_133:\n      dup1\n      0x1f\n      add\n      0x20\n      dup1\n      swap2\n      div\n      mul\n      0x20\n      add\n      mload(0x40)\n      swap1\n      dup2\n      add\n      0x40\n      mstore\n      dup1\n      swap3\n      swap2\n      swap1\n      dup2\n      dup2\n      mstore\n      0x20\n      add\n      dup3\n      dup1\n      sload\n      tag_134\n      swap1\n      tag_77\n      jump\t// in\n    tag_134:\n      dup1\n      iszero\n      tag_135\n      jumpi\n      dup1\n      0x1f\n      lt\n      tag_136\n      jumpi\n      0x0100\n      dup1\n      dup4\n      sload\n      div\n      mul\n      dup4\n      mstore\n      swap2\n      0x20\n      add\n      swap2\n      jump(tag_135)\n    tag_136:\n      dup3\n      add\n      swap2\n      swap1\n      0x00\n      mstore\n      keccak256(0x00, 0x20)\n      swap1\n    tag_137:\n      dup2\n      sload\n      dup2\n      mstore\n      swap1\n      0x01\n      add\n      swap1\n      0x20\n      add\n      dup1\n      dup4\n      gt\n      tag_137\n      jumpi\n      dup3\n      swap1\n      sub\n      0x1f\n      and\n      dup3\n      add\n      swap2\n    tag_135:\n      pop\n      pop\n      pop\n      pop\n      pop\n      swap1\n      dup1\n      0x02\n      add\n      dup1\n      sload\n      tag_138\n      swap1\n      tag_77\n      jump\t// in\n    tag_138:\n      dup1\n      0x1f\n      add\n      0x20\n      dup1\n      swap2\n      div\n      mul\n      0x20\n      add\n      mload(0x40)\n      swap1\n      dup2\n      add\n      0x40\n      mstore\n      dup1\n      swap3\n      swap2\n      swap1\n      dup2\n      dup2\n      mstore\n      0x20\n      add\n      dup3\n      dup1\n      sload\n      tag_139\n      swap1\n      tag_77\n      jump\t// in\n    tag_139:\n      dup1\n      iszero\n      tag_140\n      jumpi\n      dup1\n      0x1f\n      lt\n      tag_141\n      jumpi\n      0x0100\n      dup1\n      dup4\n      sload\n      div\n      mul\n      dup4\n      mstore\n      swap2\n      0x20\n      add\n      swap2\n      jump(tag_140)\n    tag_141:\n      dup3\n      add\n      swap2\n      swap1\n      0x00\n      mstore\n      keccak256(0x00, 0x20)\n      swap1\n    tag_142:\n      dup2\n      sload\n      dup2\n      mstore\n      swap1\n      0x01\n      add\n      swap1\n      0x20\n      add\n      dup1\n      dup4\n      gt\n      tag_142\n      jumpi\n      dup3\n      swap1\n      sub\n      0x1f\n      and\n      dup3\n      add\n      swap2\n    tag_140:\n      pop\n      pop\n      pop\n      pop\n      pop\n      swap1\n      dup1\n      0x03\n      add\n      dup1\n      sload\n      tag_143\n      swap1\n      tag_77\n      jump\t// in\n    tag_143:\n      dup1\n      0x1f\n      add\n      0x20\n      dup1\n      swap2\n      div\n      mul\n      0x20\n      add\n      mload(0x40)\n      swap1\n      dup2\n      add\n      0x40\n      mstore\n      dup1\n      swap3\n      swap2\n      swap1\n      dup2\n      dup2\n      mstore\n      0x20\n      add\n      dup3\n      dup1\n      sload\n      tag_144\n      swap1\n      tag_77\n      jump\t// in\n    tag_144:\n      dup1\n      iszero\n      tag_145\n      jumpi\n      dup1\n      0x1f\n      lt\n      tag_146\n      jumpi\n      0x0100\n      dup1\n      dup4\n      sload\n      div\n      mul\n      dup4\n      mstore\n      swap2\n      0x20\n      add\n      swap2\n      jump(tag_145)\n    tag_146:\n      dup3\n      add\n      swap2\n      swap1\n      0x00\n      mstore\n      keccak256(0x00, 0x20)\n      swap1\n    tag_147:\n      dup2\n      sload\n      dup2\n      mstore\n      swap1\n      0x01\n      add\n      swap1\n      0x20\n      add\n      dup1\n      dup4\n      gt\n      tag_147\n      jumpi\n      dup3\n      swap1\n      sub\n      0x1f\n      and\n      dup3\n      add\n      swap2\n    tag_145:\n      pop\n      pop\n      pop\n      pop\n      pop\n      swap1\n      dup1\n      0x04\n      add\n      dup1\n      sload\n      tag_148\n      swap1\n      tag_77\n      jump\t// in\n    tag_148:\n      dup1\n      0x1f\n      add\n      0x20\n      dup1\n      swap2\n      div\n      mul\n      0x20\n      add\n      mload(0x40)\n      swap1\n      dup2\n      add\n      0x40\n      mstore\n      dup1\n      swap3\n      swap2\n      swap1\n      dup2\n      dup2\n      mstore\n      0x20\n      add\n      dup3\n      dup1\n      sload\n      tag_149\n      swap1\n      tag_77\n      jump\t// in\n    tag_149:\n      dup1\n      iszero\n      tag_150\n      jumpi\n      dup1\n      0x1f\n      lt\n      tag_151\n      jumpi\n      0x0100\n      dup1\n      dup4\n      sload\n      div\n      mul\n      dup4\n      mstore\n      swap2\n      0x20\n      add\n      swap2\n      jump(tag_150)\n    tag_151:\n      dup3\n      add\n      swap2\n      swap1\n      0x00\n      mstore\n      keccak256(0x00, 0x20)\n      swap1\n    tag_152:\n      dup2\n      sload\n      dup2\n      mstore\n      swap1\n      0x01\n      add\n      swap1\n      0x20\n      add\n      dup1\n      dup4\n      gt\n      tag_152\n      jumpi\n      dup3\n      swap1\n      sub\n      0x1f\n      and\n      dup3\n      add\n      swap2\n    tag_150:\n      pop\n      pop\n      pop\n      pop\n      pop\n      swap1\n      dup1\n      0x05\n      add\n      0x00\n      swap1\n      sload\n      swap1\n      0x0100\n      exp\n      swap1\n      div\n      0xff\n      and\n      swap1\n      pop\n      dup7\n      jump\t// out\n        /* \"contracts/PaintContract.sol\":2175:2533  function buyPaint(uint paintId) public payable {... */\n    tag_43:\n        /* \"contracts/PaintContract.sol\":2232:2251  Paint storage paint */\n      0x00\n        /* \"contracts/PaintContract.sol\":2254:2260  paints */\n      0x01\n        /* \"contracts/PaintContract.sol\":2254:2269  paints[paintId] */\n      0x00\n        /* \"contracts/PaintContract.sol\":2261:2268  paintId */\n      dup4\n        /* \"contracts/PaintContract.sol\":2254:2269  paints[paintId] */\n      dup2\n      mstore\n      0x20\n      add\n      swap1\n      dup2\n      mstore\n      0x20\n      add\n      0x00\n      keccak256\n        /* \"contracts/PaintContract.sol\":2232:2269  Paint storage paint = paints[paintId] */\n      swap1\n      pop\n        /* \"contracts/PaintContract.sol\":2287:2292  paint */\n      dup1\n        /* \"contracts/PaintContract.sol\":2287:2299  paint.status */\n      0x05\n      add\n      0x00\n      swap1\n      sload\n      swap1\n      0x0100\n      exp\n      swap1\n      div\n      0xff\n      and\n        /* \"contracts/PaintContract.sol\":2279:2332  require(paint.status, \"Il quadro non e' disponibile\") */\n      tag_154\n      jumpi\n      mload(0x40)\n      0x08c379a000000000000000000000000000000000000000000000000000000000\n      dup2\n      mstore\n      0x04\n      add\n      tag_155\n      swap1\n      tag_156\n      jump\t// in\n    tag_155:\n      mload(0x40)\n      dup1\n      swap2\n      sub\n      swap1\n      revert\n    tag_154:\n        /* \"contracts/PaintContract.sol\":2352:2387  purchasedSatus(msg.sender, paintId) */\n      tag_157\n        /* \"contracts/PaintContract.sol\":2367:2377  msg.sender */\n      caller\n        /* \"contracts/PaintContract.sol\":2379:2386  paintId */\n      dup4\n        /* \"contracts/PaintContract.sol\":2352:2366  purchasedSatus */\n      tag_158\n        /* \"contracts/PaintContract.sol\":2352:2387  purchasedSatus(msg.sender, paintId) */\n      jump\t// in\n    tag_157:\n        /* \"contracts/PaintContract.sol\":2351:2387  !purchasedSatus(msg.sender, paintId) */\n      iszero\n        /* \"contracts/PaintContract.sol\":2343:2423  require(!purchasedSatus(msg.sender, paintId), \"Hai gia' comprato questo quadro\") */\n      tag_159\n      jumpi\n      mload(0x40)\n      0x08c379a000000000000000000000000000000000000000000000000000000000\n      dup2\n      mstore\n      0x04\n      add\n      tag_160\n      swap1\n      tag_161\n      jump\t// in\n    tag_160:\n      mload(0x40)\n      dup1\n      swap2\n      sub\n      swap1\n      revert\n    tag_159:\n        /* \"contracts/PaintContract.sol\":2434:2449  purchasedPaints */\n      0x02\n        /* \"contracts/PaintContract.sol\":2434:2461  purchasedPaints[msg.sender] */\n      0x00\n        /* \"contracts/PaintContract.sol\":2450:2460  msg.sender */\n      caller\n        /* \"contracts/PaintContract.sol\":2434:2461  purchasedPaints[msg.sender] */\n      0xffffffffffffffffffffffffffffffffffffffff\n      and\n      0xffffffffffffffffffffffffffffffffffffffff\n      and\n      dup2\n      mstore\n      0x20\n      add\n      swap1\n      dup2\n      mstore\n      0x20\n      add\n      0x00\n      keccak256\n        /* \"contracts/PaintContract.sol\":2467:2474  paintId */\n      dup3\n        /* \"contracts/PaintContract.sol\":2434:2475  purchasedPaints[msg.sender].push(paintId) */\n      swap1\n      dup1\n      0x01\n      dup2\n      sload\n      add\n      dup1\n      dup3\n      sstore\n      dup1\n      swap2\n      pop\n      pop\n      0x01\n      swap1\n      sub\n      swap1\n      0x00\n      mstore\n      keccak256(0x00, 0x20)\n      add\n      0x00\n      swap1\n      swap2\n      swap1\n      swap2\n      swap1\n      swap2\n      pop\n      sstore\n        /* \"contracts/PaintContract.sol\":2518:2525  paintId */\n      dup2\n        /* \"contracts/PaintContract.sol\":2506:2516  msg.sender */\n      caller\n        /* \"contracts/PaintContract.sol\":2491:2526  purchasedPaint(msg.sender, paintId) */\n      0xffffffffffffffffffffffffffffffffffffffff\n      and\n      0x1219234621cfbda08eed13673c6e71cbf4b399ec00b0cdc44d8366e22d066700\n      mload(0x40)\n      mload(0x40)\n      dup1\n      swap2\n      sub\n      swap1\n      log3\n        /* \"contracts/PaintContract.sol\":2222:2533  {... */\n      pop\n        /* \"contracts/PaintContract.sol\":2175:2533  function buyPaint(uint paintId) public payable {... */\n      pop\n      jump\t// out\n        /* \"contracts/PaintContract.sol\":1290:1716  function createPaint(... */\n    tag_48:\n        /* \"contracts/PaintContract.sol\":1492:1493  0 */\n      0x00\n        /* \"contracts/PaintContract.sol\":1475:1481  paints */\n      0x01\n        /* \"contracts/PaintContract.sol\":1475:1485  paints[id] */\n      0x00\n        /* \"contracts/PaintContract.sol\":1482:1484  id */\n      dup8\n        /* \"contracts/PaintContract.sol\":1475:1485  paints[id] */\n      dup2\n      mstore\n      0x20\n      add\n      swap1\n      dup2\n      mstore\n      0x20\n      add\n      0x00\n      keccak256\n        /* \"contracts/PaintContract.sol\":1475:1488  paints[id].id */\n      0x00\n      add\n      sload\n        /* \"contracts/PaintContract.sol\":1475:1493  paints[id].id == 0 */\n      eq\n        /* \"contracts/PaintContract.sol\":1467:1536  require(paints[id].id == 0, \"Quadro con lo stesso ID gia' esistente\") */\n      tag_164\n      jumpi\n      mload(0x40)\n      0x08c379a000000000000000000000000000000000000000000000000000000000\n      dup2\n      mstore\n      0x04\n      add\n      tag_165\n      swap1\n      tag_166\n      jump\t// in\n    tag_165:\n      mload(0x40)\n      dup1\n      swap2\n      sub\n      swap1\n      revert\n    tag_164:\n        /* \"contracts/PaintContract.sol\":1560:1684  Paint(... */\n      mload(0x40)\n      dup1\n      0xc0\n      add\n      0x40\n      mstore\n      dup1\n        /* \"contracts/PaintContract.sol\":1579:1581  id */\n      dup7\n        /* \"contracts/PaintContract.sol\":1560:1684  Paint(... */\n      dup2\n      mstore\n      0x20\n      add\n        /* \"contracts/PaintContract.sol\":1595:1600  title */\n      dup6\n        /* \"contracts/PaintContract.sol\":1560:1684  Paint(... */\n      dup2\n      mstore\n      0x20\n      add\n        /* \"contracts/PaintContract.sol\":1614:1617  img */\n      dup5\n        /* \"contracts/PaintContract.sol\":1560:1684  Paint(... */\n      dup2\n      mstore\n      0x20\n      add\n        /* \"contracts/PaintContract.sol\":1631:1637  artist */\n      dup4\n        /* \"contracts/PaintContract.sol\":1560:1684  Paint(... */\n      dup2\n      mstore\n      0x20\n      add\n        /* \"contracts/PaintContract.sol\":1651:1656  price */\n      dup3\n        /* \"contracts/PaintContract.sol\":1560:1684  Paint(... */\n      dup2\n      mstore\n      0x20\n      add\n        /* \"contracts/PaintContract.sol\":1670:1674  true */\n      0x01\n        /* \"contracts/PaintContract.sol\":1560:1684  Paint(... */\n      iszero\n      iszero\n      dup2\n      mstore\n      pop\n        /* \"contracts/PaintContract.sol\":1547:1553  paints */\n      0x01\n        /* \"contracts/PaintContract.sol\":1547:1557  paints[id] */\n      0x00\n        /* \"contracts/PaintContract.sol\":1554:1556  id */\n      dup8\n        /* \"contracts/PaintContract.sol\":1547:1557  paints[id] */\n      dup2\n      mstore\n      0x20\n      add\n      swap1\n      dup2\n      mstore\n      0x20\n      add\n      0x00\n      keccak256\n        /* \"contracts/PaintContract.sol\":1547:1684  paints[id] = Paint(... */\n      0x00\n      dup3\n      add\n      mload\n      dup2\n      0x00\n      add\n      sstore\n      0x20\n      dup3\n      add\n      mload\n      dup2\n      0x01\n      add\n      swap1\n      dup2\n      tag_167\n      swap2\n      swap1\n      tag_168\n      jump\t// in\n    tag_167:\n      pop\n      0x40\n      dup3\n      add\n      mload\n      dup2\n      0x02\n      add\n      swap1\n      dup2\n      tag_169\n      swap2\n      swap1\n      tag_168\n      jump\t// in\n    tag_169:\n      pop\n      0x60\n      dup3\n      add\n      mload\n      dup2\n      0x03\n      add\n      swap1\n      dup2\n      tag_170\n      swap2\n      swap1\n      tag_168\n      jump\t// in\n    tag_170:\n      pop\n      0x80\n      dup3\n      add\n      mload\n      dup2\n      0x04\n      add\n      swap1\n      dup2\n      tag_171\n      swap2\n      swap1\n      tag_168\n      jump\t// in\n    tag_171:\n      pop\n      0xa0\n      dup3\n      add\n      mload\n      dup2\n      0x05\n      add\n      exp(0x0100, 0x00)\n      dup2\n      sload\n      dup2\n      0xff\n      mul\n      not\n      and\n      swap1\n      dup4\n      iszero\n      iszero\n      mul\n      or\n      swap1\n      sstore\n      pop\n      swap1\n      pop\n      pop\n        /* \"contracts/PaintContract.sol\":1694:1707  counterPaints */\n      0x00\n      dup1\n        /* \"contracts/PaintContract.sol\":1694:1709  counterPaints++ */\n      dup2\n      sload\n      dup1\n      swap3\n      swap2\n      swap1\n      tag_172\n      swap1\n      tag_173\n      jump\t// in\n    tag_172:\n      swap2\n      swap1\n      pop\n      sstore\n      pop\n        /* \"contracts/PaintContract.sol\":1290:1716  function createPaint(... */\n      pop\n      pop\n      pop\n      pop\n      pop\n      jump\t// out\n        /* \"contracts/PaintContract.sol\":1722:2169  function getPaintDetails(uint paintId) public view returns (... */\n    tag_52:\n        /* \"contracts/PaintContract.sol\":1791:1798  uint id */\n      0x00\n        /* \"contracts/PaintContract.sol\":1808:1827  string memory title */\n      0x60\n        /* \"contracts/PaintContract.sol\":1837:1854  string memory img */\n      dup1\n        /* \"contracts/PaintContract.sol\":1864:1884  string memory artist */\n      0x60\n        /* \"contracts/PaintContract.sol\":1894:1913  string memory price */\n      dup1\n        /* \"contracts/PaintContract.sol\":1923:1934  bool status */\n      0x00\n        /* \"contracts/PaintContract.sol\":1951:1970  Paint storage paint */\n      dup1\n        /* \"contracts/PaintContract.sol\":1973:1979  paints */\n      0x01\n        /* \"contracts/PaintContract.sol\":1973:1988  paints[paintId] */\n      0x00\n        /* \"contracts/PaintContract.sol\":1980:1987  paintId */\n      dup10\n        /* \"contracts/PaintContract.sol\":1973:1988  paints[paintId] */\n      dup2\n      mstore\n      0x20\n      add\n      swap1\n      dup2\n      mstore\n      0x20\n      add\n      0x00\n      keccak256\n        /* \"contracts/PaintContract.sol\":1951:1988  Paint storage paint = paints[paintId] */\n      swap1\n      pop\n        /* \"contracts/PaintContract.sol\":2019:2024  paint */\n      dup1\n        /* \"contracts/PaintContract.sol\":2019:2027  paint.id */\n      0x00\n      add\n      sload\n        /* \"contracts/PaintContract.sol\":2041:2046  paint */\n      dup2\n        /* \"contracts/PaintContract.sol\":2041:2052  paint.title */\n      0x01\n      add\n        /* \"contracts/PaintContract.sol\":2066:2071  paint */\n      dup3\n        /* \"contracts/PaintContract.sol\":2066:2075  paint.img */\n      0x02\n      add\n        /* \"contracts/PaintContract.sol\":2089:2094  paint */\n      dup4\n        /* \"contracts/PaintContract.sol\":2089:2101  paint.artist */\n      0x03\n      add\n        /* \"contracts/PaintContract.sol\":2115:2120  paint */\n      dup5\n        /* \"contracts/PaintContract.sol\":2115:2126  paint.price */\n      0x04\n      add\n        /* \"contracts/PaintContract.sol\":2140:2145  paint */\n      dup6\n        /* \"contracts/PaintContract.sol\":2140:2152  paint.status */\n      0x05\n      add\n      0x00\n      swap1\n      sload\n      swap1\n      0x0100\n      exp\n      swap1\n      div\n      0xff\n      and\n        /* \"contracts/PaintContract.sol\":1998:2162  return (... */\n      dup5\n      dup1\n      sload\n      tag_175\n      swap1\n      tag_77\n      jump\t// in\n    tag_175:\n      dup1\n      0x1f\n      add\n      0x20\n      dup1\n      swap2\n      div\n      mul\n      0x20\n      add\n      mload(0x40)\n      swap1\n      dup2\n      add\n      0x40\n      mstore\n      dup1\n      swap3\n      swap2\n      swap1\n      dup2\n      dup2\n      mstore\n      0x20\n      add\n      dup3\n      dup1\n      sload\n      tag_176\n      swap1\n      tag_77\n      jump\t// in\n    tag_176:\n      dup1\n      iszero\n      tag_177\n      jumpi\n      dup1\n      0x1f\n      lt\n      tag_178\n      jumpi\n      0x0100\n      dup1\n      dup4\n      sload\n      div\n      mul\n      dup4\n      mstore\n      swap2\n      0x20\n      add\n      swap2\n      jump(tag_177)\n    tag_178:\n      dup3\n      add\n      swap2\n      swap1\n      0x00\n      mstore\n      keccak256(0x00, 0x20)\n      swap1\n    tag_179:\n      dup2\n      sload\n      dup2\n      mstore\n      swap1\n      0x01\n      add\n      swap1\n      0x20\n      add\n      dup1\n      dup4\n      gt\n      tag_179\n      jumpi\n      dup3\n      swap1\n      sub\n      0x1f\n      and\n      dup3\n      add\n      swap2\n    tag_177:\n      pop\n      pop\n      pop\n      pop\n      pop\n      swap5\n      pop\n      dup4\n      dup1\n      sload\n      tag_180\n      swap1\n      tag_77\n      jump\t// in\n    tag_180:\n      dup1\n      0x1f\n      add\n      0x20\n      dup1\n      swap2\n      div\n      mul\n      0x20\n      add\n      mload(0x40)\n      swap1\n      dup2\n      add\n      0x40\n      mstore\n      dup1\n      swap3\n      swap2\n      swap1\n      dup2\n      dup2\n      mstore\n      0x20\n      add\n      dup3\n      dup1\n      sload\n      tag_181\n      swap1\n      tag_77\n      jump\t// in\n    tag_181:\n      dup1\n      iszero\n      tag_182\n      jumpi\n      dup1\n      0x1f\n      lt\n      tag_183\n      jumpi\n      0x0100\n      dup1\n      dup4\n      sload\n      div\n      mul\n      dup4\n      mstore\n      swap2\n      0x20\n      add\n      swap2\n      jump(tag_182)\n    tag_183:\n      dup3\n      add\n      swap2\n      swap1\n      0x00\n      mstore\n      keccak256(0x00, 0x20)\n      swap1\n    tag_184:\n      dup2\n      sload\n      dup2\n      mstore\n      swap1\n      0x01\n      add\n      swap1\n      0x20\n      add\n      dup1\n      dup4\n      gt\n      tag_184\n      jumpi\n      dup3\n      swap1\n      sub\n      0x1f\n      and\n      dup3\n      add\n      swap2\n    tag_182:\n      pop\n      pop\n      pop\n      pop\n      pop\n      swap4\n      pop\n      dup3\n      dup1\n      sload\n      tag_185\n      swap1\n      tag_77\n      jump\t// in\n    tag_185:\n      dup1\n      0x1f\n      add\n      0x20\n      dup1\n      swap2\n      div\n      mul\n      0x20\n      add\n      mload(0x40)\n      swap1\n      dup2\n      add\n      0x40\n      mstore\n      dup1\n      swap3\n      swap2\n      swap1\n      dup2\n      dup2\n      mstore\n      0x20\n      add\n      dup3\n      dup1\n      sload\n      tag_186\n      swap1\n      tag_77\n      jump\t// in\n    tag_186:\n      dup1\n      iszero\n      tag_187\n      jumpi\n      dup1\n      0x1f\n      lt\n      tag_188\n      jumpi\n      0x0100\n      dup1\n      dup4\n      sload\n      div\n      mul\n      dup4\n      mstore\n      swap2\n      0x20\n      add\n      swap2\n      jump(tag_187)\n    tag_188:\n      dup3\n      add\n      swap2\n      swap1\n      0x00\n      mstore\n      keccak256(0x00, 0x20)\n      swap1\n    tag_189:\n      dup2\n      sload\n      dup2\n      mstore\n      swap1\n      0x01\n      add\n      swap1\n      0x20\n      add\n      dup1\n      dup4\n      gt\n      tag_189\n      jumpi\n      dup3\n      swap1\n      sub\n      0x1f\n      and\n      dup3\n      add\n      swap2\n    tag_187:\n      pop\n      pop\n      pop\n      pop\n      pop\n      swap3\n      pop\n      dup2\n      dup1\n      sload\n      tag_190\n      swap1\n      tag_77\n      jump\t// in\n    tag_190:\n      dup1\n      0x1f\n      add\n      0x20\n      dup1\n      swap2\n      div\n      mul\n      0x20\n      add\n      mload(0x40)\n      swap1\n      dup2\n      add\n      0x40\n      mstore\n      dup1\n      swap3\n      swap2\n      swap1\n      dup2\n      dup2\n      mstore\n      0x20\n      add\n      dup3\n      dup1\n      sload\n      tag_191\n      swap1\n      tag_77\n      jump\t// in\n    tag_191:\n      dup1\n      iszero\n      tag_192\n      jumpi\n      dup1\n      0x1f\n      lt\n      tag_193\n      jumpi\n      0x0100\n      dup1\n      dup4\n      sload\n      div\n      mul\n      dup4\n      mstore\n      swap2\n      0x20\n      add\n      swap2\n      jump(tag_192)\n    tag_193:\n      dup3\n      add\n      swap2\n      swap1\n      0x00\n      mstore\n      keccak256(0x00, 0x20)\n      swap1\n    tag_194:\n      dup2\n      sload\n      dup2\n      mstore\n      swap1\n      0x01\n      add\n      swap1\n      0x20\n      add\n      dup1\n      dup4\n      gt\n      tag_194\n      jumpi\n      dup3\n      swap1\n      sub\n      0x1f\n      and\n      dup3\n      add\n      swap2\n    tag_192:\n      pop\n      pop\n      pop\n      pop\n      pop\n      swap2\n      pop\n      swap7\n      pop\n      swap7\n      pop\n      swap7\n      pop\n      swap7\n      pop\n      swap7\n      pop\n      swap7\n      pop\n      pop\n        /* \"contracts/PaintContract.sol\":1722:2169  function getPaintDetails(uint paintId) public view returns (... */\n      swap2\n      swap4\n      swap6\n      pop\n      swap2\n      swap4\n      swap6\n      jump\t// out\n        /* \"contracts/PaintContract.sol\":979:1029  mapping (address => uint[]) public purchasedPaints */\n    tag_58:\n      mstore(0x20, 0x02)\n      dup2\n      0x00\n      mstore\n      keccak256(0x00, 0x40)\n      dup2\n      dup2\n      sload\n      dup2\n      lt\n      tag_195\n      jumpi\n      0x00\n      dup1\n      revert\n    tag_195:\n      swap1\n      0x00\n      mstore\n      keccak256(0x00, 0x20)\n      add\n      0x00\n      swap2\n      pop\n      swap2\n      pop\n      pop\n      sload\n      dup2\n      jump\t// out\n        /* \"contracts/PaintContract.sol\":2539:2866  function purchasedSatus(address buyer, uint paintId) internal view returns (bool) {... */\n    tag_158:\n        /* \"contracts/PaintContract.sol\":2615:2619  bool */\n      0x00\n        /* \"contracts/PaintContract.sol\":2631:2658  uint[] storage purchasedIds */\n      dup1\n        /* \"contracts/PaintContract.sol\":2661:2676  purchasedPaints */\n      0x02\n        /* \"contracts/PaintContract.sol\":2661:2683  purchasedPaints[buyer] */\n      0x00\n        /* \"contracts/PaintContract.sol\":2677:2682  buyer */\n      dup6\n        /* \"contracts/PaintContract.sol\":2661:2683  purchasedPaints[buyer] */\n      0xffffffffffffffffffffffffffffffffffffffff\n      and\n      0xffffffffffffffffffffffffffffffffffffffff\n      and\n      dup2\n      mstore\n      0x20\n      add\n      swap1\n      dup2\n      mstore\n      0x20\n      add\n      0x00\n      keccak256\n        /* \"contracts/PaintContract.sol\":2631:2683  uint[] storage purchasedIds = purchasedPaints[buyer] */\n      swap1\n      pop\n        /* \"contracts/PaintContract.sol\":2698:2704  uint i */\n      0x00\n        /* \"contracts/PaintContract.sol\":2693:2838  for (uint i = 0; i< purchasedIds.length; i++){... */\n    tag_198:\n        /* \"contracts/PaintContract.sol\":2713:2725  purchasedIds */\n      dup2\n        /* \"contracts/PaintContract.sol\":2713:2732  purchasedIds.length */\n      dup1\n      sload\n      swap1\n      pop\n        /* \"contracts/PaintContract.sol\":2710:2711  i */\n      dup2\n        /* \"contracts/PaintContract.sol\":2710:2732  i< purchasedIds.length */\n      lt\n        /* \"contracts/PaintContract.sol\":2693:2838  for (uint i = 0; i< purchasedIds.length; i++){... */\n      iszero\n      tag_199\n      jumpi\n        /* \"contracts/PaintContract.sol\":2775:2782  paintId */\n      dup4\n        /* \"contracts/PaintContract.sol\":2756:2768  purchasedIds */\n      dup3\n        /* \"contracts/PaintContract.sol\":2769:2770  i */\n      dup3\n        /* \"contracts/PaintContract.sol\":2756:2771  purchasedIds[i] */\n      dup2\n      sload\n      dup2\n      lt\n      tag_201\n      jumpi\n      tag_202\n      tag_75\n      jump\t// in\n    tag_202:\n    tag_201:\n      swap1\n      0x00\n      mstore\n      keccak256(0x00, 0x20)\n      add\n      sload\n        /* \"contracts/PaintContract.sol\":2756:2782  purchasedIds[i] == paintId */\n      sub\n        /* \"contracts/PaintContract.sol\":2752:2828  if (purchasedIds[i] == paintId) {... */\n      tag_204\n      jumpi\n        /* \"contracts/PaintContract.sol\":2809:2813  true */\n      0x01\n        /* \"contracts/PaintContract.sol\":2802:2813  return true */\n      swap3\n      pop\n      pop\n      pop\n      jump(tag_197)\n        /* \"contracts/PaintContract.sol\":2752:2828  if (purchasedIds[i] == paintId) {... */\n    tag_204:\n        /* \"contracts/PaintContract.sol\":2734:2737  i++ */\n      dup1\n      dup1\n      0x01\n      add\n      swap2\n      pop\n      pop\n        /* \"contracts/PaintContract.sol\":2693:2838  for (uint i = 0; i< purchasedIds.length; i++){... */\n      jump(tag_198)\n    tag_199:\n      pop\n        /* \"contracts/PaintContract.sol\":2854:2859  false */\n      0x00\n        /* \"contracts/PaintContract.sol\":2847:2859  return false */\n      swap2\n      pop\n      pop\n        /* \"contracts/PaintContract.sol\":2539:2866  function purchasedSatus(address buyer, uint paintId) internal view returns (bool) {... */\n    tag_197:\n      swap3\n      swap2\n      pop\n      pop\n      jump\t// out\n    tag_69:\n      mload(0x40)\n      dup1\n      0xc0\n      add\n      0x40\n      mstore\n      dup1\n      0x00\n      dup2\n      mstore\n      0x20\n      add\n      0x60\n      dup2\n      mstore\n      0x20\n      add\n      0x60\n      dup2\n      mstore\n      0x20\n      add\n      0x60\n      dup2\n      mstore\n      0x20\n      add\n      0x60\n      dup2\n      mstore\n      0x20\n      add\n      iszero(iszero(0x00))\n      dup2\n      mstore\n      pop\n      swap1\n      jump\t// out\n        /* \"#utility.yul\":7:84   */\n    tag_205:\n        /* \"#utility.yul\":44:51   */\n      0x00\n        /* \"#utility.yul\":73:78   */\n      dup2\n        /* \"#utility.yul\":62:78   */\n      swap1\n      pop\n        /* \"#utility.yul\":7:84   */\n      swap2\n      swap1\n      pop\n      jump\t// out\n        /* \"#utility.yul\":90:208   */\n    tag_206:\n        /* \"#utility.yul\":177:201   */\n      tag_274\n        /* \"#utility.yul\":195:200   */\n      dup2\n        /* \"#utility.yul\":177:201   */\n      tag_205\n      jump\t// in\n    tag_274:\n        /* \"#utility.yul\":172:175   */\n      dup3\n        /* \"#utility.yul\":165:202   */\n      mstore\n        /* \"#utility.yul\":90:208   */\n      pop\n      pop\n      jump\t// out\n        /* \"#utility.yul\":214:436   */\n    tag_16:\n        /* \"#utility.yul\":307:311   */\n      0x00\n        /* \"#utility.yul\":345:347   */\n      0x20\n        /* \"#utility.yul\":334:343   */\n      dup3\n        /* \"#utility.yul\":330:348   */\n      add\n        /* \"#utility.yul\":322:348   */\n      swap1\n      pop\n        /* \"#utility.yul\":358:429   */\n      tag_276\n        /* \"#utility.yul\":426:427   */\n      0x00\n        /* \"#utility.yul\":415:424   */\n      dup4\n        /* \"#utility.yul\":411:428   */\n      add\n        /* \"#utility.yul\":402:408   */\n      dup5\n        /* \"#utility.yul\":358:429   */\n      tag_206\n      jump\t// in\n    tag_276:\n        /* \"#utility.yul\":214:436   */\n      swap3\n      swap2\n      pop\n      pop\n      jump\t// out\n        /* \"#utility.yul\":442:517   */\n    tag_207:\n        /* \"#utility.yul\":475:481   */\n      0x00\n        /* \"#utility.yul\":508:510   */\n      0x40\n        /* \"#utility.yul\":502:511   */\n      mload\n        /* \"#utility.yul\":492:511   */\n      swap1\n      pop\n        /* \"#utility.yul\":442:517   */\n      swap1\n      jump\t// out\n        /* \"#utility.yul\":523:640   */\n    tag_208:\n        /* \"#utility.yul\":632:633   */\n      0x00\n        /* \"#utility.yul\":629:630   */\n      dup1\n        /* \"#utility.yul\":622:634   */\n      revert\n        /* \"#utility.yul\":646:763   */\n    tag_209:\n        /* \"#utility.yul\":755:756   */\n      0x00\n        /* \"#utility.yul\":752:753   */\n      dup1\n        /* \"#utility.yul\":745:757   */\n      revert\n        /* \"#utility.yul\":769:895   */\n    tag_210:\n        /* \"#utility.yul\":806:813   */\n      0x00\n        /* \"#utility.yul\":846:888   */\n      0xffffffffffffffffffffffffffffffffffffffff\n        /* \"#utility.yul\":839:844   */\n      dup3\n        /* \"#utility.yul\":835:889   */\n      and\n        /* \"#utility.yul\":824:889   */\n      swap1\n      pop\n        /* \"#utility.yul\":769:895   */\n      swap2\n      swap1\n      pop\n      jump\t// out\n        /* \"#utility.yul\":901:997   */\n    tag_211:\n        /* \"#utility.yul\":938:945   */\n      0x00\n        /* \"#utility.yul\":967:991   */\n      tag_282\n        /* \"#utility.yul\":985:990   */\n      dup3\n        /* \"#utility.yul\":967:991   */\n      tag_210\n      jump\t// in\n    tag_282:\n        /* \"#utility.yul\":956:991   */\n      swap1\n      pop\n        /* \"#utility.yul\":901:997   */\n      swap2\n      swap1\n      pop\n      jump\t// out\n        /* \"#utility.yul\":1003:1125   */\n    tag_212:\n        /* \"#utility.yul\":1076:1100   */\n      tag_284\n        /* \"#utility.yul\":1094:1099   */\n      dup2\n        /* \"#utility.yul\":1076:1100   */\n      tag_211\n      jump\t// in\n    tag_284:\n        /* \"#utility.yul\":1069:1074   */\n      dup2\n        /* \"#utility.yul\":1066:1101   */\n      eq\n        /* \"#utility.yul\":1056:1119   */\n      tag_285\n      jumpi\n        /* \"#utility.yul\":1115:1116   */\n      0x00\n        /* \"#utility.yul\":1112:1113   */\n      dup1\n        /* \"#utility.yul\":1105:1117   */\n      revert\n        /* \"#utility.yul\":1056:1119   */\n    tag_285:\n        /* \"#utility.yul\":1003:1125   */\n      pop\n      jump\t// out\n        /* \"#utility.yul\":1131:1270   */\n    tag_213:\n        /* \"#utility.yul\":1177:1182   */\n      0x00\n        /* \"#utility.yul\":1215:1221   */\n      dup2\n        /* \"#utility.yul\":1202:1222   */\n      calldataload\n        /* \"#utility.yul\":1193:1222   */\n      swap1\n      pop\n        /* \"#utility.yul\":1231:1264   */\n      tag_287\n        /* \"#utility.yul\":1258:1263   */\n      dup2\n        /* \"#utility.yul\":1231:1264   */\n      tag_212\n      jump\t// in\n    tag_287:\n        /* \"#utility.yul\":1131:1270   */\n      swap3\n      swap2\n      pop\n      pop\n      jump\t// out\n        /* \"#utility.yul\":1276:1605   */\n    tag_20:\n        /* \"#utility.yul\":1335:1341   */\n      0x00\n        /* \"#utility.yul\":1384:1386   */\n      0x20\n        /* \"#utility.yul\":1372:1381   */\n      dup3\n        /* \"#utility.yul\":1363:1370   */\n      dup5\n        /* \"#utility.yul\":1359:1382   */\n      sub\n        /* \"#utility.yul\":1355:1387   */\n      slt\n        /* \"#utility.yul\":1352:1471   */\n      iszero\n      tag_289\n      jumpi\n        /* \"#utility.yul\":1390:1469   */\n      tag_290\n      tag_208\n      jump\t// in\n    tag_290:\n        /* \"#utility.yul\":1352:1471   */\n    tag_289:\n        /* \"#utility.yul\":1510:1511   */\n      0x00\n        /* \"#utility.yul\":1535:1588   */\n      tag_291\n        /* \"#utility.yul\":1580:1587   */\n      dup5\n        /* \"#utility.yul\":1571:1577   */\n      dup3\n        /* \"#utility.yul\":1560:1569   */\n      dup6\n        /* \"#utility.yul\":1556:1578   */\n      add\n        /* \"#utility.yul\":1535:1588   */\n      tag_213\n      jump\t// in\n    tag_291:\n        /* \"#utility.yul\":1525:1588   */\n      swap2\n      pop\n        /* \"#utility.yul\":1481:1598   */\n      pop\n        /* \"#utility.yul\":1276:1605   */\n      swap3\n      swap2\n      pop\n      pop\n      jump\t// out\n        /* \"#utility.yul\":1611:1746   */\n    tag_214:\n        /* \"#utility.yul\":1699:1705   */\n      0x00\n        /* \"#utility.yul\":1733:1738   */\n      dup2\n        /* \"#utility.yul\":1727:1739   */\n      mload\n        /* \"#utility.yul\":1717:1739   */\n      swap1\n      pop\n        /* \"#utility.yul\":1611:1746   */\n      swap2\n      swap1\n      pop\n      jump\t// out\n        /* \"#utility.yul\":1752:1957   */\n    tag_215:\n        /* \"#utility.yul\":1872:1883   */\n      0x00\n        /* \"#utility.yul\":1906:1912   */\n      dup3\n        /* \"#utility.yul\":1901:1904   */\n      dup3\n        /* \"#utility.yul\":1894:1913   */\n      mstore\n        /* \"#utility.yul\":1946:1950   */\n      0x20\n        /* \"#utility.yul\":1941:1944   */\n      dup3\n        /* \"#utility.yul\":1937:1951   */\n      add\n        /* \"#utility.yul\":1922:1951   */\n      swap1\n      pop\n        /* \"#utility.yul\":1752:1957   */\n      swap3\n      swap2\n      pop\n      pop\n      jump\t// out\n        /* \"#utility.yul\":1963:2116   */\n    tag_216:\n        /* \"#utility.yul\":2051:2055   */\n      0x00\n        /* \"#utility.yul\":2074:2077   */\n      dup2\n        /* \"#utility.yul\":2066:2077   */\n      swap1\n      pop\n        /* \"#utility.yul\":2104:2108   */\n      0x20\n        /* \"#utility.yul\":2099:2102   */\n      dup3\n        /* \"#utility.yul\":2095:2109   */\n      add\n        /* \"#utility.yul\":2087:2109   */\n      swap1\n      pop\n        /* \"#utility.yul\":1963:2116   */\n      swap2\n      swap1\n      pop\n      jump\t// out\n        /* \"#utility.yul\":2122:2230   */\n    tag_217:\n        /* \"#utility.yul\":2199:2223   */\n      tag_296\n        /* \"#utility.yul\":2217:2222   */\n      dup2\n        /* \"#utility.yul\":2199:2223   */\n      tag_205\n      jump\t// in\n    tag_296:\n        /* \"#utility.yul\":2194:2197   */\n      dup3\n        /* \"#utility.yul\":2187:2224   */\n      mstore\n        /* \"#utility.yul\":2122:2230   */\n      pop\n      pop\n      jump\t// out\n        /* \"#utility.yul\":2236:2335   */\n    tag_218:\n        /* \"#utility.yul\":2288:2294   */\n      0x00\n        /* \"#utility.yul\":2322:2327   */\n      dup2\n        /* \"#utility.yul\":2316:2328   */\n      mload\n        /* \"#utility.yul\":2306:2328   */\n      swap1\n      pop\n        /* \"#utility.yul\":2236:2335   */\n      swap2\n      swap1\n      pop\n      jump\t// out\n        /* \"#utility.yul\":2341:2500   */\n    tag_219:\n        /* \"#utility.yul\":2415:2426   */\n      0x00\n        /* \"#utility.yul\":2449:2455   */\n      dup3\n        /* \"#utility.yul\":2444:2447   */\n      dup3\n        /* \"#utility.yul\":2437:2456   */\n      mstore\n        /* \"#utility.yul\":2489:2493   */\n      0x20\n        /* \"#utility.yul\":2484:2487   */\n      dup3\n        /* \"#utility.yul\":2480:2494   */\n      add\n        /* \"#utility.yul\":2465:2494   */\n      swap1\n      pop\n        /* \"#utility.yul\":2341:2500   */\n      swap3\n      swap2\n      pop\n      pop\n      jump\t// out\n        /* \"#utility.yul\":2506:2752   */\n    tag_220:\n        /* \"#utility.yul\":2587:2588   */\n      0x00\n        /* \"#utility.yul\":2597:2710   */\n    tag_300:\n        /* \"#utility.yul\":2611:2617   */\n      dup4\n        /* \"#utility.yul\":2608:2609   */\n      dup2\n        /* \"#utility.yul\":2605:2618   */\n      lt\n        /* \"#utility.yul\":2597:2710   */\n      iszero\n      tag_302\n      jumpi\n        /* \"#utility.yul\":2696:2697   */\n      dup1\n        /* \"#utility.yul\":2691:2694   */\n      dup3\n        /* \"#utility.yul\":2687:2698   */\n      add\n        /* \"#utility.yul\":2681:2699   */\n      mload\n        /* \"#utility.yul\":2677:2678   */\n      dup2\n        /* \"#utility.yul\":2672:2675   */\n      dup5\n        /* \"#utility.yul\":2668:2679   */\n      add\n        /* \"#utility.yul\":2661:2700   */\n      mstore\n        /* \"#utility.yul\":2633:2635   */\n      0x20\n        /* \"#utility.yul\":2630:2631   */\n      dup2\n        /* \"#utility.yul\":2626:2636   */\n      add\n        /* \"#utility.yul\":2621:2636   */\n      swap1\n      pop\n        /* \"#utility.yul\":2597:2710   */\n      jump(tag_300)\n    tag_302:\n        /* \"#utility.yul\":2744:2745   */\n      0x00\n        /* \"#utility.yul\":2735:2741   */\n      dup5\n        /* \"#utility.yul\":2730:2733   */\n      dup5\n        /* \"#utility.yul\":2726:2742   */\n      add\n        /* \"#utility.yul\":2719:2746   */\n      mstore\n        /* \"#utility.yul\":2568:2752   */\n      pop\n        /* \"#utility.yul\":2506:2752   */\n      pop\n      pop\n      pop\n      jump\t// out\n        /* \"#utility.yul\":2758:2860   */\n    tag_221:\n        /* \"#utility.yul\":2799:2805   */\n      0x00\n        /* \"#utility.yul\":2850:2852   */\n      0x1f\n        /* \"#utility.yul\":2846:2853   */\n      not\n        /* \"#utility.yul\":2841:2843   */\n      0x1f\n        /* \"#utility.yul\":2834:2839   */\n      dup4\n        /* \"#utility.yul\":2830:2844   */\n      add\n        /* \"#utility.yul\":2826:2854   */\n      and\n        /* \"#utility.yul\":2816:2854   */\n      swap1\n      pop\n        /* \"#utility.yul\":2758:2860   */\n      swap2\n      swap1\n      pop\n      jump\t// out\n        /* \"#utility.yul\":2866:3223   */\n    tag_222:\n        /* \"#utility.yul\":2944:2947   */\n      0x00\n        /* \"#utility.yul\":2972:3011   */\n      tag_305\n        /* \"#utility.yul\":3005:3010   */\n      dup3\n        /* \"#utility.yul\":2972:3011   */\n      tag_218\n      jump\t// in\n    tag_305:\n        /* \"#utility.yul\":3027:3088   */\n      tag_306\n        /* \"#utility.yul\":3081:3087   */\n      dup2\n        /* \"#utility.yul\":3076:3079   */\n      dup6\n        /* \"#utility.yul\":3027:3088   */\n      tag_219\n      jump\t// in\n    tag_306:\n        /* \"#utility.yul\":3020:3088   */\n      swap4\n      pop\n        /* \"#utility.yul\":3097:3162   */\n      tag_307\n        /* \"#utility.yul\":3155:3161   */\n      dup2\n        /* \"#utility.yul\":3150:3153   */\n      dup6\n        /* \"#utility.yul\":3143:3147   */\n      0x20\n        /* \"#utility.yul\":3136:3141   */\n      dup7\n        /* \"#utility.yul\":3132:3148   */\n      add\n        /* \"#utility.yul\":3097:3162   */\n      tag_220\n      jump\t// in\n    tag_307:\n        /* \"#utility.yul\":3187:3216   */\n      tag_308\n        /* \"#utility.yul\":3209:3215   */\n      dup2\n        /* \"#utility.yul\":3187:3216   */\n      tag_221\n      jump\t// in\n    tag_308:\n        /* \"#utility.yul\":3182:3185   */\n      dup5\n        /* \"#utility.yul\":3178:3217   */\n      add\n        /* \"#utility.yul\":3171:3217   */\n      swap2\n      pop\n        /* \"#utility.yul\":2948:3223   */\n      pop\n        /* \"#utility.yul\":2866:3223   */\n      swap3\n      swap2\n      pop\n      pop\n      jump\t// out\n        /* \"#utility.yul\":3229:3319   */\n    tag_223:\n        /* \"#utility.yul\":3263:3270   */\n      0x00\n        /* \"#utility.yul\":3306:3311   */\n      dup2\n        /* \"#utility.yul\":3299:3312   */\n      iszero\n        /* \"#utility.yul\":3292:3313   */\n      iszero\n        /* \"#utility.yul\":3281:3313   */\n      swap1\n      pop\n        /* \"#utility.yul\":3229:3319   */\n      swap2\n      swap1\n      pop\n      jump\t// out\n        /* \"#utility.yul\":3325:3424   */\n    tag_224:\n        /* \"#utility.yul\":3396:3417   */\n      tag_311\n        /* \"#utility.yul\":3411:3416   */\n      dup2\n        /* \"#utility.yul\":3396:3417   */\n      tag_223\n      jump\t// in\n    tag_311:\n        /* \"#utility.yul\":3391:3394   */\n      dup3\n        /* \"#utility.yul\":3384:3418   */\n      mstore\n        /* \"#utility.yul\":3325:3424   */\n      pop\n      pop\n      jump\t// out\n        /* \"#utility.yul\":3494:4988   */\n    tag_225:\n        /* \"#utility.yul\":3595:3598   */\n      0x00\n        /* \"#utility.yul\":3631:3635   */\n      0xc0\n        /* \"#utility.yul\":3626:3629   */\n      dup4\n        /* \"#utility.yul\":3622:3636   */\n      add\n        /* \"#utility.yul\":3716:3720   */\n      0x00\n        /* \"#utility.yul\":3709:3714   */\n      dup4\n        /* \"#utility.yul\":3705:3721   */\n      add\n        /* \"#utility.yul\":3699:3722   */\n      mload\n        /* \"#utility.yul\":3735:3798   */\n      tag_313\n        /* \"#utility.yul\":3792:3796   */\n      0x00\n        /* \"#utility.yul\":3787:3790   */\n      dup7\n        /* \"#utility.yul\":3783:3797   */\n      add\n        /* \"#utility.yul\":3769:3781   */\n      dup3\n        /* \"#utility.yul\":3735:3798   */\n      tag_217\n      jump\t// in\n    tag_313:\n        /* \"#utility.yul\":3646:3808   */\n      pop\n        /* \"#utility.yul\":3891:3895   */\n      0x20\n        /* \"#utility.yul\":3884:3889   */\n      dup4\n        /* \"#utility.yul\":3880:3896   */\n      add\n        /* \"#utility.yul\":3874:3897   */\n      mload\n        /* \"#utility.yul\":3944:3947   */\n      dup5\n        /* \"#utility.yul\":3938:3942   */\n      dup3\n        /* \"#utility.yul\":3934:3948   */\n      sub\n        /* \"#utility.yul\":3927:3931   */\n      0x20\n        /* \"#utility.yul\":3922:3925   */\n      dup7\n        /* \"#utility.yul\":3918:3932   */\n      add\n        /* \"#utility.yul\":3911:3949   */\n      mstore\n        /* \"#utility.yul\":3970:4043   */\n      tag_314\n        /* \"#utility.yul\":4038:4042   */\n      dup3\n        /* \"#utility.yul\":4024:4036   */\n      dup3\n        /* \"#utility.yul\":3970:4043   */\n      tag_222\n      jump\t// in\n    tag_314:\n        /* \"#utility.yul\":3962:4043   */\n      swap2\n      pop\n        /* \"#utility.yul\":3818:4054   */\n      pop\n        /* \"#utility.yul\":4135:4139   */\n      0x40\n        /* \"#utility.yul\":4128:4133   */\n      dup4\n        /* \"#utility.yul\":4124:4140   */\n      add\n        /* \"#utility.yul\":4118:4141   */\n      mload\n        /* \"#utility.yul\":4188:4191   */\n      dup5\n        /* \"#utility.yul\":4182:4186   */\n      dup3\n        /* \"#utility.yul\":4178:4192   */\n      sub\n        /* \"#utility.yul\":4171:4175   */\n      0x40\n        /* \"#utility.yul\":4166:4169   */\n      dup7\n        /* \"#utility.yul\":4162:4176   */\n      add\n        /* \"#utility.yul\":4155:4193   */\n      mstore\n        /* \"#utility.yul\":4214:4287   */\n      tag_315\n        /* \"#utility.yul\":4282:4286   */\n      dup3\n        /* \"#utility.yul\":4268:4280   */\n      dup3\n        /* \"#utility.yul\":4214:4287   */\n      tag_222\n      jump\t// in\n    tag_315:\n        /* \"#utility.yul\":4206:4287   */\n      swap2\n      pop\n        /* \"#utility.yul\":4064:4298   */\n      pop\n        /* \"#utility.yul\":4382:4386   */\n      0x60\n        /* \"#utility.yul\":4375:4380   */\n      dup4\n        /* \"#utility.yul\":4371:4387   */\n      add\n        /* \"#utility.yul\":4365:4388   */\n      mload\n        /* \"#utility.yul\":4435:4438   */\n      dup5\n        /* \"#utility.yul\":4429:4433   */\n      dup3\n        /* \"#utility.yul\":4425:4439   */\n      sub\n        /* \"#utility.yul\":4418:4422   */\n      0x60\n        /* \"#utility.yul\":4413:4416   */\n      dup7\n        /* \"#utility.yul\":4409:4423   */\n      add\n        /* \"#utility.yul\":4402:4440   */\n      mstore\n        /* \"#utility.yul\":4461:4534   */\n      tag_316\n        /* \"#utility.yul\":4529:4533   */\n      dup3\n        /* \"#utility.yul\":4515:4527   */\n      dup3\n        /* \"#utility.yul\":4461:4534   */\n      tag_222\n      jump\t// in\n    tag_316:\n        /* \"#utility.yul\":4453:4534   */\n      swap2\n      pop\n        /* \"#utility.yul\":4308:4545   */\n      pop\n        /* \"#utility.yul\":4628:4632   */\n      0x80\n        /* \"#utility.yul\":4621:4626   */\n      dup4\n        /* \"#utility.yul\":4617:4633   */\n      add\n        /* \"#utility.yul\":4611:4634   */\n      mload\n        /* \"#utility.yul\":4681:4684   */\n      dup5\n        /* \"#utility.yul\":4675:4679   */\n      dup3\n        /* \"#utility.yul\":4671:4685   */\n      sub\n        /* \"#utility.yul\":4664:4668   */\n      0x80\n        /* \"#utility.yul\":4659:4662   */\n      dup7\n        /* \"#utility.yul\":4655:4669   */\n      add\n        /* \"#utility.yul\":4648:4686   */\n      mstore\n        /* \"#utility.yul\":4707:4780   */\n      tag_317\n        /* \"#utility.yul\":4775:4779   */\n      dup3\n        /* \"#utility.yul\":4761:4773   */\n      dup3\n        /* \"#utility.yul\":4707:4780   */\n      tag_222\n      jump\t// in\n    tag_317:\n        /* \"#utility.yul\":4699:4780   */\n      swap2\n      pop\n        /* \"#utility.yul\":4555:4791   */\n      pop\n        /* \"#utility.yul\":4875:4879   */\n      0xa0\n        /* \"#utility.yul\":4868:4873   */\n      dup4\n        /* \"#utility.yul\":4864:4880   */\n      add\n        /* \"#utility.yul\":4858:4881   */\n      mload\n        /* \"#utility.yul\":4894:4951   */\n      tag_318\n        /* \"#utility.yul\":4945:4949   */\n      0xa0\n        /* \"#utility.yul\":4940:4943   */\n      dup7\n        /* \"#utility.yul\":4936:4950   */\n      add\n        /* \"#utility.yul\":4922:4934   */\n      dup3\n        /* \"#utility.yul\":4894:4951   */\n      tag_224\n      jump\t// in\n    tag_318:\n        /* \"#utility.yul\":4801:4961   */\n      pop\n        /* \"#utility.yul\":4978:4982   */\n      dup1\n        /* \"#utility.yul\":4971:4982   */\n      swap2\n      pop\n        /* \"#utility.yul\":3600:4988   */\n      pop\n        /* \"#utility.yul\":3494:4988   */\n      swap3\n      swap2\n      pop\n      pop\n      jump\t// out\n        /* \"#utility.yul\":4994:5234   */\n    tag_226:\n        /* \"#utility.yul\":5105:5115   */\n      0x00\n        /* \"#utility.yul\":5140:5228   */\n      tag_320\n        /* \"#utility.yul\":5224:5227   */\n      dup4\n        /* \"#utility.yul\":5216:5222   */\n      dup4\n        /* \"#utility.yul\":5140:5228   */\n      tag_225\n      jump\t// in\n    tag_320:\n        /* \"#utility.yul\":5126:5228   */\n      swap1\n      pop\n        /* \"#utility.yul\":4994:5234   */\n      swap3\n      swap2\n      pop\n      pop\n      jump\t// out\n        /* \"#utility.yul\":5240:5374   */\n    tag_227:\n        /* \"#utility.yul\":5331:5335   */\n      0x00\n        /* \"#utility.yul\":5363:5367   */\n      0x20\n        /* \"#utility.yul\":5358:5361   */\n      dup3\n        /* \"#utility.yul\":5354:5368   */\n      add\n        /* \"#utility.yul\":5346:5368   */\n      swap1\n      pop\n        /* \"#utility.yul\":5240:5374   */\n      swap2\n      swap1\n      pop\n      jump\t// out\n        /* \"#utility.yul\":5448:6527   */\n    tag_228:\n        /* \"#utility.yul\":5609:5612   */\n      0x00\n        /* \"#utility.yul\":5638:5713   */\n      tag_323\n        /* \"#utility.yul\":5707:5712   */\n      dup3\n        /* \"#utility.yul\":5638:5713   */\n      tag_214\n      jump\t// in\n    tag_323:\n        /* \"#utility.yul\":5729:5836   */\n      tag_324\n        /* \"#utility.yul\":5829:5835   */\n      dup2\n        /* \"#utility.yul\":5824:5827   */\n      dup6\n        /* \"#utility.yul\":5729:5836   */\n      tag_215\n      jump\t// in\n    tag_324:\n        /* \"#utility.yul\":5722:5836   */\n      swap4\n      pop\n        /* \"#utility.yul\":5862:5865   */\n      dup4\n        /* \"#utility.yul\":5907:5911   */\n      0x20\n        /* \"#utility.yul\":5899:5905   */\n      dup3\n        /* \"#utility.yul\":5895:5912   */\n      mul\n        /* \"#utility.yul\":5890:5893   */\n      dup6\n        /* \"#utility.yul\":5886:5913   */\n      add\n        /* \"#utility.yul\":5937:6014   */\n      tag_325\n        /* \"#utility.yul\":6008:6013   */\n      dup6\n        /* \"#utility.yul\":5937:6014   */\n      tag_216\n      jump\t// in\n    tag_325:\n        /* \"#utility.yul\":6037:6044   */\n      dup1\n        /* \"#utility.yul\":6068:6069   */\n      0x00\n        /* \"#utility.yul\":6053:6482   */\n    tag_326:\n        /* \"#utility.yul\":6078:6084   */\n      dup6\n        /* \"#utility.yul\":6075:6076   */\n      dup2\n        /* \"#utility.yul\":6072:6085   */\n      lt\n        /* \"#utility.yul\":6053:6482   */\n      iszero\n      tag_328\n      jumpi\n        /* \"#utility.yul\":6149:6158   */\n      dup5\n        /* \"#utility.yul\":6143:6147   */\n      dup5\n        /* \"#utility.yul\":6139:6159   */\n      sub\n        /* \"#utility.yul\":6134:6137   */\n      dup10\n        /* \"#utility.yul\":6127:6160   */\n      mstore\n        /* \"#utility.yul\":6200:6206   */\n      dup2\n        /* \"#utility.yul\":6194:6207   */\n      mload\n        /* \"#utility.yul\":6228:6334   */\n      tag_329\n        /* \"#utility.yul\":6329:6333   */\n      dup6\n        /* \"#utility.yul\":6314:6327   */\n      dup3\n        /* \"#utility.yul\":6228:6334   */\n      tag_226\n      jump\t// in\n    tag_329:\n        /* \"#utility.yul\":6220:6334   */\n      swap5\n      pop\n        /* \"#utility.yul\":6357:6438   */\n      tag_330\n        /* \"#utility.yul\":6431:6437   */\n      dup4\n        /* \"#utility.yul\":6357:6438   */\n      tag_227\n      jump\t// in\n    tag_330:\n        /* \"#utility.yul\":6347:6438   */\n      swap3\n      pop\n        /* \"#utility.yul\":6467:6471   */\n      0x20\n        /* \"#utility.yul\":6462:6465   */\n      dup11\n        /* \"#utility.yul\":6458:6472   */\n      add\n        /* \"#utility.yul\":6451:6472   */\n      swap10\n      pop\n        /* \"#utility.yul\":6113:6482   */\n      pop\n        /* \"#utility.yul\":6100:6101   */\n      0x01\n        /* \"#utility.yul\":6097:6098   */\n      dup2\n        /* \"#utility.yul\":6093:6102   */\n      add\n        /* \"#utility.yul\":6088:6102   */\n      swap1\n      pop\n        /* \"#utility.yul\":6053:6482   */\n      jump(tag_326)\n    tag_328:\n        /* \"#utility.yul\":6057:6071   */\n      pop\n        /* \"#utility.yul\":6498:6502   */\n      dup3\n        /* \"#utility.yul\":6491:6502   */\n      swap8\n      pop\n        /* \"#utility.yul\":6518:6521   */\n      dup8\n        /* \"#utility.yul\":6511:6521   */\n      swap6\n      pop\n        /* \"#utility.yul\":5614:6527   */\n      pop\n      pop\n      pop\n      pop\n      pop\n        /* \"#utility.yul\":5448:6527   */\n      swap3\n      swap2\n      pop\n      pop\n      jump\t// out\n        /* \"#utility.yul\":6533:6990   */\n    tag_23:\n        /* \"#utility.yul\":6718:6722   */\n      0x00\n        /* \"#utility.yul\":6756:6758   */\n      0x20\n        /* \"#utility.yul\":6745:6754   */\n      dup3\n        /* \"#utility.yul\":6741:6759   */\n      add\n        /* \"#utility.yul\":6733:6759   */\n      swap1\n      pop\n        /* \"#utility.yul\":6805:6814   */\n      dup2\n        /* \"#utility.yul\":6799:6803   */\n      dup2\n        /* \"#utility.yul\":6795:6815   */\n      sub\n        /* \"#utility.yul\":6791:6792   */\n      0x00\n        /* \"#utility.yul\":6780:6789   */\n      dup4\n        /* \"#utility.yul\":6776:6793   */\n      add\n        /* \"#utility.yul\":6769:6816   */\n      mstore\n        /* \"#utility.yul\":6833:6983   */\n      tag_332\n        /* \"#utility.yul\":6978:6982   */\n      dup2\n        /* \"#utility.yul\":6969:6975   */\n      dup5\n        /* \"#utility.yul\":6833:6983   */\n      tag_228\n      jump\t// in\n    tag_332:\n        /* \"#utility.yul\":6825:6983   */\n      swap1\n      pop\n        /* \"#utility.yul\":6533:6990   */\n      swap3\n      swap2\n      pop\n      pop\n      jump\t// out\n        /* \"#utility.yul\":6996:7110   */\n    tag_229:\n        /* \"#utility.yul\":7063:7069   */\n      0x00\n        /* \"#utility.yul\":7097:7102   */\n      dup2\n        /* \"#utility.yul\":7091:7103   */\n      mload\n        /* \"#utility.yul\":7081:7103   */\n      swap1\n      pop\n        /* \"#utility.yul\":6996:7110   */\n      swap2\n      swap1\n      pop\n      jump\t// out\n        /* \"#utility.yul\":7116:7300   */\n    tag_230:\n        /* \"#utility.yul\":7215:7226   */\n      0x00\n        /* \"#utility.yul\":7249:7255   */\n      dup3\n        /* \"#utility.yul\":7244:7247   */\n      dup3\n        /* \"#utility.yul\":7237:7256   */\n      mstore\n        /* \"#utility.yul\":7289:7293   */\n      0x20\n        /* \"#utility.yul\":7284:7287   */\n      dup3\n        /* \"#utility.yul\":7280:7294   */\n      add\n        /* \"#utility.yul\":7265:7294   */\n      swap1\n      pop\n        /* \"#utility.yul\":7116:7300   */\n      swap3\n      swap2\n      pop\n      pop\n      jump\t// out\n        /* \"#utility.yul\":7306:7438   */\n    tag_231:\n        /* \"#utility.yul\":7373:7377   */\n      0x00\n        /* \"#utility.yul\":7396:7399   */\n      dup2\n        /* \"#utility.yul\":7388:7399   */\n      swap1\n      pop\n        /* \"#utility.yul\":7426:7430   */\n      0x20\n        /* \"#utility.yul\":7421:7424   */\n      dup3\n        /* \"#utility.yul\":7417:7431   */\n      add\n        /* \"#utility.yul\":7409:7431   */\n      swap1\n      pop\n        /* \"#utility.yul\":7306:7438   */\n      swap2\n      swap1\n      pop\n      jump\t// out\n        /* \"#utility.yul\":7444:7623   */\n    tag_232:\n        /* \"#utility.yul\":7513:7523   */\n      0x00\n        /* \"#utility.yul\":7534:7580   */\n      tag_337\n        /* \"#utility.yul\":7576:7579   */\n      dup4\n        /* \"#utility.yul\":7568:7574   */\n      dup4\n        /* \"#utility.yul\":7534:7580   */\n      tag_217\n      jump\t// in\n    tag_337:\n        /* \"#utility.yul\":7612:7616   */\n      0x20\n        /* \"#utility.yul\":7607:7610   */\n      dup4\n        /* \"#utility.yul\":7603:7617   */\n      add\n        /* \"#utility.yul\":7589:7617   */\n      swap1\n      pop\n        /* \"#utility.yul\":7444:7623   */\n      swap3\n      swap2\n      pop\n      pop\n      jump\t// out\n        /* \"#utility.yul\":7629:7742   */\n    tag_233:\n        /* \"#utility.yul\":7699:7703   */\n      0x00\n        /* \"#utility.yul\":7731:7735   */\n      0x20\n        /* \"#utility.yul\":7726:7729   */\n      dup3\n        /* \"#utility.yul\":7722:7736   */\n      add\n        /* \"#utility.yul\":7714:7736   */\n      swap1\n      pop\n        /* \"#utility.yul\":7629:7742   */\n      swap2\n      swap1\n      pop\n      jump\t// out\n        /* \"#utility.yul\":7778:8510   */\n    tag_234:\n        /* \"#utility.yul\":7897:7900   */\n      0x00\n        /* \"#utility.yul\":7926:7980   */\n      tag_340\n        /* \"#utility.yul\":7974:7979   */\n      dup3\n        /* \"#utility.yul\":7926:7980   */\n      tag_229\n      jump\t// in\n    tag_340:\n        /* \"#utility.yul\":7996:8082   */\n      tag_341\n        /* \"#utility.yul\":8075:8081   */\n      dup2\n        /* \"#utility.yul\":8070:8073   */\n      dup6\n        /* \"#utility.yul\":7996:8082   */\n      tag_230\n      jump\t// in\n    tag_341:\n        /* \"#utility.yul\":7989:8082   */\n      swap4\n      pop\n        /* \"#utility.yul\":8106:8162   */\n      tag_342\n        /* \"#utility.yul\":8156:8161   */\n      dup4\n        /* \"#utility.yul\":8106:8162   */\n      tag_231\n      jump\t// in\n    tag_342:\n        /* \"#utility.yul\":8185:8192   */\n      dup1\n        /* \"#utility.yul\":8216:8217   */\n      0x00\n        /* \"#utility.yul\":8201:8485   */\n    tag_343:\n        /* \"#utility.yul\":8226:8232   */\n      dup4\n        /* \"#utility.yul\":8223:8224   */\n      dup2\n        /* \"#utility.yul\":8220:8233   */\n      lt\n        /* \"#utility.yul\":8201:8485   */\n      iszero\n      tag_345\n      jumpi\n        /* \"#utility.yul\":8302:8308   */\n      dup2\n        /* \"#utility.yul\":8296:8309   */\n      mload\n        /* \"#utility.yul\":8329:8392   */\n      tag_346\n        /* \"#utility.yul\":8388:8391   */\n      dup9\n        /* \"#utility.yul\":8373:8386   */\n      dup3\n        /* \"#utility.yul\":8329:8392   */\n      tag_232\n      jump\t// in\n    tag_346:\n        /* \"#utility.yul\":8322:8392   */\n      swap8\n      pop\n        /* \"#utility.yul\":8415:8475   */\n      tag_347\n        /* \"#utility.yul\":8468:8474   */\n      dup4\n        /* \"#utility.yul\":8415:8475   */\n      tag_233\n      jump\t// in\n    tag_347:\n        /* \"#utility.yul\":8405:8475   */\n      swap3\n      pop\n        /* \"#utility.yul\":8261:8485   */\n      pop\n        /* \"#utility.yul\":8248:8249   */\n      0x01\n        /* \"#utility.yul\":8245:8246   */\n      dup2\n        /* \"#utility.yul\":8241:8250   */\n      add\n        /* \"#utility.yul\":8236:8250   */\n      swap1\n      pop\n        /* \"#utility.yul\":8201:8485   */\n      jump(tag_343)\n    tag_345:\n        /* \"#utility.yul\":8205:8219   */\n      pop\n        /* \"#utility.yul\":8501:8504   */\n      dup6\n        /* \"#utility.yul\":8494:8504   */\n      swap4\n      pop\n        /* \"#utility.yul\":7902:8510   */\n      pop\n      pop\n      pop\n        /* \"#utility.yul\":7778:8510   */\n      swap3\n      swap2\n      pop\n      pop\n      jump\t// out\n        /* \"#utility.yul\":8516:8889   */\n    tag_29:\n        /* \"#utility.yul\":8659:8663   */\n      0x00\n        /* \"#utility.yul\":8697:8699   */\n      0x20\n        /* \"#utility.yul\":8686:8695   */\n      dup3\n        /* \"#utility.yul\":8682:8700   */\n      add\n        /* \"#utility.yul\":8674:8700   */\n      swap1\n      pop\n        /* \"#utility.yul\":8746:8755   */\n      dup2\n        /* \"#utility.yul\":8740:8744   */\n      dup2\n        /* \"#utility.yul\":8736:8756   */\n      sub\n        /* \"#utility.yul\":8732:8733   */\n      0x00\n        /* \"#utility.yul\":8721:8730   */\n      dup4\n        /* \"#utility.yul\":8717:8734   */\n      add\n        /* \"#utility.yul\":8710:8757   */\n      mstore\n        /* \"#utility.yul\":8774:8882   */\n      tag_349\n        /* \"#utility.yul\":8877:8881   */\n      dup2\n        /* \"#utility.yul\":8868:8874   */\n      dup5\n        /* \"#utility.yul\":8774:8882   */\n      tag_234\n      jump\t// in\n    tag_349:\n        /* \"#utility.yul\":8766:8882   */\n      swap1\n      pop\n        /* \"#utility.yul\":8516:8889   */\n      swap3\n      swap2\n      pop\n      pop\n      jump\t// out\n        /* \"#utility.yul\":8895:9017   */\n    tag_235:\n        /* \"#utility.yul\":8968:8992   */\n      tag_351\n        /* \"#utility.yul\":8986:8991   */\n      dup2\n        /* \"#utility.yul\":8968:8992   */\n      tag_205\n      jump\t// in\n    tag_351:\n        /* \"#utility.yul\":8961:8966   */\n      dup2\n        /* \"#utility.yul\":8958:8993   */\n      eq\n        /* \"#utility.yul\":8948:9011   */\n      tag_352\n      jumpi\n        /* \"#utility.yul\":9007:9008   */\n      0x00\n        /* \"#utility.yul\":9004:9005   */\n      dup1\n        /* \"#utility.yul\":8997:9009   */\n      revert\n        /* \"#utility.yul\":8948:9011   */\n    tag_352:\n        /* \"#utility.yul\":8895:9017   */\n      pop\n      jump\t// out\n        /* \"#utility.yul\":9023:9162   */\n    tag_236:\n        /* \"#utility.yul\":9069:9074   */\n      0x00\n        /* \"#utility.yul\":9107:9113   */\n      dup2\n        /* \"#utility.yul\":9094:9114   */\n      calldataload\n        /* \"#utility.yul\":9085:9114   */\n      swap1\n      pop\n        /* \"#utility.yul\":9123:9156   */\n      tag_354\n        /* \"#utility.yul\":9150:9155   */\n      dup2\n        /* \"#utility.yul\":9123:9156   */\n      tag_235\n      jump\t// in\n    tag_354:\n        /* \"#utility.yul\":9023:9162   */\n      swap3\n      swap2\n      pop\n      pop\n      jump\t// out\n        /* \"#utility.yul\":9168:9497   */\n    tag_37:\n        /* \"#utility.yul\":9227:9233   */\n      0x00\n        /* \"#utility.yul\":9276:9278   */\n      0x20\n        /* \"#utility.yul\":9264:9273   */\n      dup3\n        /* \"#utility.yul\":9255:9262   */\n      dup5\n        /* \"#utility.yul\":9251:9274   */\n      sub\n        /* \"#utility.yul\":9247:9279   */\n      slt\n        /* \"#utility.yul\":9244:9363   */\n      iszero\n      tag_356\n      jumpi\n        /* \"#utility.yul\":9282:9361   */\n      tag_357\n      tag_208\n      jump\t// in\n    tag_357:\n        /* \"#utility.yul\":9244:9363   */\n    tag_356:\n        /* \"#utility.yul\":9402:9403   */\n      0x00\n        /* \"#utility.yul\":9427:9480   */\n      tag_358\n        /* \"#utility.yul\":9472:9479   */\n      dup5\n        /* \"#utility.yul\":9463:9469   */\n      dup3\n        /* \"#utility.yul\":9452:9461   */\n      dup6\n        /* \"#utility.yul\":9448:9470   */\n      add\n        /* \"#utility.yul\":9427:9480   */\n      tag_236\n      jump\t// in\n    tag_358:\n        /* \"#utility.yul\":9417:9480   */\n      swap2\n      pop\n        /* \"#utility.yul\":9373:9490   */\n      pop\n        /* \"#utility.yul\":9168:9497   */\n      swap3\n      swap2\n      pop\n      pop\n      jump\t// out\n        /* \"#utility.yul\":9503:9672   */\n    tag_237:\n        /* \"#utility.yul\":9587:9598   */\n      0x00\n        /* \"#utility.yul\":9621:9627   */\n      dup3\n        /* \"#utility.yul\":9616:9619   */\n      dup3\n        /* \"#utility.yul\":9609:9628   */\n      mstore\n        /* \"#utility.yul\":9661:9665   */\n      0x20\n        /* \"#utility.yul\":9656:9659   */\n      dup3\n        /* \"#utility.yul\":9652:9666   */\n      add\n        /* \"#utility.yul\":9637:9666   */\n      swap1\n      pop\n        /* \"#utility.yul\":9503:9672   */\n      swap3\n      swap2\n      pop\n      pop\n      jump\t// out\n        /* \"#utility.yul\":9678:10055   */\n    tag_238:\n        /* \"#utility.yul\":9766:9769   */\n      0x00\n        /* \"#utility.yul\":9794:9833   */\n      tag_361\n        /* \"#utility.yul\":9827:9832   */\n      dup3\n        /* \"#utility.yul\":9794:9833   */\n      tag_218\n      jump\t// in\n    tag_361:\n        /* \"#utility.yul\":9849:9920   */\n      tag_362\n        /* \"#utility.yul\":9913:9919   */\n      dup2\n        /* \"#utility.yul\":9908:9911   */\n      dup6\n        /* \"#utility.yul\":9849:9920   */\n      tag_237\n      jump\t// in\n    tag_362:\n        /* \"#utility.yul\":9842:9920   */\n      swap4\n      pop\n        /* \"#utility.yul\":9929:9994   */\n      tag_363\n        /* \"#utility.yul\":9987:9993   */\n      dup2\n        /* \"#utility.yul\":9982:9985   */\n      dup6\n        /* \"#utility.yul\":9975:9979   */\n      0x20\n        /* \"#utility.yul\":9968:9973   */\n      dup7\n        /* \"#utility.yul\":9964:9980   */\n      add\n        /* \"#utility.yul\":9929:9994   */\n      tag_220\n      jump\t// in\n    tag_363:\n        /* \"#utility.yul\":10019:10048   */\n      tag_364\n        /* \"#utility.yul\":10041:10047   */\n      dup2\n        /* \"#utility.yul\":10019:10048   */\n      tag_221\n      jump\t// in\n    tag_364:\n        /* \"#utility.yul\":10014:10017   */\n      dup5\n        /* \"#utility.yul\":10010:10049   */\n      add\n        /* \"#utility.yul\":10003:10049   */\n      swap2\n      pop\n        /* \"#utility.yul\":9770:10055   */\n      pop\n        /* \"#utility.yul\":9678:10055   */\n      swap3\n      swap2\n      pop\n      pop\n      jump\t// out\n        /* \"#utility.yul\":10061:10170   */\n    tag_239:\n        /* \"#utility.yul\":10142:10163   */\n      tag_366\n        /* \"#utility.yul\":10157:10162   */\n      dup2\n        /* \"#utility.yul\":10142:10163   */\n      tag_223\n      jump\t// in\n    tag_366:\n        /* \"#utility.yul\":10137:10140   */\n      dup3\n        /* \"#utility.yul\":10130:10164   */\n      mstore\n        /* \"#utility.yul\":10061:10170   */\n      pop\n      pop\n      jump\t// out\n        /* \"#utility.yul\":10176:11303   */\n    tag_40:\n        /* \"#utility.yul\":10483:10487   */\n      0x00\n        /* \"#utility.yul\":10521:10524   */\n      0xc0\n        /* \"#utility.yul\":10510:10519   */\n      dup3\n        /* \"#utility.yul\":10506:10525   */\n      add\n        /* \"#utility.yul\":10498:10525   */\n      swap1\n      pop\n        /* \"#utility.yul\":10535:10606   */\n      tag_368\n        /* \"#utility.yul\":10603:10604   */\n      0x00\n        /* \"#utility.yul\":10592:10601   */\n      dup4\n        /* \"#utility.yul\":10588:10605   */\n      add\n        /* \"#utility.yul\":10579:10585   */\n      dup10\n        /* \"#utility.yul\":10535:10606   */\n      tag_206\n      jump\t// in\n    tag_368:\n        /* \"#utility.yul\":10653:10662   */\n      dup2\n        /* \"#utility.yul\":10647:10651   */\n      dup2\n        /* \"#utility.yul\":10643:10663   */\n      sub\n        /* \"#utility.yul\":10638:10640   */\n      0x20\n        /* \"#utility.yul\":10627:10636   */\n      dup4\n        /* \"#utility.yul\":10623:10641   */\n      add\n        /* \"#utility.yul\":10616:10664   */\n      mstore\n        /* \"#utility.yul\":10681:10759   */\n      tag_369\n        /* \"#utility.yul\":10754:10758   */\n      dup2\n        /* \"#utility.yul\":10745:10751   */\n      dup9\n        /* \"#utility.yul\":10681:10759   */\n      tag_238\n      jump\t// in\n    tag_369:\n        /* \"#utility.yul\":10673:10759   */\n      swap1\n      pop\n        /* \"#utility.yul\":10806:10815   */\n      dup2\n        /* \"#utility.yul\":10800:10804   */\n      dup2\n        /* \"#utility.yul\":10796:10816   */\n      sub\n        /* \"#utility.yul\":10791:10793   */\n      0x40\n        /* \"#utility.yul\":10780:10789   */\n      dup4\n        /* \"#utility.yul\":10776:10794   */\n      add\n        /* \"#utility.yul\":10769:10817   */\n      mstore\n        /* \"#utility.yul\":10834:10912   */\n      tag_370\n        /* \"#utility.yul\":10907:10911   */\n      dup2\n        /* \"#utility.yul\":10898:10904   */\n      dup8\n        /* \"#utility.yul\":10834:10912   */\n      tag_238\n      jump\t// in\n    tag_370:\n        /* \"#utility.yul\":10826:10912   */\n      swap1\n      pop\n        /* \"#utility.yul\":10959:10968   */\n      dup2\n        /* \"#utility.yul\":10953:10957   */\n      dup2\n        /* \"#utility.yul\":10949:10969   */\n      sub\n        /* \"#utility.yul\":10944:10946   */\n      0x60\n        /* \"#utility.yul\":10933:10942   */\n      dup4\n        /* \"#utility.yul\":10929:10947   */\n      add\n        /* \"#utility.yul\":10922:10970   */\n      mstore\n        /* \"#utility.yul\":10987:11065   */\n      tag_371\n        /* \"#utility.yul\":11060:11064   */\n      dup2\n        /* \"#utility.yul\":11051:11057   */\n      dup7\n        /* \"#utility.yul\":10987:11065   */\n      tag_238\n      jump\t// in\n    tag_371:\n        /* \"#utility.yul\":10979:11065   */\n      swap1\n      pop\n        /* \"#utility.yul\":11113:11122   */\n      dup2\n        /* \"#utility.yul\":11107:11111   */\n      dup2\n        /* \"#utility.yul\":11103:11123   */\n      sub\n        /* \"#utility.yul\":11097:11100   */\n      0x80\n        /* \"#utility.yul\":11086:11095   */\n      dup4\n        /* \"#utility.yul\":11082:11101   */\n      add\n        /* \"#utility.yul\":11075:11124   */\n      mstore\n        /* \"#utility.yul\":11141:11219   */\n      tag_372\n        /* \"#utility.yul\":11214:11218   */\n      dup2\n        /* \"#utility.yul\":11205:11211   */\n      dup6\n        /* \"#utility.yul\":11141:11219   */\n      tag_238\n      jump\t// in\n    tag_372:\n        /* \"#utility.yul\":11133:11219   */\n      swap1\n      pop\n        /* \"#utility.yul\":11229:11296   */\n      tag_373\n        /* \"#utility.yul\":11291:11294   */\n      0xa0\n        /* \"#utility.yul\":11280:11289   */\n      dup4\n        /* \"#utility.yul\":11276:11295   */\n      add\n        /* \"#utility.yul\":11267:11273   */\n      dup5\n        /* \"#utility.yul\":11229:11296   */\n      tag_239\n      jump\t// in\n    tag_373:\n        /* \"#utility.yul\":10176:11303   */\n      swap8\n      swap7\n      pop\n      pop\n      pop\n      pop\n      pop\n      pop\n      pop\n      jump\t// out\n        /* \"#utility.yul\":11309:11426   */\n    tag_240:\n        /* \"#utility.yul\":11418:11419   */\n      0x00\n        /* \"#utility.yul\":11415:11416   */\n      dup1\n        /* \"#utility.yul\":11408:11420   */\n      revert\n        /* \"#utility.yul\":11432:11549   */\n    tag_241:\n        /* \"#utility.yul\":11541:11542   */\n      0x00\n        /* \"#utility.yul\":11538:11539   */\n      dup1\n        /* \"#utility.yul\":11531:11543   */\n      revert\n        /* \"#utility.yul\":11555:11735   */\n    tag_65:\n        /* \"#utility.yul\":11603:11680   */\n      0x4e487b7100000000000000000000000000000000000000000000000000000000\n        /* \"#utility.yul\":11600:11601   */\n      0x00\n        /* \"#utility.yul\":11593:11681   */\n      mstore\n        /* \"#utility.yul\":11700:11704   */\n      0x41\n        /* \"#utility.yul\":11697:11698   */\n      0x04\n        /* \"#utility.yul\":11690:11705   */\n      mstore\n        /* \"#utility.yul\":11724:11728   */\n      0x24\n        /* \"#utility.yul\":11721:11722   */\n      0x00\n        /* \"#utility.yul\":11714:11729   */\n      revert\n        /* \"#utility.yul\":11741:12022   */\n    tag_242:\n        /* \"#utility.yul\":11824:11851   */\n      tag_378\n        /* \"#utility.yul\":11846:11850   */\n      dup3\n        /* \"#utility.yul\":11824:11851   */\n      tag_221\n      jump\t// in\n    tag_378:\n        /* \"#utility.yul\":11816:11822   */\n      dup2\n        /* \"#utility.yul\":11812:11852   */\n      add\n        /* \"#utility.yul\":11954:11960   */\n      dup2\n        /* \"#utility.yul\":11942:11952   */\n      dup2\n        /* \"#utility.yul\":11939:11961   */\n      lt\n        /* \"#utility.yul\":11918:11936   */\n      0xffffffffffffffff\n        /* \"#utility.yul\":11906:11916   */\n      dup3\n        /* \"#utility.yul\":11903:11937   */\n      gt\n        /* \"#utility.yul\":11900:11962   */\n      or\n        /* \"#utility.yul\":11897:11985   */\n      iszero\n      tag_379\n      jumpi\n        /* \"#utility.yul\":11965:11983   */\n      tag_380\n      tag_65\n      jump\t// in\n    tag_380:\n        /* \"#utility.yul\":11897:11985   */\n    tag_379:\n        /* \"#utility.yul\":12005:12015   */\n      dup1\n        /* \"#utility.yul\":12001:12003   */\n      0x40\n        /* \"#utility.yul\":11994:12016   */\n      mstore\n        /* \"#utility.yul\":11784:12022   */\n      pop\n        /* \"#utility.yul\":11741:12022   */\n      pop\n      pop\n      jump\t// out\n        /* \"#utility.yul\":12028:12157   */\n    tag_243:\n        /* \"#utility.yul\":12062:12068   */\n      0x00\n        /* \"#utility.yul\":12089:12109   */\n      tag_382\n      tag_207\n      jump\t// in\n    tag_382:\n        /* \"#utility.yul\":12079:12109   */\n      swap1\n      pop\n        /* \"#utility.yul\":12118:12151   */\n      tag_383\n        /* \"#utility.yul\":12146:12150   */\n      dup3\n        /* \"#utility.yul\":12138:12144   */\n      dup3\n        /* \"#utility.yul\":12118:12151   */\n      tag_242\n      jump\t// in\n    tag_383:\n        /* \"#utility.yul\":12028:12157   */\n      swap2\n      swap1\n      pop\n      jump\t// out\n        /* \"#utility.yul\":12163:12471   */\n    tag_244:\n        /* \"#utility.yul\":12225:12229   */\n      0x00\n        /* \"#utility.yul\":12315:12333   */\n      0xffffffffffffffff\n        /* \"#utility.yul\":12307:12313   */\n      dup3\n        /* \"#utility.yul\":12304:12334   */\n      gt\n        /* \"#utility.yul\":12301:12357   */\n      iszero\n      tag_385\n      jumpi\n        /* \"#utility.yul\":12337:12355   */\n      tag_386\n      tag_65\n      jump\t// in\n    tag_386:\n        /* \"#utility.yul\":12301:12357   */\n    tag_385:\n        /* \"#utility.yul\":12375:12404   */\n      tag_387\n        /* \"#utility.yul\":12397:12403   */\n      dup3\n        /* \"#utility.yul\":12375:12404   */\n      tag_221\n      jump\t// in\n    tag_387:\n        /* \"#utility.yul\":12367:12404   */\n      swap1\n      pop\n        /* \"#utility.yul\":12459:12463   */\n      0x20\n        /* \"#utility.yul\":12453:12457   */\n      dup2\n        /* \"#utility.yul\":12449:12464   */\n      add\n        /* \"#utility.yul\":12441:12464   */\n      swap1\n      pop\n        /* \"#utility.yul\":12163:12471   */\n      swap2\n      swap1\n      pop\n      jump\t// out\n        /* \"#utility.yul\":12477:12623   */\n    tag_245:\n        /* \"#utility.yul\":12574:12580   */\n      dup3\n        /* \"#utility.yul\":12569:12572   */\n      dup2\n        /* \"#utility.yul\":12564:12567   */\n      dup4\n        /* \"#utility.yul\":12551:12581   */\n      calldatacopy\n        /* \"#utility.yul\":12615:12616   */\n      0x00\n        /* \"#utility.yul\":12606:12612   */\n      dup4\n        /* \"#utility.yul\":12601:12604   */\n      dup4\n        /* \"#utility.yul\":12597:12613   */\n      add\n        /* \"#utility.yul\":12590:12617   */\n      mstore\n        /* \"#utility.yul\":12477:12623   */\n      pop\n      pop\n      pop\n      jump\t// out\n        /* \"#utility.yul\":12629:13054   */\n    tag_246:\n        /* \"#utility.yul\":12707:12712   */\n      0x00\n        /* \"#utility.yul\":12732:12798   */\n      tag_390\n        /* \"#utility.yul\":12748:12797   */\n      tag_391\n        /* \"#utility.yul\":12790:12796   */\n      dup5\n        /* \"#utility.yul\":12748:12797   */\n      tag_244\n      jump\t// in\n    tag_391:\n        /* \"#utility.yul\":12732:12798   */\n      tag_243\n      jump\t// in\n    tag_390:\n        /* \"#utility.yul\":12723:12798   */\n      swap1\n      pop\n        /* \"#utility.yul\":12821:12827   */\n      dup3\n        /* \"#utility.yul\":12814:12819   */\n      dup2\n        /* \"#utility.yul\":12807:12828   */\n      mstore\n        /* \"#utility.yul\":12859:12863   */\n      0x20\n        /* \"#utility.yul\":12852:12857   */\n      dup2\n        /* \"#utility.yul\":12848:12864   */\n      add\n        /* \"#utility.yul\":12897:12900   */\n      dup5\n        /* \"#utility.yul\":12888:12894   */\n      dup5\n        /* \"#utility.yul\":12883:12886   */\n      dup5\n        /* \"#utility.yul\":12879:12895   */\n      add\n        /* \"#utility.yul\":12876:12901   */\n      gt\n        /* \"#utility.yul\":12873:12985   */\n      iszero\n      tag_392\n      jumpi\n        /* \"#utility.yul\":12904:12983   */\n      tag_393\n      tag_241\n      jump\t// in\n    tag_393:\n        /* \"#utility.yul\":12873:12985   */\n    tag_392:\n        /* \"#utility.yul\":12994:13048   */\n      tag_394\n        /* \"#utility.yul\":13041:13047   */\n      dup5\n        /* \"#utility.yul\":13036:13039   */\n      dup3\n        /* \"#utility.yul\":13031:13034   */\n      dup6\n        /* \"#utility.yul\":12994:13048   */\n      tag_245\n      jump\t// in\n    tag_394:\n        /* \"#utility.yul\":12713:13054   */\n      pop\n        /* \"#utility.yul\":12629:13054   */\n      swap4\n      swap3\n      pop\n      pop\n      pop\n      jump\t// out\n        /* \"#utility.yul\":13074:13414   */\n    tag_247:\n        /* \"#utility.yul\":13130:13135   */\n      0x00\n        /* \"#utility.yul\":13179:13182   */\n      dup3\n        /* \"#utility.yul\":13172:13176   */\n      0x1f\n        /* \"#utility.yul\":13164:13170   */\n      dup4\n        /* \"#utility.yul\":13160:13177   */\n      add\n        /* \"#utility.yul\":13156:13183   */\n      slt\n        /* \"#utility.yul\":13146:13268   */\n      tag_396\n      jumpi\n        /* \"#utility.yul\":13187:13266   */\n      tag_397\n      tag_240\n      jump\t// in\n    tag_397:\n        /* \"#utility.yul\":13146:13268   */\n    tag_396:\n        /* \"#utility.yul\":13304:13310   */\n      dup2\n        /* \"#utility.yul\":13291:13311   */\n      calldataload\n        /* \"#utility.yul\":13329:13408   */\n      tag_398\n        /* \"#utility.yul\":13404:13407   */\n      dup5\n        /* \"#utility.yul\":13396:13402   */\n      dup3\n        /* \"#utility.yul\":13389:13393   */\n      0x20\n        /* \"#utility.yul\":13381:13387   */\n      dup7\n        /* \"#utility.yul\":13377:13394   */\n      add\n        /* \"#utility.yul\":13329:13408   */\n      tag_246\n      jump\t// in\n    tag_398:\n        /* \"#utility.yul\":13320:13408   */\n      swap2\n      pop\n        /* \"#utility.yul\":13136:13414   */\n      pop\n        /* \"#utility.yul\":13074:13414   */\n      swap3\n      swap2\n      pop\n      pop\n      jump\t// out\n        /* \"#utility.yul\":13420:15051   */\n    tag_47:\n        /* \"#utility.yul\":13555:13561   */\n      0x00\n        /* \"#utility.yul\":13563:13569   */\n      dup1\n        /* \"#utility.yul\":13571:13577   */\n      0x00\n        /* \"#utility.yul\":13579:13585   */\n      dup1\n        /* \"#utility.yul\":13587:13593   */\n      0x00\n        /* \"#utility.yul\":13636:13639   */\n      0xa0\n        /* \"#utility.yul\":13624:13633   */\n      dup7\n        /* \"#utility.yul\":13615:13622   */\n      dup9\n        /* \"#utility.yul\":13611:13634   */\n      sub\n        /* \"#utility.yul\":13607:13640   */\n      slt\n        /* \"#utility.yul\":13604:13724   */\n      iszero\n      tag_400\n      jumpi\n        /* \"#utility.yul\":13643:13722   */\n      tag_401\n      tag_208\n      jump\t// in\n    tag_401:\n        /* \"#utility.yul\":13604:13724   */\n    tag_400:\n        /* \"#utility.yul\":13763:13764   */\n      0x00\n        /* \"#utility.yul\":13788:13841   */\n      tag_402\n        /* \"#utility.yul\":13833:13840   */\n      dup9\n        /* \"#utility.yul\":13824:13830   */\n      dup3\n        /* \"#utility.yul\":13813:13822   */\n      dup10\n        /* \"#utility.yul\":13809:13831   */\n      add\n        /* \"#utility.yul\":13788:13841   */\n      tag_236\n      jump\t// in\n    tag_402:\n        /* \"#utility.yul\":13778:13841   */\n      swap6\n      pop\n        /* \"#utility.yul\":13734:13851   */\n      pop\n        /* \"#utility.yul\":13918:13920   */\n      0x20\n        /* \"#utility.yul\":13907:13916   */\n      dup7\n        /* \"#utility.yul\":13903:13921   */\n      add\n        /* \"#utility.yul\":13890:13922   */\n      calldataload\n        /* \"#utility.yul\":13949:13967   */\n      0xffffffffffffffff\n        /* \"#utility.yul\":13941:13947   */\n      dup2\n        /* \"#utility.yul\":13938:13968   */\n      gt\n        /* \"#utility.yul\":13935:14052   */\n      iszero\n      tag_403\n      jumpi\n        /* \"#utility.yul\":13971:14050   */\n      tag_404\n      tag_209\n      jump\t// in\n    tag_404:\n        /* \"#utility.yul\":13935:14052   */\n    tag_403:\n        /* \"#utility.yul\":14076:14139   */\n      tag_405\n        /* \"#utility.yul\":14131:14138   */\n      dup9\n        /* \"#utility.yul\":14122:14128   */\n      dup3\n        /* \"#utility.yul\":14111:14120   */\n      dup10\n        /* \"#utility.yul\":14107:14129   */\n      add\n        /* \"#utility.yul\":14076:14139   */\n      tag_247\n      jump\t// in\n    tag_405:\n        /* \"#utility.yul\":14066:14139   */\n      swap5\n      pop\n        /* \"#utility.yul\":13861:14149   */\n      pop\n        /* \"#utility.yul\":14216:14218   */\n      0x40\n        /* \"#utility.yul\":14205:14214   */\n      dup7\n        /* \"#utility.yul\":14201:14219   */\n      add\n        /* \"#utility.yul\":14188:14220   */\n      calldataload\n        /* \"#utility.yul\":14247:14265   */\n      0xffffffffffffffff\n        /* \"#utility.yul\":14239:14245   */\n      dup2\n        /* \"#utility.yul\":14236:14266   */\n      gt\n        /* \"#utility.yul\":14233:14350   */\n      iszero\n      tag_406\n      jumpi\n        /* \"#utility.yul\":14269:14348   */\n      tag_407\n      tag_209\n      jump\t// in\n    tag_407:\n        /* \"#utility.yul\":14233:14350   */\n    tag_406:\n        /* \"#utility.yul\":14374:14437   */\n      tag_408\n        /* \"#utility.yul\":14429:14436   */\n      dup9\n        /* \"#utility.yul\":14420:14426   */\n      dup3\n        /* \"#utility.yul\":14409:14418   */\n      dup10\n        /* \"#utility.yul\":14405:14427   */\n      add\n        /* \"#utility.yul\":14374:14437   */\n      tag_247\n      jump\t// in\n    tag_408:\n        /* \"#utility.yul\":14364:14437   */\n      swap4\n      pop\n        /* \"#utility.yul\":14159:14447   */\n      pop\n        /* \"#utility.yul\":14514:14516   */\n      0x60\n        /* \"#utility.yul\":14503:14512   */\n      dup7\n        /* \"#utility.yul\":14499:14517   */\n      add\n        /* \"#utility.yul\":14486:14518   */\n      calldataload\n        /* \"#utility.yul\":14545:14563   */\n      0xffffffffffffffff\n        /* \"#utility.yul\":14537:14543   */\n      dup2\n        /* \"#utility.yul\":14534:14564   */\n      gt\n        /* \"#utility.yul\":14531:14648   */\n      iszero\n      tag_409\n      jumpi\n        /* \"#utility.yul\":14567:14646   */\n      tag_410\n      tag_209\n      jump\t// in\n    tag_410:\n        /* \"#utility.yul\":14531:14648   */\n    tag_409:\n        /* \"#utility.yul\":14672:14735   */\n      tag_411\n        /* \"#utility.yul\":14727:14734   */\n      dup9\n        /* \"#utility.yul\":14718:14724   */\n      dup3\n        /* \"#utility.yul\":14707:14716   */\n      dup10\n        /* \"#utility.yul\":14703:14725   */\n      add\n        /* \"#utility.yul\":14672:14735   */\n      tag_247\n      jump\t// in\n    tag_411:\n        /* \"#utility.yul\":14662:14735   */\n      swap3\n      pop\n        /* \"#utility.yul\":14457:14745   */\n      pop\n        /* \"#utility.yul\":14812:14815   */\n      0x80\n        /* \"#utility.yul\":14801:14810   */\n      dup7\n        /* \"#utility.yul\":14797:14816   */\n      add\n        /* \"#utility.yul\":14784:14817   */\n      calldataload\n        /* \"#utility.yul\":14844:14862   */\n      0xffffffffffffffff\n        /* \"#utility.yul\":14836:14842   */\n      dup2\n        /* \"#utility.yul\":14833:14863   */\n      gt\n        /* \"#utility.yul\":14830:14947   */\n      iszero\n      tag_412\n      jumpi\n        /* \"#utility.yul\":14866:14945   */\n      tag_413\n      tag_209\n      jump\t// in\n    tag_413:\n        /* \"#utility.yul\":14830:14947   */\n    tag_412:\n        /* \"#utility.yul\":14971:15034   */\n      tag_414\n        /* \"#utility.yul\":15026:15033   */\n      dup9\n        /* \"#utility.yul\":15017:15023   */\n      dup3\n        /* \"#utility.yul\":15006:15015   */\n      dup10\n        /* \"#utility.yul\":15002:15024   */\n      add\n        /* \"#utility.yul\":14971:15034   */\n      tag_247\n      jump\t// in\n    tag_414:\n        /* \"#utility.yul\":14961:15034   */\n      swap2\n      pop\n        /* \"#utility.yul\":14755:15044   */\n      pop\n        /* \"#utility.yul\":13420:15051   */\n      swap3\n      swap6\n      pop\n      swap3\n      swap6\n      swap1\n      swap4\n      pop\n      jump\t// out\n        /* \"#utility.yul\":15057:15531   */\n    tag_57:\n        /* \"#utility.yul\":15125:15131   */\n      0x00\n        /* \"#utility.yul\":15133:15139   */\n      dup1\n        /* \"#utility.yul\":15182:15184   */\n      0x40\n        /* \"#utility.yul\":15170:15179   */\n      dup4\n        /* \"#utility.yul\":15161:15168   */\n      dup6\n        /* \"#utility.yul\":15157:15180   */\n      sub\n        /* \"#utility.yul\":15153:15185   */\n      slt\n        /* \"#utility.yul\":15150:15269   */\n      iszero\n      tag_416\n      jumpi\n        /* \"#utility.yul\":15188:15267   */\n      tag_417\n      tag_208\n      jump\t// in\n    tag_417:\n        /* \"#utility.yul\":15150:15269   */\n    tag_416:\n        /* \"#utility.yul\":15308:15309   */\n      0x00\n        /* \"#utility.yul\":15333:15386   */\n      tag_418\n        /* \"#utility.yul\":15378:15385   */\n      dup6\n        /* \"#utility.yul\":15369:15375   */\n      dup3\n        /* \"#utility.yul\":15358:15367   */\n      dup7\n        /* \"#utility.yul\":15354:15376   */\n      add\n        /* \"#utility.yul\":15333:15386   */\n      tag_213\n      jump\t// in\n    tag_418:\n        /* \"#utility.yul\":15323:15386   */\n      swap3\n      pop\n        /* \"#utility.yul\":15279:15396   */\n      pop\n        /* \"#utility.yul\":15435:15437   */\n      0x20\n        /* \"#utility.yul\":15461:15514   */\n      tag_419\n        /* \"#utility.yul\":15506:15513   */\n      dup6\n        /* \"#utility.yul\":15497:15503   */\n      dup3\n        /* \"#utility.yul\":15486:15495   */\n      dup7\n        /* \"#utility.yul\":15482:15504   */\n      add\n        /* \"#utility.yul\":15461:15514   */\n      tag_236\n      jump\t// in\n    tag_419:\n        /* \"#utility.yul\":15451:15514   */\n      swap2\n      pop\n        /* \"#utility.yul\":15406:15524   */\n      pop\n        /* \"#utility.yul\":15057:15531   */\n      swap3\n      pop\n      swap3\n      swap1\n      pop\n      jump\t// out\n        /* \"#utility.yul\":15537:15717   */\n    tag_75:\n        /* \"#utility.yul\":15585:15662   */\n      0x4e487b7100000000000000000000000000000000000000000000000000000000\n        /* \"#utility.yul\":15582:15583   */\n      0x00\n        /* \"#utility.yul\":15575:15663   */\n      mstore\n        /* \"#utility.yul\":15682:15686   */\n      0x32\n        /* \"#utility.yul\":15679:15680   */\n      0x04\n        /* \"#utility.yul\":15672:15687   */\n      mstore\n        /* \"#utility.yul\":15706:15710   */\n      0x24\n        /* \"#utility.yul\":15703:15704   */\n      0x00\n        /* \"#utility.yul\":15696:15711   */\n      revert\n        /* \"#utility.yul\":15723:15903   */\n    tag_248:\n        /* \"#utility.yul\":15771:15848   */\n      0x4e487b7100000000000000000000000000000000000000000000000000000000\n        /* \"#utility.yul\":15768:15769   */\n      0x00\n        /* \"#utility.yul\":15761:15849   */\n      mstore\n        /* \"#utility.yul\":15868:15872   */\n      0x22\n        /* \"#utility.yul\":15865:15866   */\n      0x04\n        /* \"#utility.yul\":15858:15873   */\n      mstore\n        /* \"#utility.yul\":15892:15896   */\n      0x24\n        /* \"#utility.yul\":15889:15890   */\n      0x00\n        /* \"#utility.yul\":15882:15897   */\n      revert\n        /* \"#utility.yul\":15909:16229   */\n    tag_77:\n        /* \"#utility.yul\":15953:15959   */\n      0x00\n        /* \"#utility.yul\":15990:15991   */\n      0x02\n        /* \"#utility.yul\":15984:15988   */\n      dup3\n        /* \"#utility.yul\":15980:15992   */\n      div\n        /* \"#utility.yul\":15970:15992   */\n      swap1\n      pop\n        /* \"#utility.yul\":16037:16038   */\n      0x01\n        /* \"#utility.yul\":16031:16035   */\n      dup3\n        /* \"#utility.yul\":16027:16039   */\n      and\n        /* \"#utility.yul\":16058:16076   */\n      dup1\n        /* \"#utility.yul\":16048:16129   */\n      tag_423\n      jumpi\n        /* \"#utility.yul\":16114:16118   */\n      0x7f\n        /* \"#utility.yul\":16106:16112   */\n      dup3\n        /* \"#utility.yul\":16102:16119   */\n      and\n        /* \"#utility.yul\":16092:16119   */\n      swap2\n      pop\n        /* \"#utility.yul\":16048:16129   */\n    tag_423:\n        /* \"#utility.yul\":16176:16178   */\n      0x20\n        /* \"#utility.yul\":16168:16174   */\n      dup3\n        /* \"#utility.yul\":16165:16179   */\n      lt\n        /* \"#utility.yul\":16145:16163   */\n      dup2\n        /* \"#utility.yul\":16142:16180   */\n      sub\n        /* \"#utility.yul\":16139:16223   */\n      tag_424\n      jumpi\n        /* \"#utility.yul\":16195:16213   */\n      tag_425\n      tag_248\n      jump\t// in\n    tag_425:\n        /* \"#utility.yul\":16139:16223   */\n    tag_424:\n        /* \"#utility.yul\":15960:16229   */\n      pop\n        /* \"#utility.yul\":15909:16229   */\n      swap2\n      swap1\n      pop\n      jump\t// out\n        /* \"#utility.yul\":16235:16413   */\n    tag_249:\n        /* \"#utility.yul\":16375:16405   */\n      0x496c2071756164726f206e6f6e20652720646973706f6e6962696c6500000000\n        /* \"#utility.yul\":16371:16372   */\n      0x00\n        /* \"#utility.yul\":16363:16369   */\n      dup3\n        /* \"#utility.yul\":16359:16373   */\n      add\n        /* \"#utility.yul\":16352:16406   */\n      mstore\n        /* \"#utility.yul\":16235:16413   */\n      pop\n      jump\t// out\n        /* \"#utility.yul\":16419:16785   */\n    tag_250:\n        /* \"#utility.yul\":16561:16564   */\n      0x00\n        /* \"#utility.yul\":16582:16649   */\n      tag_428\n        /* \"#utility.yul\":16646:16648   */\n      0x1c\n        /* \"#utility.yul\":16641:16644   */\n      dup4\n        /* \"#utility.yul\":16582:16649   */\n      tag_237\n      jump\t// in\n    tag_428:\n        /* \"#utility.yul\":16575:16649   */\n      swap2\n      pop\n        /* \"#utility.yul\":16658:16751   */\n      tag_429\n        /* \"#utility.yul\":16747:16750   */\n      dup3\n        /* \"#utility.yul\":16658:16751   */\n      tag_249\n      jump\t// in\n    tag_429:\n        /* \"#utility.yul\":16776:16778   */\n      0x20\n        /* \"#utility.yul\":16771:16774   */\n      dup3\n        /* \"#utility.yul\":16767:16779   */\n      add\n        /* \"#utility.yul\":16760:16779   */\n      swap1\n      pop\n        /* \"#utility.yul\":16419:16785   */\n      swap2\n      swap1\n      pop\n      jump\t// out\n        /* \"#utility.yul\":16791:17210   */\n    tag_156:\n        /* \"#utility.yul\":16957:16961   */\n      0x00\n        /* \"#utility.yul\":16995:16997   */\n      0x20\n        /* \"#utility.yul\":16984:16993   */\n      dup3\n        /* \"#utility.yul\":16980:16998   */\n      add\n        /* \"#utility.yul\":16972:16998   */\n      swap1\n      pop\n        /* \"#utility.yul\":17044:17053   */\n      dup2\n        /* \"#utility.yul\":17038:17042   */\n      dup2\n        /* \"#utility.yul\":17034:17054   */\n      sub\n        /* \"#utility.yul\":17030:17031   */\n      0x00\n        /* \"#utility.yul\":17019:17028   */\n      dup4\n        /* \"#utility.yul\":17015:17032   */\n      add\n        /* \"#utility.yul\":17008:17055   */\n      mstore\n        /* \"#utility.yul\":17072:17203   */\n      tag_431\n        /* \"#utility.yul\":17198:17202   */\n      dup2\n        /* \"#utility.yul\":17072:17203   */\n      tag_250\n      jump\t// in\n    tag_431:\n        /* \"#utility.yul\":17064:17203   */\n      swap1\n      pop\n        /* \"#utility.yul\":16791:17210   */\n      swap2\n      swap1\n      pop\n      jump\t// out\n        /* \"#utility.yul\":17216:17397   */\n    tag_251:\n        /* \"#utility.yul\":17356:17389   */\n      0x486169206769612720636f6d707261746f2071756573746f2071756164726f00\n        /* \"#utility.yul\":17352:17353   */\n      0x00\n        /* \"#utility.yul\":17344:17350   */\n      dup3\n        /* \"#utility.yul\":17340:17354   */\n      add\n        /* \"#utility.yul\":17333:17390   */\n      mstore\n        /* \"#utility.yul\":17216:17397   */\n      pop\n      jump\t// out\n        /* \"#utility.yul\":17403:17769   */\n    tag_252:\n        /* \"#utility.yul\":17545:17548   */\n      0x00\n        /* \"#utility.yul\":17566:17633   */\n      tag_434\n        /* \"#utility.yul\":17630:17632   */\n      0x1f\n        /* \"#utility.yul\":17625:17628   */\n      dup4\n        /* \"#utility.yul\":17566:17633   */\n      tag_237\n      jump\t// in\n    tag_434:\n        /* \"#utility.yul\":17559:17633   */\n      swap2\n      pop\n        /* \"#utility.yul\":17642:17735   */\n      tag_435\n        /* \"#utility.yul\":17731:17734   */\n      dup3\n        /* \"#utility.yul\":17642:17735   */\n      tag_251\n      jump\t// in\n    tag_435:\n        /* \"#utility.yul\":17760:17762   */\n      0x20\n        /* \"#utility.yul\":17755:17758   */\n      dup3\n        /* \"#utility.yul\":17751:17763   */\n      add\n        /* \"#utility.yul\":17744:17763   */\n      swap1\n      pop\n        /* \"#utility.yul\":17403:17769   */\n      swap2\n      swap1\n      pop\n      jump\t// out\n        /* \"#utility.yul\":17775:18194   */\n    tag_161:\n        /* \"#utility.yul\":17941:17945   */\n      0x00\n        /* \"#utility.yul\":17979:17981   */\n      0x20\n        /* \"#utility.yul\":17968:17977   */\n      dup3\n        /* \"#utility.yul\":17964:17982   */\n      add\n        /* \"#utility.yul\":17956:17982   */\n      swap1\n      pop\n        /* \"#utility.yul\":18028:18037   */\n      dup2\n        /* \"#utility.yul\":18022:18026   */\n      dup2\n        /* \"#utility.yul\":18018:18038   */\n      sub\n        /* \"#utility.yul\":18014:18015   */\n      0x00\n        /* \"#utility.yul\":18003:18012   */\n      dup4\n        /* \"#utility.yul\":17999:18016   */\n      add\n        /* \"#utility.yul\":17992:18039   */\n      mstore\n        /* \"#utility.yul\":18056:18187   */\n      tag_437\n        /* \"#utility.yul\":18182:18186   */\n      dup2\n        /* \"#utility.yul\":18056:18187   */\n      tag_252\n      jump\t// in\n    tag_437:\n        /* \"#utility.yul\":18048:18187   */\n      swap1\n      pop\n        /* \"#utility.yul\":17775:18194   */\n      swap2\n      swap1\n      pop\n      jump\t// out\n        /* \"#utility.yul\":18200:18425   */\n    tag_253:\n        /* \"#utility.yul\":18340:18374   */\n      0x51756164726f20636f6e206c6f2073746573736f204944206769612720657369\n        /* \"#utility.yul\":18336:18337   */\n      0x00\n        /* \"#utility.yul\":18328:18334   */\n      dup3\n        /* \"#utility.yul\":18324:18338   */\n      add\n        /* \"#utility.yul\":18317:18375   */\n      mstore\n        /* \"#utility.yul\":18409:18417   */\n      0x7374656e74650000000000000000000000000000000000000000000000000000\n        /* \"#utility.yul\":18404:18406   */\n      0x20\n        /* \"#utility.yul\":18396:18402   */\n      dup3\n        /* \"#utility.yul\":18392:18407   */\n      add\n        /* \"#utility.yul\":18385:18418   */\n      mstore\n        /* \"#utility.yul\":18200:18425   */\n      pop\n      jump\t// out\n        /* \"#utility.yul\":18431:18797   */\n    tag_254:\n        /* \"#utility.yul\":18573:18576   */\n      0x00\n        /* \"#utility.yul\":18594:18661   */\n      tag_440\n        /* \"#utility.yul\":18658:18660   */\n      0x26\n        /* \"#utility.yul\":18653:18656   */\n      dup4\n        /* \"#utility.yul\":18594:18661   */\n      tag_237\n      jump\t// in\n    tag_440:\n        /* \"#utility.yul\":18587:18661   */\n      swap2\n      pop\n        /* \"#utility.yul\":18670:18763   */\n      tag_441\n        /* \"#utility.yul\":18759:18762   */\n      dup3\n        /* \"#utility.yul\":18670:18763   */\n      tag_253\n      jump\t// in\n    tag_441:\n        /* \"#utility.yul\":18788:18790   */\n      0x40\n        /* \"#utility.yul\":18783:18786   */\n      dup3\n        /* \"#utility.yul\":18779:18791   */\n      add\n        /* \"#utility.yul\":18772:18791   */\n      swap1\n      pop\n        /* \"#utility.yul\":18431:18797   */\n      swap2\n      swap1\n      pop\n      jump\t// out\n        /* \"#utility.yul\":18803:19222   */\n    tag_166:\n        /* \"#utility.yul\":18969:18973   */\n      0x00\n        /* \"#utility.yul\":19007:19009   */\n      0x20\n        /* \"#utility.yul\":18996:19005   */\n      dup3\n        /* \"#utility.yul\":18992:19010   */\n      add\n        /* \"#utility.yul\":18984:19010   */\n      swap1\n      pop\n        /* \"#utility.yul\":19056:19065   */\n      dup2\n        /* \"#utility.yul\":19050:19054   */\n      dup2\n        /* \"#utility.yul\":19046:19066   */\n      sub\n        /* \"#utility.yul\":19042:19043   */\n      0x00\n        /* \"#utility.yul\":19031:19040   */\n      dup4\n        /* \"#utility.yul\":19027:19044   */\n      add\n        /* \"#utility.yul\":19020:19067   */\n      mstore\n        /* \"#utility.yul\":19084:19215   */\n      tag_443\n        /* \"#utility.yul\":19210:19214   */\n      dup2\n        /* \"#utility.yul\":19084:19215   */\n      tag_254\n      jump\t// in\n    tag_443:\n        /* \"#utility.yul\":19076:19215   */\n      swap1\n      pop\n        /* \"#utility.yul\":18803:19222   */\n      swap2\n      swap1\n      pop\n      jump\t// out\n        /* \"#utility.yul\":19228:19369   */\n    tag_255:\n        /* \"#utility.yul\":19277:19281   */\n      0x00\n        /* \"#utility.yul\":19300:19303   */\n      dup2\n        /* \"#utility.yul\":19292:19303   */\n      swap1\n      pop\n        /* \"#utility.yul\":19323:19326   */\n      dup2\n        /* \"#utility.yul\":19320:19321   */\n      0x00\n        /* \"#utility.yul\":19313:19327   */\n      mstore\n        /* \"#utility.yul\":19357:19361   */\n      0x20\n        /* \"#utility.yul\":19354:19355   */\n      0x00\n        /* \"#utility.yul\":19344:19362   */\n      keccak256\n        /* \"#utility.yul\":19336:19362   */\n      swap1\n      pop\n        /* \"#utility.yul\":19228:19369   */\n      swap2\n      swap1\n      pop\n      jump\t// out\n        /* \"#utility.yul\":19375:19468   */\n    tag_256:\n        /* \"#utility.yul\":19412:19418   */\n      0x00\n        /* \"#utility.yul\":19459:19461   */\n      0x20\n        /* \"#utility.yul\":19454:19456   */\n      0x1f\n        /* \"#utility.yul\":19447:19452   */\n      dup4\n        /* \"#utility.yul\":19443:19457   */\n      add\n        /* \"#utility.yul\":19439:19462   */\n      div\n        /* \"#utility.yul\":19429:19462   */\n      swap1\n      pop\n        /* \"#utility.yul\":19375:19468   */\n      swap2\n      swap1\n      pop\n      jump\t// out\n        /* \"#utility.yul\":19474:19581   */\n    tag_257:\n        /* \"#utility.yul\":19518:19526   */\n      0x00\n        /* \"#utility.yul\":19568:19573   */\n      dup3\n        /* \"#utility.yul\":19562:19566   */\n      dup3\n        /* \"#utility.yul\":19558:19574   */\n      shl\n        /* \"#utility.yul\":19537:19574   */\n      swap1\n      pop\n        /* \"#utility.yul\":19474:19581   */\n      swap3\n      swap2\n      pop\n      pop\n      jump\t// out\n        /* \"#utility.yul\":19587:19980   */\n    tag_258:\n        /* \"#utility.yul\":19656:19662   */\n      0x00\n        /* \"#utility.yul\":19706:19707   */\n      0x08\n        /* \"#utility.yul\":19694:19704   */\n      dup4\n        /* \"#utility.yul\":19690:19708   */\n      mul\n        /* \"#utility.yul\":19729:19826   */\n      tag_448\n        /* \"#utility.yul\":19759:19825   */\n      0xffffffffffffffffffffffffffffffffffffffffffffffffffffffffffffffff\n        /* \"#utility.yul\":19748:19757   */\n      dup3\n        /* \"#utility.yul\":19729:19826   */\n      tag_257\n      jump\t// in\n    tag_448:\n        /* \"#utility.yul\":19847:19886   */\n      tag_449\n        /* \"#utility.yul\":19877:19885   */\n      dup7\n        /* \"#utility.yul\":19866:19875   */\n      dup4\n        /* \"#utility.yul\":19847:19886   */\n      tag_257\n      jump\t// in\n    tag_449:\n        /* \"#utility.yul\":19835:19886   */\n      swap6\n      pop\n        /* \"#utility.yul\":19919:19923   */\n      dup1\n        /* \"#utility.yul\":19915:19924   */\n      not\n        /* \"#utility.yul\":19908:19913   */\n      dup5\n        /* \"#utility.yul\":19904:19925   */\n      and\n        /* \"#utility.yul\":19895:19925   */\n      swap4\n      pop\n        /* \"#utility.yul\":19968:19972   */\n      dup1\n        /* \"#utility.yul\":19958:19966   */\n      dup7\n        /* \"#utility.yul\":19954:19973   */\n      and\n        /* \"#utility.yul\":19947:19952   */\n      dup5\n        /* \"#utility.yul\":19944:19974   */\n      or\n        /* \"#utility.yul\":19934:19974   */\n      swap3\n      pop\n        /* \"#utility.yul\":19663:19980   */\n      pop\n      pop\n        /* \"#utility.yul\":19587:19980   */\n      swap4\n      swap3\n      pop\n      pop\n      pop\n      jump\t// out\n        /* \"#utility.yul\":19986:20046   */\n    tag_259:\n        /* \"#utility.yul\":20014:20017   */\n      0x00\n        /* \"#utility.yul\":20035:20040   */\n      dup2\n        /* \"#utility.yul\":20028:20040   */\n      swap1\n      pop\n        /* \"#utility.yul\":19986:20046   */\n      swap2\n      swap1\n      pop\n      jump\t// out\n        /* \"#utility.yul\":20052:20194   */\n    tag_260:\n        /* \"#utility.yul\":20102:20111   */\n      0x00\n        /* \"#utility.yul\":20135:20188   */\n      tag_452\n        /* \"#utility.yul\":20153:20187   */\n      tag_453\n        /* \"#utility.yul\":20162:20186   */\n      tag_454\n        /* \"#utility.yul\":20180:20185   */\n      dup5\n        /* \"#utility.yul\":20162:20186   */\n      tag_205\n      jump\t// in\n    tag_454:\n        /* \"#utility.yul\":20153:20187   */\n      tag_259\n      jump\t// in\n    tag_453:\n        /* \"#utility.yul\":20135:20188   */\n      tag_205\n      jump\t// in\n    tag_452:\n        /* \"#utility.yul\":20122:20188   */\n      swap1\n      pop\n        /* \"#utility.yul\":20052:20194   */\n      swap2\n      swap1\n      pop\n      jump\t// out\n        /* \"#utility.yul\":20200:20275   */\n    tag_261:\n        /* \"#utility.yul\":20243:20246   */\n      0x00\n        /* \"#utility.yul\":20264:20269   */\n      dup2\n        /* \"#utility.yul\":20257:20269   */\n      swap1\n      pop\n        /* \"#utility.yul\":20200:20275   */\n      swap2\n      swap1\n      pop\n      jump\t// out\n        /* \"#utility.yul\":20281:20550   */\n    tag_262:\n        /* \"#utility.yul\":20391:20430   */\n      tag_457\n        /* \"#utility.yul\":20422:20429   */\n      dup4\n        /* \"#utility.yul\":20391:20430   */\n      tag_260\n      jump\t// in\n    tag_457:\n        /* \"#utility.yul\":20452:20543   */\n      tag_458\n        /* \"#utility.yul\":20501:20542   */\n      tag_459\n        /* \"#utility.yul\":20525:20541   */\n      dup3\n        /* \"#utility.yul\":20501:20542   */\n      tag_261\n      jump\t// in\n    tag_459:\n        /* \"#utility.yul\":20493:20499   */\n      dup5\n        /* \"#utility.yul\":20486:20490   */\n      dup5\n        /* \"#utility.yul\":20480:20491   */\n      sload\n        /* \"#utility.yul\":20452:20543   */\n      tag_258\n      jump\t// in\n    tag_458:\n        /* \"#utility.yul\":20446:20450   */\n      dup3\n        /* \"#utility.yul\":20439:20544   */\n      sstore\n        /* \"#utility.yul\":20357:20550   */\n      pop\n        /* \"#utility.yul\":20281:20550   */\n      pop\n      pop\n      pop\n      jump\t// out\n        /* \"#utility.yul\":20556:20629   */\n    tag_263:\n        /* \"#utility.yul\":20601:20604   */\n      0x00\n        /* \"#utility.yul\":20556:20629   */\n      swap1\n      jump\t// out\n        /* \"#utility.yul\":20635:20824   */\n    tag_264:\n        /* \"#utility.yul\":20712:20744   */\n      tag_462\n      tag_263\n      jump\t// in\n    tag_462:\n        /* \"#utility.yul\":20753:20818   */\n      tag_463\n        /* \"#utility.yul\":20811:20817   */\n      dup2\n        /* \"#utility.yul\":20803:20809   */\n      dup5\n        /* \"#utility.yul\":20797:20801   */\n      dup5\n        /* \"#utility.yul\":20753:20818   */\n      tag_262\n      jump\t// in\n    tag_463:\n        /* \"#utility.yul\":20688:20824   */\n      pop\n        /* \"#utility.yul\":20635:20824   */\n      pop\n      pop\n      jump\t// out\n        /* \"#utility.yul\":20830:21016   */\n    tag_265:\n        /* \"#utility.yul\":20890:21010   */\n    tag_465:\n        /* \"#utility.yul\":20907:20910   */\n      dup2\n        /* \"#utility.yul\":20900:20905   */\n      dup2\n        /* \"#utility.yul\":20897:20911   */\n      lt\n        /* \"#utility.yul\":20890:21010   */\n      iszero\n      tag_467\n      jumpi\n        /* \"#utility.yul\":20961:21000   */\n      tag_468\n        /* \"#utility.yul\":20998:20999   */\n      0x00\n        /* \"#utility.yul\":20991:20996   */\n      dup3\n        /* \"#utility.yul\":20961:21000   */\n      tag_264\n      jump\t// in\n    tag_468:\n        /* \"#utility.yul\":20934:20935   */\n      0x01\n        /* \"#utility.yul\":20927:20932   */\n      dup2\n        /* \"#utility.yul\":20923:20936   */\n      add\n        /* \"#utility.yul\":20914:20936   */\n      swap1\n      pop\n        /* \"#utility.yul\":20890:21010   */\n      jump(tag_465)\n    tag_467:\n        /* \"#utility.yul\":20830:21016   */\n      pop\n      pop\n      jump\t// out\n        /* \"#utility.yul\":21022:21565   */\n    tag_266:\n        /* \"#utility.yul\":21123:21125   */\n      0x1f\n        /* \"#utility.yul\":21118:21121   */\n      dup3\n        /* \"#utility.yul\":21115:21126   */\n      gt\n        /* \"#utility.yul\":21112:21558   */\n      iszero\n      tag_470\n      jumpi\n        /* \"#utility.yul\":21157:21195   */\n      tag_471\n        /* \"#utility.yul\":21189:21194   */\n      dup2\n        /* \"#utility.yul\":21157:21195   */\n      tag_255\n      jump\t// in\n    tag_471:\n        /* \"#utility.yul\":21241:21270   */\n      tag_472\n        /* \"#utility.yul\":21259:21269   */\n      dup5\n        /* \"#utility.yul\":21241:21270   */\n      tag_256\n      jump\t// in\n    tag_472:\n        /* \"#utility.yul\":21231:21239   */\n      dup2\n        /* \"#utility.yul\":21227:21271   */\n      add\n        /* \"#utility.yul\":21424:21426   */\n      0x20\n        /* \"#utility.yul\":21412:21422   */\n      dup6\n        /* \"#utility.yul\":21409:21427   */\n      lt\n        /* \"#utility.yul\":21406:21455   */\n      iszero\n      tag_473\n      jumpi\n        /* \"#utility.yul\":21445:21453   */\n      dup2\n        /* \"#utility.yul\":21430:21453   */\n      swap1\n      pop\n        /* \"#utility.yul\":21406:21455   */\n    tag_473:\n        /* \"#utility.yul\":21468:21548   */\n      tag_474\n        /* \"#utility.yul\":21524:21546   */\n      tag_475\n        /* \"#utility.yul\":21542:21545   */\n      dup6\n        /* \"#utility.yul\":21524:21546   */\n      tag_256\n      jump\t// in\n    tag_475:\n        /* \"#utility.yul\":21514:21522   */\n      dup4\n        /* \"#utility.yul\":21510:21547   */\n      add\n        /* \"#utility.yul\":21497:21508   */\n      dup3\n        /* \"#utility.yul\":21468:21548   */\n      tag_265\n      jump\t// in\n    tag_474:\n        /* \"#utility.yul\":21127:21558   */\n      pop\n      pop\n        /* \"#utility.yul\":21112:21558   */\n    tag_470:\n        /* \"#utility.yul\":21022:21565   */\n      pop\n      pop\n      pop\n      jump\t// out\n        /* \"#utility.yul\":21571:21688   */\n    tag_267:\n        /* \"#utility.yul\":21625:21633   */\n      0x00\n        /* \"#utility.yul\":21675:21680   */\n      dup3\n        /* \"#utility.yul\":21669:21673   */\n      dup3\n        /* \"#utility.yul\":21665:21681   */\n      shr\n        /* \"#utility.yul\":21644:21681   */\n      swap1\n      pop\n        /* \"#utility.yul\":21571:21688   */\n      swap3\n      swap2\n      pop\n      pop\n      jump\t// out\n        /* \"#utility.yul\":21694:21863   */\n    tag_268:\n        /* \"#utility.yul\":21738:21744   */\n      0x00\n        /* \"#utility.yul\":21771:21822   */\n      tag_478\n        /* \"#utility.yul\":21819:21820   */\n      0x00\n        /* \"#utility.yul\":21815:21821   */\n      not\n        /* \"#utility.yul\":21807:21812   */\n      dup5\n        /* \"#utility.yul\":21804:21805   */\n      0x08\n        /* \"#utility.yul\":21800:21813   */\n      mul\n        /* \"#utility.yul\":21771:21822   */\n      tag_267\n      jump\t// in\n    tag_478:\n        /* \"#utility.yul\":21767:21823   */\n      not\n        /* \"#utility.yul\":21852:21856   */\n      dup1\n        /* \"#utility.yul\":21846:21850   */\n      dup4\n        /* \"#utility.yul\":21842:21857   */\n      and\n        /* \"#utility.yul\":21832:21857   */\n      swap2\n      pop\n        /* \"#utility.yul\":21745:21863   */\n      pop\n        /* \"#utility.yul\":21694:21863   */\n      swap3\n      swap2\n      pop\n      pop\n      jump\t// out\n        /* \"#utility.yul\":21868:22163   */\n    tag_269:\n        /* \"#utility.yul\":21944:21948   */\n      0x00\n        /* \"#utility.yul\":22090:22119   */\n      tag_480\n        /* \"#utility.yul\":22115:22118   */\n      dup4\n        /* \"#utility.yul\":22109:22113   */\n      dup4\n        /* \"#utility.yul\":22090:22119   */\n      tag_268\n      jump\t// in\n    tag_480:\n        /* \"#utility.yul\":22082:22119   */\n      swap2\n      pop\n        /* \"#utility.yul\":22152:22155   */\n      dup3\n        /* \"#utility.yul\":22149:22150   */\n      0x02\n        /* \"#utility.yul\":22145:22156   */\n      mul\n        /* \"#utility.yul\":22139:22143   */\n      dup3\n        /* \"#utility.yul\":22136:22157   */\n      or\n        /* \"#utility.yul\":22128:22157   */\n      swap1\n      pop\n        /* \"#utility.yul\":21868:22163   */\n      swap3\n      swap2\n      pop\n      pop\n      jump\t// out\n        /* \"#utility.yul\":22168:23563   */\n    tag_168:\n        /* \"#utility.yul\":22285:22322   */\n      tag_482\n        /* \"#utility.yul\":22318:22321   */\n      dup3\n        /* \"#utility.yul\":22285:22322   */\n      tag_218\n      jump\t// in\n    tag_482:\n        /* \"#utility.yul\":22387:22405   */\n      0xffffffffffffffff\n        /* \"#utility.yul\":22379:22385   */\n      dup2\n        /* \"#utility.yul\":22376:22406   */\n      gt\n        /* \"#utility.yul\":22373:22429   */\n      iszero\n      tag_483\n      jumpi\n        /* \"#utility.yul\":22409:22427   */\n      tag_484\n      tag_65\n      jump\t// in\n    tag_484:\n        /* \"#utility.yul\":22373:22429   */\n    tag_483:\n        /* \"#utility.yul\":22453:22491   */\n      tag_485\n        /* \"#utility.yul\":22485:22489   */\n      dup3\n        /* \"#utility.yul\":22479:22490   */\n      sload\n        /* \"#utility.yul\":22453:22491   */\n      tag_77\n      jump\t// in\n    tag_485:\n        /* \"#utility.yul\":22538:22605   */\n      tag_486\n        /* \"#utility.yul\":22598:22604   */\n      dup3\n        /* \"#utility.yul\":22590:22596   */\n      dup3\n        /* \"#utility.yul\":22584:22588   */\n      dup6\n        /* \"#utility.yul\":22538:22605   */\n      tag_266\n      jump\t// in\n    tag_486:\n        /* \"#utility.yul\":22632:22633   */\n      0x00\n        /* \"#utility.yul\":22656:22660   */\n      0x20\n        /* \"#utility.yul\":22643:22660   */\n      swap1\n      pop\n        /* \"#utility.yul\":22688:22690   */\n      0x1f\n        /* \"#utility.yul\":22680:22686   */\n      dup4\n        /* \"#utility.yul\":22677:22691   */\n      gt\n        /* \"#utility.yul\":22705:22706   */\n      0x01\n        /* \"#utility.yul\":22700:23318   */\n      dup2\n      eq\n      tag_488\n      jumpi\n        /* \"#utility.yul\":23362:23363   */\n      0x00\n        /* \"#utility.yul\":23379:23385   */\n      dup5\n        /* \"#utility.yul\":23376:23453   */\n      iszero\n      tag_489\n      jumpi\n        /* \"#utility.yul\":23428:23437   */\n      dup3\n        /* \"#utility.yul\":23423:23426   */\n      dup8\n        /* \"#utility.yul\":23419:23438   */\n      add\n        /* \"#utility.yul\":23413:23439   */\n      mload\n        /* \"#utility.yul\":23404:23439   */\n      swap1\n      pop\n        /* \"#utility.yul\":23376:23453   */\n    tag_489:\n        /* \"#utility.yul\":23479:23546   */\n      tag_490\n        /* \"#utility.yul\":23539:23545   */\n      dup6\n        /* \"#utility.yul\":23532:23537   */\n      dup3\n        /* \"#utility.yul\":23479:23546   */\n      tag_269\n      jump\t// in\n    tag_490:\n        /* \"#utility.yul\":23473:23477   */\n      dup7\n        /* \"#utility.yul\":23466:23547   */\n      sstore\n        /* \"#utility.yul\":23335:23557   */\n      pop\n        /* \"#utility.yul\":22670:23557   */\n      jump(tag_487)\n        /* \"#utility.yul\":22700:23318   */\n    tag_488:\n        /* \"#utility.yul\":22752:22756   */\n      0x1f\n        /* \"#utility.yul\":22748:22757   */\n      not\n        /* \"#utility.yul\":22740:22746   */\n      dup5\n        /* \"#utility.yul\":22736:22758   */\n      and\n        /* \"#utility.yul\":22786:22823   */\n      tag_491\n        /* \"#utility.yul\":22818:22822   */\n      dup7\n        /* \"#utility.yul\":22786:22823   */\n      tag_255\n      jump\t// in\n    tag_491:\n        /* \"#utility.yul\":22845:22846   */\n      0x00\n        /* \"#utility.yul\":22859:23067   */\n    tag_492:\n        /* \"#utility.yul\":22873:22880   */\n      dup3\n        /* \"#utility.yul\":22870:22871   */\n      dup2\n        /* \"#utility.yul\":22867:22881   */\n      lt\n        /* \"#utility.yul\":22859:23067   */\n      iszero\n      tag_494\n      jumpi\n        /* \"#utility.yul\":22952:22961   */\n      dup5\n        /* \"#utility.yul\":22947:22950   */\n      dup10\n        /* \"#utility.yul\":22943:22962   */\n      add\n        /* \"#utility.yul\":22937:22963   */\n      mload\n        /* \"#utility.yul\":22929:22935   */\n      dup3\n        /* \"#utility.yul\":22922:22964   */\n      sstore\n        /* \"#utility.yul\":23003:23004   */\n      0x01\n        /* \"#utility.yul\":22995:23001   */\n      dup3\n        /* \"#utility.yul\":22991:23005   */\n      add\n        /* \"#utility.yul\":22981:23005   */\n      swap2\n      pop\n        /* \"#utility.yul\":23050:23052   */\n      0x20\n        /* \"#utility.yul\":23039:23048   */\n      dup6\n        /* \"#utility.yul\":23035:23053   */\n      add\n        /* \"#utility.yul\":23022:23053   */\n      swap5\n      pop\n        /* \"#utility.yul\":22896:22900   */\n      0x20\n        /* \"#utility.yul\":22893:22894   */\n      dup2\n        /* \"#utility.yul\":22889:22901   */\n      add\n        /* \"#utility.yul\":22884:22901   */\n      swap1\n      pop\n        /* \"#utility.yul\":22859:23067   */\n      jump(tag_492)\n    tag_494:\n        /* \"#utility.yul\":23095:23101   */\n      dup7\n        /* \"#utility.yul\":23086:23093   */\n      dup4\n        /* \"#utility.yul\":23083:23102   */\n      lt\n        /* \"#utility.yul\":23080:23259   */\n      iszero\n      tag_495\n      jumpi\n        /* \"#utility.yul\":23153:23162   */\n      dup5\n        /* \"#utility.yul\":23148:23151   */\n      dup10\n        /* \"#utility.yul\":23144:23163   */\n      add\n        /* \"#utility.yul\":23138:23164   */\n      mload\n        /* \"#utility.yul\":23196:23244   */\n      tag_496\n        /* \"#utility.yul\":23238:23242   */\n      0x1f\n        /* \"#utility.yul\":23230:23236   */\n      dup10\n        /* \"#utility.yul\":23226:23243   */\n      and\n        /* \"#utility.yul\":23215:23224   */\n      dup3\n        /* \"#utility.yul\":23196:23244   */\n      tag_268\n      jump\t// in\n    tag_496:\n        /* \"#utility.yul\":23188:23194   */\n      dup4\n        /* \"#utility.yul\":23181:23245   */\n      sstore\n        /* \"#utility.yul\":23103:23259   */\n      pop\n        /* \"#utility.yul\":23080:23259   */\n    tag_495:\n        /* \"#utility.yul\":23305:23306   */\n      0x01\n        /* \"#utility.yul\":23301:23302   */\n      0x02\n        /* \"#utility.yul\":23293:23299   */\n      dup9\n        /* \"#utility.yul\":23289:23303   */\n      mul\n        /* \"#utility.yul\":23285:23307   */\n      add\n        /* \"#utility.yul\":23279:23283   */\n      dup9\n        /* \"#utility.yul\":23272:23308   */\n      sstore\n        /* \"#utility.yul\":22707:23318   */\n      pop\n      pop\n      pop\n        /* \"#utility.yul\":22670:23557   */\n    tag_487:\n      pop\n        /* \"#utility.yul\":22260:23563   */\n      pop\n      pop\n      pop\n        /* \"#utility.yul\":22168:23563   */\n      pop\n      pop\n      jump\t// out\n        /* \"#utility.yul\":23569:23749   */\n    tag_270:\n        /* \"#utility.yul\":23617:23694   */\n      0x4e487b7100000000000000000000000000000000000000000000000000000000\n        /* \"#utility.yul\":23614:23615   */\n      0x00\n        /* \"#utility.yul\":23607:23695   */\n      mstore\n        /* \"#utility.yul\":23714:23718   */\n      0x11\n        /* \"#utility.yul\":23711:23712   */\n      0x04\n        /* \"#utility.yul\":23704:23719   */\n      mstore\n        /* \"#utility.yul\":23738:23742   */\n      0x24\n        /* \"#utility.yul\":23735:23736   */\n      0x00\n        /* \"#utility.yul\":23728:23743   */\n      revert\n        /* \"#utility.yul\":23755:23988   */\n    tag_173:\n        /* \"#utility.yul\":23794:23797   */\n      0x00\n        /* \"#utility.yul\":23817:23841   */\n      tag_499\n        /* \"#utility.yul\":23835:23840   */\n      dup3\n        /* \"#utility.yul\":23817:23841   */\n      tag_205\n      jump\t// in\n    tag_499:\n        /* \"#utility.yul\":23808:23841   */\n      swap2\n      pop\n        /* \"#utility.yul\":23863:23929   */\n      0xffffffffffffffffffffffffffffffffffffffffffffffffffffffffffffffff\n        /* \"#utility.yul\":23856:23861   */\n      dup3\n        /* \"#utility.yul\":23853:23930   */\n      sub\n        /* \"#utility.yul\":23850:23953   */\n      tag_500\n      jumpi\n        /* \"#utility.yul\":23933:23951   */\n      tag_501\n      tag_270\n      jump\t// in\n    tag_501:\n        /* \"#utility.yul\":23850:23953   */\n    tag_500:\n        /* \"#utility.yul\":23980:23981   */\n      0x01\n        /* \"#utility.yul\":23973:23978   */\n      dup3\n        /* \"#utility.yul\":23969:23982   */\n      add\n        /* \"#utility.yul\":23962:23982   */\n      swap1\n      pop\n        /* \"#utility.yul\":23755:23988   */\n      swap2\n      swap1\n      pop\n      jump\t// out\n\n    auxdata: 0xa2646970667358221220212ea2ddb3fc83bd02707ded054c9ebe21b2f479b6004026d0fd90a2a59eb1c764736f6c63430008160033\n}\n",
				"bytecode": {
					"linkReferences": {},
					"object": "608060405234801561000f575f80fd5b505f8081905550611e57806100235f395ff3fe608060405260043610610085575f3560e01c80636e65db3e116100585780636e65db3e14610155578063a8eca8b214610196578063ac75006e146101b2578063c7b92d70146101da578063f71426941461021b57610085565b806303454b461461008957806310b46615146100b357806315ec8815146100ef5780636963ba5c1461012b575b5f80fd5b348015610094575f80fd5b5061009d610257565b6040516100aa9190611241565b60405180910390f35b3480156100be575f80fd5b506100d960048036038101906100d491906112c5565b61025c565b6040516100e691906114f9565b60405180910390f35b3480156100fa575f80fd5b50610115600480360381019061011091906112c5565b61061d565b60405161012291906115c1565b60405180910390f35b348015610136575f80fd5b5061013f6106b5565b60405161014c91906114f9565b60405180910390f35b348015610160575f80fd5b5061017b6004803603810190610176919061160b565b6109cc565b60405161018d9695949392919061168d565b60405180910390f35b6101b060048036038101906101ab919061160b565b610c28565b005b3480156101bd575f80fd5b506101d860048036038101906101d39190611834565b610d7f565b005b3480156101e5575f80fd5b5061020060048036038101906101fb919061160b565b610eb4565b6040516102129695949392919061168d565b60405180910390f35b348015610226575f80fd5b50610241600480360381019061023c919061191b565b611133565b60405161024e9190611241565b60405180910390f35b5f5481565b60605f60025f8473ffffffffffffffffffffffffffffffffffffffff1673ffffffffffffffffffffffffffffffffffffffff1681526020019081526020015f208054806020026020016040519081016040528092919081815260200182805480156102e457602002820191905f5260205f20905b8154815260200190600101908083116102d0575b505050505090505f815167ffffffffffffffff81111561030757610306611710565b5b60405190808252806020026020018201604052801561034057816020015b61032d6111f3565b8152602001906001900390816103255790505b5090505f5b82518110156106125760015f84838151811061036457610363611959565b5b602002602001015181526020019081526020015f206040518060c00160405290815f820154815260200160018201805461039d906119b3565b80601f01602080910402602001604051908101604052809291908181526020018280546103c9906119b3565b80156104145780601f106103eb57610100808354040283529160200191610414565b820191905f5260205f20905b8154815290600101906020018083116103f757829003601f168201915b5050505050815260200160028201805461042d906119b3565b80601f0160208091040260200160405190810160405280929190818152602001828054610459906119b3565b80156104a45780601f1061047b576101008083540402835291602001916104a4565b820191905f5260205f20905b81548152906001019060200180831161048757829003601f168201915b505050505081526020016003820180546104bd906119b3565b80601f01602080910402602001604051908101604052809291908181526020018280546104e9906119b3565b80156105345780601f1061050b57610100808354040283529160200191610534565b820191905f5260205f20905b81548152906001019060200180831161051757829003601f168201915b5050505050815260200160048201805461054d906119b3565b80601f0160208091040260200160405190810160405280929190818152602001828054610579906119b3565b80156105c45780601f1061059b576101008083540402835291602001916105c4565b820191905f5260205f20905b8154815290600101906020018083116105a757829003601f168201915b50505050508152602001600582015f9054906101000a900460ff1615151515815250508282815181106105fa576105f9611959565b5b60200260200101819052508080600101915050610345565b508092505050919050565b60605f60025f8473ffffffffffffffffffffffffffffffffffffffff1673ffffffffffffffffffffffffffffffffffffffff1681526020019081526020015f208054806020026020016040519081016040528092919081815260200182805480156106a557602002820191905f5260205f20905b815481526020019060010190808311610691575b5050505050905080915050919050565b60605f805467ffffffffffffffff8111156106d3576106d2611710565b5b60405190808252806020026020018201604052801561070c57816020015b6106f96111f3565b8152602001906001900390816106f15790505b5090505f5b5f548110156109c45760015f8281526020019081526020015f206040518060c00160405290815f820154815260200160018201805461074f906119b3565b80601f016020809104026020016040519081016040528092919081815260200182805461077b906119b3565b80156107c65780601f1061079d576101008083540402835291602001916107c6565b820191905f5260205f20905b8154815290600101906020018083116107a957829003601f168201915b505050505081526020016002820180546107df906119b3565b80601f016020809104026020016040519081016040528092919081815260200182805461080b906119b3565b80156108565780601f1061082d57610100808354040283529160200191610856565b820191905f5260205f20905b81548152906001019060200180831161083957829003601f168201915b5050505050815260200160038201805461086f906119b3565b80601f016020809104026020016040519081016040528092919081815260200182805461089b906119b3565b80156108e65780601f106108bd576101008083540402835291602001916108e6565b820191905f5260205f20905b8154815290600101906020018083116108c957829003601f168201915b505050505081526020016004820180546108ff906119b3565b80601f016020809104026020016040519081016040528092919081815260200182805461092b906119b3565b80156109765780601f1061094d57610100808354040283529160200191610976565b820191905f5260205f20905b81548152906001019060200180831161095957829003601f168201915b50505050508152602001600582015f9054906101000a900460ff1615151515815250508282815181106109ac576109ab611959565b5b60200260200101819052508080600101915050610711565b508091505090565b6001602052805f5260405f205f91509050805f0154908060010180546109f1906119b3565b80601f0160208091040260200160405190810160405280929190818152602001828054610a1d906119b3565b8015610a685780601f10610a3f57610100808354040283529160200191610a68565b820191905f5260205f20905b815481529060010190602001808311610a4b57829003601f168201915b505050505090806002018054610a7d906119b3565b80601f0160208091040260200160405190810160405280929190818152602001828054610aa9906119b3565b8015610af45780601f10610acb57610100808354040283529160200191610af4565b820191905f5260205f20905b815481529060010190602001808311610ad757829003601f168201915b505050505090806003018054610b09906119b3565b80601f0160208091040260200160405190810160405280929190818152602001828054610b35906119b3565b8015610b805780601f10610b5757610100808354040283529160200191610b80565b820191905f5260205f20905b815481529060010190602001808311610b6357829003601f168201915b505050505090806004018054610b95906119b3565b80601f0160208091040260200160405190810160405280929190818152602001828054610bc1906119b3565b8015610c0c5780601f10610be357610100808354040283529160200191610c0c565b820191905f5260205f20905b815481529060010190602001808311610bef57829003601f168201915b505050505090806005015f9054906101000a900460ff16905086565b5f60015f8381526020019081526020015f209050806005015f9054906101000a900460ff16610c8c576040517f08c379a0000000000000000000000000000000000000000000000000000000008152600401610c8390611a2d565b60405180910390fd5b610c96338361115e565b15610cd6576040517f08c379a0000000000000000000000000000000000000000000000000000000008152600401610ccd90611a95565b60405180910390fd5b60025f3373ffffffffffffffffffffffffffffffffffffffff1673ffffffffffffffffffffffffffffffffffffffff1681526020019081526020015f2082908060018154018082558091505060019003905f5260205f20015f9091909190915055813373ffffffffffffffffffffffffffffffffffffffff167f1219234621cfbda08eed13673c6e71cbf4b399ec00b0cdc44d8366e22d06670060405160405180910390a35050565b5f60015f8781526020019081526020015f205f015414610dd4576040517f08c379a0000000000000000000000000000000000000000000000000000000008152600401610dcb90611b23565b60405180910390fd5b6040518060c001604052808681526020018581526020018481526020018381526020018281526020016001151581525060015f8781526020019081526020015f205f820151815f01556020820151816001019081610e329190611cde565b506040820151816002019081610e489190611cde565b506060820151816003019081610e5e9190611cde565b506080820151816004019081610e749190611cde565b5060a0820151816005015f6101000a81548160ff0219169083151502179055509050505f80815480929190610ea890611dda565b91905055505050505050565b5f6060806060805f8060015f8981526020019081526020015f209050805f015481600101826002018360030184600401856005015f9054906101000a900460ff16848054610f01906119b3565b80601f0160208091040260200160405190810160405280929190818152602001828054610f2d906119b3565b8015610f785780601f10610f4f57610100808354040283529160200191610f78565b820191905f5260205f20905b815481529060010190602001808311610f5b57829003601f168201915b50505050509450838054610f8b906119b3565b80601f0160208091040260200160405190810160405280929190818152602001828054610fb7906119b3565b80156110025780601f10610fd957610100808354040283529160200191611002565b820191905f5260205f20905b815481529060010190602001808311610fe557829003601f168201915b50505050509350828054611015906119b3565b80601f0160208091040260200160405190810160405280929190818152602001828054611041906119b3565b801561108c5780601f106110635761010080835404028352916020019161108c565b820191905f5260205f20905b81548152906001019060200180831161106f57829003601f168201915b5050505050925081805461109f906119b3565b80601f01602080910402602001604051908101604052809291908181526020018280546110cb906119b3565b80156111165780601f106110ed57610100808354040283529160200191611116565b820191905f5260205f20905b8154815290600101906020018083116110f957829003601f168201915b505050505091509650965096509650965096505091939550919395565b6002602052815f5260405f20818154811061114c575f80fd5b905f5260205f20015f91509150505481565b5f8060025f8573ffffffffffffffffffffffffffffffffffffffff1673ffffffffffffffffffffffffffffffffffffffff1681526020019081526020015f2090505f5b81805490508110156111e757838282815481106111c1576111c0611959565b5b905f5260205f200154036111da576001925050506111ed565b80806001019150506111a1565b505f9150505b92915050565b6040518060c001604052805f8152602001606081526020016060815260200160608152602001606081526020015f151581525090565b5f819050919050565b61123b81611229565b82525050565b5f6020820190506112545f830184611232565b92915050565b5f604051905090565b5f80fd5b5f80fd5b5f73ffffffffffffffffffffffffffffffffffffffff82169050919050565b5f6112948261126b565b9050919050565b6112a48161128a565b81146112ae575f80fd5b50565b5f813590506112bf8161129b565b92915050565b5f602082840312156112da576112d9611263565b5b5f6112e7848285016112b1565b91505092915050565b5f81519050919050565b5f82825260208201905092915050565b5f819050602082019050919050565b61132281611229565b82525050565b5f81519050919050565b5f82825260208201905092915050565b5f5b8381101561135f578082015181840152602081019050611344565b5f8484015250505050565b5f601f19601f8301169050919050565b5f61138482611328565b61138e8185611332565b935061139e818560208601611342565b6113a78161136a565b840191505092915050565b5f8115159050919050565b6113c6816113b2565b82525050565b5f60c083015f8301516113e15f860182611319565b50602083015184820360208601526113f9828261137a565b91505060408301518482036040860152611413828261137a565b9150506060830151848203606086015261142d828261137a565b91505060808301518482036080860152611447828261137a565b91505060a083015161145c60a08601826113bd565b508091505092915050565b5f61147283836113cc565b905092915050565b5f602082019050919050565b5f611490826112f0565b61149a81856112fa565b9350836020820285016114ac8561130a565b805f5b858110156114e757848403895281516114c88582611467565b94506114d38361147a565b925060208a019950506001810190506114af565b50829750879550505050505092915050565b5f6020820190508181035f8301526115118184611486565b905092915050565b5f81519050919050565b5f82825260208201905092915050565b5f819050602082019050919050565b5f61154d8383611319565b60208301905092915050565b5f602082019050919050565b5f61156f82611519565b6115798185611523565b935061158483611533565b805f5b838110156115b457815161159b8882611542565b97506115a683611559565b925050600181019050611587565b5085935050505092915050565b5f6020820190508181035f8301526115d98184611565565b905092915050565b6115ea81611229565b81146115f4575f80fd5b50565b5f81359050611605816115e1565b92915050565b5f602082840312156116205761161f611263565b5b5f61162d848285016115f7565b91505092915050565b5f82825260208201905092915050565b5f61165082611328565b61165a8185611636565b935061166a818560208601611342565b6116738161136a565b840191505092915050565b611687816113b2565b82525050565b5f60c0820190506116a05f830189611232565b81810360208301526116b28188611646565b905081810360408301526116c68187611646565b905081810360608301526116da8186611646565b905081810360808301526116ee8185611646565b90506116fd60a083018461167e565b979650505050505050565b5f80fd5b5f80fd5b7f4e487b71000000000000000000000000000000000000000000000000000000005f52604160045260245ffd5b6117468261136a565b810181811067ffffffffffffffff8211171561176557611764611710565b5b80604052505050565b5f61177761125a565b9050611783828261173d565b919050565b5f67ffffffffffffffff8211156117a2576117a1611710565b5b6117ab8261136a565b9050602081019050919050565b828183375f83830152505050565b5f6117d86117d384611788565b61176e565b9050828152602081018484840111156117f4576117f361170c565b5b6117ff8482856117b8565b509392505050565b5f82601f83011261181b5761181a611708565b5b813561182b8482602086016117c6565b91505092915050565b5f805f805f60a0868803121561184d5761184c611263565b5b5f61185a888289016115f7565b955050602086013567ffffffffffffffff81111561187b5761187a611267565b5b61188788828901611807565b945050604086013567ffffffffffffffff8111156118a8576118a7611267565b5b6118b488828901611807565b935050606086013567ffffffffffffffff8111156118d5576118d4611267565b5b6118e188828901611807565b925050608086013567ffffffffffffffff81111561190257611901611267565b5b61190e88828901611807565b9150509295509295909350565b5f806040838503121561193157611930611263565b5b5f61193e858286016112b1565b925050602061194f858286016115f7565b9150509250929050565b7f4e487b71000000000000000000000000000000000000000000000000000000005f52603260045260245ffd5b7f4e487b71000000000000000000000000000000000000000000000000000000005f52602260045260245ffd5b5f60028204905060018216806119ca57607f821691505b6020821081036119dd576119dc611986565b5b50919050565b7f496c2071756164726f206e6f6e20652720646973706f6e6962696c65000000005f82015250565b5f611a17601c83611636565b9150611a22826119e3565b602082019050919050565b5f6020820190508181035f830152611a4481611a0b565b9050919050565b7f486169206769612720636f6d707261746f2071756573746f2071756164726f005f82015250565b5f611a7f601f83611636565b9150611a8a82611a4b565b602082019050919050565b5f6020820190508181035f830152611aac81611a73565b9050919050565b7f51756164726f20636f6e206c6f2073746573736f2049442067696127206573695f8201527f7374656e74650000000000000000000000000000000000000000000000000000602082015250565b5f611b0d602683611636565b9150611b1882611ab3565b604082019050919050565b5f6020820190508181035f830152611b3a81611b01565b9050919050565b5f819050815f5260205f209050919050565b5f6020601f8301049050919050565b5f82821b905092915050565b5f60088302611b9d7fffffffffffffffffffffffffffffffffffffffffffffffffffffffffffffffff82611b62565b611ba78683611b62565b95508019841693508086168417925050509392505050565b5f819050919050565b5f611be2611bdd611bd884611229565b611bbf565b611229565b9050919050565b5f819050919050565b611bfb83611bc8565b611c0f611c0782611be9565b848454611b6e565b825550505050565b5f90565b611c23611c17565b611c2e818484611bf2565b505050565b5b81811015611c5157611c465f82611c1b565b600181019050611c34565b5050565b601f821115611c9657611c6781611b41565b611c7084611b53565b81016020851015611c7f578190505b611c93611c8b85611b53565b830182611c33565b50505b505050565b5f82821c905092915050565b5f611cb65f1984600802611c9b565b1980831691505092915050565b5f611cce8383611ca7565b9150826002028217905092915050565b611ce782611328565b67ffffffffffffffff811115611d0057611cff611710565b5b611d0a82546119b3565b611d15828285611c55565b5f60209050601f831160018114611d46575f8415611d34578287015190505b611d3e8582611cc3565b865550611da5565b601f198416611d5486611b41565b5f5b82811015611d7b57848901518255600182019150602085019450602081019050611d56565b86831015611d985784890151611d94601f891682611ca7565b8355505b6001600288020188555050505b505050505050565b7f4e487b71000000000000000000000000000000000000000000000000000000005f52601160045260245ffd5b5f611de482611229565b91507fffffffffffffffffffffffffffffffffffffffffffffffffffffffffffffffff8203611e1657611e15611dad565b5b60018201905091905056fea2646970667358221220212ea2ddb3fc83bd02707ded054c9ebe21b2f479b6004026d0fd90a2a59eb1c764736f6c63430008160033",
					"opcodes": "PUSH1 0x80 PUSH1 0x40 MSTORE CALLVALUE DUP1 ISZERO PUSH2 0xF JUMPI PUSH0 DUP1 REVERT JUMPDEST POP PUSH0 DUP1 DUP2 SWAP1 SSTORE POP PUSH2 0x1E57 DUP1 PUSH2 0x23 PUSH0 CODECOPY PUSH0 RETURN INVALID PUSH1 0x80 PUSH1 0x40 MSTORE PUSH1 0x4 CALLDATASIZE LT PUSH2 0x85 JUMPI PUSH0 CALLDATALOAD PUSH1 0xE0 SHR DUP1 PUSH4 0x6E65DB3E GT PUSH2 0x58 JUMPI DUP1 PUSH4 0x6E65DB3E EQ PUSH2 0x155 JUMPI DUP1 PUSH4 0xA8ECA8B2 EQ PUSH2 0x196 JUMPI DUP1 PUSH4 0xAC75006E EQ PUSH2 0x1B2 JUMPI DUP1 PUSH4 0xC7B92D70 EQ PUSH2 0x1DA JUMPI DUP1 PUSH4 0xF7142694 EQ PUSH2 0x21B JUMPI PUSH2 0x85 JUMP JUMPDEST DUP1 PUSH4 0x3454B46 EQ PUSH2 0x89 JUMPI DUP1 PUSH4 0x10B46615 EQ PUSH2 0xB3 JUMPI DUP1 PUSH4 0x15EC8815 EQ PUSH2 0xEF JUMPI DUP1 PUSH4 0x6963BA5C EQ PUSH2 0x12B JUMPI JUMPDEST PUSH0 DUP1 REVERT JUMPDEST CALLVALUE DUP1 ISZERO PUSH2 0x94 JUMPI PUSH0 DUP1 REVERT JUMPDEST POP PUSH2 0x9D PUSH2 0x257 JUMP JUMPDEST PUSH1 0x40 MLOAD PUSH2 0xAA SWAP2 SWAP1 PUSH2 0x1241 JUMP JUMPDEST PUSH1 0x40 MLOAD DUP1 SWAP2 SUB SWAP1 RETURN JUMPDEST CALLVALUE DUP1 ISZERO PUSH2 0xBE JUMPI PUSH0 DUP1 REVERT JUMPDEST POP PUSH2 0xD9 PUSH1 0x4 DUP1 CALLDATASIZE SUB DUP2 ADD SWAP1 PUSH2 0xD4 SWAP2 SWAP1 PUSH2 0x12C5 JUMP JUMPDEST PUSH2 0x25C JUMP JUMPDEST PUSH1 0x40 MLOAD PUSH2 0xE6 SWAP2 SWAP1 PUSH2 0x14F9 JUMP JUMPDEST PUSH1 0x40 MLOAD DUP1 SWAP2 SUB SWAP1 RETURN JUMPDEST CALLVALUE DUP1 ISZERO PUSH2 0xFA JUMPI PUSH0 DUP1 REVERT JUMPDEST POP PUSH2 0x115 PUSH1 0x4 DUP1 CALLDATASIZE SUB DUP2 ADD SWAP1 PUSH2 0x110 SWAP2 SWAP1 PUSH2 0x12C5 JUMP JUMPDEST PUSH2 0x61D JUMP JUMPDEST PUSH1 0x40 MLOAD PUSH2 0x122 SWAP2 SWAP1 PUSH2 0x15C1 JUMP JUMPDEST PUSH1 0x40 MLOAD DUP1 SWAP2 SUB SWAP1 RETURN JUMPDEST CALLVALUE DUP1 ISZERO PUSH2 0x136 JUMPI PUSH0 DUP1 REVERT JUMPDEST POP PUSH2 0x13F PUSH2 0x6B5 JUMP JUMPDEST PUSH1 0x40 MLOAD PUSH2 0x14C SWAP2 SWAP1 PUSH2 0x14F9 JUMP JUMPDEST PUSH1 0x40 MLOAD DUP1 SWAP2 SUB SWAP1 RETURN JUMPDEST CALLVALUE DUP1 ISZERO PUSH2 0x160 JUMPI PUSH0 DUP1 REVERT JUMPDEST POP PUSH2 0x17B PUSH1 0x4 DUP1 CALLDATASIZE SUB DUP2 ADD SWAP1 PUSH2 0x176 SWAP2 SWAP1 PUSH2 0x160B JUMP JUMPDEST PUSH2 0x9CC JUMP JUMPDEST PUSH1 0x40 MLOAD PUSH2 0x18D SWAP7 SWAP6 SWAP5 SWAP4 SWAP3 SWAP2 SWAP1 PUSH2 0x168D JUMP JUMPDEST PUSH1 0x40 MLOAD DUP1 SWAP2 SUB SWAP1 RETURN JUMPDEST PUSH2 0x1B0 PUSH1 0x4 DUP1 CALLDATASIZE SUB DUP2 ADD SWAP1 PUSH2 0x1AB SWAP2 SWAP1 PUSH2 0x160B JUMP JUMPDEST PUSH2 0xC28 JUMP JUMPDEST STOP JUMPDEST CALLVALUE DUP1 ISZERO PUSH2 0x1BD JUMPI PUSH0 DUP1 REVERT JUMPDEST POP PUSH2 0x1D8 PUSH1 0x4 DUP1 CALLDATASIZE SUB DUP2 ADD SWAP1 PUSH2 0x1D3 SWAP2 SWAP1 PUSH2 0x1834 JUMP JUMPDEST PUSH2 0xD7F JUMP JUMPDEST STOP JUMPDEST CALLVALUE DUP1 ISZERO PUSH2 0x1E5 JUMPI PUSH0 DUP1 REVERT JUMPDEST POP PUSH2 0x200 PUSH1 0x4 DUP1 CALLDATASIZE SUB DUP2 ADD SWAP1 PUSH2 0x1FB SWAP2 SWAP1 PUSH2 0x160B JUMP JUMPDEST PUSH2 0xEB4 JUMP JUMPDEST PUSH1 0x40 MLOAD PUSH2 0x212 SWAP7 SWAP6 SWAP5 SWAP4 SWAP3 SWAP2 SWAP1 PUSH2 0x168D JUMP JUMPDEST PUSH1 0x40 MLOAD DUP1 SWAP2 SUB SWAP1 RETURN JUMPDEST CALLVALUE DUP1 ISZERO PUSH2 0x226 JUMPI PUSH0 DUP1 REVERT JUMPDEST POP PUSH2 0x241 PUSH1 0x4 DUP1 CALLDATASIZE SUB DUP2 ADD SWAP1 PUSH2 0x23C SWAP2 SWAP1 PUSH2 0x191B JUMP JUMPDEST PUSH2 0x1133 JUMP JUMPDEST PUSH1 0x40 MLOAD PUSH2 0x24E SWAP2 SWAP1 PUSH2 0x1241 JUMP JUMPDEST PUSH1 0x40 MLOAD DUP1 SWAP2 SUB SWAP1 RETURN JUMPDEST PUSH0 SLOAD DUP2 JUMP JUMPDEST PUSH1 0x60 PUSH0 PUSH1 0x2 PUSH0 DUP5 PUSH20 0xFFFFFFFFFFFFFFFFFFFFFFFFFFFFFFFFFFFFFFFF AND PUSH20 0xFFFFFFFFFFFFFFFFFFFFFFFFFFFFFFFFFFFFFFFF AND DUP2 MSTORE PUSH1 0x20 ADD SWAP1 DUP2 MSTORE PUSH1 0x20 ADD PUSH0 KECCAK256 DUP1 SLOAD DUP1 PUSH1 0x20 MUL PUSH1 0x20 ADD PUSH1 0x40 MLOAD SWAP1 DUP2 ADD PUSH1 0x40 MSTORE DUP1 SWAP3 SWAP2 SWAP1 DUP2 DUP2 MSTORE PUSH1 0x20 ADD DUP3 DUP1 SLOAD DUP1 ISZERO PUSH2 0x2E4 JUMPI PUSH1 0x20 MUL DUP3 ADD SWAP2 SWAP1 PUSH0 MSTORE PUSH1 0x20 PUSH0 KECCAK256 SWAP1 JUMPDEST DUP2 SLOAD DUP2 MSTORE PUSH1 0x20 ADD SWAP1 PUSH1 0x1 ADD SWAP1 DUP1 DUP4 GT PUSH2 0x2D0 JUMPI JUMPDEST POP POP POP POP POP SWAP1 POP PUSH0 DUP2 MLOAD PUSH8 0xFFFFFFFFFFFFFFFF DUP2 GT ISZERO PUSH2 0x307 JUMPI PUSH2 0x306 PUSH2 0x1710 JUMP JUMPDEST JUMPDEST PUSH1 0x40 MLOAD SWAP1 DUP1 DUP3 MSTORE DUP1 PUSH1 0x20 MUL PUSH1 0x20 ADD DUP3 ADD PUSH1 0x40 MSTORE DUP1 ISZERO PUSH2 0x340 JUMPI DUP2 PUSH1 0x20 ADD JUMPDEST PUSH2 0x32D PUSH2 0x11F3 JUMP JUMPDEST DUP2 MSTORE PUSH1 0x20 ADD SWAP1 PUSH1 0x1 SWAP1 SUB SWAP1 DUP2 PUSH2 0x325 JUMPI SWAP1 POP JUMPDEST POP SWAP1 POP PUSH0 JUMPDEST DUP3 MLOAD DUP2 LT ISZERO PUSH2 0x612 JUMPI PUSH1 0x1 PUSH0 DUP5 DUP4 DUP2 MLOAD DUP2 LT PUSH2 0x364 JUMPI PUSH2 0x363 PUSH2 0x1959 JUMP JUMPDEST JUMPDEST PUSH1 0x20 MUL PUSH1 0x20 ADD ADD MLOAD DUP2 MSTORE PUSH1 0x20 ADD SWAP1 DUP2 MSTORE PUSH1 0x20 ADD PUSH0 KECCAK256 PUSH1 0x40 MLOAD DUP1 PUSH1 0xC0 ADD PUSH1 0x40 MSTORE SWAP1 DUP2 PUSH0 DUP3 ADD SLOAD DUP2 MSTORE PUSH1 0x20 ADD PUSH1 0x1 DUP3 ADD DUP1 SLOAD PUSH2 0x39D SWAP1 PUSH2 0x19B3 JUMP JUMPDEST DUP1 PUSH1 0x1F ADD PUSH1 0x20 DUP1 SWAP2 DIV MUL PUSH1 0x20 ADD PUSH1 0x40 MLOAD SWAP1 DUP2 ADD PUSH1 0x40 MSTORE DUP1 SWAP3 SWAP2 SWAP1 DUP2 DUP2 MSTORE PUSH1 0x20 ADD DUP3 DUP1 SLOAD PUSH2 0x3C9 SWAP1 PUSH2 0x19B3 JUMP JUMPDEST DUP1 ISZERO PUSH2 0x414 JUMPI DUP1 PUSH1 0x1F LT PUSH2 0x3EB JUMPI PUSH2 0x100 DUP1 DUP4 SLOAD DIV MUL DUP4 MSTORE SWAP2 PUSH1 0x20 ADD SWAP2 PUSH2 0x414 JUMP JUMPDEST DUP3 ADD SWAP2 SWAP1 PUSH0 MSTORE PUSH1 0x20 PUSH0 KECCAK256 SWAP1 JUMPDEST DUP2 SLOAD DUP2 MSTORE SWAP1 PUSH1 0x1 ADD SWAP1 PUSH1 0x20 ADD DUP1 DUP4 GT PUSH2 0x3F7 JUMPI DUP3 SWAP1 SUB PUSH1 0x1F AND DUP3 ADD SWAP2 JUMPDEST POP POP POP POP POP DUP2 MSTORE PUSH1 0x20 ADD PUSH1 0x2 DUP3 ADD DUP1 SLOAD PUSH2 0x42D SWAP1 PUSH2 0x19B3 JUMP JUMPDEST DUP1 PUSH1 0x1F ADD PUSH1 0x20 DUP1 SWAP2 DIV MUL PUSH1 0x20 ADD PUSH1 0x40 MLOAD SWAP1 DUP2 ADD PUSH1 0x40 MSTORE DUP1 SWAP3 SWAP2 SWAP1 DUP2 DUP2 MSTORE PUSH1 0x20 ADD DUP3 DUP1 SLOAD PUSH2 0x459 SWAP1 PUSH2 0x19B3 JUMP JUMPDEST DUP1 ISZERO PUSH2 0x4A4 JUMPI DUP1 PUSH1 0x1F LT PUSH2 0x47B JUMPI PUSH2 0x100 DUP1 DUP4 SLOAD DIV MUL DUP4 MSTORE SWAP2 PUSH1 0x20 ADD SWAP2 PUSH2 0x4A4 JUMP JUMPDEST DUP3 ADD SWAP2 SWAP1 PUSH0 MSTORE PUSH1 0x20 PUSH0 KECCAK256 SWAP1 JUMPDEST DUP2 SLOAD DUP2 MSTORE SWAP1 PUSH1 0x1 ADD SWAP1 PUSH1 0x20 ADD DUP1 DUP4 GT PUSH2 0x487 JUMPI DUP3 SWAP1 SUB PUSH1 0x1F AND DUP3 ADD SWAP2 JUMPDEST POP POP POP POP POP DUP2 MSTORE PUSH1 0x20 ADD PUSH1 0x3 DUP3 ADD DUP1 SLOAD PUSH2 0x4BD SWAP1 PUSH2 0x19B3 JUMP JUMPDEST DUP1 PUSH1 0x1F ADD PUSH1 0x20 DUP1 SWAP2 DIV MUL PUSH1 0x20 ADD PUSH1 0x40 MLOAD SWAP1 DUP2 ADD PUSH1 0x40 MSTORE DUP1 SWAP3 SWAP2 SWAP1 DUP2 DUP2 MSTORE PUSH1 0x20 ADD DUP3 DUP1 SLOAD PUSH2 0x4E9 SWAP1 PUSH2 0x19B3 JUMP JUMPDEST DUP1 ISZERO PUSH2 0x534 JUMPI DUP1 PUSH1 0x1F LT PUSH2 0x50B JUMPI PUSH2 0x100 DUP1 DUP4 SLOAD DIV MUL DUP4 MSTORE SWAP2 PUSH1 0x20 ADD SWAP2 PUSH2 0x534 JUMP JUMPDEST DUP3 ADD SWAP2 SWAP1 PUSH0 MSTORE PUSH1 0x20 PUSH0 KECCAK256 SWAP1 JUMPDEST DUP2 SLOAD DUP2 MSTORE SWAP1 PUSH1 0x1 ADD SWAP1 PUSH1 0x20 ADD DUP1 DUP4 GT PUSH2 0x517 JUMPI DUP3 SWAP1 SUB PUSH1 0x1F AND DUP3 ADD SWAP2 JUMPDEST POP POP POP POP POP DUP2 MSTORE PUSH1 0x20 ADD PUSH1 0x4 DUP3 ADD DUP1 SLOAD PUSH2 0x54D SWAP1 PUSH2 0x19B3 JUMP JUMPDEST DUP1 PUSH1 0x1F ADD PUSH1 0x20 DUP1 SWAP2 DIV MUL PUSH1 0x20 ADD PUSH1 0x40 MLOAD SWAP1 DUP2 ADD PUSH1 0x40 MSTORE DUP1 SWAP3 SWAP2 SWAP1 DUP2 DUP2 MSTORE PUSH1 0x20 ADD DUP3 DUP1 SLOAD PUSH2 0x579 SWAP1 PUSH2 0x19B3 JUMP JUMPDEST DUP1 ISZERO PUSH2 0x5C4 JUMPI DUP1 PUSH1 0x1F LT PUSH2 0x59B JUMPI PUSH2 0x100 DUP1 DUP4 SLOAD DIV MUL DUP4 MSTORE SWAP2 PUSH1 0x20 ADD SWAP2 PUSH2 0x5C4 JUMP JUMPDEST DUP3 ADD SWAP2 SWAP1 PUSH0 MSTORE PUSH1 0x20 PUSH0 KECCAK256 SWAP1 JUMPDEST DUP2 SLOAD DUP2 MSTORE SWAP1 PUSH1 0x1 ADD SWAP1 PUSH1 0x20 ADD DUP1 DUP4 GT PUSH2 0x5A7 JUMPI DUP3 SWAP1 SUB PUSH1 0x1F AND DUP3 ADD SWAP2 JUMPDEST POP POP POP POP POP DUP2 MSTORE PUSH1 0x20 ADD PUSH1 0x5 DUP3 ADD PUSH0 SWAP1 SLOAD SWAP1 PUSH2 0x100 EXP SWAP1 DIV PUSH1 0xFF AND ISZERO ISZERO ISZERO ISZERO DUP2 MSTORE POP POP DUP3 DUP3 DUP2 MLOAD DUP2 LT PUSH2 0x5FA JUMPI PUSH2 0x5F9 PUSH2 0x1959 JUMP JUMPDEST JUMPDEST PUSH1 0x20 MUL PUSH1 0x20 ADD ADD DUP2 SWAP1 MSTORE POP DUP1 DUP1 PUSH1 0x1 ADD SWAP2 POP POP PUSH2 0x345 JUMP JUMPDEST POP DUP1 SWAP3 POP POP POP SWAP2 SWAP1 POP JUMP JUMPDEST PUSH1 0x60 PUSH0 PUSH1 0x2 PUSH0 DUP5 PUSH20 0xFFFFFFFFFFFFFFFFFFFFFFFFFFFFFFFFFFFFFFFF AND PUSH20 0xFFFFFFFFFFFFFFFFFFFFFFFFFFFFFFFFFFFFFFFF AND DUP2 MSTORE PUSH1 0x20 ADD SWAP1 DUP2 MSTORE PUSH1 0x20 ADD PUSH0 KECCAK256 DUP1 SLOAD DUP1 PUSH1 0x20 MUL PUSH1 0x20 ADD PUSH1 0x40 MLOAD SWAP1 DUP2 ADD PUSH1 0x40 MSTORE DUP1 SWAP3 SWAP2 SWAP1 DUP2 DUP2 MSTORE PUSH1 0x20 ADD DUP3 DUP1 SLOAD DUP1 ISZERO PUSH2 0x6A5 JUMPI PUSH1 0x20 MUL DUP3 ADD SWAP2 SWAP1 PUSH0 MSTORE PUSH1 0x20 PUSH0 KECCAK256 SWAP1 JUMPDEST DUP2 SLOAD DUP2 MSTORE PUSH1 0x20 ADD SWAP1 PUSH1 0x1 ADD SWAP1 DUP1 DUP4 GT PUSH2 0x691 JUMPI JUMPDEST POP POP POP POP POP SWAP1 POP DUP1 SWAP2 POP POP SWAP2 SWAP1 POP JUMP JUMPDEST PUSH1 0x60 PUSH0 DUP1 SLOAD PUSH8 0xFFFFFFFFFFFFFFFF DUP2 GT ISZERO PUSH2 0x6D3 JUMPI PUSH2 0x6D2 PUSH2 0x1710 JUMP JUMPDEST JUMPDEST PUSH1 0x40 MLOAD SWAP1 DUP1 DUP3 MSTORE DUP1 PUSH1 0x20 MUL PUSH1 0x20 ADD DUP3 ADD PUSH1 0x40 MSTORE DUP1 ISZERO PUSH2 0x70C JUMPI DUP2 PUSH1 0x20 ADD JUMPDEST PUSH2 0x6F9 PUSH2 0x11F3 JUMP JUMPDEST DUP2 MSTORE PUSH1 0x20 ADD SWAP1 PUSH1 0x1 SWAP1 SUB SWAP1 DUP2 PUSH2 0x6F1 JUMPI SWAP1 POP JUMPDEST POP SWAP1 POP PUSH0 JUMPDEST PUSH0 SLOAD DUP2 LT ISZERO PUSH2 0x9C4 JUMPI PUSH1 0x1 PUSH0 DUP3 DUP2 MSTORE PUSH1 0x20 ADD SWAP1 DUP2 MSTORE PUSH1 0x20 ADD PUSH0 KECCAK256 PUSH1 0x40 MLOAD DUP1 PUSH1 0xC0 ADD PUSH1 0x40 MSTORE SWAP1 DUP2 PUSH0 DUP3 ADD SLOAD DUP2 MSTORE PUSH1 0x20 ADD PUSH1 0x1 DUP3 ADD DUP1 SLOAD PUSH2 0x74F SWAP1 PUSH2 0x19B3 JUMP JUMPDEST DUP1 PUSH1 0x1F ADD PUSH1 0x20 DUP1 SWAP2 DIV MUL PUSH1 0x20 ADD PUSH1 0x40 MLOAD SWAP1 DUP2 ADD PUSH1 0x40 MSTORE DUP1 SWAP3 SWAP2 SWAP1 DUP2 DUP2 MSTORE PUSH1 0x20 ADD DUP3 DUP1 SLOAD PUSH2 0x77B SWAP1 PUSH2 0x19B3 JUMP JUMPDEST DUP1 ISZERO PUSH2 0x7C6 JUMPI DUP1 PUSH1 0x1F LT PUSH2 0x79D JUMPI PUSH2 0x100 DUP1 DUP4 SLOAD DIV MUL DUP4 MSTORE SWAP2 PUSH1 0x20 ADD SWAP2 PUSH2 0x7C6 JUMP JUMPDEST DUP3 ADD SWAP2 SWAP1 PUSH0 MSTORE PUSH1 0x20 PUSH0 KECCAK256 SWAP1 JUMPDEST DUP2 SLOAD DUP2 MSTORE SWAP1 PUSH1 0x1 ADD SWAP1 PUSH1 0x20 ADD DUP1 DUP4 GT PUSH2 0x7A9 JUMPI DUP3 SWAP1 SUB PUSH1 0x1F AND DUP3 ADD SWAP2 JUMPDEST POP POP POP POP POP DUP2 MSTORE PUSH1 0x20 ADD PUSH1 0x2 DUP3 ADD DUP1 SLOAD PUSH2 0x7DF SWAP1 PUSH2 0x19B3 JUMP JUMPDEST DUP1 PUSH1 0x1F ADD PUSH1 0x20 DUP1 SWAP2 DIV MUL PUSH1 0x20 ADD PUSH1 0x40 MLOAD SWAP1 DUP2 ADD PUSH1 0x40 MSTORE DUP1 SWAP3 SWAP2 SWAP1 DUP2 DUP2 MSTORE PUSH1 0x20 ADD DUP3 DUP1 SLOAD PUSH2 0x80B SWAP1 PUSH2 0x19B3 JUMP JUMPDEST DUP1 ISZERO PUSH2 0x856 JUMPI DUP1 PUSH1 0x1F LT PUSH2 0x82D JUMPI PUSH2 0x100 DUP1 DUP4 SLOAD DIV MUL DUP4 MSTORE SWAP2 PUSH1 0x20 ADD SWAP2 PUSH2 0x856 JUMP JUMPDEST DUP3 ADD SWAP2 SWAP1 PUSH0 MSTORE PUSH1 0x20 PUSH0 KECCAK256 SWAP1 JUMPDEST DUP2 SLOAD DUP2 MSTORE SWAP1 PUSH1 0x1 ADD SWAP1 PUSH1 0x20 ADD DUP1 DUP4 GT PUSH2 0x839 JUMPI DUP3 SWAP1 SUB PUSH1 0x1F AND DUP3 ADD SWAP2 JUMPDEST POP POP POP POP POP DUP2 MSTORE PUSH1 0x20 ADD PUSH1 0x3 DUP3 ADD DUP1 SLOAD PUSH2 0x86F SWAP1 PUSH2 0x19B3 JUMP JUMPDEST DUP1 PUSH1 0x1F ADD PUSH1 0x20 DUP1 SWAP2 DIV MUL PUSH1 0x20 ADD PUSH1 0x40 MLOAD SWAP1 DUP2 ADD PUSH1 0x40 MSTORE DUP1 SWAP3 SWAP2 SWAP1 DUP2 DUP2 MSTORE PUSH1 0x20 ADD DUP3 DUP1 SLOAD PUSH2 0x89B SWAP1 PUSH2 0x19B3 JUMP JUMPDEST DUP1 ISZERO PUSH2 0x8E6 JUMPI DUP1 PUSH1 0x1F LT PUSH2 0x8BD JUMPI PUSH2 0x100 DUP1 DUP4 SLOAD DIV MUL DUP4 MSTORE SWAP2 PUSH1 0x20 ADD SWAP2 PUSH2 0x8E6 JUMP JUMPDEST DUP3 ADD SWAP2 SWAP1 PUSH0 MSTORE PUSH1 0x20 PUSH0 KECCAK256 SWAP1 JUMPDEST DUP2 SLOAD DUP2 MSTORE SWAP1 PUSH1 0x1 ADD SWAP1 PUSH1 0x20 ADD DUP1 DUP4 GT PUSH2 0x8C9 JUMPI DUP3 SWAP1 SUB PUSH1 0x1F AND DUP3 ADD SWAP2 JUMPDEST POP POP POP POP POP DUP2 MSTORE PUSH1 0x20 ADD PUSH1 0x4 DUP3 ADD DUP1 SLOAD PUSH2 0x8FF SWAP1 PUSH2 0x19B3 JUMP JUMPDEST DUP1 PUSH1 0x1F ADD PUSH1 0x20 DUP1 SWAP2 DIV MUL PUSH1 0x20 ADD PUSH1 0x40 MLOAD SWAP1 DUP2 ADD PUSH1 0x40 MSTORE DUP1 SWAP3 SWAP2 SWAP1 DUP2 DUP2 MSTORE PUSH1 0x20 ADD DUP3 DUP1 SLOAD PUSH2 0x92B SWAP1 PUSH2 0x19B3 JUMP JUMPDEST DUP1 ISZERO PUSH2 0x976 JUMPI DUP1 PUSH1 0x1F LT PUSH2 0x94D JUMPI PUSH2 0x100 DUP1 DUP4 SLOAD DIV MUL DUP4 MSTORE SWAP2 PUSH1 0x20 ADD SWAP2 PUSH2 0x976 JUMP JUMPDEST DUP3 ADD SWAP2 SWAP1 PUSH0 MSTORE PUSH1 0x20 PUSH0 KECCAK256 SWAP1 JUMPDEST DUP2 SLOAD DUP2 MSTORE SWAP1 PUSH1 0x1 ADD SWAP1 PUSH1 0x20 ADD DUP1 DUP4 GT PUSH2 0x959 JUMPI DUP3 SWAP1 SUB PUSH1 0x1F AND DUP3 ADD SWAP2 JUMPDEST POP POP POP POP POP DUP2 MSTORE PUSH1 0x20 ADD PUSH1 0x5 DUP3 ADD PUSH0 SWAP1 SLOAD SWAP1 PUSH2 0x100 EXP SWAP1 DIV PUSH1 0xFF AND ISZERO ISZERO ISZERO ISZERO DUP2 MSTORE POP POP DUP3 DUP3 DUP2 MLOAD DUP2 LT PUSH2 0x9AC JUMPI PUSH2 0x9AB PUSH2 0x1959 JUMP JUMPDEST JUMPDEST PUSH1 0x20 MUL PUSH1 0x20 ADD ADD DUP2 SWAP1 MSTORE POP DUP1 DUP1 PUSH1 0x1 ADD SWAP2 POP POP PUSH2 0x711 JUMP JUMPDEST POP DUP1 SWAP2 POP POP SWAP1 JUMP JUMPDEST PUSH1 0x1 PUSH1 0x20 MSTORE DUP1 PUSH0 MSTORE PUSH1 0x40 PUSH0 KECCAK256 PUSH0 SWAP2 POP SWAP1 POP DUP1 PUSH0 ADD SLOAD SWAP1 DUP1 PUSH1 0x1 ADD DUP1 SLOAD PUSH2 0x9F1 SWAP1 PUSH2 0x19B3 JUMP JUMPDEST DUP1 PUSH1 0x1F ADD PUSH1 0x20 DUP1 SWAP2 DIV MUL PUSH1 0x20 ADD PUSH1 0x40 MLOAD SWAP1 DUP2 ADD PUSH1 0x40 MSTORE DUP1 SWAP3 SWAP2 SWAP1 DUP2 DUP2 MSTORE PUSH1 0x20 ADD DUP3 DUP1 SLOAD PUSH2 0xA1D SWAP1 PUSH2 0x19B3 JUMP JUMPDEST DUP1 ISZERO PUSH2 0xA68 JUMPI DUP1 PUSH1 0x1F LT PUSH2 0xA3F JUMPI PUSH2 0x100 DUP1 DUP4 SLOAD DIV MUL DUP4 MSTORE SWAP2 PUSH1 0x20 ADD SWAP2 PUSH2 0xA68 JUMP JUMPDEST DUP3 ADD SWAP2 SWAP1 PUSH0 MSTORE PUSH1 0x20 PUSH0 KECCAK256 SWAP1 JUMPDEST DUP2 SLOAD DUP2 MSTORE SWAP1 PUSH1 0x1 ADD SWAP1 PUSH1 0x20 ADD DUP1 DUP4 GT PUSH2 0xA4B JUMPI DUP3 SWAP1 SUB PUSH1 0x1F AND DUP3 ADD SWAP2 JUMPDEST POP POP POP POP POP SWAP1 DUP1 PUSH1 0x2 ADD DUP1 SLOAD PUSH2 0xA7D SWAP1 PUSH2 0x19B3 JUMP JUMPDEST DUP1 PUSH1 0x1F ADD PUSH1 0x20 DUP1 SWAP2 DIV MUL PUSH1 0x20 ADD PUSH1 0x40 MLOAD SWAP1 DUP2 ADD PUSH1 0x40 MSTORE DUP1 SWAP3 SWAP2 SWAP1 DUP2 DUP2 MSTORE PUSH1 0x20 ADD DUP3 DUP1 SLOAD PUSH2 0xAA9 SWAP1 PUSH2 0x19B3 JUMP JUMPDEST DUP1 ISZERO PUSH2 0xAF4 JUMPI DUP1 PUSH1 0x1F LT PUSH2 0xACB JUMPI PUSH2 0x100 DUP1 DUP4 SLOAD DIV MUL DUP4 MSTORE SWAP2 PUSH1 0x20 ADD SWAP2 PUSH2 0xAF4 JUMP JUMPDEST DUP3 ADD SWAP2 SWAP1 PUSH0 MSTORE PUSH1 0x20 PUSH0 KECCAK256 SWAP1 JUMPDEST DUP2 SLOAD DUP2 MSTORE SWAP1 PUSH1 0x1 ADD SWAP1 PUSH1 0x20 ADD DUP1 DUP4 GT PUSH2 0xAD7 JUMPI DUP3 SWAP1 SUB PUSH1 0x1F AND DUP3 ADD SWAP2 JUMPDEST POP POP POP POP POP SWAP1 DUP1 PUSH1 0x3 ADD DUP1 SLOAD PUSH2 0xB09 SWAP1 PUSH2 0x19B3 JUMP JUMPDEST DUP1 PUSH1 0x1F ADD PUSH1 0x20 DUP1 SWAP2 DIV MUL PUSH1 0x20 ADD PUSH1 0x40 MLOAD SWAP1 DUP2 ADD PUSH1 0x40 MSTORE DUP1 SWAP3 SWAP2 SWAP1 DUP2 DUP2 MSTORE PUSH1 0x20 ADD DUP3 DUP1 SLOAD PUSH2 0xB35 SWAP1 PUSH2 0x19B3 JUMP JUMPDEST DUP1 ISZERO PUSH2 0xB80 JUMPI DUP1 PUSH1 0x1F LT PUSH2 0xB57 JUMPI PUSH2 0x100 DUP1 DUP4 SLOAD DIV MUL DUP4 MSTORE SWAP2 PUSH1 0x20 ADD SWAP2 PUSH2 0xB80 JUMP JUMPDEST DUP3 ADD SWAP2 SWAP1 PUSH0 MSTORE PUSH1 0x20 PUSH0 KECCAK256 SWAP1 JUMPDEST DUP2 SLOAD DUP2 MSTORE SWAP1 PUSH1 0x1 ADD SWAP1 PUSH1 0x20 ADD DUP1 DUP4 GT PUSH2 0xB63 JUMPI DUP3 SWAP1 SUB PUSH1 0x1F AND DUP3 ADD SWAP2 JUMPDEST POP POP POP POP POP SWAP1 DUP1 PUSH1 0x4 ADD DUP1 SLOAD PUSH2 0xB95 SWAP1 PUSH2 0x19B3 JUMP JUMPDEST DUP1 PUSH1 0x1F ADD PUSH1 0x20 DUP1 SWAP2 DIV MUL PUSH1 0x20 ADD PUSH1 0x40 MLOAD SWAP1 DUP2 ADD PUSH1 0x40 MSTORE DUP1 SWAP3 SWAP2 SWAP1 DUP2 DUP2 MSTORE PUSH1 0x20 ADD DUP3 DUP1 SLOAD PUSH2 0xBC1 SWAP1 PUSH2 0x19B3 JUMP JUMPDEST DUP1 ISZERO PUSH2 0xC0C JUMPI DUP1 PUSH1 0x1F LT PUSH2 0xBE3 JUMPI PUSH2 0x100 DUP1 DUP4 SLOAD DIV MUL DUP4 MSTORE SWAP2 PUSH1 0x20 ADD SWAP2 PUSH2 0xC0C JUMP JUMPDEST DUP3 ADD SWAP2 SWAP1 PUSH0 MSTORE PUSH1 0x20 PUSH0 KECCAK256 SWAP1 JUMPDEST DUP2 SLOAD DUP2 MSTORE SWAP1 PUSH1 0x1 ADD SWAP1 PUSH1 0x20 ADD DUP1 DUP4 GT PUSH2 0xBEF JUMPI DUP3 SWAP1 SUB PUSH1 0x1F AND DUP3 ADD SWAP2 JUMPDEST POP POP POP POP POP SWAP1 DUP1 PUSH1 0x5 ADD PUSH0 SWAP1 SLOAD SWAP1 PUSH2 0x100 EXP SWAP1 DIV PUSH1 0xFF AND SWAP1 POP DUP7 JUMP JUMPDEST PUSH0 PUSH1 0x1 PUSH0 DUP4 DUP2 MSTORE PUSH1 0x20 ADD SWAP1 DUP2 MSTORE PUSH1 0x20 ADD PUSH0 KECCAK256 SWAP1 POP DUP1 PUSH1 0x5 ADD PUSH0 SWAP1 SLOAD SWAP1 PUSH2 0x100 EXP SWAP1 DIV PUSH1 0xFF AND PUSH2 0xC8C JUMPI PUSH1 0x40 MLOAD PUSH32 0x8C379A000000000000000000000000000000000000000000000000000000000 DUP2 MSTORE PUSH1 0x4 ADD PUSH2 0xC83 SWAP1 PUSH2 0x1A2D JUMP JUMPDEST PUSH1 0x40 MLOAD DUP1 SWAP2 SUB SWAP1 REVERT JUMPDEST PUSH2 0xC96 CALLER DUP4 PUSH2 0x115E JUMP JUMPDEST ISZERO PUSH2 0xCD6 JUMPI PUSH1 0x40 MLOAD PUSH32 0x8C379A000000000000000000000000000000000000000000000000000000000 DUP2 MSTORE PUSH1 0x4 ADD PUSH2 0xCCD SWAP1 PUSH2 0x1A95 JUMP JUMPDEST PUSH1 0x40 MLOAD DUP1 SWAP2 SUB SWAP1 REVERT JUMPDEST PUSH1 0x2 PUSH0 CALLER PUSH20 0xFFFFFFFFFFFFFFFFFFFFFFFFFFFFFFFFFFFFFFFF AND PUSH20 0xFFFFFFFFFFFFFFFFFFFFFFFFFFFFFFFFFFFFFFFF AND DUP2 MSTORE PUSH1 0x20 ADD SWAP1 DUP2 MSTORE PUSH1 0x20 ADD PUSH0 KECCAK256 DUP3 SWAP1 DUP1 PUSH1 0x1 DUP2 SLOAD ADD DUP1 DUP3 SSTORE DUP1 SWAP2 POP POP PUSH1 0x1 SWAP1 SUB SWAP1 PUSH0 MSTORE PUSH1 0x20 PUSH0 KECCAK256 ADD PUSH0 SWAP1 SWAP2 SWAP1 SWAP2 SWAP1 SWAP2 POP SSTORE DUP2 CALLER PUSH20 0xFFFFFFFFFFFFFFFFFFFFFFFFFFFFFFFFFFFFFFFF AND PUSH32 0x1219234621CFBDA08EED13673C6E71CBF4B399EC00B0CDC44D8366E22D066700 PUSH1 0x40 MLOAD PUSH1 0x40 MLOAD DUP1 SWAP2 SUB SWAP1 LOG3 POP POP JUMP JUMPDEST PUSH0 PUSH1 0x1 PUSH0 DUP8 DUP2 MSTORE PUSH1 0x20 ADD SWAP1 DUP2 MSTORE PUSH1 0x20 ADD PUSH0 KECCAK256 PUSH0 ADD SLOAD EQ PUSH2 0xDD4 JUMPI PUSH1 0x40 MLOAD PUSH32 0x8C379A000000000000000000000000000000000000000000000000000000000 DUP2 MSTORE PUSH1 0x4 ADD PUSH2 0xDCB SWAP1 PUSH2 0x1B23 JUMP JUMPDEST PUSH1 0x40 MLOAD DUP1 SWAP2 SUB SWAP1 REVERT JUMPDEST PUSH1 0x40 MLOAD DUP1 PUSH1 0xC0 ADD PUSH1 0x40 MSTORE DUP1 DUP7 DUP2 MSTORE PUSH1 0x20 ADD DUP6 DUP2 MSTORE PUSH1 0x20 ADD DUP5 DUP2 MSTORE PUSH1 0x20 ADD DUP4 DUP2 MSTORE PUSH1 0x20 ADD DUP3 DUP2 MSTORE PUSH1 0x20 ADD PUSH1 0x1 ISZERO ISZERO DUP2 MSTORE POP PUSH1 0x1 PUSH0 DUP8 DUP2 MSTORE PUSH1 0x20 ADD SWAP1 DUP2 MSTORE PUSH1 0x20 ADD PUSH0 KECCAK256 PUSH0 DUP3 ADD MLOAD DUP2 PUSH0 ADD SSTORE PUSH1 0x20 DUP3 ADD MLOAD DUP2 PUSH1 0x1 ADD SWAP1 DUP2 PUSH2 0xE32 SWAP2 SWAP1 PUSH2 0x1CDE JUMP JUMPDEST POP PUSH1 0x40 DUP3 ADD MLOAD DUP2 PUSH1 0x2 ADD SWAP1 DUP2 PUSH2 0xE48 SWAP2 SWAP1 PUSH2 0x1CDE JUMP JUMPDEST POP PUSH1 0x60 DUP3 ADD MLOAD DUP2 PUSH1 0x3 ADD SWAP1 DUP2 PUSH2 0xE5E SWAP2 SWAP1 PUSH2 0x1CDE JUMP JUMPDEST POP PUSH1 0x80 DUP3 ADD MLOAD DUP2 PUSH1 0x4 ADD SWAP1 DUP2 PUSH2 0xE74 SWAP2 SWAP1 PUSH2 0x1CDE JUMP JUMPDEST POP PUSH1 0xA0 DUP3 ADD MLOAD DUP2 PUSH1 0x5 ADD PUSH0 PUSH2 0x100 EXP DUP2 SLOAD DUP2 PUSH1 0xFF MUL NOT AND SWAP1 DUP4 ISZERO ISZERO MUL OR SWAP1 SSTORE POP SWAP1 POP POP PUSH0 DUP1 DUP2 SLOAD DUP1 SWAP3 SWAP2 SWAP1 PUSH2 0xEA8 SWAP1 PUSH2 0x1DDA JUMP JUMPDEST SWAP2 SWAP1 POP SSTORE POP POP POP POP POP POP JUMP JUMPDEST PUSH0 PUSH1 0x60 DUP1 PUSH1 0x60 DUP1 PUSH0 DUP1 PUSH1 0x1 PUSH0 DUP10 DUP2 MSTORE PUSH1 0x20 ADD SWAP1 DUP2 MSTORE PUSH1 0x20 ADD PUSH0 KECCAK256 SWAP1 POP DUP1 PUSH0 ADD SLOAD DUP2 PUSH1 0x1 ADD DUP3 PUSH1 0x2 ADD DUP4 PUSH1 0x3 ADD DUP5 PUSH1 0x4 ADD DUP6 PUSH1 0x5 ADD PUSH0 SWAP1 SLOAD SWAP1 PUSH2 0x100 EXP SWAP1 DIV PUSH1 0xFF AND DUP5 DUP1 SLOAD PUSH2 0xF01 SWAP1 PUSH2 0x19B3 JUMP JUMPDEST DUP1 PUSH1 0x1F ADD PUSH1 0x20 DUP1 SWAP2 DIV MUL PUSH1 0x20 ADD PUSH1 0x40 MLOAD SWAP1 DUP2 ADD PUSH1 0x40 MSTORE DUP1 SWAP3 SWAP2 SWAP1 DUP2 DUP2 MSTORE PUSH1 0x20 ADD DUP3 DUP1 SLOAD PUSH2 0xF2D SWAP1 PUSH2 0x19B3 JUMP JUMPDEST DUP1 ISZERO PUSH2 0xF78 JUMPI DUP1 PUSH1 0x1F LT PUSH2 0xF4F JUMPI PUSH2 0x100 DUP1 DUP4 SLOAD DIV MUL DUP4 MSTORE SWAP2 PUSH1 0x20 ADD SWAP2 PUSH2 0xF78 JUMP JUMPDEST DUP3 ADD SWAP2 SWAP1 PUSH0 MSTORE PUSH1 0x20 PUSH0 KECCAK256 SWAP1 JUMPDEST DUP2 SLOAD DUP2 MSTORE SWAP1 PUSH1 0x1 ADD SWAP1 PUSH1 0x20 ADD DUP1 DUP4 GT PUSH2 0xF5B JUMPI DUP3 SWAP1 SUB PUSH1 0x1F AND DUP3 ADD SWAP2 JUMPDEST POP POP POP POP POP SWAP5 POP DUP4 DUP1 SLOAD PUSH2 0xF8B SWAP1 PUSH2 0x19B3 JUMP JUMPDEST DUP1 PUSH1 0x1F ADD PUSH1 0x20 DUP1 SWAP2 DIV MUL PUSH1 0x20 ADD PUSH1 0x40 MLOAD SWAP1 DUP2 ADD PUSH1 0x40 MSTORE DUP1 SWAP3 SWAP2 SWAP1 DUP2 DUP2 MSTORE PUSH1 0x20 ADD DUP3 DUP1 SLOAD PUSH2 0xFB7 SWAP1 PUSH2 0x19B3 JUMP JUMPDEST DUP1 ISZERO PUSH2 0x1002 JUMPI DUP1 PUSH1 0x1F LT PUSH2 0xFD9 JUMPI PUSH2 0x100 DUP1 DUP4 SLOAD DIV MUL DUP4 MSTORE SWAP2 PUSH1 0x20 ADD SWAP2 PUSH2 0x1002 JUMP JUMPDEST DUP3 ADD SWAP2 SWAP1 PUSH0 MSTORE PUSH1 0x20 PUSH0 KECCAK256 SWAP1 JUMPDEST DUP2 SLOAD DUP2 MSTORE SWAP1 PUSH1 0x1 ADD SWAP1 PUSH1 0x20 ADD DUP1 DUP4 GT PUSH2 0xFE5 JUMPI DUP3 SWAP1 SUB PUSH1 0x1F AND DUP3 ADD SWAP2 JUMPDEST POP POP POP POP POP SWAP4 POP DUP3 DUP1 SLOAD PUSH2 0x1015 SWAP1 PUSH2 0x19B3 JUMP JUMPDEST DUP1 PUSH1 0x1F ADD PUSH1 0x20 DUP1 SWAP2 DIV MUL PUSH1 0x20 ADD PUSH1 0x40 MLOAD SWAP1 DUP2 ADD PUSH1 0x40 MSTORE DUP1 SWAP3 SWAP2 SWAP1 DUP2 DUP2 MSTORE PUSH1 0x20 ADD DUP3 DUP1 SLOAD PUSH2 0x1041 SWAP1 PUSH2 0x19B3 JUMP JUMPDEST DUP1 ISZERO PUSH2 0x108C JUMPI DUP1 PUSH1 0x1F LT PUSH2 0x1063 JUMPI PUSH2 0x100 DUP1 DUP4 SLOAD DIV MUL DUP4 MSTORE SWAP2 PUSH1 0x20 ADD SWAP2 PUSH2 0x108C JUMP JUMPDEST DUP3 ADD SWAP2 SWAP1 PUSH0 MSTORE PUSH1 0x20 PUSH0 KECCAK256 SWAP1 JUMPDEST DUP2 SLOAD DUP2 MSTORE SWAP1 PUSH1 0x1 ADD SWAP1 PUSH1 0x20 ADD DUP1 DUP4 GT PUSH2 0x106F JUMPI DUP3 SWAP1 SUB PUSH1 0x1F AND DUP3 ADD SWAP2 JUMPDEST POP POP POP POP POP SWAP3 POP DUP2 DUP1 SLOAD PUSH2 0x109F SWAP1 PUSH2 0x19B3 JUMP JUMPDEST DUP1 PUSH1 0x1F ADD PUSH1 0x20 DUP1 SWAP2 DIV MUL PUSH1 0x20 ADD PUSH1 0x40 MLOAD SWAP1 DUP2 ADD PUSH1 0x40 MSTORE DUP1 SWAP3 SWAP2 SWAP1 DUP2 DUP2 MSTORE PUSH1 0x20 ADD DUP3 DUP1 SLOAD PUSH2 0x10CB SWAP1 PUSH2 0x19B3 JUMP JUMPDEST DUP1 ISZERO PUSH2 0x1116 JUMPI DUP1 PUSH1 0x1F LT PUSH2 0x10ED JUMPI PUSH2 0x100 DUP1 DUP4 SLOAD DIV MUL DUP4 MSTORE SWAP2 PUSH1 0x20 ADD SWAP2 PUSH2 0x1116 JUMP JUMPDEST DUP3 ADD SWAP2 SWAP1 PUSH0 MSTORE PUSH1 0x20 PUSH0 KECCAK256 SWAP1 JUMPDEST DUP2 SLOAD DUP2 MSTORE SWAP1 PUSH1 0x1 ADD SWAP1 PUSH1 0x20 ADD DUP1 DUP4 GT PUSH2 0x10F9 JUMPI DUP3 SWAP1 SUB PUSH1 0x1F AND DUP3 ADD SWAP2 JUMPDEST POP POP POP POP POP SWAP2 POP SWAP7 POP SWAP7 POP SWAP7 POP SWAP7 POP SWAP7 POP SWAP7 POP POP SWAP2 SWAP4 SWAP6 POP SWAP2 SWAP4 SWAP6 JUMP JUMPDEST PUSH1 0x2 PUSH1 0x20 MSTORE DUP2 PUSH0 MSTORE PUSH1 0x40 PUSH0 KECCAK256 DUP2 DUP2 SLOAD DUP2 LT PUSH2 0x114C JUMPI PUSH0 DUP1 REVERT JUMPDEST SWAP1 PUSH0 MSTORE PUSH1 0x20 PUSH0 KECCAK256 ADD PUSH0 SWAP2 POP SWAP2 POP POP SLOAD DUP2 JUMP JUMPDEST PUSH0 DUP1 PUSH1 0x2 PUSH0 DUP6 PUSH20 0xFFFFFFFFFFFFFFFFFFFFFFFFFFFFFFFFFFFFFFFF AND PUSH20 0xFFFFFFFFFFFFFFFFFFFFFFFFFFFFFFFFFFFFFFFF AND DUP2 MSTORE PUSH1 0x20 ADD SWAP1 DUP2 MSTORE PUSH1 0x20 ADD PUSH0 KECCAK256 SWAP1 POP PUSH0 JUMPDEST DUP2 DUP1 SLOAD SWAP1 POP DUP2 LT ISZERO PUSH2 0x11E7 JUMPI DUP4 DUP3 DUP3 DUP2 SLOAD DUP2 LT PUSH2 0x11C1 JUMPI PUSH2 0x11C0 PUSH2 0x1959 JUMP JUMPDEST JUMPDEST SWAP1 PUSH0 MSTORE PUSH1 0x20 PUSH0 KECCAK256 ADD SLOAD SUB PUSH2 0x11DA JUMPI PUSH1 0x1 SWAP3 POP POP POP PUSH2 0x11ED JUMP JUMPDEST DUP1 DUP1 PUSH1 0x1 ADD SWAP2 POP POP PUSH2 0x11A1 JUMP JUMPDEST POP PUSH0 SWAP2 POP POP JUMPDEST SWAP3 SWAP2 POP POP JUMP JUMPDEST PUSH1 0x40 MLOAD DUP1 PUSH1 0xC0 ADD PUSH1 0x40 MSTORE DUP1 PUSH0 DUP2 MSTORE PUSH1 0x20 ADD PUSH1 0x60 DUP2 MSTORE PUSH1 0x20 ADD PUSH1 0x60 DUP2 MSTORE PUSH1 0x20 ADD PUSH1 0x60 DUP2 MSTORE PUSH1 0x20 ADD PUSH1 0x60 DUP2 MSTORE PUSH1 0x20 ADD PUSH0 ISZERO ISZERO DUP2 MSTORE POP SWAP1 JUMP JUMPDEST PUSH0 DUP2 SWAP1 POP SWAP2 SWAP1 POP JUMP JUMPDEST PUSH2 0x123B DUP2 PUSH2 0x1229 JUMP JUMPDEST DUP3 MSTORE POP POP JUMP JUMPDEST PUSH0 PUSH1 0x20 DUP3 ADD SWAP1 POP PUSH2 0x1254 PUSH0 DUP4 ADD DUP5 PUSH2 0x1232 JUMP JUMPDEST SWAP3 SWAP2 POP POP JUMP JUMPDEST PUSH0 PUSH1 0x40 MLOAD SWAP1 POP SWAP1 JUMP JUMPDEST PUSH0 DUP1 REVERT JUMPDEST PUSH0 DUP1 REVERT JUMPDEST PUSH0 PUSH20 0xFFFFFFFFFFFFFFFFFFFFFFFFFFFFFFFFFFFFFFFF DUP3 AND SWAP1 POP SWAP2 SWAP1 POP JUMP JUMPDEST PUSH0 PUSH2 0x1294 DUP3 PUSH2 0x126B JUMP JUMPDEST SWAP1 POP SWAP2 SWAP1 POP JUMP JUMPDEST PUSH2 0x12A4 DUP2 PUSH2 0x128A JUMP JUMPDEST DUP2 EQ PUSH2 0x12AE JUMPI PUSH0 DUP1 REVERT JUMPDEST POP JUMP JUMPDEST PUSH0 DUP2 CALLDATALOAD SWAP1 POP PUSH2 0x12BF DUP2 PUSH2 0x129B JUMP JUMPDEST SWAP3 SWAP2 POP POP JUMP JUMPDEST PUSH0 PUSH1 0x20 DUP3 DUP5 SUB SLT ISZERO PUSH2 0x12DA JUMPI PUSH2 0x12D9 PUSH2 0x1263 JUMP JUMPDEST JUMPDEST PUSH0 PUSH2 0x12E7 DUP5 DUP3 DUP6 ADD PUSH2 0x12B1 JUMP JUMPDEST SWAP2 POP POP SWAP3 SWAP2 POP POP JUMP JUMPDEST PUSH0 DUP2 MLOAD SWAP1 POP SWAP2 SWAP1 POP JUMP JUMPDEST PUSH0 DUP3 DUP3 MSTORE PUSH1 0x20 DUP3 ADD SWAP1 POP SWAP3 SWAP2 POP POP JUMP JUMPDEST PUSH0 DUP2 SWAP1 POP PUSH1 0x20 DUP3 ADD SWAP1 POP SWAP2 SWAP1 POP JUMP JUMPDEST PUSH2 0x1322 DUP2 PUSH2 0x1229 JUMP JUMPDEST DUP3 MSTORE POP POP JUMP JUMPDEST PUSH0 DUP2 MLOAD SWAP1 POP SWAP2 SWAP1 POP JUMP JUMPDEST PUSH0 DUP3 DUP3 MSTORE PUSH1 0x20 DUP3 ADD SWAP1 POP SWAP3 SWAP2 POP POP JUMP JUMPDEST PUSH0 JUMPDEST DUP4 DUP2 LT ISZERO PUSH2 0x135F JUMPI DUP1 DUP3 ADD MLOAD DUP2 DUP5 ADD MSTORE PUSH1 0x20 DUP2 ADD SWAP1 POP PUSH2 0x1344 JUMP JUMPDEST PUSH0 DUP5 DUP5 ADD MSTORE POP POP POP POP JUMP JUMPDEST PUSH0 PUSH1 0x1F NOT PUSH1 0x1F DUP4 ADD AND SWAP1 POP SWAP2 SWAP1 POP JUMP JUMPDEST PUSH0 PUSH2 0x1384 DUP3 PUSH2 0x1328 JUMP JUMPDEST PUSH2 0x138E DUP2 DUP6 PUSH2 0x1332 JUMP JUMPDEST SWAP4 POP PUSH2 0x139E DUP2 DUP6 PUSH1 0x20 DUP7 ADD PUSH2 0x1342 JUMP JUMPDEST PUSH2 0x13A7 DUP2 PUSH2 0x136A JUMP JUMPDEST DUP5 ADD SWAP2 POP POP SWAP3 SWAP2 POP POP JUMP JUMPDEST PUSH0 DUP2 ISZERO ISZERO SWAP1 POP SWAP2 SWAP1 POP JUMP JUMPDEST PUSH2 0x13C6 DUP2 PUSH2 0x13B2 JUMP JUMPDEST DUP3 MSTORE POP POP JUMP JUMPDEST PUSH0 PUSH1 0xC0 DUP4 ADD PUSH0 DUP4 ADD MLOAD PUSH2 0x13E1 PUSH0 DUP7 ADD DUP3 PUSH2 0x1319 JUMP JUMPDEST POP PUSH1 0x20 DUP4 ADD MLOAD DUP5 DUP3 SUB PUSH1 0x20 DUP7 ADD MSTORE PUSH2 0x13F9 DUP3 DUP3 PUSH2 0x137A JUMP JUMPDEST SWAP2 POP POP PUSH1 0x40 DUP4 ADD MLOAD DUP5 DUP3 SUB PUSH1 0x40 DUP7 ADD MSTORE PUSH2 0x1413 DUP3 DUP3 PUSH2 0x137A JUMP JUMPDEST SWAP2 POP POP PUSH1 0x60 DUP4 ADD MLOAD DUP5 DUP3 SUB PUSH1 0x60 DUP7 ADD MSTORE PUSH2 0x142D DUP3 DUP3 PUSH2 0x137A JUMP JUMPDEST SWAP2 POP POP PUSH1 0x80 DUP4 ADD MLOAD DUP5 DUP3 SUB PUSH1 0x80 DUP7 ADD MSTORE PUSH2 0x1447 DUP3 DUP3 PUSH2 0x137A JUMP JUMPDEST SWAP2 POP POP PUSH1 0xA0 DUP4 ADD MLOAD PUSH2 0x145C PUSH1 0xA0 DUP7 ADD DUP3 PUSH2 0x13BD JUMP JUMPDEST POP DUP1 SWAP2 POP POP SWAP3 SWAP2 POP POP JUMP JUMPDEST PUSH0 PUSH2 0x1472 DUP4 DUP4 PUSH2 0x13CC JUMP JUMPDEST SWAP1 POP SWAP3 SWAP2 POP POP JUMP JUMPDEST PUSH0 PUSH1 0x20 DUP3 ADD SWAP1 POP SWAP2 SWAP1 POP JUMP JUMPDEST PUSH0 PUSH2 0x1490 DUP3 PUSH2 0x12F0 JUMP JUMPDEST PUSH2 0x149A DUP2 DUP6 PUSH2 0x12FA JUMP JUMPDEST SWAP4 POP DUP4 PUSH1 0x20 DUP3 MUL DUP6 ADD PUSH2 0x14AC DUP6 PUSH2 0x130A JUMP JUMPDEST DUP1 PUSH0 JUMPDEST DUP6 DUP2 LT ISZERO PUSH2 0x14E7 JUMPI DUP5 DUP5 SUB DUP10 MSTORE DUP2 MLOAD PUSH2 0x14C8 DUP6 DUP3 PUSH2 0x1467 JUMP JUMPDEST SWAP5 POP PUSH2 0x14D3 DUP4 PUSH2 0x147A JUMP JUMPDEST SWAP3 POP PUSH1 0x20 DUP11 ADD SWAP10 POP POP PUSH1 0x1 DUP2 ADD SWAP1 POP PUSH2 0x14AF JUMP JUMPDEST POP DUP3 SWAP8 POP DUP8 SWAP6 POP POP POP POP POP POP SWAP3 SWAP2 POP POP JUMP JUMPDEST PUSH0 PUSH1 0x20 DUP3 ADD SWAP1 POP DUP2 DUP2 SUB PUSH0 DUP4 ADD MSTORE PUSH2 0x1511 DUP2 DUP5 PUSH2 0x1486 JUMP JUMPDEST SWAP1 POP SWAP3 SWAP2 POP POP JUMP JUMPDEST PUSH0 DUP2 MLOAD SWAP1 POP SWAP2 SWAP1 POP JUMP JUMPDEST PUSH0 DUP3 DUP3 MSTORE PUSH1 0x20 DUP3 ADD SWAP1 POP SWAP3 SWAP2 POP POP JUMP JUMPDEST PUSH0 DUP2 SWAP1 POP PUSH1 0x20 DUP3 ADD SWAP1 POP SWAP2 SWAP1 POP JUMP JUMPDEST PUSH0 PUSH2 0x154D DUP4 DUP4 PUSH2 0x1319 JUMP JUMPDEST PUSH1 0x20 DUP4 ADD SWAP1 POP SWAP3 SWAP2 POP POP JUMP JUMPDEST PUSH0 PUSH1 0x20 DUP3 ADD SWAP1 POP SWAP2 SWAP1 POP JUMP JUMPDEST PUSH0 PUSH2 0x156F DUP3 PUSH2 0x1519 JUMP JUMPDEST PUSH2 0x1579 DUP2 DUP6 PUSH2 0x1523 JUMP JUMPDEST SWAP4 POP PUSH2 0x1584 DUP4 PUSH2 0x1533 JUMP JUMPDEST DUP1 PUSH0 JUMPDEST DUP4 DUP2 LT ISZERO PUSH2 0x15B4 JUMPI DUP2 MLOAD PUSH2 0x159B DUP9 DUP3 PUSH2 0x1542 JUMP JUMPDEST SWAP8 POP PUSH2 0x15A6 DUP4 PUSH2 0x1559 JUMP JUMPDEST SWAP3 POP POP PUSH1 0x1 DUP2 ADD SWAP1 POP PUSH2 0x1587 JUMP JUMPDEST POP DUP6 SWAP4 POP POP POP POP SWAP3 SWAP2 POP POP JUMP JUMPDEST PUSH0 PUSH1 0x20 DUP3 ADD SWAP1 POP DUP2 DUP2 SUB PUSH0 DUP4 ADD MSTORE PUSH2 0x15D9 DUP2 DUP5 PUSH2 0x1565 JUMP JUMPDEST SWAP1 POP SWAP3 SWAP2 POP POP JUMP JUMPDEST PUSH2 0x15EA DUP2 PUSH2 0x1229 JUMP JUMPDEST DUP2 EQ PUSH2 0x15F4 JUMPI PUSH0 DUP1 REVERT JUMPDEST POP JUMP JUMPDEST PUSH0 DUP2 CALLDATALOAD SWAP1 POP PUSH2 0x1605 DUP2 PUSH2 0x15E1 JUMP JUMPDEST SWAP3 SWAP2 POP POP JUMP JUMPDEST PUSH0 PUSH1 0x20 DUP3 DUP5 SUB SLT ISZERO PUSH2 0x1620 JUMPI PUSH2 0x161F PUSH2 0x1263 JUMP JUMPDEST JUMPDEST PUSH0 PUSH2 0x162D DUP5 DUP3 DUP6 ADD PUSH2 0x15F7 JUMP JUMPDEST SWAP2 POP POP SWAP3 SWAP2 POP POP JUMP JUMPDEST PUSH0 DUP3 DUP3 MSTORE PUSH1 0x20 DUP3 ADD SWAP1 POP SWAP3 SWAP2 POP POP JUMP JUMPDEST PUSH0 PUSH2 0x1650 DUP3 PUSH2 0x1328 JUMP JUMPDEST PUSH2 0x165A DUP2 DUP6 PUSH2 0x1636 JUMP JUMPDEST SWAP4 POP PUSH2 0x166A DUP2 DUP6 PUSH1 0x20 DUP7 ADD PUSH2 0x1342 JUMP JUMPDEST PUSH2 0x1673 DUP2 PUSH2 0x136A JUMP JUMPDEST DUP5 ADD SWAP2 POP POP SWAP3 SWAP2 POP POP JUMP JUMPDEST PUSH2 0x1687 DUP2 PUSH2 0x13B2 JUMP JUMPDEST DUP3 MSTORE POP POP JUMP JUMPDEST PUSH0 PUSH1 0xC0 DUP3 ADD SWAP1 POP PUSH2 0x16A0 PUSH0 DUP4 ADD DUP10 PUSH2 0x1232 JUMP JUMPDEST DUP2 DUP2 SUB PUSH1 0x20 DUP4 ADD MSTORE PUSH2 0x16B2 DUP2 DUP9 PUSH2 0x1646 JUMP JUMPDEST SWAP1 POP DUP2 DUP2 SUB PUSH1 0x40 DUP4 ADD MSTORE PUSH2 0x16C6 DUP2 DUP8 PUSH2 0x1646 JUMP JUMPDEST SWAP1 POP DUP2 DUP2 SUB PUSH1 0x60 DUP4 ADD MSTORE PUSH2 0x16DA DUP2 DUP7 PUSH2 0x1646 JUMP JUMPDEST SWAP1 POP DUP2 DUP2 SUB PUSH1 0x80 DUP4 ADD MSTORE PUSH2 0x16EE DUP2 DUP6 PUSH2 0x1646 JUMP JUMPDEST SWAP1 POP PUSH2 0x16FD PUSH1 0xA0 DUP4 ADD DUP5 PUSH2 0x167E JUMP JUMPDEST SWAP8 SWAP7 POP POP POP POP POP POP POP JUMP JUMPDEST PUSH0 DUP1 REVERT JUMPDEST PUSH0 DUP1 REVERT JUMPDEST PUSH32 0x4E487B7100000000000000000000000000000000000000000000000000000000 PUSH0 MSTORE PUSH1 0x41 PUSH1 0x4 MSTORE PUSH1 0x24 PUSH0 REVERT JUMPDEST PUSH2 0x1746 DUP3 PUSH2 0x136A JUMP JUMPDEST DUP2 ADD DUP2 DUP2 LT PUSH8 0xFFFFFFFFFFFFFFFF DUP3 GT OR ISZERO PUSH2 0x1765 JUMPI PUSH2 0x1764 PUSH2 0x1710 JUMP JUMPDEST JUMPDEST DUP1 PUSH1 0x40 MSTORE POP POP POP JUMP JUMPDEST PUSH0 PUSH2 0x1777 PUSH2 0x125A JUMP JUMPDEST SWAP1 POP PUSH2 0x1783 DUP3 DUP3 PUSH2 0x173D JUMP JUMPDEST SWAP2 SWAP1 POP JUMP JUMPDEST PUSH0 PUSH8 0xFFFFFFFFFFFFFFFF DUP3 GT ISZERO PUSH2 0x17A2 JUMPI PUSH2 0x17A1 PUSH2 0x1710 JUMP JUMPDEST JUMPDEST PUSH2 0x17AB DUP3 PUSH2 0x136A JUMP JUMPDEST SWAP1 POP PUSH1 0x20 DUP2 ADD SWAP1 POP SWAP2 SWAP1 POP JUMP JUMPDEST DUP3 DUP2 DUP4 CALLDATACOPY PUSH0 DUP4 DUP4 ADD MSTORE POP POP POP JUMP JUMPDEST PUSH0 PUSH2 0x17D8 PUSH2 0x17D3 DUP5 PUSH2 0x1788 JUMP JUMPDEST PUSH2 0x176E JUMP JUMPDEST SWAP1 POP DUP3 DUP2 MSTORE PUSH1 0x20 DUP2 ADD DUP5 DUP5 DUP5 ADD GT ISZERO PUSH2 0x17F4 JUMPI PUSH2 0x17F3 PUSH2 0x170C JUMP JUMPDEST JUMPDEST PUSH2 0x17FF DUP5 DUP3 DUP6 PUSH2 0x17B8 JUMP JUMPDEST POP SWAP4 SWAP3 POP POP POP JUMP JUMPDEST PUSH0 DUP3 PUSH1 0x1F DUP4 ADD SLT PUSH2 0x181B JUMPI PUSH2 0x181A PUSH2 0x1708 JUMP JUMPDEST JUMPDEST DUP2 CALLDATALOAD PUSH2 0x182B DUP5 DUP3 PUSH1 0x20 DUP7 ADD PUSH2 0x17C6 JUMP JUMPDEST SWAP2 POP POP SWAP3 SWAP2 POP POP JUMP JUMPDEST PUSH0 DUP1 PUSH0 DUP1 PUSH0 PUSH1 0xA0 DUP7 DUP9 SUB SLT ISZERO PUSH2 0x184D JUMPI PUSH2 0x184C PUSH2 0x1263 JUMP JUMPDEST JUMPDEST PUSH0 PUSH2 0x185A DUP9 DUP3 DUP10 ADD PUSH2 0x15F7 JUMP JUMPDEST SWAP6 POP POP PUSH1 0x20 DUP7 ADD CALLDATALOAD PUSH8 0xFFFFFFFFFFFFFFFF DUP2 GT ISZERO PUSH2 0x187B JUMPI PUSH2 0x187A PUSH2 0x1267 JUMP JUMPDEST JUMPDEST PUSH2 0x1887 DUP9 DUP3 DUP10 ADD PUSH2 0x1807 JUMP JUMPDEST SWAP5 POP POP PUSH1 0x40 DUP7 ADD CALLDATALOAD PUSH8 0xFFFFFFFFFFFFFFFF DUP2 GT ISZERO PUSH2 0x18A8 JUMPI PUSH2 0x18A7 PUSH2 0x1267 JUMP JUMPDEST JUMPDEST PUSH2 0x18B4 DUP9 DUP3 DUP10 ADD PUSH2 0x1807 JUMP JUMPDEST SWAP4 POP POP PUSH1 0x60 DUP7 ADD CALLDATALOAD PUSH8 0xFFFFFFFFFFFFFFFF DUP2 GT ISZERO PUSH2 0x18D5 JUMPI PUSH2 0x18D4 PUSH2 0x1267 JUMP JUMPDEST JUMPDEST PUSH2 0x18E1 DUP9 DUP3 DUP10 ADD PUSH2 0x1807 JUMP JUMPDEST SWAP3 POP POP PUSH1 0x80 DUP7 ADD CALLDATALOAD PUSH8 0xFFFFFFFFFFFFFFFF DUP2 GT ISZERO PUSH2 0x1902 JUMPI PUSH2 0x1901 PUSH2 0x1267 JUMP JUMPDEST JUMPDEST PUSH2 0x190E DUP9 DUP3 DUP10 ADD PUSH2 0x1807 JUMP JUMPDEST SWAP2 POP POP SWAP3 SWAP6 POP SWAP3 SWAP6 SWAP1 SWAP4 POP JUMP JUMPDEST PUSH0 DUP1 PUSH1 0x40 DUP4 DUP6 SUB SLT ISZERO PUSH2 0x1931 JUMPI PUSH2 0x1930 PUSH2 0x1263 JUMP JUMPDEST JUMPDEST PUSH0 PUSH2 0x193E DUP6 DUP3 DUP7 ADD PUSH2 0x12B1 JUMP JUMPDEST SWAP3 POP POP PUSH1 0x20 PUSH2 0x194F DUP6 DUP3 DUP7 ADD PUSH2 0x15F7 JUMP JUMPDEST SWAP2 POP POP SWAP3 POP SWAP3 SWAP1 POP JUMP JUMPDEST PUSH32 0x4E487B7100000000000000000000000000000000000000000000000000000000 PUSH0 MSTORE PUSH1 0x32 PUSH1 0x4 MSTORE PUSH1 0x24 PUSH0 REVERT JUMPDEST PUSH32 0x4E487B7100000000000000000000000000000000000000000000000000000000 PUSH0 MSTORE PUSH1 0x22 PUSH1 0x4 MSTORE PUSH1 0x24 PUSH0 REVERT JUMPDEST PUSH0 PUSH1 0x2 DUP3 DIV SWAP1 POP PUSH1 0x1 DUP3 AND DUP1 PUSH2 0x19CA JUMPI PUSH1 0x7F DUP3 AND SWAP2 POP JUMPDEST PUSH1 0x20 DUP3 LT DUP2 SUB PUSH2 0x19DD JUMPI PUSH2 0x19DC PUSH2 0x1986 JUMP JUMPDEST JUMPDEST POP SWAP2 SWAP1 POP JUMP JUMPDEST PUSH32 0x496C2071756164726F206E6F6E20652720646973706F6E6962696C6500000000 PUSH0 DUP3 ADD MSTORE POP JUMP JUMPDEST PUSH0 PUSH2 0x1A17 PUSH1 0x1C DUP4 PUSH2 0x1636 JUMP JUMPDEST SWAP2 POP PUSH2 0x1A22 DUP3 PUSH2 0x19E3 JUMP JUMPDEST PUSH1 0x20 DUP3 ADD SWAP1 POP SWAP2 SWAP1 POP JUMP JUMPDEST PUSH0 PUSH1 0x20 DUP3 ADD SWAP1 POP DUP2 DUP2 SUB PUSH0 DUP4 ADD MSTORE PUSH2 0x1A44 DUP2 PUSH2 0x1A0B JUMP JUMPDEST SWAP1 POP SWAP2 SWAP1 POP JUMP JUMPDEST PUSH32 0x486169206769612720636F6D707261746F2071756573746F2071756164726F00 PUSH0 DUP3 ADD MSTORE POP JUMP JUMPDEST PUSH0 PUSH2 0x1A7F PUSH1 0x1F DUP4 PUSH2 0x1636 JUMP JUMPDEST SWAP2 POP PUSH2 0x1A8A DUP3 PUSH2 0x1A4B JUMP JUMPDEST PUSH1 0x20 DUP3 ADD SWAP1 POP SWAP2 SWAP1 POP JUMP JUMPDEST PUSH0 PUSH1 0x20 DUP3 ADD SWAP1 POP DUP2 DUP2 SUB PUSH0 DUP4 ADD MSTORE PUSH2 0x1AAC DUP2 PUSH2 0x1A73 JUMP JUMPDEST SWAP1 POP SWAP2 SWAP1 POP JUMP JUMPDEST PUSH32 0x51756164726F20636F6E206C6F2073746573736F204944206769612720657369 PUSH0 DUP3 ADD MSTORE PUSH32 0x7374656E74650000000000000000000000000000000000000000000000000000 PUSH1 0x20 DUP3 ADD MSTORE POP JUMP JUMPDEST PUSH0 PUSH2 0x1B0D PUSH1 0x26 DUP4 PUSH2 0x1636 JUMP JUMPDEST SWAP2 POP PUSH2 0x1B18 DUP3 PUSH2 0x1AB3 JUMP JUMPDEST PUSH1 0x40 DUP3 ADD SWAP1 POP SWAP2 SWAP1 POP JUMP JUMPDEST PUSH0 PUSH1 0x20 DUP3 ADD SWAP1 POP DUP2 DUP2 SUB PUSH0 DUP4 ADD MSTORE PUSH2 0x1B3A DUP2 PUSH2 0x1B01 JUMP JUMPDEST SWAP1 POP SWAP2 SWAP1 POP JUMP JUMPDEST PUSH0 DUP2 SWAP1 POP DUP2 PUSH0 MSTORE PUSH1 0x20 PUSH0 KECCAK256 SWAP1 POP SWAP2 SWAP1 POP JUMP JUMPDEST PUSH0 PUSH1 0x20 PUSH1 0x1F DUP4 ADD DIV SWAP1 POP SWAP2 SWAP1 POP JUMP JUMPDEST PUSH0 DUP3 DUP3 SHL SWAP1 POP SWAP3 SWAP2 POP POP JUMP JUMPDEST PUSH0 PUSH1 0x8 DUP4 MUL PUSH2 0x1B9D PUSH32 0xFFFFFFFFFFFFFFFFFFFFFFFFFFFFFFFFFFFFFFFFFFFFFFFFFFFFFFFFFFFFFFFF DUP3 PUSH2 0x1B62 JUMP JUMPDEST PUSH2 0x1BA7 DUP7 DUP4 PUSH2 0x1B62 JUMP JUMPDEST SWAP6 POP DUP1 NOT DUP5 AND SWAP4 POP DUP1 DUP7 AND DUP5 OR SWAP3 POP POP POP SWAP4 SWAP3 POP POP POP JUMP JUMPDEST PUSH0 DUP2 SWAP1 POP SWAP2 SWAP1 POP JUMP JUMPDEST PUSH0 PUSH2 0x1BE2 PUSH2 0x1BDD PUSH2 0x1BD8 DUP5 PUSH2 0x1229 JUMP JUMPDEST PUSH2 0x1BBF JUMP JUMPDEST PUSH2 0x1229 JUMP JUMPDEST SWAP1 POP SWAP2 SWAP1 POP JUMP JUMPDEST PUSH0 DUP2 SWAP1 POP SWAP2 SWAP1 POP JUMP JUMPDEST PUSH2 0x1BFB DUP4 PUSH2 0x1BC8 JUMP JUMPDEST PUSH2 0x1C0F PUSH2 0x1C07 DUP3 PUSH2 0x1BE9 JUMP JUMPDEST DUP5 DUP5 SLOAD PUSH2 0x1B6E JUMP JUMPDEST DUP3 SSTORE POP POP POP POP JUMP JUMPDEST PUSH0 SWAP1 JUMP JUMPDEST PUSH2 0x1C23 PUSH2 0x1C17 JUMP JUMPDEST PUSH2 0x1C2E DUP2 DUP5 DUP5 PUSH2 0x1BF2 JUMP JUMPDEST POP POP POP JUMP JUMPDEST JUMPDEST DUP2 DUP2 LT ISZERO PUSH2 0x1C51 JUMPI PUSH2 0x1C46 PUSH0 DUP3 PUSH2 0x1C1B JUMP JUMPDEST PUSH1 0x1 DUP2 ADD SWAP1 POP PUSH2 0x1C34 JUMP JUMPDEST POP POP JUMP JUMPDEST PUSH1 0x1F DUP3 GT ISZERO PUSH2 0x1C96 JUMPI PUSH2 0x1C67 DUP2 PUSH2 0x1B41 JUMP JUMPDEST PUSH2 0x1C70 DUP5 PUSH2 0x1B53 JUMP JUMPDEST DUP2 ADD PUSH1 0x20 DUP6 LT ISZERO PUSH2 0x1C7F JUMPI DUP2 SWAP1 POP JUMPDEST PUSH2 0x1C93 PUSH2 0x1C8B DUP6 PUSH2 0x1B53 JUMP JUMPDEST DUP4 ADD DUP3 PUSH2 0x1C33 JUMP JUMPDEST POP POP JUMPDEST POP POP POP JUMP JUMPDEST PUSH0 DUP3 DUP3 SHR SWAP1 POP SWAP3 SWAP2 POP POP JUMP JUMPDEST PUSH0 PUSH2 0x1CB6 PUSH0 NOT DUP5 PUSH1 0x8 MUL PUSH2 0x1C9B JUMP JUMPDEST NOT DUP1 DUP4 AND SWAP2 POP POP SWAP3 SWAP2 POP POP JUMP JUMPDEST PUSH0 PUSH2 0x1CCE DUP4 DUP4 PUSH2 0x1CA7 JUMP JUMPDEST SWAP2 POP DUP3 PUSH1 0x2 MUL DUP3 OR SWAP1 POP SWAP3 SWAP2 POP POP JUMP JUMPDEST PUSH2 0x1CE7 DUP3 PUSH2 0x1328 JUMP JUMPDEST PUSH8 0xFFFFFFFFFFFFFFFF DUP2 GT ISZERO PUSH2 0x1D00 JUMPI PUSH2 0x1CFF PUSH2 0x1710 JUMP JUMPDEST JUMPDEST PUSH2 0x1D0A DUP3 SLOAD PUSH2 0x19B3 JUMP JUMPDEST PUSH2 0x1D15 DUP3 DUP3 DUP6 PUSH2 0x1C55 JUMP JUMPDEST PUSH0 PUSH1 0x20 SWAP1 POP PUSH1 0x1F DUP4 GT PUSH1 0x1 DUP2 EQ PUSH2 0x1D46 JUMPI PUSH0 DUP5 ISZERO PUSH2 0x1D34 JUMPI DUP3 DUP8 ADD MLOAD SWAP1 POP JUMPDEST PUSH2 0x1D3E DUP6 DUP3 PUSH2 0x1CC3 JUMP JUMPDEST DUP7 SSTORE POP PUSH2 0x1DA5 JUMP JUMPDEST PUSH1 0x1F NOT DUP5 AND PUSH2 0x1D54 DUP7 PUSH2 0x1B41 JUMP JUMPDEST PUSH0 JUMPDEST DUP3 DUP2 LT ISZERO PUSH2 0x1D7B JUMPI DUP5 DUP10 ADD MLOAD DUP3 SSTORE PUSH1 0x1 DUP3 ADD SWAP2 POP PUSH1 0x20 DUP6 ADD SWAP5 POP PUSH1 0x20 DUP2 ADD SWAP1 POP PUSH2 0x1D56 JUMP JUMPDEST DUP7 DUP4 LT ISZERO PUSH2 0x1D98 JUMPI DUP5 DUP10 ADD MLOAD PUSH2 0x1D94 PUSH1 0x1F DUP10 AND DUP3 PUSH2 0x1CA7 JUMP JUMPDEST DUP4 SSTORE POP JUMPDEST PUSH1 0x1 PUSH1 0x2 DUP9 MUL ADD DUP9 SSTORE POP POP POP JUMPDEST POP POP POP POP POP POP JUMP JUMPDEST PUSH32 0x4E487B7100000000000000000000000000000000000000000000000000000000 PUSH0 MSTORE PUSH1 0x11 PUSH1 0x4 MSTORE PUSH1 0x24 PUSH0 REVERT JUMPDEST PUSH0 PUSH2 0x1DE4 DUP3 PUSH2 0x1229 JUMP JUMPDEST SWAP2 POP PUSH32 0xFFFFFFFFFFFFFFFFFFFFFFFFFFFFFFFFFFFFFFFFFFFFFFFFFFFFFFFFFFFFFFFF DUP3 SUB PUSH2 0x1E16 JUMPI PUSH2 0x1E15 PUSH2 0x1DAD JUMP JUMPDEST JUMPDEST PUSH1 0x1 DUP3 ADD SWAP1 POP SWAP2 SWAP1 POP JUMP INVALID LOG2 PUSH5 0x6970667358 0x22 SLT KECCAK256 0x21 0x2E LOG2 0xDD 0xB3 0xFC DUP4 0xBD MUL PUSH17 0x7DED054C9EBE21B2F479B6004026D0FD90 LOG2 0xA5 SWAP15 0xB1 0xC7 PUSH5 0x736F6C6343 STOP ADDMOD AND STOP CALLER "
				},
				"gasEstimates": {
					"creation": {
						"codeDepositCost": "1553400",
						"executionCost": "6635",
						"totalCost": "1560035"
					},
					"external": {
						"buyPaint(uint256)": "infinite",
						"counterPaints()": "2425",
						"createPaint(uint256,string,string,string,string)": "infinite",
						"getAllPaintd()": "infinite",
						"getPaintDetails(uint256)": "infinite",
						"getPurchasedPaintIds(address)": "infinite",
						"getPurchasedPaints(address)": "infinite",
						"paints(uint256)": "infinite",
						"purchasedPaints(address,uint256)": "infinite"
					},
					"internal": {
						"purchasedSatus(address,uint256)": "infinite"
					}
				},
				"methodIdentifiers": {
					"buyPaint(uint256)": "a8eca8b2",
					"counterPaints()": "03454b46",
					"createPaint(uint256,string,string,string,string)": "ac75006e",
					"getAllPaintd()": "6963ba5c",
					"getPaintDetails(uint256)": "c7b92d70",
					"getPurchasedPaintIds(address)": "15ec8815",
					"getPurchasedPaints(address)": "10b46615",
					"paints(uint256)": "6e65db3e",
					"purchasedPaints(address,uint256)": "f7142694"
				}
			},
			"storageLayout": {
				"storage": [
					{
						"astId": 3,
						"contract": "contracts/PaintContract.sol:PaintContract",
						"label": "counterPaints",
						"offset": 0,
						"slot": "0",
						"type": "t_uint256"
					},
					{
						"astId": 21,
						"contract": "contracts/PaintContract.sol:PaintContract",
						"label": "paints",
						"offset": 0,
						"slot": "1",
						"type": "t_mapping(t_uint256,t_struct(Paint)16_storage)"
					},
					{
						"astId": 26,
						"contract": "contracts/PaintContract.sol:PaintContract",
						"label": "purchasedPaints",
						"offset": 0,
						"slot": "2",
						"type": "t_mapping(t_address,t_array(t_uint256)dyn_storage)"
					}
				],
				"types": {
					"t_address": {
						"encoding": "inplace",
						"label": "address",
						"numberOfBytes": "20"
					},
					"t_array(t_uint256)dyn_storage": {
						"base": "t_uint256",
						"encoding": "dynamic_array",
						"label": "uint256[]",
						"numberOfBytes": "32"
					},
					"t_bool": {
						"encoding": "inplace",
						"label": "bool",
						"numberOfBytes": "1"
					},
					"t_mapping(t_address,t_array(t_uint256)dyn_storage)": {
						"encoding": "mapping",
						"key": "t_address",
						"label": "mapping(address => uint256[])",
						"numberOfBytes": "32",
						"value": "t_array(t_uint256)dyn_storage"
					},
					"t_mapping(t_uint256,t_struct(Paint)16_storage)": {
						"encoding": "mapping",
						"key": "t_uint256",
						"label": "mapping(uint256 => struct PaintContract.Paint)",
						"numberOfBytes": "32",
						"value": "t_struct(Paint)16_storage"
					},
					"t_string_storage": {
						"encoding": "bytes",
						"label": "string",
						"numberOfBytes": "32"
					},
					"t_struct(Paint)16_storage": {
						"encoding": "inplace",
						"label": "struct PaintContract.Paint",
						"members": [
							{
								"astId": 5,
								"contract": "contracts/PaintContract.sol:PaintContract",
								"label": "id",
								"offset": 0,
								"slot": "0",
								"type": "t_uint256"
							},
							{
								"astId": 7,
								"contract": "contracts/PaintContract.sol:PaintContract",
								"label": "title",
								"offset": 0,
								"slot": "1",
								"type": "t_string_storage"
							},
							{
								"astId": 9,
								"contract": "contracts/PaintContract.sol:PaintContract",
								"label": "img",
								"offset": 0,
								"slot": "2",
								"type": "t_string_storage"
							},
							{
								"astId": 11,
								"contract": "contracts/PaintContract.sol:PaintContract",
								"label": "artist",
								"offset": 0,
								"slot": "3",
								"type": "t_string_storage"
							},
							{
								"astId": 13,
								"contract": "contracts/PaintContract.sol:PaintContract",
								"label": "price",
								"offset": 0,
								"slot": "4",
								"type": "t_string_storage"
							},
							{
								"astId": 15,
								"contract": "contracts/PaintContract.sol:PaintContract",
								"label": "status",
								"offset": 0,
								"slot": "5",
								"type": "t_bool"
							}
						],
						"numberOfBytes": "192"
					},
					"t_uint256": {
						"encoding": "inplace",
						"label": "uint256",
						"numberOfBytes": "32"
					}
				}
			},
			"userdoc": {
				"kind": "user",
				"methods": {},
				"version": 1
			}
		}
	}
}