{
	"contracts/PaintContract.sol": {
		"PaintContract": {
			"abi": [
				{
					"inputs": [],
					"stateMutability": "nonpayable",
					"type": "constructor"
				},
				{
					"anonymous": false,
					"inputs": [
						{
							"indexed": true,
							"internalType": "address",
							"name": "buyer",
							"type": "address"
						},
						{
							"indexed": true,
							"internalType": "uint256",
							"name": "paintId",
							"type": "uint256"
						}
					],
					"name": "purchasedPaint",
					"type": "event"
				},
				{
					"inputs": [
						{
							"internalType": "uint256",
							"name": "paintId",
							"type": "uint256"
						}
					],
					"name": "buyPaint",
					"outputs": [],
					"stateMutability": "payable",
					"type": "function"
				},
				{
					"inputs": [],
					"name": "counterPaints",
					"outputs": [
						{
							"internalType": "uint256",
							"name": "",
							"type": "uint256"
						}
					],
					"stateMutability": "view",
					"type": "function"
				},
				{
					"inputs": [
						{
							"internalType": "uint256",
							"name": "id",
							"type": "uint256"
						},
						{
							"internalType": "string",
							"name": "title",
							"type": "string"
						},
						{
							"internalType": "string",
							"name": "img",
							"type": "string"
						},
						{
							"internalType": "string",
							"name": "artist",
							"type": "string"
						},
						{
							"internalType": "uint256",
							"name": "price",
							"type": "uint256"
						}
					],
					"name": "createPaint",
					"outputs": [],
					"stateMutability": "nonpayable",
					"type": "function"
				},
				{
					"inputs": [],
					"name": "getAllPaint",
					"outputs": [
						{
							"components": [
								{
									"internalType": "uint256",
									"name": "id",
									"type": "uint256"
								},
								{
									"internalType": "string",
									"name": "title",
									"type": "string"
								},
								{
									"internalType": "string",
									"name": "img",
									"type": "string"
								},
								{
									"internalType": "string",
									"name": "artist",
									"type": "string"
								},
								{
									"internalType": "uint256",
									"name": "price",
									"type": "uint256"
								},
								{
									"internalType": "bool",
									"name": "status",
									"type": "bool"
								}
							],
							"internalType": "struct PaintContract.Paint[]",
							"name": "",
							"type": "tuple[]"
						}
					],
					"stateMutability": "view",
					"type": "function"
				},
				{
					"inputs": [
						{
							"internalType": "uint256",
							"name": "paintId",
							"type": "uint256"
						}
					],
					"name": "getPaintDetails",
					"outputs": [
						{
							"internalType": "uint256",
							"name": "id",
							"type": "uint256"
						},
						{
							"internalType": "string",
							"name": "title",
							"type": "string"
						},
						{
							"internalType": "string",
							"name": "img",
							"type": "string"
						},
						{
							"internalType": "string",
							"name": "artist",
							"type": "string"
						},
						{
							"internalType": "uint256",
							"name": "price",
							"type": "uint256"
						},
						{
							"internalType": "bool",
							"name": "status",
							"type": "bool"
						}
					],
					"stateMutability": "view",
					"type": "function"
				},
				{
					"inputs": [
						{
							"internalType": "address",
							"name": "buyer",
							"type": "address"
						}
					],
					"name": "getPurchasedPaintIds",
					"outputs": [
						{
							"internalType": "uint256[]",
							"name": "",
							"type": "uint256[]"
						}
					],
					"stateMutability": "view",
					"type": "function"
				},
				{
					"inputs": [
						{
							"internalType": "address",
							"name": "buyer",
							"type": "address"
						}
					],
					"name": "getPurchasedPaints",
					"outputs": [
						{
							"components": [
								{
									"internalType": "uint256",
									"name": "id",
									"type": "uint256"
								},
								{
									"internalType": "string",
									"name": "title",
									"type": "string"
								},
								{
									"internalType": "string",
									"name": "img",
									"type": "string"
								},
								{
									"internalType": "string",
									"name": "artist",
									"type": "string"
								},
								{
									"internalType": "uint256",
									"name": "price",
									"type": "uint256"
								},
								{
									"internalType": "bool",
									"name": "status",
									"type": "bool"
								}
							],
							"internalType": "struct PaintContract.Paint[]",
							"name": "",
							"type": "tuple[]"
						}
					],
					"stateMutability": "view",
					"type": "function"
				},
				{
					"inputs": [
						{
							"internalType": "uint256",
							"name": "",
							"type": "uint256"
						}
					],
					"name": "paints",
					"outputs": [
						{
							"internalType": "uint256",
							"name": "id",
							"type": "uint256"
						},
						{
							"internalType": "string",
							"name": "title",
							"type": "string"
						},
						{
							"internalType": "string",
							"name": "img",
							"type": "string"
						},
						{
							"internalType": "string",
							"name": "artist",
							"type": "string"
						},
						{
							"internalType": "uint256",
							"name": "price",
							"type": "uint256"
						},
						{
							"internalType": "bool",
							"name": "status",
							"type": "bool"
						}
					],
					"stateMutability": "view",
					"type": "function"
				},
				{
					"inputs": [
						{
							"internalType": "address",
							"name": "",
							"type": "address"
						},
						{
							"internalType": "uint256",
							"name": "",
							"type": "uint256"
						}
					],
					"name": "purchasedPaints",
					"outputs": [
						{
							"internalType": "uint256",
							"name": "",
							"type": "uint256"
						}
					],
					"stateMutability": "view",
					"type": "function"
				}
			],
			"devdoc": {
				"kind": "dev",
				"methods": {},
				"version": 1
			},
			"evm": {
				"assembly": "    /* \"contracts/PaintContract.sol\":725:3687  contract PaintContract {... */\n  mstore(0x40, 0x80)\n    /* \"contracts/PaintContract.sol\":1109:1280  constructor() {... */\n  callvalue\n  dup1\n  iszero\n  tag_1\n  jumpi\n  0x00\n  dup1\n  revert\ntag_1:\n  pop\n    /* \"contracts/PaintContract.sol\":1148:1149  0 */\n  0x00\n    /* \"contracts/PaintContract.sol\":1132:1145  counterPaints */\n  dup1\n    /* \"contracts/PaintContract.sol\":1132:1149  counterPaints = 0 */\n  dup2\n  swap1\n  sstore\n  pop\n    /* \"contracts/PaintContract.sol\":725:3687  contract PaintContract {... */\n  dataSize(sub_0)\n  dup1\n  dataOffset(sub_0)\n  0x00\n  codecopy\n  0x00\n  return\nstop\n\nsub_0: assembly {\n        /* \"contracts/PaintContract.sol\":725:3687  contract PaintContract {... */\n      mstore(0x40, 0x80)\n      jumpi(tag_1, lt(calldatasize, 0x04))\n      shr(0xe0, calldataload(0x00))\n      dup1\n      0x305b6d8c\n      gt\n      tag_11\n      jumpi\n      dup1\n      0x305b6d8c\n      eq\n      tag_6\n      jumpi\n      dup1\n      0x6e65db3e\n      eq\n      tag_7\n      jumpi\n      dup1\n      0xa8eca8b2\n      eq\n      tag_8\n      jumpi\n      dup1\n      0xc7b92d70\n      eq\n      tag_9\n      jumpi\n      dup1\n      0xf7142694\n      eq\n      tag_10\n      jumpi\n      jump(tag_1)\n    tag_11:\n      dup1\n      0x03454b46\n      eq\n      tag_2\n      jumpi\n      dup1\n      0x0d20f524\n      eq\n      tag_3\n      jumpi\n      dup1\n      0x10b46615\n      eq\n      tag_4\n      jumpi\n      dup1\n      0x15ec8815\n      eq\n      tag_5\n      jumpi\n    tag_1:\n      0x00\n      dup1\n      revert\n        /* \"contracts/PaintContract.sol\":754:779  uint public counterPaints */\n    tag_2:\n      callvalue\n      dup1\n      iszero\n      tag_12\n      jumpi\n      0x00\n      dup1\n      revert\n    tag_12:\n      pop\n      tag_13\n      tag_14\n      jump\t// in\n    tag_13:\n      mload(0x40)\n      tag_15\n      swap2\n      swap1\n      tag_16\n      jump\t// in\n    tag_15:\n      mload(0x40)\n      dup1\n      swap2\n      sub\n      swap1\n      return\n        /* \"contracts/PaintContract.sol\":2852:3094  function getAllPaint() public view returns (Paint[] memory){... */\n    tag_3:\n      callvalue\n      dup1\n      iszero\n      tag_17\n      jumpi\n      0x00\n      dup1\n      revert\n    tag_17:\n      pop\n      tag_18\n      tag_19\n      jump\t// in\n    tag_18:\n      mload(0x40)\n      tag_20\n      swap2\n      swap1\n      tag_21\n      jump\t// in\n    tag_20:\n      mload(0x40)\n      dup1\n      swap2\n      sub\n      swap1\n      return\n        /* \"contracts/PaintContract.sol\":3283:3674  function getPurchasedPaints(address buyer) public view returns (Paint[] memory){... */\n    tag_4:\n      callvalue\n      dup1\n      iszero\n      tag_22\n      jumpi\n      0x00\n      dup1\n      revert\n    tag_22:\n      pop\n      tag_23\n      0x04\n      dup1\n      calldatasize\n      sub\n      dup2\n      add\n      swap1\n      tag_24\n      swap2\n      swap1\n      tag_25\n      jump\t// in\n    tag_24:\n      tag_26\n      jump\t// in\n    tag_23:\n      mload(0x40)\n      tag_27\n      swap2\n      swap1\n      tag_21\n      jump\t// in\n    tag_27:\n      mload(0x40)\n      dup1\n      swap2\n      sub\n      swap1\n      return\n        /* \"contracts/PaintContract.sol\":3100:3277  function getPurchasedPaintIds(address buyer) public view returns (uint[] memory){... */\n    tag_5:\n      callvalue\n      dup1\n      iszero\n      tag_28\n      jumpi\n      0x00\n      dup1\n      revert\n    tag_28:\n      pop\n      tag_29\n      0x04\n      dup1\n      calldatasize\n      sub\n      dup2\n      add\n      swap1\n      tag_30\n      swap2\n      swap1\n      tag_25\n      jump\t// in\n    tag_30:\n      tag_31\n      jump\t// in\n    tag_29:\n      mload(0x40)\n      tag_32\n      swap2\n      swap1\n      tag_33\n      jump\t// in\n    tag_32:\n      mload(0x40)\n      dup1\n      swap2\n      sub\n      swap1\n      return\n        /* \"contracts/PaintContract.sol\":1288:1705  function createPaint(... */\n    tag_6:\n      callvalue\n      dup1\n      iszero\n      tag_34\n      jumpi\n      0x00\n      dup1\n      revert\n    tag_34:\n      pop\n      tag_35\n      0x04\n      dup1\n      calldatasize\n      sub\n      dup2\n      add\n      swap1\n      tag_36\n      swap2\n      swap1\n      tag_37\n      jump\t// in\n    tag_36:\n      tag_38\n      jump\t// in\n    tag_35:\n      stop\n        /* \"contracts/PaintContract.sol\":934:971  mapping (uint => Paint) public paints */\n    tag_7:\n      callvalue\n      dup1\n      iszero\n      tag_39\n      jumpi\n      0x00\n      dup1\n      revert\n    tag_39:\n      pop\n      tag_40\n      0x04\n      dup1\n      calldatasize\n      sub\n      dup2\n      add\n      swap1\n      tag_41\n      swap2\n      swap1\n      tag_42\n      jump\t// in\n    tag_41:\n      tag_43\n      jump\t// in\n    tag_40:\n      mload(0x40)\n      tag_44\n      swap7\n      swap6\n      swap5\n      swap4\n      swap3\n      swap2\n      swap1\n      tag_45\n      jump\t// in\n    tag_44:\n      mload(0x40)\n      dup1\n      swap2\n      sub\n      swap1\n      return\n        /* \"contracts/PaintContract.sol\":2155:2513  function buyPaint(uint paintId) public payable {... */\n    tag_8:\n      tag_46\n      0x04\n      dup1\n      calldatasize\n      sub\n      dup2\n      add\n      swap1\n      tag_47\n      swap2\n      swap1\n      tag_42\n      jump\t// in\n    tag_47:\n      tag_48\n      jump\t// in\n    tag_46:\n      stop\n        /* \"contracts/PaintContract.sol\":1711:2149  function getPaintDetails(uint paintId) public view returns (... */\n    tag_9:\n      callvalue\n      dup1\n      iszero\n      tag_49\n      jumpi\n      0x00\n      dup1\n      revert\n    tag_49:\n      pop\n      tag_50\n      0x04\n      dup1\n      calldatasize\n      sub\n      dup2\n      add\n      swap1\n      tag_51\n      swap2\n      swap1\n      tag_42\n      jump\t// in\n    tag_51:\n      tag_52\n      jump\t// in\n    tag_50:\n      mload(0x40)\n      tag_53\n      swap7\n      swap6\n      swap5\n      swap4\n      swap3\n      swap2\n      swap1\n      tag_45\n      jump\t// in\n    tag_53:\n      mload(0x40)\n      dup1\n      swap2\n      sub\n      swap1\n      return\n        /* \"contracts/PaintContract.sol\":977:1027  mapping (address => uint[]) public purchasedPaints */\n    tag_10:\n      callvalue\n      dup1\n      iszero\n      tag_54\n      jumpi\n      0x00\n      dup1\n      revert\n    tag_54:\n      pop\n      tag_55\n      0x04\n      dup1\n      calldatasize\n      sub\n      dup2\n      add\n      swap1\n      tag_56\n      swap2\n      swap1\n      tag_57\n      jump\t// in\n    tag_56:\n      tag_58\n      jump\t// in\n    tag_55:\n      mload(0x40)\n      tag_59\n      swap2\n      swap1\n      tag_16\n      jump\t// in\n    tag_59:\n      mload(0x40)\n      dup1\n      swap2\n      sub\n      swap1\n      return\n        /* \"contracts/PaintContract.sol\":754:779  uint public counterPaints */\n    tag_14:\n      sload(0x00)\n      dup2\n      jump\t// out\n        /* \"contracts/PaintContract.sol\":2852:3094  function getAllPaint() public view returns (Paint[] memory){... */\n    tag_19:\n        /* \"contracts/PaintContract.sol\":2896:2910  Paint[] memory */\n      0x60\n        /* \"contracts/PaintContract.sol\":2921:2942  Paint[] memory result */\n      0x00\n        /* \"contracts/PaintContract.sol\":2957:2970  counterPaints */\n      dup1\n      sload\n        /* \"contracts/PaintContract.sol\":2945:2971  new Paint[](counterPaints) */\n      0xffffffffffffffff\n      dup2\n      gt\n      iszero\n      tag_61\n      jumpi\n      tag_62\n      tag_63\n      jump\t// in\n    tag_62:\n    tag_61:\n      mload(0x40)\n      swap1\n      dup1\n      dup3\n      mstore\n      dup1\n      0x20\n      mul\n      0x20\n      add\n      dup3\n      add\n      0x40\n      mstore\n      dup1\n      iszero\n      tag_64\n      jumpi\n      dup2\n      0x20\n      add\n    tag_65:\n      tag_66\n      tag_67\n      jump\t// in\n    tag_66:\n      dup2\n      mstore\n      0x20\n      add\n      swap1\n      0x01\n      swap1\n      sub\n      swap1\n      dup2\n      tag_65\n      jumpi\n      swap1\n      pop\n    tag_64:\n      pop\n        /* \"contracts/PaintContract.sol\":2921:2971  Paint[] memory result = new Paint[](counterPaints) */\n      swap1\n      pop\n        /* \"contracts/PaintContract.sol\":2985:2991  uint i */\n      0x00\n        /* \"contracts/PaintContract.sol\":2981:3065  for(uint i = 0; i< counterPaints; i++){... */\n    tag_68:\n        /* \"contracts/PaintContract.sol\":3000:3013  counterPaints */\n      sload(0x00)\n        /* \"contracts/PaintContract.sol\":2997:2998  i */\n      dup2\n        /* \"contracts/PaintContract.sol\":2997:3013  i< counterPaints */\n      lt\n        /* \"contracts/PaintContract.sol\":2981:3065  for(uint i = 0; i< counterPaints; i++){... */\n      iszero\n      tag_69\n      jumpi\n        /* \"contracts/PaintContract.sol\":3045:3051  paints */\n      0x01\n        /* \"contracts/PaintContract.sol\":3045:3054  paints[i] */\n      0x00\n        /* \"contracts/PaintContract.sol\":3052:3053  i */\n      dup3\n        /* \"contracts/PaintContract.sol\":3045:3054  paints[i] */\n      dup2\n      mstore\n      0x20\n      add\n      swap1\n      dup2\n      mstore\n      0x20\n      add\n      0x00\n      keccak256\n        /* \"contracts/PaintContract.sol\":3033:3054  result[i] = paints[i] */\n      mload(0x40)\n      dup1\n      0xc0\n      add\n      0x40\n      mstore\n      swap1\n      dup2\n      0x00\n      dup3\n      add\n      sload\n      dup2\n      mstore\n      0x20\n      add\n      0x01\n      dup3\n      add\n      dup1\n      sload\n      tag_71\n      swap1\n      tag_72\n      jump\t// in\n    tag_71:\n      dup1\n      0x1f\n      add\n      0x20\n      dup1\n      swap2\n      div\n      mul\n      0x20\n      add\n      mload(0x40)\n      swap1\n      dup2\n      add\n      0x40\n      mstore\n      dup1\n      swap3\n      swap2\n      swap1\n      dup2\n      dup2\n      mstore\n      0x20\n      add\n      dup3\n      dup1\n      sload\n      tag_73\n      swap1\n      tag_72\n      jump\t// in\n    tag_73:\n      dup1\n      iszero\n      tag_74\n      jumpi\n      dup1\n      0x1f\n      lt\n      tag_75\n      jumpi\n      0x0100\n      dup1\n      dup4\n      sload\n      div\n      mul\n      dup4\n      mstore\n      swap2\n      0x20\n      add\n      swap2\n      jump(tag_74)\n    tag_75:\n      dup3\n      add\n      swap2\n      swap1\n      0x00\n      mstore\n      keccak256(0x00, 0x20)\n      swap1\n    tag_76:\n      dup2\n      sload\n      dup2\n      mstore\n      swap1\n      0x01\n      add\n      swap1\n      0x20\n      add\n      dup1\n      dup4\n      gt\n      tag_76\n      jumpi\n      dup3\n      swap1\n      sub\n      0x1f\n      and\n      dup3\n      add\n      swap2\n    tag_74:\n      pop\n      pop\n      pop\n      pop\n      pop\n      dup2\n      mstore\n      0x20\n      add\n      0x02\n      dup3\n      add\n      dup1\n      sload\n      tag_77\n      swap1\n      tag_72\n      jump\t// in\n    tag_77:\n      dup1\n      0x1f\n      add\n      0x20\n      dup1\n      swap2\n      div\n      mul\n      0x20\n      add\n      mload(0x40)\n      swap1\n      dup2\n      add\n      0x40\n      mstore\n      dup1\n      swap3\n      swap2\n      swap1\n      dup2\n      dup2\n      mstore\n      0x20\n      add\n      dup3\n      dup1\n      sload\n      tag_78\n      swap1\n      tag_72\n      jump\t// in\n    tag_78:\n      dup1\n      iszero\n      tag_79\n      jumpi\n      dup1\n      0x1f\n      lt\n      tag_80\n      jumpi\n      0x0100\n      dup1\n      dup4\n      sload\n      div\n      mul\n      dup4\n      mstore\n      swap2\n      0x20\n      add\n      swap2\n      jump(tag_79)\n    tag_80:\n      dup3\n      add\n      swap2\n      swap1\n      0x00\n      mstore\n      keccak256(0x00, 0x20)\n      swap1\n    tag_81:\n      dup2\n      sload\n      dup2\n      mstore\n      swap1\n      0x01\n      add\n      swap1\n      0x20\n      add\n      dup1\n      dup4\n      gt\n      tag_81\n      jumpi\n      dup3\n      swap1\n      sub\n      0x1f\n      and\n      dup3\n      add\n      swap2\n    tag_79:\n      pop\n      pop\n      pop\n      pop\n      pop\n      dup2\n      mstore\n      0x20\n      add\n      0x03\n      dup3\n      add\n      dup1\n      sload\n      tag_82\n      swap1\n      tag_72\n      jump\t// in\n    tag_82:\n      dup1\n      0x1f\n      add\n      0x20\n      dup1\n      swap2\n      div\n      mul\n      0x20\n      add\n      mload(0x40)\n      swap1\n      dup2\n      add\n      0x40\n      mstore\n      dup1\n      swap3\n      swap2\n      swap1\n      dup2\n      dup2\n      mstore\n      0x20\n      add\n      dup3\n      dup1\n      sload\n      tag_83\n      swap1\n      tag_72\n      jump\t// in\n    tag_83:\n      dup1\n      iszero\n      tag_84\n      jumpi\n      dup1\n      0x1f\n      lt\n      tag_85\n      jumpi\n      0x0100\n      dup1\n      dup4\n      sload\n      div\n      mul\n      dup4\n      mstore\n      swap2\n      0x20\n      add\n      swap2\n      jump(tag_84)\n    tag_85:\n      dup3\n      add\n      swap2\n      swap1\n      0x00\n      mstore\n      keccak256(0x00, 0x20)\n      swap1\n    tag_86:\n      dup2\n      sload\n      dup2\n      mstore\n      swap1\n      0x01\n      add\n      swap1\n      0x20\n      add\n      dup1\n      dup4\n      gt\n      tag_86\n      jumpi\n      dup3\n      swap1\n      sub\n      0x1f\n      and\n      dup3\n      add\n      swap2\n    tag_84:\n      pop\n      pop\n      pop\n      pop\n      pop\n      dup2\n      mstore\n      0x20\n      add\n      0x04\n      dup3\n      add\n      sload\n      dup2\n      mstore\n      0x20\n      add\n      0x05\n      dup3\n      add\n      0x00\n      swap1\n      sload\n      swap1\n      0x0100\n      exp\n      swap1\n      div\n      0xff\n      and\n      iszero\n      iszero\n      iszero\n      iszero\n      dup2\n      mstore\n      pop\n      pop\n        /* \"contracts/PaintContract.sol\":3033:3039  result */\n      dup3\n        /* \"contracts/PaintContract.sol\":3040:3041  i */\n      dup3\n        /* \"contracts/PaintContract.sol\":3033:3042  result[i] */\n      dup2\n      mload\n      dup2\n      lt\n      tag_87\n      jumpi\n      tag_88\n      tag_89\n      jump\t// in\n    tag_88:\n    tag_87:\n      0x20\n      mul\n      0x20\n      add\n      add\n        /* \"contracts/PaintContract.sol\":3033:3054  result[i] = paints[i] */\n      dup2\n      swap1\n      mstore\n      pop\n        /* \"contracts/PaintContract.sol\":3015:3018  i++ */\n      dup1\n      dup1\n      0x01\n      add\n      swap2\n      pop\n      pop\n        /* \"contracts/PaintContract.sol\":2981:3065  for(uint i = 0; i< counterPaints; i++){... */\n      jump(tag_68)\n    tag_69:\n      pop\n        /* \"contracts/PaintContract.sol\":3081:3087  result */\n      dup1\n        /* \"contracts/PaintContract.sol\":3074:3087  return result */\n      swap2\n      pop\n      pop\n        /* \"contracts/PaintContract.sol\":2852:3094  function getAllPaint() public view returns (Paint[] memory){... */\n      swap1\n      jump\t// out\n        /* \"contracts/PaintContract.sol\":3283:3674  function getPurchasedPaints(address buyer) public view returns (Paint[] memory){... */\n    tag_26:\n        /* \"contracts/PaintContract.sol\":3347:3361  Paint[] memory */\n      0x60\n        /* \"contracts/PaintContract.sol\":3372:3398  uint[] memory purchasedIds */\n      0x00\n        /* \"contracts/PaintContract.sol\":3401:3416  purchasedPaints */\n      0x02\n        /* \"contracts/PaintContract.sol\":3401:3423  purchasedPaints[buyer] */\n      0x00\n        /* \"contracts/PaintContract.sol\":3417:3422  buyer */\n      dup5\n        /* \"contracts/PaintContract.sol\":3401:3423  purchasedPaints[buyer] */\n      0xffffffffffffffffffffffffffffffffffffffff\n      and\n      0xffffffffffffffffffffffffffffffffffffffff\n      and\n      dup2\n      mstore\n      0x20\n      add\n      swap1\n      dup2\n      mstore\n      0x20\n      add\n      0x00\n      keccak256\n        /* \"contracts/PaintContract.sol\":3372:3423  uint[] memory purchasedIds = purchasedPaints[buyer] */\n      dup1\n      sload\n      dup1\n      0x20\n      mul\n      0x20\n      add\n      mload(0x40)\n      swap1\n      dup2\n      add\n      0x40\n      mstore\n      dup1\n      swap3\n      swap2\n      swap1\n      dup2\n      dup2\n      mstore\n      0x20\n      add\n      dup3\n      dup1\n      sload\n      dup1\n      iszero\n      tag_91\n      jumpi\n      0x20\n      mul\n      dup3\n      add\n      swap2\n      swap1\n      0x00\n      mstore\n      keccak256(0x00, 0x20)\n      swap1\n    tag_92:\n      dup2\n      sload\n      dup2\n      mstore\n      0x20\n      add\n      swap1\n      0x01\n      add\n      swap1\n      dup1\n      dup4\n      gt\n      tag_92\n      jumpi\n    tag_91:\n      pop\n      pop\n      pop\n      pop\n      pop\n      swap1\n      pop\n        /* \"contracts/PaintContract.sol\":3433:3468  Paint[] memory purchasedPaintsArray */\n      0x00\n        /* \"contracts/PaintContract.sol\":3483:3495  purchasedIds */\n      dup2\n        /* \"contracts/PaintContract.sol\":3483:3502  purchasedIds.length */\n      mload\n        /* \"contracts/PaintContract.sol\":3471:3503  new Paint[](purchasedIds.length) */\n      0xffffffffffffffff\n      dup2\n      gt\n      iszero\n      tag_93\n      jumpi\n      tag_94\n      tag_63\n      jump\t// in\n    tag_94:\n    tag_93:\n      mload(0x40)\n      swap1\n      dup1\n      dup3\n      mstore\n      dup1\n      0x20\n      mul\n      0x20\n      add\n      dup3\n      add\n      0x40\n      mstore\n      dup1\n      iszero\n      tag_95\n      jumpi\n      dup2\n      0x20\n      add\n    tag_96:\n      tag_97\n      tag_67\n      jump\t// in\n    tag_97:\n      dup2\n      mstore\n      0x20\n      add\n      swap1\n      0x01\n      swap1\n      sub\n      swap1\n      dup2\n      tag_96\n      jumpi\n      swap1\n      pop\n    tag_95:\n      pop\n        /* \"contracts/PaintContract.sol\":3433:3503  Paint[] memory purchasedPaintsArray = new Paint[](purchasedIds.length) */\n      swap1\n      pop\n        /* \"contracts/PaintContract.sol\":3518:3524  uint i */\n      0x00\n        /* \"contracts/PaintContract.sol\":3514:3631  for(uint i= 0; i< purchasedIds.length; i++){... */\n    tag_98:\n        /* \"contracts/PaintContract.sol\":3532:3544  purchasedIds */\n      dup3\n        /* \"contracts/PaintContract.sol\":3532:3551  purchasedIds.length */\n      mload\n        /* \"contracts/PaintContract.sol\":3529:3530  i */\n      dup2\n        /* \"contracts/PaintContract.sol\":3529:3551  i< purchasedIds.length */\n      lt\n        /* \"contracts/PaintContract.sol\":3514:3631  for(uint i= 0; i< purchasedIds.length; i++){... */\n      iszero\n      tag_99\n      jumpi\n        /* \"contracts/PaintContract.sol\":3597:3603  paints */\n      0x01\n        /* \"contracts/PaintContract.sol\":3597:3620  paints[purchasedIds[i]] */\n      0x00\n        /* \"contracts/PaintContract.sol\":3604:3616  purchasedIds */\n      dup5\n        /* \"contracts/PaintContract.sol\":3617:3618  i */\n      dup4\n        /* \"contracts/PaintContract.sol\":3604:3619  purchasedIds[i] */\n      dup2\n      mload\n      dup2\n      lt\n      tag_101\n      jumpi\n      tag_102\n      tag_89\n      jump\t// in\n    tag_102:\n    tag_101:\n      0x20\n      mul\n      0x20\n      add\n      add\n      mload\n        /* \"contracts/PaintContract.sol\":3597:3620  paints[purchasedIds[i]] */\n      dup2\n      mstore\n      0x20\n      add\n      swap1\n      dup2\n      mstore\n      0x20\n      add\n      0x00\n      keccak256\n        /* \"contracts/PaintContract.sol\":3571:3620  purchasedPaintsArray[i] = paints[purchasedIds[i]] */\n      mload(0x40)\n      dup1\n      0xc0\n      add\n      0x40\n      mstore\n      swap1\n      dup2\n      0x00\n      dup3\n      add\n      sload\n      dup2\n      mstore\n      0x20\n      add\n      0x01\n      dup3\n      add\n      dup1\n      sload\n      tag_103\n      swap1\n      tag_72\n      jump\t// in\n    tag_103:\n      dup1\n      0x1f\n      add\n      0x20\n      dup1\n      swap2\n      div\n      mul\n      0x20\n      add\n      mload(0x40)\n      swap1\n      dup2\n      add\n      0x40\n      mstore\n      dup1\n      swap3\n      swap2\n      swap1\n      dup2\n      dup2\n      mstore\n      0x20\n      add\n      dup3\n      dup1\n      sload\n      tag_104\n      swap1\n      tag_72\n      jump\t// in\n    tag_104:\n      dup1\n      iszero\n      tag_105\n      jumpi\n      dup1\n      0x1f\n      lt\n      tag_106\n      jumpi\n      0x0100\n      dup1\n      dup4\n      sload\n      div\n      mul\n      dup4\n      mstore\n      swap2\n      0x20\n      add\n      swap2\n      jump(tag_105)\n    tag_106:\n      dup3\n      add\n      swap2\n      swap1\n      0x00\n      mstore\n      keccak256(0x00, 0x20)\n      swap1\n    tag_107:\n      dup2\n      sload\n      dup2\n      mstore\n      swap1\n      0x01\n      add\n      swap1\n      0x20\n      add\n      dup1\n      dup4\n      gt\n      tag_107\n      jumpi\n      dup3\n      swap1\n      sub\n      0x1f\n      and\n      dup3\n      add\n      swap2\n    tag_105:\n      pop\n      pop\n      pop\n      pop\n      pop\n      dup2\n      mstore\n      0x20\n      add\n      0x02\n      dup3\n      add\n      dup1\n      sload\n      tag_108\n      swap1\n      tag_72\n      jump\t// in\n    tag_108:\n      dup1\n      0x1f\n      add\n      0x20\n      dup1\n      swap2\n      div\n      mul\n      0x20\n      add\n      mload(0x40)\n      swap1\n      dup2\n      add\n      0x40\n      mstore\n      dup1\n      swap3\n      swap2\n      swap1\n      dup2\n      dup2\n      mstore\n      0x20\n      add\n      dup3\n      dup1\n      sload\n      tag_109\n      swap1\n      tag_72\n      jump\t// in\n    tag_109:\n      dup1\n      iszero\n      tag_110\n      jumpi\n      dup1\n      0x1f\n      lt\n      tag_111\n      jumpi\n      0x0100\n      dup1\n      dup4\n      sload\n      div\n      mul\n      dup4\n      mstore\n      swap2\n      0x20\n      add\n      swap2\n      jump(tag_110)\n    tag_111:\n      dup3\n      add\n      swap2\n      swap1\n      0x00\n      mstore\n      keccak256(0x00, 0x20)\n      swap1\n    tag_112:\n      dup2\n      sload\n      dup2\n      mstore\n      swap1\n      0x01\n      add\n      swap1\n      0x20\n      add\n      dup1\n      dup4\n      gt\n      tag_112\n      jumpi\n      dup3\n      swap1\n      sub\n      0x1f\n      and\n      dup3\n      add\n      swap2\n    tag_110:\n      pop\n      pop\n      pop\n      pop\n      pop\n      dup2\n      mstore\n      0x20\n      add\n      0x03\n      dup3\n      add\n      dup1\n      sload\n      tag_113\n      swap1\n      tag_72\n      jump\t// in\n    tag_113:\n      dup1\n      0x1f\n      add\n      0x20\n      dup1\n      swap2\n      div\n      mul\n      0x20\n      add\n      mload(0x40)\n      swap1\n      dup2\n      add\n      0x40\n      mstore\n      dup1\n      swap3\n      swap2\n      swap1\n      dup2\n      dup2\n      mstore\n      0x20\n      add\n      dup3\n      dup1\n      sload\n      tag_114\n      swap1\n      tag_72\n      jump\t// in\n    tag_114:\n      dup1\n      iszero\n      tag_115\n      jumpi\n      dup1\n      0x1f\n      lt\n      tag_116\n      jumpi\n      0x0100\n      dup1\n      dup4\n      sload\n      div\n      mul\n      dup4\n      mstore\n      swap2\n      0x20\n      add\n      swap2\n      jump(tag_115)\n    tag_116:\n      dup3\n      add\n      swap2\n      swap1\n      0x00\n      mstore\n      keccak256(0x00, 0x20)\n      swap1\n    tag_117:\n      dup2\n      sload\n      dup2\n      mstore\n      swap1\n      0x01\n      add\n      swap1\n      0x20\n      add\n      dup1\n      dup4\n      gt\n      tag_117\n      jumpi\n      dup3\n      swap1\n      sub\n      0x1f\n      and\n      dup3\n      add\n      swap2\n    tag_115:\n      pop\n      pop\n      pop\n      pop\n      pop\n      dup2\n      mstore\n      0x20\n      add\n      0x04\n      dup3\n      add\n      sload\n      dup2\n      mstore\n      0x20\n      add\n      0x05\n      dup3\n      add\n      0x00\n      swap1\n      sload\n      swap1\n      0x0100\n      exp\n      swap1\n      div\n      0xff\n      and\n      iszero\n      iszero\n      iszero\n      iszero\n      dup2\n      mstore\n      pop\n      pop\n        /* \"contracts/PaintContract.sol\":3571:3591  purchasedPaintsArray */\n      dup3\n        /* \"contracts/PaintContract.sol\":3592:3593  i */\n      dup3\n        /* \"contracts/PaintContract.sol\":3571:3594  purchasedPaintsArray[i] */\n      dup2\n      mload\n      dup2\n      lt\n      tag_118\n      jumpi\n      tag_119\n      tag_89\n      jump\t// in\n    tag_119:\n    tag_118:\n      0x20\n      mul\n      0x20\n      add\n      add\n        /* \"contracts/PaintContract.sol\":3571:3620  purchasedPaintsArray[i] = paints[purchasedIds[i]] */\n      dup2\n      swap1\n      mstore\n      pop\n        /* \"contracts/PaintContract.sol\":3553:3556  i++ */\n      dup1\n      dup1\n      0x01\n      add\n      swap2\n      pop\n      pop\n        /* \"contracts/PaintContract.sol\":3514:3631  for(uint i= 0; i< purchasedIds.length; i++){... */\n      jump(tag_98)\n    tag_99:\n      pop\n        /* \"contracts/PaintContract.sol\":3647:3667  purchasedPaintsArray */\n      dup1\n        /* \"contracts/PaintContract.sol\":3640:3667  return purchasedPaintsArray */\n      swap3\n      pop\n      pop\n      pop\n        /* \"contracts/PaintContract.sol\":3283:3674  function getPurchasedPaints(address buyer) public view returns (Paint[] memory){... */\n      swap2\n      swap1\n      pop\n      jump\t// out\n        /* \"contracts/PaintContract.sol\":3100:3277  function getPurchasedPaintIds(address buyer) public view returns (uint[] memory){... */\n    tag_31:\n        /* \"contracts/PaintContract.sol\":3166:3179  uint[] memory */\n      0x60\n        /* \"contracts/PaintContract.sol\":3190:3216  uint[] memory purchasedIds */\n      0x00\n        /* \"contracts/PaintContract.sol\":3219:3234  purchasedPaints */\n      0x02\n        /* \"contracts/PaintContract.sol\":3219:3241  purchasedPaints[buyer] */\n      0x00\n        /* \"contracts/PaintContract.sol\":3235:3240  buyer */\n      dup5\n        /* \"contracts/PaintContract.sol\":3219:3241  purchasedPaints[buyer] */\n      0xffffffffffffffffffffffffffffffffffffffff\n      and\n      0xffffffffffffffffffffffffffffffffffffffff\n      and\n      dup2\n      mstore\n      0x20\n      add\n      swap1\n      dup2\n      mstore\n      0x20\n      add\n      0x00\n      keccak256\n        /* \"contracts/PaintContract.sol\":3190:3241  uint[] memory purchasedIds = purchasedPaints[buyer] */\n      dup1\n      sload\n      dup1\n      0x20\n      mul\n      0x20\n      add\n      mload(0x40)\n      swap1\n      dup2\n      add\n      0x40\n      mstore\n      dup1\n      swap3\n      swap2\n      swap1\n      dup2\n      dup2\n      mstore\n      0x20\n      add\n      dup3\n      dup1\n      sload\n      dup1\n      iszero\n      tag_121\n      jumpi\n      0x20\n      mul\n      dup3\n      add\n      swap2\n      swap1\n      0x00\n      mstore\n      keccak256(0x00, 0x20)\n      swap1\n    tag_122:\n      dup2\n      sload\n      dup2\n      mstore\n      0x20\n      add\n      swap1\n      0x01\n      add\n      swap1\n      dup1\n      dup4\n      gt\n      tag_122\n      jumpi\n    tag_121:\n      pop\n      pop\n      pop\n      pop\n      pop\n      swap1\n      pop\n        /* \"contracts/PaintContract.sol\":3258:3270  purchasedIds */\n      dup1\n        /* \"contracts/PaintContract.sol\":3251:3270  return purchasedIds */\n      swap2\n      pop\n      pop\n        /* \"contracts/PaintContract.sol\":3100:3277  function getPurchasedPaintIds(address buyer) public view returns (uint[] memory){... */\n      swap2\n      swap1\n      pop\n      jump\t// out\n        /* \"contracts/PaintContract.sol\":1288:1705  function createPaint(... */\n    tag_38:\n        /* \"contracts/PaintContract.sol\":1481:1482  0 */\n      0x00\n        /* \"contracts/PaintContract.sol\":1464:1470  paints */\n      0x01\n        /* \"contracts/PaintContract.sol\":1464:1474  paints[id] */\n      0x00\n        /* \"contracts/PaintContract.sol\":1471:1473  id */\n      dup8\n        /* \"contracts/PaintContract.sol\":1464:1474  paints[id] */\n      dup2\n      mstore\n      0x20\n      add\n      swap1\n      dup2\n      mstore\n      0x20\n      add\n      0x00\n      keccak256\n        /* \"contracts/PaintContract.sol\":1464:1477  paints[id].id */\n      0x00\n      add\n      sload\n        /* \"contracts/PaintContract.sol\":1464:1482  paints[id].id == 0 */\n      eq\n        /* \"contracts/PaintContract.sol\":1456:1525  require(paints[id].id == 0, \"Quadro con lo stesso ID gia' esistente\") */\n      tag_124\n      jumpi\n      mload(0x40)\n      0x08c379a000000000000000000000000000000000000000000000000000000000\n      dup2\n      mstore\n      0x04\n      add\n      tag_125\n      swap1\n      tag_126\n      jump\t// in\n    tag_125:\n      mload(0x40)\n      dup1\n      swap2\n      sub\n      swap1\n      revert\n    tag_124:\n        /* \"contracts/PaintContract.sol\":1549:1673  Paint(... */\n      mload(0x40)\n      dup1\n      0xc0\n      add\n      0x40\n      mstore\n      dup1\n        /* \"contracts/PaintContract.sol\":1568:1570  id */\n      dup7\n        /* \"contracts/PaintContract.sol\":1549:1673  Paint(... */\n      dup2\n      mstore\n      0x20\n      add\n        /* \"contracts/PaintContract.sol\":1584:1589  title */\n      dup6\n        /* \"contracts/PaintContract.sol\":1549:1673  Paint(... */\n      dup2\n      mstore\n      0x20\n      add\n        /* \"contracts/PaintContract.sol\":1603:1606  img */\n      dup5\n        /* \"contracts/PaintContract.sol\":1549:1673  Paint(... */\n      dup2\n      mstore\n      0x20\n      add\n        /* \"contracts/PaintContract.sol\":1620:1626  artist */\n      dup4\n        /* \"contracts/PaintContract.sol\":1549:1673  Paint(... */\n      dup2\n      mstore\n      0x20\n      add\n        /* \"contracts/PaintContract.sol\":1640:1645  price */\n      dup3\n        /* \"contracts/PaintContract.sol\":1549:1673  Paint(... */\n      dup2\n      mstore\n      0x20\n      add\n        /* \"contracts/PaintContract.sol\":1659:1663  true */\n      0x01\n        /* \"contracts/PaintContract.sol\":1549:1673  Paint(... */\n      iszero\n      iszero\n      dup2\n      mstore\n      pop\n        /* \"contracts/PaintContract.sol\":1536:1542  paints */\n      0x01\n        /* \"contracts/PaintContract.sol\":1536:1546  paints[id] */\n      0x00\n        /* \"contracts/PaintContract.sol\":1543:1545  id */\n      dup8\n        /* \"contracts/PaintContract.sol\":1536:1546  paints[id] */\n      dup2\n      mstore\n      0x20\n      add\n      swap1\n      dup2\n      mstore\n      0x20\n      add\n      0x00\n      keccak256\n        /* \"contracts/PaintContract.sol\":1536:1673  paints[id] = Paint(... */\n      0x00\n      dup3\n      add\n      mload\n      dup2\n      0x00\n      add\n      sstore\n      0x20\n      dup3\n      add\n      mload\n      dup2\n      0x01\n      add\n      swap1\n      dup2\n      tag_127\n      swap2\n      swap1\n      tag_128\n      jump\t// in\n    tag_127:\n      pop\n      0x40\n      dup3\n      add\n      mload\n      dup2\n      0x02\n      add\n      swap1\n      dup2\n      tag_129\n      swap2\n      swap1\n      tag_128\n      jump\t// in\n    tag_129:\n      pop\n      0x60\n      dup3\n      add\n      mload\n      dup2\n      0x03\n      add\n      swap1\n      dup2\n      tag_130\n      swap2\n      swap1\n      tag_128\n      jump\t// in\n    tag_130:\n      pop\n      0x80\n      dup3\n      add\n      mload\n      dup2\n      0x04\n      add\n      sstore\n      0xa0\n      dup3\n      add\n      mload\n      dup2\n      0x05\n      add\n      exp(0x0100, 0x00)\n      dup2\n      sload\n      dup2\n      0xff\n      mul\n      not\n      and\n      swap1\n      dup4\n      iszero\n      iszero\n      mul\n      or\n      swap1\n      sstore\n      pop\n      swap1\n      pop\n      pop\n        /* \"contracts/PaintContract.sol\":1683:1696  counterPaints */\n      0x00\n      dup1\n        /* \"contracts/PaintContract.sol\":1683:1698  counterPaints++ */\n      dup2\n      sload\n      dup1\n      swap3\n      swap2\n      swap1\n      tag_131\n      swap1\n      tag_132\n      jump\t// in\n    tag_131:\n      swap2\n      swap1\n      pop\n      sstore\n      pop\n        /* \"contracts/PaintContract.sol\":1288:1705  function createPaint(... */\n      pop\n      pop\n      pop\n      pop\n      pop\n      jump\t// out\n        /* \"contracts/PaintContract.sol\":934:971  mapping (uint => Paint) public paints */\n    tag_43:\n      mstore(0x20, 0x01)\n      dup1\n      0x00\n      mstore\n      keccak256(0x00, 0x40)\n      0x00\n      swap2\n      pop\n      swap1\n      pop\n      dup1\n      0x00\n      add\n      sload\n      swap1\n      dup1\n      0x01\n      add\n      dup1\n      sload\n      tag_133\n      swap1\n      tag_72\n      jump\t// in\n    tag_133:\n      dup1\n      0x1f\n      add\n      0x20\n      dup1\n      swap2\n      div\n      mul\n      0x20\n      add\n      mload(0x40)\n      swap1\n      dup2\n      add\n      0x40\n      mstore\n      dup1\n      swap3\n      swap2\n      swap1\n      dup2\n      dup2\n      mstore\n      0x20\n      add\n      dup3\n      dup1\n      sload\n      tag_134\n      swap1\n      tag_72\n      jump\t// in\n    tag_134:\n      dup1\n      iszero\n      tag_135\n      jumpi\n      dup1\n      0x1f\n      lt\n      tag_136\n      jumpi\n      0x0100\n      dup1\n      dup4\n      sload\n      div\n      mul\n      dup4\n      mstore\n      swap2\n      0x20\n      add\n      swap2\n      jump(tag_135)\n    tag_136:\n      dup3\n      add\n      swap2\n      swap1\n      0x00\n      mstore\n      keccak256(0x00, 0x20)\n      swap1\n    tag_137:\n      dup2\n      sload\n      dup2\n      mstore\n      swap1\n      0x01\n      add\n      swap1\n      0x20\n      add\n      dup1\n      dup4\n      gt\n      tag_137\n      jumpi\n      dup3\n      swap1\n      sub\n      0x1f\n      and\n      dup3\n      add\n      swap2\n    tag_135:\n      pop\n      pop\n      pop\n      pop\n      pop\n      swap1\n      dup1\n      0x02\n      add\n      dup1\n      sload\n      tag_138\n      swap1\n      tag_72\n      jump\t// in\n    tag_138:\n      dup1\n      0x1f\n      add\n      0x20\n      dup1\n      swap2\n      div\n      mul\n      0x20\n      add\n      mload(0x40)\n      swap1\n      dup2\n      add\n      0x40\n      mstore\n      dup1\n      swap3\n      swap2\n      swap1\n      dup2\n      dup2\n      mstore\n      0x20\n      add\n      dup3\n      dup1\n      sload\n      tag_139\n      swap1\n      tag_72\n      jump\t// in\n    tag_139:\n      dup1\n      iszero\n      tag_140\n      jumpi\n      dup1\n      0x1f\n      lt\n      tag_141\n      jumpi\n      0x0100\n      dup1\n      dup4\n      sload\n      div\n      mul\n      dup4\n      mstore\n      swap2\n      0x20\n      add\n      swap2\n      jump(tag_140)\n    tag_141:\n      dup3\n      add\n      swap2\n      swap1\n      0x00\n      mstore\n      keccak256(0x00, 0x20)\n      swap1\n    tag_142:\n      dup2\n      sload\n      dup2\n      mstore\n      swap1\n      0x01\n      add\n      swap1\n      0x20\n      add\n      dup1\n      dup4\n      gt\n      tag_142\n      jumpi\n      dup3\n      swap1\n      sub\n      0x1f\n      and\n      dup3\n      add\n      swap2\n    tag_140:\n      pop\n      pop\n      pop\n      pop\n      pop\n      swap1\n      dup1\n      0x03\n      add\n      dup1\n      sload\n      tag_143\n      swap1\n      tag_72\n      jump\t// in\n    tag_143:\n      dup1\n      0x1f\n      add\n      0x20\n      dup1\n      swap2\n      div\n      mul\n      0x20\n      add\n      mload(0x40)\n      swap1\n      dup2\n      add\n      0x40\n      mstore\n      dup1\n      swap3\n      swap2\n      swap1\n      dup2\n      dup2\n      mstore\n      0x20\n      add\n      dup3\n      dup1\n      sload\n      tag_144\n      swap1\n      tag_72\n      jump\t// in\n    tag_144:\n      dup1\n      iszero\n      tag_145\n      jumpi\n      dup1\n      0x1f\n      lt\n      tag_146\n      jumpi\n      0x0100\n      dup1\n      dup4\n      sload\n      div\n      mul\n      dup4\n      mstore\n      swap2\n      0x20\n      add\n      swap2\n      jump(tag_145)\n    tag_146:\n      dup3\n      add\n      swap2\n      swap1\n      0x00\n      mstore\n      keccak256(0x00, 0x20)\n      swap1\n    tag_147:\n      dup2\n      sload\n      dup2\n      mstore\n      swap1\n      0x01\n      add\n      swap1\n      0x20\n      add\n      dup1\n      dup4\n      gt\n      tag_147\n      jumpi\n      dup3\n      swap1\n      sub\n      0x1f\n      and\n      dup3\n      add\n      swap2\n    tag_145:\n      pop\n      pop\n      pop\n      pop\n      pop\n      swap1\n      dup1\n      0x04\n      add\n      sload\n      swap1\n      dup1\n      0x05\n      add\n      0x00\n      swap1\n      sload\n      swap1\n      0x0100\n      exp\n      swap1\n      div\n      0xff\n      and\n      swap1\n      pop\n      dup7\n      jump\t// out\n        /* \"contracts/PaintContract.sol\":2155:2513  function buyPaint(uint paintId) public payable {... */\n    tag_48:\n        /* \"contracts/PaintContract.sol\":2212:2231  Paint storage paint */\n      0x00\n        /* \"contracts/PaintContract.sol\":2234:2240  paints */\n      0x01\n        /* \"contracts/PaintContract.sol\":2234:2249  paints[paintId] */\n      0x00\n        /* \"contracts/PaintContract.sol\":2241:2248  paintId */\n      dup4\n        /* \"contracts/PaintContract.sol\":2234:2249  paints[paintId] */\n      dup2\n      mstore\n      0x20\n      add\n      swap1\n      dup2\n      mstore\n      0x20\n      add\n      0x00\n      keccak256\n        /* \"contracts/PaintContract.sol\":2212:2249  Paint storage paint = paints[paintId] */\n      swap1\n      pop\n        /* \"contracts/PaintContract.sol\":2267:2272  paint */\n      dup1\n        /* \"contracts/PaintContract.sol\":2267:2279  paint.status */\n      0x05\n      add\n      0x00\n      swap1\n      sload\n      swap1\n      0x0100\n      exp\n      swap1\n      div\n      0xff\n      and\n        /* \"contracts/PaintContract.sol\":2259:2312  require(paint.status, \"Il quadro non e' disponibile\") */\n      tag_149\n      jumpi\n      mload(0x40)\n      0x08c379a000000000000000000000000000000000000000000000000000000000\n      dup2\n      mstore\n      0x04\n      add\n      tag_150\n      swap1\n      tag_151\n      jump\t// in\n    tag_150:\n      mload(0x40)\n      dup1\n      swap2\n      sub\n      swap1\n      revert\n    tag_149:\n        /* \"contracts/PaintContract.sol\":2332:2367  purchasedSatus(msg.sender, paintId) */\n      tag_152\n        /* \"contracts/PaintContract.sol\":2347:2357  msg.sender */\n      caller\n        /* \"contracts/PaintContract.sol\":2359:2366  paintId */\n      dup4\n        /* \"contracts/PaintContract.sol\":2332:2346  purchasedSatus */\n      tag_153\n        /* \"contracts/PaintContract.sol\":2332:2367  purchasedSatus(msg.sender, paintId) */\n      jump\t// in\n    tag_152:\n        /* \"contracts/PaintContract.sol\":2331:2367  !purchasedSatus(msg.sender, paintId) */\n      iszero\n        /* \"contracts/PaintContract.sol\":2323:2403  require(!purchasedSatus(msg.sender, paintId), \"Hai gia' comprato questo quadro\") */\n      tag_154\n      jumpi\n      mload(0x40)\n      0x08c379a000000000000000000000000000000000000000000000000000000000\n      dup2\n      mstore\n      0x04\n      add\n      tag_155\n      swap1\n      tag_156\n      jump\t// in\n    tag_155:\n      mload(0x40)\n      dup1\n      swap2\n      sub\n      swap1\n      revert\n    tag_154:\n        /* \"contracts/PaintContract.sol\":2414:2429  purchasedPaints */\n      0x02\n        /* \"contracts/PaintContract.sol\":2414:2441  purchasedPaints[msg.sender] */\n      0x00\n        /* \"contracts/PaintContract.sol\":2430:2440  msg.sender */\n      caller\n        /* \"contracts/PaintContract.sol\":2414:2441  purchasedPaints[msg.sender] */\n      0xffffffffffffffffffffffffffffffffffffffff\n      and\n      0xffffffffffffffffffffffffffffffffffffffff\n      and\n      dup2\n      mstore\n      0x20\n      add\n      swap1\n      dup2\n      mstore\n      0x20\n      add\n      0x00\n      keccak256\n        /* \"contracts/PaintContract.sol\":2447:2454  paintId */\n      dup3\n        /* \"contracts/PaintContract.sol\":2414:2455  purchasedPaints[msg.sender].push(paintId) */\n      swap1\n      dup1\n      0x01\n      dup2\n      sload\n      add\n      dup1\n      dup3\n      sstore\n      dup1\n      swap2\n      pop\n      pop\n      0x01\n      swap1\n      sub\n      swap1\n      0x00\n      mstore\n      keccak256(0x00, 0x20)\n      add\n      0x00\n      swap1\n      swap2\n      swap1\n      swap2\n      swap1\n      swap2\n      pop\n      sstore\n        /* \"contracts/PaintContract.sol\":2498:2505  paintId */\n      dup2\n        /* \"contracts/PaintContract.sol\":2486:2496  msg.sender */\n      caller\n        /* \"contracts/PaintContract.sol\":2471:2506  purchasedPaint(msg.sender, paintId) */\n      0xffffffffffffffffffffffffffffffffffffffff\n      and\n      0x1219234621cfbda08eed13673c6e71cbf4b399ec00b0cdc44d8366e22d066700\n      mload(0x40)\n      mload(0x40)\n      dup1\n      swap2\n      sub\n      swap1\n      log3\n        /* \"contracts/PaintContract.sol\":2202:2513  {... */\n      pop\n        /* \"contracts/PaintContract.sol\":2155:2513  function buyPaint(uint paintId) public payable {... */\n      pop\n      jump\t// out\n        /* \"contracts/PaintContract.sol\":1711:2149  function getPaintDetails(uint paintId) public view returns (... */\n    tag_52:\n        /* \"contracts/PaintContract.sol\":1780:1787  uint id */\n      0x00\n        /* \"contracts/PaintContract.sol\":1797:1816  string memory title */\n      0x60\n        /* \"contracts/PaintContract.sol\":1826:1843  string memory img */\n      dup1\n        /* \"contracts/PaintContract.sol\":1853:1873  string memory artist */\n      0x60\n        /* \"contracts/PaintContract.sol\":1883:1893  uint price */\n      0x00\n        /* \"contracts/PaintContract.sol\":1903:1914  bool status */\n      dup1\n        /* \"contracts/PaintContract.sol\":1931:1950  Paint storage paint */\n      0x00\n        /* \"contracts/PaintContract.sol\":1953:1959  paints */\n      0x01\n        /* \"contracts/PaintContract.sol\":1953:1968  paints[paintId] */\n      0x00\n        /* \"contracts/PaintContract.sol\":1960:1967  paintId */\n      dup10\n        /* \"contracts/PaintContract.sol\":1953:1968  paints[paintId] */\n      dup2\n      mstore\n      0x20\n      add\n      swap1\n      dup2\n      mstore\n      0x20\n      add\n      0x00\n      keccak256\n        /* \"contracts/PaintContract.sol\":1931:1968  Paint storage paint = paints[paintId] */\n      swap1\n      pop\n        /* \"contracts/PaintContract.sol\":1999:2004  paint */\n      dup1\n        /* \"contracts/PaintContract.sol\":1999:2007  paint.id */\n      0x00\n      add\n      sload\n        /* \"contracts/PaintContract.sol\":2021:2026  paint */\n      dup2\n        /* \"contracts/PaintContract.sol\":2021:2032  paint.title */\n      0x01\n      add\n        /* \"contracts/PaintContract.sol\":2046:2051  paint */\n      dup3\n        /* \"contracts/PaintContract.sol\":2046:2055  paint.img */\n      0x02\n      add\n        /* \"contracts/PaintContract.sol\":2069:2074  paint */\n      dup4\n        /* \"contracts/PaintContract.sol\":2069:2081  paint.artist */\n      0x03\n      add\n        /* \"contracts/PaintContract.sol\":2095:2100  paint */\n      dup5\n        /* \"contracts/PaintContract.sol\":2095:2106  paint.price */\n      0x04\n      add\n      sload\n        /* \"contracts/PaintContract.sol\":2120:2125  paint */\n      dup6\n        /* \"contracts/PaintContract.sol\":2120:2132  paint.status */\n      0x05\n      add\n      0x00\n      swap1\n      sload\n      swap1\n      0x0100\n      exp\n      swap1\n      div\n      0xff\n      and\n        /* \"contracts/PaintContract.sol\":1978:2142  return (... */\n      dup5\n      dup1\n      sload\n      tag_159\n      swap1\n      tag_72\n      jump\t// in\n    tag_159:\n      dup1\n      0x1f\n      add\n      0x20\n      dup1\n      swap2\n      div\n      mul\n      0x20\n      add\n      mload(0x40)\n      swap1\n      dup2\n      add\n      0x40\n      mstore\n      dup1\n      swap3\n      swap2\n      swap1\n      dup2\n      dup2\n      mstore\n      0x20\n      add\n      dup3\n      dup1\n      sload\n      tag_160\n      swap1\n      tag_72\n      jump\t// in\n    tag_160:\n      dup1\n      iszero\n      tag_161\n      jumpi\n      dup1\n      0x1f\n      lt\n      tag_162\n      jumpi\n      0x0100\n      dup1\n      dup4\n      sload\n      div\n      mul\n      dup4\n      mstore\n      swap2\n      0x20\n      add\n      swap2\n      jump(tag_161)\n    tag_162:\n      dup3\n      add\n      swap2\n      swap1\n      0x00\n      mstore\n      keccak256(0x00, 0x20)\n      swap1\n    tag_163:\n      dup2\n      sload\n      dup2\n      mstore\n      swap1\n      0x01\n      add\n      swap1\n      0x20\n      add\n      dup1\n      dup4\n      gt\n      tag_163\n      jumpi\n      dup3\n      swap1\n      sub\n      0x1f\n      and\n      dup3\n      add\n      swap2\n    tag_161:\n      pop\n      pop\n      pop\n      pop\n      pop\n      swap5\n      pop\n      dup4\n      dup1\n      sload\n      tag_164\n      swap1\n      tag_72\n      jump\t// in\n    tag_164:\n      dup1\n      0x1f\n      add\n      0x20\n      dup1\n      swap2\n      div\n      mul\n      0x20\n      add\n      mload(0x40)\n      swap1\n      dup2\n      add\n      0x40\n      mstore\n      dup1\n      swap3\n      swap2\n      swap1\n      dup2\n      dup2\n      mstore\n      0x20\n      add\n      dup3\n      dup1\n      sload\n      tag_165\n      swap1\n      tag_72\n      jump\t// in\n    tag_165:\n      dup1\n      iszero\n      tag_166\n      jumpi\n      dup1\n      0x1f\n      lt\n      tag_167\n      jumpi\n      0x0100\n      dup1\n      dup4\n      sload\n      div\n      mul\n      dup4\n      mstore\n      swap2\n      0x20\n      add\n      swap2\n      jump(tag_166)\n    tag_167:\n      dup3\n      add\n      swap2\n      swap1\n      0x00\n      mstore\n      keccak256(0x00, 0x20)\n      swap1\n    tag_168:\n      dup2\n      sload\n      dup2\n      mstore\n      swap1\n      0x01\n      add\n      swap1\n      0x20\n      add\n      dup1\n      dup4\n      gt\n      tag_168\n      jumpi\n      dup3\n      swap1\n      sub\n      0x1f\n      and\n      dup3\n      add\n      swap2\n    tag_166:\n      pop\n      pop\n      pop\n      pop\n      pop\n      swap4\n      pop\n      dup3\n      dup1\n      sload\n      tag_169\n      swap1\n      tag_72\n      jump\t// in\n    tag_169:\n      dup1\n      0x1f\n      add\n      0x20\n      dup1\n      swap2\n      div\n      mul\n      0x20\n      add\n      mload(0x40)\n      swap1\n      dup2\n      add\n      0x40\n      mstore\n      dup1\n      swap3\n      swap2\n      swap1\n      dup2\n      dup2\n      mstore\n      0x20\n      add\n      dup3\n      dup1\n      sload\n      tag_170\n      swap1\n      tag_72\n      jump\t// in\n    tag_170:\n      dup1\n      iszero\n      tag_171\n      jumpi\n      dup1\n      0x1f\n      lt\n      tag_172\n      jumpi\n      0x0100\n      dup1\n      dup4\n      sload\n      div\n      mul\n      dup4\n      mstore\n      swap2\n      0x20\n      add\n      swap2\n      jump(tag_171)\n    tag_172:\n      dup3\n      add\n      swap2\n      swap1\n      0x00\n      mstore\n      keccak256(0x00, 0x20)\n      swap1\n    tag_173:\n      dup2\n      sload\n      dup2\n      mstore\n      swap1\n      0x01\n      add\n      swap1\n      0x20\n      add\n      dup1\n      dup4\n      gt\n      tag_173\n      jumpi\n      dup3\n      swap1\n      sub\n      0x1f\n      and\n      dup3\n      add\n      swap2\n    tag_171:\n      pop\n      pop\n      pop\n      pop\n      pop\n      swap3\n      pop\n      swap7\n      pop\n      swap7\n      pop\n      swap7\n      pop\n      swap7\n      pop\n      swap7\n      pop\n      swap7\n      pop\n      pop\n        /* \"contracts/PaintContract.sol\":1711:2149  function getPaintDetails(uint paintId) public view returns (... */\n      swap2\n      swap4\n      swap6\n      pop\n      swap2\n      swap4\n      swap6\n      jump\t// out\n        /* \"contracts/PaintContract.sol\":977:1027  mapping (address => uint[]) public purchasedPaints */\n    tag_58:\n      mstore(0x20, 0x02)\n      dup2\n      0x00\n      mstore\n      keccak256(0x00, 0x40)\n      dup2\n      dup2\n      sload\n      dup2\n      lt\n      tag_174\n      jumpi\n      0x00\n      dup1\n      revert\n    tag_174:\n      swap1\n      0x00\n      mstore\n      keccak256(0x00, 0x20)\n      add\n      0x00\n      swap2\n      pop\n      swap2\n      pop\n      pop\n      sload\n      dup2\n      jump\t// out\n        /* \"contracts/PaintContract.sol\":2519:2846  function purchasedSatus(address buyer, uint paintId) internal view returns (bool) {... */\n    tag_153:\n        /* \"contracts/PaintContract.sol\":2595:2599  bool */\n      0x00\n        /* \"contracts/PaintContract.sol\":2611:2638  uint[] storage purchasedIds */\n      dup1\n        /* \"contracts/PaintContract.sol\":2641:2656  purchasedPaints */\n      0x02\n        /* \"contracts/PaintContract.sol\":2641:2663  purchasedPaints[buyer] */\n      0x00\n        /* \"contracts/PaintContract.sol\":2657:2662  buyer */\n      dup6\n        /* \"contracts/PaintContract.sol\":2641:2663  purchasedPaints[buyer] */\n      0xffffffffffffffffffffffffffffffffffffffff\n      and\n      0xffffffffffffffffffffffffffffffffffffffff\n      and\n      dup2\n      mstore\n      0x20\n      add\n      swap1\n      dup2\n      mstore\n      0x20\n      add\n      0x00\n      keccak256\n        /* \"contracts/PaintContract.sol\":2611:2663  uint[] storage purchasedIds = purchasedPaints[buyer] */\n      swap1\n      pop\n        /* \"contracts/PaintContract.sol\":2678:2684  uint i */\n      0x00\n        /* \"contracts/PaintContract.sol\":2673:2818  for (uint i = 0; i< purchasedIds.length; i++){... */\n    tag_177:\n        /* \"contracts/PaintContract.sol\":2693:2705  purchasedIds */\n      dup2\n        /* \"contracts/PaintContract.sol\":2693:2712  purchasedIds.length */\n      dup1\n      sload\n      swap1\n      pop\n        /* \"contracts/PaintContract.sol\":2690:2691  i */\n      dup2\n        /* \"contracts/PaintContract.sol\":2690:2712  i< purchasedIds.length */\n      lt\n        /* \"contracts/PaintContract.sol\":2673:2818  for (uint i = 0; i< purchasedIds.length; i++){... */\n      iszero\n      tag_178\n      jumpi\n        /* \"contracts/PaintContract.sol\":2755:2762  paintId */\n      dup4\n        /* \"contracts/PaintContract.sol\":2736:2748  purchasedIds */\n      dup3\n        /* \"contracts/PaintContract.sol\":2749:2750  i */\n      dup3\n        /* \"contracts/PaintContract.sol\":2736:2751  purchasedIds[i] */\n      dup2\n      sload\n      dup2\n      lt\n      tag_180\n      jumpi\n      tag_181\n      tag_89\n      jump\t// in\n    tag_181:\n    tag_180:\n      swap1\n      0x00\n      mstore\n      keccak256(0x00, 0x20)\n      add\n      sload\n        /* \"contracts/PaintContract.sol\":2736:2762  purchasedIds[i] == paintId */\n      sub\n        /* \"contracts/PaintContract.sol\":2732:2808  if (purchasedIds[i] == paintId) {... */\n      tag_183\n      jumpi\n        /* \"contracts/PaintContract.sol\":2789:2793  true */\n      0x01\n        /* \"contracts/PaintContract.sol\":2782:2793  return true */\n      swap3\n      pop\n      pop\n      pop\n      jump(tag_176)\n        /* \"contracts/PaintContract.sol\":2732:2808  if (purchasedIds[i] == paintId) {... */\n    tag_183:\n        /* \"contracts/PaintContract.sol\":2714:2717  i++ */\n      dup1\n      dup1\n      0x01\n      add\n      swap2\n      pop\n      pop\n        /* \"contracts/PaintContract.sol\":2673:2818  for (uint i = 0; i< purchasedIds.length; i++){... */\n      jump(tag_177)\n    tag_178:\n      pop\n        /* \"contracts/PaintContract.sol\":2834:2839  false */\n      0x00\n        /* \"contracts/PaintContract.sol\":2827:2839  return false */\n      swap2\n      pop\n      pop\n        /* \"contracts/PaintContract.sol\":2519:2846  function purchasedSatus(address buyer, uint paintId) internal view returns (bool) {... */\n    tag_176:\n      swap3\n      swap2\n      pop\n      pop\n      jump\t// out\n    tag_67:\n      mload(0x40)\n      dup1\n      0xc0\n      add\n      0x40\n      mstore\n      dup1\n      0x00\n      dup2\n      mstore\n      0x20\n      add\n      0x60\n      dup2\n      mstore\n      0x20\n      add\n      0x60\n      dup2\n      mstore\n      0x20\n      add\n      0x60\n      dup2\n      mstore\n      0x20\n      add\n      0x00\n      dup2\n      mstore\n      0x20\n      add\n      iszero(iszero(0x00))\n      dup2\n      mstore\n      pop\n      swap1\n      jump\t// out\n        /* \"#utility.yul\":7:84   */\n    tag_184:\n        /* \"#utility.yul\":44:51   */\n      0x00\n        /* \"#utility.yul\":73:78   */\n      dup2\n        /* \"#utility.yul\":62:78   */\n      swap1\n      pop\n        /* \"#utility.yul\":7:84   */\n      swap2\n      swap1\n      pop\n      jump\t// out\n        /* \"#utility.yul\":90:208   */\n    tag_185:\n        /* \"#utility.yul\":177:201   */\n      tag_253\n        /* \"#utility.yul\":195:200   */\n      dup2\n        /* \"#utility.yul\":177:201   */\n      tag_184\n      jump\t// in\n    tag_253:\n        /* \"#utility.yul\":172:175   */\n      dup3\n        /* \"#utility.yul\":165:202   */\n      mstore\n        /* \"#utility.yul\":90:208   */\n      pop\n      pop\n      jump\t// out\n        /* \"#utility.yul\":214:436   */\n    tag_16:\n        /* \"#utility.yul\":307:311   */\n      0x00\n        /* \"#utility.yul\":345:347   */\n      0x20\n        /* \"#utility.yul\":334:343   */\n      dup3\n        /* \"#utility.yul\":330:348   */\n      add\n        /* \"#utility.yul\":322:348   */\n      swap1\n      pop\n        /* \"#utility.yul\":358:429   */\n      tag_255\n        /* \"#utility.yul\":426:427   */\n      0x00\n        /* \"#utility.yul\":415:424   */\n      dup4\n        /* \"#utility.yul\":411:428   */\n      add\n        /* \"#utility.yul\":402:408   */\n      dup5\n        /* \"#utility.yul\":358:429   */\n      tag_185\n      jump\t// in\n    tag_255:\n        /* \"#utility.yul\":214:436   */\n      swap3\n      swap2\n      pop\n      pop\n      jump\t// out\n        /* \"#utility.yul\":442:577   */\n    tag_186:\n        /* \"#utility.yul\":530:536   */\n      0x00\n        /* \"#utility.yul\":564:569   */\n      dup2\n        /* \"#utility.yul\":558:570   */\n      mload\n        /* \"#utility.yul\":548:570   */\n      swap1\n      pop\n        /* \"#utility.yul\":442:577   */\n      swap2\n      swap1\n      pop\n      jump\t// out\n        /* \"#utility.yul\":583:788   */\n    tag_187:\n        /* \"#utility.yul\":703:714   */\n      0x00\n        /* \"#utility.yul\":737:743   */\n      dup3\n        /* \"#utility.yul\":732:735   */\n      dup3\n        /* \"#utility.yul\":725:744   */\n      mstore\n        /* \"#utility.yul\":777:781   */\n      0x20\n        /* \"#utility.yul\":772:775   */\n      dup3\n        /* \"#utility.yul\":768:782   */\n      add\n        /* \"#utility.yul\":753:782   */\n      swap1\n      pop\n        /* \"#utility.yul\":583:788   */\n      swap3\n      swap2\n      pop\n      pop\n      jump\t// out\n        /* \"#utility.yul\":794:947   */\n    tag_188:\n        /* \"#utility.yul\":882:886   */\n      0x00\n        /* \"#utility.yul\":905:908   */\n      dup2\n        /* \"#utility.yul\":897:908   */\n      swap1\n      pop\n        /* \"#utility.yul\":935:939   */\n      0x20\n        /* \"#utility.yul\":930:933   */\n      dup3\n        /* \"#utility.yul\":926:940   */\n      add\n        /* \"#utility.yul\":918:940   */\n      swap1\n      pop\n        /* \"#utility.yul\":794:947   */\n      swap2\n      swap1\n      pop\n      jump\t// out\n        /* \"#utility.yul\":953:1061   */\n    tag_189:\n        /* \"#utility.yul\":1030:1054   */\n      tag_260\n        /* \"#utility.yul\":1048:1053   */\n      dup2\n        /* \"#utility.yul\":1030:1054   */\n      tag_184\n      jump\t// in\n    tag_260:\n        /* \"#utility.yul\":1025:1028   */\n      dup3\n        /* \"#utility.yul\":1018:1055   */\n      mstore\n        /* \"#utility.yul\":953:1061   */\n      pop\n      pop\n      jump\t// out\n        /* \"#utility.yul\":1067:1166   */\n    tag_190:\n        /* \"#utility.yul\":1119:1125   */\n      0x00\n        /* \"#utility.yul\":1153:1158   */\n      dup2\n        /* \"#utility.yul\":1147:1159   */\n      mload\n        /* \"#utility.yul\":1137:1159   */\n      swap1\n      pop\n        /* \"#utility.yul\":1067:1166   */\n      swap2\n      swap1\n      pop\n      jump\t// out\n        /* \"#utility.yul\":1172:1331   */\n    tag_191:\n        /* \"#utility.yul\":1246:1257   */\n      0x00\n        /* \"#utility.yul\":1280:1286   */\n      dup3\n        /* \"#utility.yul\":1275:1278   */\n      dup3\n        /* \"#utility.yul\":1268:1287   */\n      mstore\n        /* \"#utility.yul\":1320:1324   */\n      0x20\n        /* \"#utility.yul\":1315:1318   */\n      dup3\n        /* \"#utility.yul\":1311:1325   */\n      add\n        /* \"#utility.yul\":1296:1325   */\n      swap1\n      pop\n        /* \"#utility.yul\":1172:1331   */\n      swap3\n      swap2\n      pop\n      pop\n      jump\t// out\n        /* \"#utility.yul\":1337:1583   */\n    tag_192:\n        /* \"#utility.yul\":1418:1419   */\n      0x00\n        /* \"#utility.yul\":1428:1541   */\n    tag_264:\n        /* \"#utility.yul\":1442:1448   */\n      dup4\n        /* \"#utility.yul\":1439:1440   */\n      dup2\n        /* \"#utility.yul\":1436:1449   */\n      lt\n        /* \"#utility.yul\":1428:1541   */\n      iszero\n      tag_266\n      jumpi\n        /* \"#utility.yul\":1527:1528   */\n      dup1\n        /* \"#utility.yul\":1522:1525   */\n      dup3\n        /* \"#utility.yul\":1518:1529   */\n      add\n        /* \"#utility.yul\":1512:1530   */\n      mload\n        /* \"#utility.yul\":1508:1509   */\n      dup2\n        /* \"#utility.yul\":1503:1506   */\n      dup5\n        /* \"#utility.yul\":1499:1510   */\n      add\n        /* \"#utility.yul\":1492:1531   */\n      mstore\n        /* \"#utility.yul\":1464:1466   */\n      0x20\n        /* \"#utility.yul\":1461:1462   */\n      dup2\n        /* \"#utility.yul\":1457:1467   */\n      add\n        /* \"#utility.yul\":1452:1467   */\n      swap1\n      pop\n        /* \"#utility.yul\":1428:1541   */\n      jump(tag_264)\n    tag_266:\n        /* \"#utility.yul\":1575:1576   */\n      0x00\n        /* \"#utility.yul\":1566:1572   */\n      dup5\n        /* \"#utility.yul\":1561:1564   */\n      dup5\n        /* \"#utility.yul\":1557:1573   */\n      add\n        /* \"#utility.yul\":1550:1577   */\n      mstore\n        /* \"#utility.yul\":1399:1583   */\n      pop\n        /* \"#utility.yul\":1337:1583   */\n      pop\n      pop\n      pop\n      jump\t// out\n        /* \"#utility.yul\":1589:1691   */\n    tag_193:\n        /* \"#utility.yul\":1630:1636   */\n      0x00\n        /* \"#utility.yul\":1681:1683   */\n      0x1f\n        /* \"#utility.yul\":1677:1684   */\n      not\n        /* \"#utility.yul\":1672:1674   */\n      0x1f\n        /* \"#utility.yul\":1665:1670   */\n      dup4\n        /* \"#utility.yul\":1661:1675   */\n      add\n        /* \"#utility.yul\":1657:1685   */\n      and\n        /* \"#utility.yul\":1647:1685   */\n      swap1\n      pop\n        /* \"#utility.yul\":1589:1691   */\n      swap2\n      swap1\n      pop\n      jump\t// out\n        /* \"#utility.yul\":1697:2054   */\n    tag_194:\n        /* \"#utility.yul\":1775:1778   */\n      0x00\n        /* \"#utility.yul\":1803:1842   */\n      tag_269\n        /* \"#utility.yul\":1836:1841   */\n      dup3\n        /* \"#utility.yul\":1803:1842   */\n      tag_190\n      jump\t// in\n    tag_269:\n        /* \"#utility.yul\":1858:1919   */\n      tag_270\n        /* \"#utility.yul\":1912:1918   */\n      dup2\n        /* \"#utility.yul\":1907:1910   */\n      dup6\n        /* \"#utility.yul\":1858:1919   */\n      tag_191\n      jump\t// in\n    tag_270:\n        /* \"#utility.yul\":1851:1919   */\n      swap4\n      pop\n        /* \"#utility.yul\":1928:1993   */\n      tag_271\n        /* \"#utility.yul\":1986:1992   */\n      dup2\n        /* \"#utility.yul\":1981:1984   */\n      dup6\n        /* \"#utility.yul\":1974:1978   */\n      0x20\n        /* \"#utility.yul\":1967:1972   */\n      dup7\n        /* \"#utility.yul\":1963:1979   */\n      add\n        /* \"#utility.yul\":1928:1993   */\n      tag_192\n      jump\t// in\n    tag_271:\n        /* \"#utility.yul\":2018:2047   */\n      tag_272\n        /* \"#utility.yul\":2040:2046   */\n      dup2\n        /* \"#utility.yul\":2018:2047   */\n      tag_193\n      jump\t// in\n    tag_272:\n        /* \"#utility.yul\":2013:2016   */\n      dup5\n        /* \"#utility.yul\":2009:2048   */\n      add\n        /* \"#utility.yul\":2002:2048   */\n      swap2\n      pop\n        /* \"#utility.yul\":1779:2054   */\n      pop\n        /* \"#utility.yul\":1697:2054   */\n      swap3\n      swap2\n      pop\n      pop\n      jump\t// out\n        /* \"#utility.yul\":2060:2150   */\n    tag_195:\n        /* \"#utility.yul\":2094:2101   */\n      0x00\n        /* \"#utility.yul\":2137:2142   */\n      dup2\n        /* \"#utility.yul\":2130:2143   */\n      iszero\n        /* \"#utility.yul\":2123:2144   */\n      iszero\n        /* \"#utility.yul\":2112:2144   */\n      swap1\n      pop\n        /* \"#utility.yul\":2060:2150   */\n      swap2\n      swap1\n      pop\n      jump\t// out\n        /* \"#utility.yul\":2156:2255   */\n    tag_196:\n        /* \"#utility.yul\":2227:2248   */\n      tag_275\n        /* \"#utility.yul\":2242:2247   */\n      dup2\n        /* \"#utility.yul\":2227:2248   */\n      tag_195\n      jump\t// in\n    tag_275:\n        /* \"#utility.yul\":2222:2225   */\n      dup3\n        /* \"#utility.yul\":2215:2249   */\n      mstore\n        /* \"#utility.yul\":2156:2255   */\n      pop\n      pop\n      jump\t// out\n        /* \"#utility.yul\":2325:3748   */\n    tag_197:\n        /* \"#utility.yul\":2426:2429   */\n      0x00\n        /* \"#utility.yul\":2462:2466   */\n      0xc0\n        /* \"#utility.yul\":2457:2460   */\n      dup4\n        /* \"#utility.yul\":2453:2467   */\n      add\n        /* \"#utility.yul\":2547:2551   */\n      0x00\n        /* \"#utility.yul\":2540:2545   */\n      dup4\n        /* \"#utility.yul\":2536:2552   */\n      add\n        /* \"#utility.yul\":2530:2553   */\n      mload\n        /* \"#utility.yul\":2566:2629   */\n      tag_277\n        /* \"#utility.yul\":2623:2627   */\n      0x00\n        /* \"#utility.yul\":2618:2621   */\n      dup7\n        /* \"#utility.yul\":2614:2628   */\n      add\n        /* \"#utility.yul\":2600:2612   */\n      dup3\n        /* \"#utility.yul\":2566:2629   */\n      tag_189\n      jump\t// in\n    tag_277:\n        /* \"#utility.yul\":2477:2639   */\n      pop\n        /* \"#utility.yul\":2722:2726   */\n      0x20\n        /* \"#utility.yul\":2715:2720   */\n      dup4\n        /* \"#utility.yul\":2711:2727   */\n      add\n        /* \"#utility.yul\":2705:2728   */\n      mload\n        /* \"#utility.yul\":2775:2778   */\n      dup5\n        /* \"#utility.yul\":2769:2773   */\n      dup3\n        /* \"#utility.yul\":2765:2779   */\n      sub\n        /* \"#utility.yul\":2758:2762   */\n      0x20\n        /* \"#utility.yul\":2753:2756   */\n      dup7\n        /* \"#utility.yul\":2749:2763   */\n      add\n        /* \"#utility.yul\":2742:2780   */\n      mstore\n        /* \"#utility.yul\":2801:2874   */\n      tag_278\n        /* \"#utility.yul\":2869:2873   */\n      dup3\n        /* \"#utility.yul\":2855:2867   */\n      dup3\n        /* \"#utility.yul\":2801:2874   */\n      tag_194\n      jump\t// in\n    tag_278:\n        /* \"#utility.yul\":2793:2874   */\n      swap2\n      pop\n        /* \"#utility.yul\":2649:2885   */\n      pop\n        /* \"#utility.yul\":2966:2970   */\n      0x40\n        /* \"#utility.yul\":2959:2964   */\n      dup4\n        /* \"#utility.yul\":2955:2971   */\n      add\n        /* \"#utility.yul\":2949:2972   */\n      mload\n        /* \"#utility.yul\":3019:3022   */\n      dup5\n        /* \"#utility.yul\":3013:3017   */\n      dup3\n        /* \"#utility.yul\":3009:3023   */\n      sub\n        /* \"#utility.yul\":3002:3006   */\n      0x40\n        /* \"#utility.yul\":2997:3000   */\n      dup7\n        /* \"#utility.yul\":2993:3007   */\n      add\n        /* \"#utility.yul\":2986:3024   */\n      mstore\n        /* \"#utility.yul\":3045:3118   */\n      tag_279\n        /* \"#utility.yul\":3113:3117   */\n      dup3\n        /* \"#utility.yul\":3099:3111   */\n      dup3\n        /* \"#utility.yul\":3045:3118   */\n      tag_194\n      jump\t// in\n    tag_279:\n        /* \"#utility.yul\":3037:3118   */\n      swap2\n      pop\n        /* \"#utility.yul\":2895:3129   */\n      pop\n        /* \"#utility.yul\":3213:3217   */\n      0x60\n        /* \"#utility.yul\":3206:3211   */\n      dup4\n        /* \"#utility.yul\":3202:3218   */\n      add\n        /* \"#utility.yul\":3196:3219   */\n      mload\n        /* \"#utility.yul\":3266:3269   */\n      dup5\n        /* \"#utility.yul\":3260:3264   */\n      dup3\n        /* \"#utility.yul\":3256:3270   */\n      sub\n        /* \"#utility.yul\":3249:3253   */\n      0x60\n        /* \"#utility.yul\":3244:3247   */\n      dup7\n        /* \"#utility.yul\":3240:3254   */\n      add\n        /* \"#utility.yul\":3233:3271   */\n      mstore\n        /* \"#utility.yul\":3292:3365   */\n      tag_280\n        /* \"#utility.yul\":3360:3364   */\n      dup3\n        /* \"#utility.yul\":3346:3358   */\n      dup3\n        /* \"#utility.yul\":3292:3365   */\n      tag_194\n      jump\t// in\n    tag_280:\n        /* \"#utility.yul\":3284:3365   */\n      swap2\n      pop\n        /* \"#utility.yul\":3139:3376   */\n      pop\n        /* \"#utility.yul\":3459:3463   */\n      0x80\n        /* \"#utility.yul\":3452:3457   */\n      dup4\n        /* \"#utility.yul\":3448:3464   */\n      add\n        /* \"#utility.yul\":3442:3465   */\n      mload\n        /* \"#utility.yul\":3478:3541   */\n      tag_281\n        /* \"#utility.yul\":3535:3539   */\n      0x80\n        /* \"#utility.yul\":3530:3533   */\n      dup7\n        /* \"#utility.yul\":3526:3540   */\n      add\n        /* \"#utility.yul\":3512:3524   */\n      dup3\n        /* \"#utility.yul\":3478:3541   */\n      tag_189\n      jump\t// in\n    tag_281:\n        /* \"#utility.yul\":3386:3551   */\n      pop\n        /* \"#utility.yul\":3635:3639   */\n      0xa0\n        /* \"#utility.yul\":3628:3633   */\n      dup4\n        /* \"#utility.yul\":3624:3640   */\n      add\n        /* \"#utility.yul\":3618:3641   */\n      mload\n        /* \"#utility.yul\":3654:3711   */\n      tag_282\n        /* \"#utility.yul\":3705:3709   */\n      0xa0\n        /* \"#utility.yul\":3700:3703   */\n      dup7\n        /* \"#utility.yul\":3696:3710   */\n      add\n        /* \"#utility.yul\":3682:3694   */\n      dup3\n        /* \"#utility.yul\":3654:3711   */\n      tag_196\n      jump\t// in\n    tag_282:\n        /* \"#utility.yul\":3561:3721   */\n      pop\n        /* \"#utility.yul\":3738:3742   */\n      dup1\n        /* \"#utility.yul\":3731:3742   */\n      swap2\n      pop\n        /* \"#utility.yul\":2431:3748   */\n      pop\n        /* \"#utility.yul\":2325:3748   */\n      swap3\n      swap2\n      pop\n      pop\n      jump\t// out\n        /* \"#utility.yul\":3754:3994   */\n    tag_198:\n        /* \"#utility.yul\":3865:3875   */\n      0x00\n        /* \"#utility.yul\":3900:3988   */\n      tag_284\n        /* \"#utility.yul\":3984:3987   */\n      dup4\n        /* \"#utility.yul\":3976:3982   */\n      dup4\n        /* \"#utility.yul\":3900:3988   */\n      tag_197\n      jump\t// in\n    tag_284:\n        /* \"#utility.yul\":3886:3988   */\n      swap1\n      pop\n        /* \"#utility.yul\":3754:3994   */\n      swap3\n      swap2\n      pop\n      pop\n      jump\t// out\n        /* \"#utility.yul\":4000:4134   */\n    tag_199:\n        /* \"#utility.yul\":4091:4095   */\n      0x00\n        /* \"#utility.yul\":4123:4127   */\n      0x20\n        /* \"#utility.yul\":4118:4121   */\n      dup3\n        /* \"#utility.yul\":4114:4128   */\n      add\n        /* \"#utility.yul\":4106:4128   */\n      swap1\n      pop\n        /* \"#utility.yul\":4000:4134   */\n      swap2\n      swap1\n      pop\n      jump\t// out\n        /* \"#utility.yul\":4208:5287   */\n    tag_200:\n        /* \"#utility.yul\":4369:4372   */\n      0x00\n        /* \"#utility.yul\":4398:4473   */\n      tag_287\n        /* \"#utility.yul\":4467:4472   */\n      dup3\n        /* \"#utility.yul\":4398:4473   */\n      tag_186\n      jump\t// in\n    tag_287:\n        /* \"#utility.yul\":4489:4596   */\n      tag_288\n        /* \"#utility.yul\":4589:4595   */\n      dup2\n        /* \"#utility.yul\":4584:4587   */\n      dup6\n        /* \"#utility.yul\":4489:4596   */\n      tag_187\n      jump\t// in\n    tag_288:\n        /* \"#utility.yul\":4482:4596   */\n      swap4\n      pop\n        /* \"#utility.yul\":4622:4625   */\n      dup4\n        /* \"#utility.yul\":4667:4671   */\n      0x20\n        /* \"#utility.yul\":4659:4665   */\n      dup3\n        /* \"#utility.yul\":4655:4672   */\n      mul\n        /* \"#utility.yul\":4650:4653   */\n      dup6\n        /* \"#utility.yul\":4646:4673   */\n      add\n        /* \"#utility.yul\":4697:4774   */\n      tag_289\n        /* \"#utility.yul\":4768:4773   */\n      dup6\n        /* \"#utility.yul\":4697:4774   */\n      tag_188\n      jump\t// in\n    tag_289:\n        /* \"#utility.yul\":4797:4804   */\n      dup1\n        /* \"#utility.yul\":4828:4829   */\n      0x00\n        /* \"#utility.yul\":4813:5242   */\n    tag_290:\n        /* \"#utility.yul\":4838:4844   */\n      dup6\n        /* \"#utility.yul\":4835:4836   */\n      dup2\n        /* \"#utility.yul\":4832:4845   */\n      lt\n        /* \"#utility.yul\":4813:5242   */\n      iszero\n      tag_292\n      jumpi\n        /* \"#utility.yul\":4909:4918   */\n      dup5\n        /* \"#utility.yul\":4903:4907   */\n      dup5\n        /* \"#utility.yul\":4899:4919   */\n      sub\n        /* \"#utility.yul\":4894:4897   */\n      dup10\n        /* \"#utility.yul\":4887:4920   */\n      mstore\n        /* \"#utility.yul\":4960:4966   */\n      dup2\n        /* \"#utility.yul\":4954:4967   */\n      mload\n        /* \"#utility.yul\":4988:5094   */\n      tag_293\n        /* \"#utility.yul\":5089:5093   */\n      dup6\n        /* \"#utility.yul\":5074:5087   */\n      dup3\n        /* \"#utility.yul\":4988:5094   */\n      tag_198\n      jump\t// in\n    tag_293:\n        /* \"#utility.yul\":4980:5094   */\n      swap5\n      pop\n        /* \"#utility.yul\":5117:5198   */\n      tag_294\n        /* \"#utility.yul\":5191:5197   */\n      dup4\n        /* \"#utility.yul\":5117:5198   */\n      tag_199\n      jump\t// in\n    tag_294:\n        /* \"#utility.yul\":5107:5198   */\n      swap3\n      pop\n        /* \"#utility.yul\":5227:5231   */\n      0x20\n        /* \"#utility.yul\":5222:5225   */\n      dup11\n        /* \"#utility.yul\":5218:5232   */\n      add\n        /* \"#utility.yul\":5211:5232   */\n      swap10\n      pop\n        /* \"#utility.yul\":4873:5242   */\n      pop\n        /* \"#utility.yul\":4860:4861   */\n      0x01\n        /* \"#utility.yul\":4857:4858   */\n      dup2\n        /* \"#utility.yul\":4853:4862   */\n      add\n        /* \"#utility.yul\":4848:4862   */\n      swap1\n      pop\n        /* \"#utility.yul\":4813:5242   */\n      jump(tag_290)\n    tag_292:\n        /* \"#utility.yul\":4817:4831   */\n      pop\n        /* \"#utility.yul\":5258:5262   */\n      dup3\n        /* \"#utility.yul\":5251:5262   */\n      swap8\n      pop\n        /* \"#utility.yul\":5278:5281   */\n      dup8\n        /* \"#utility.yul\":5271:5281   */\n      swap6\n      pop\n        /* \"#utility.yul\":4374:5287   */\n      pop\n      pop\n      pop\n      pop\n      pop\n        /* \"#utility.yul\":4208:5287   */\n      swap3\n      swap2\n      pop\n      pop\n      jump\t// out\n        /* \"#utility.yul\":5293:5750   */\n    tag_21:\n        /* \"#utility.yul\":5478:5482   */\n      0x00\n        /* \"#utility.yul\":5516:5518   */\n      0x20\n        /* \"#utility.yul\":5505:5514   */\n      dup3\n        /* \"#utility.yul\":5501:5519   */\n      add\n        /* \"#utility.yul\":5493:5519   */\n      swap1\n      pop\n        /* \"#utility.yul\":5565:5574   */\n      dup2\n        /* \"#utility.yul\":5559:5563   */\n      dup2\n        /* \"#utility.yul\":5555:5575   */\n      sub\n        /* \"#utility.yul\":5551:5552   */\n      0x00\n        /* \"#utility.yul\":5540:5549   */\n      dup4\n        /* \"#utility.yul\":5536:5553   */\n      add\n        /* \"#utility.yul\":5529:5576   */\n      mstore\n        /* \"#utility.yul\":5593:5743   */\n      tag_296\n        /* \"#utility.yul\":5738:5742   */\n      dup2\n        /* \"#utility.yul\":5729:5735   */\n      dup5\n        /* \"#utility.yul\":5593:5743   */\n      tag_200\n      jump\t// in\n    tag_296:\n        /* \"#utility.yul\":5585:5743   */\n      swap1\n      pop\n        /* \"#utility.yul\":5293:5750   */\n      swap3\n      swap2\n      pop\n      pop\n      jump\t// out\n        /* \"#utility.yul\":5756:5831   */\n    tag_201:\n        /* \"#utility.yul\":5789:5795   */\n      0x00\n        /* \"#utility.yul\":5822:5824   */\n      0x40\n        /* \"#utility.yul\":5816:5825   */\n      mload\n        /* \"#utility.yul\":5806:5825   */\n      swap1\n      pop\n        /* \"#utility.yul\":5756:5831   */\n      swap1\n      jump\t// out\n        /* \"#utility.yul\":5837:5954   */\n    tag_202:\n        /* \"#utility.yul\":5946:5947   */\n      0x00\n        /* \"#utility.yul\":5943:5944   */\n      dup1\n        /* \"#utility.yul\":5936:5948   */\n      revert\n        /* \"#utility.yul\":5960:6077   */\n    tag_203:\n        /* \"#utility.yul\":6069:6070   */\n      0x00\n        /* \"#utility.yul\":6066:6067   */\n      dup1\n        /* \"#utility.yul\":6059:6071   */\n      revert\n        /* \"#utility.yul\":6083:6209   */\n    tag_204:\n        /* \"#utility.yul\":6120:6127   */\n      0x00\n        /* \"#utility.yul\":6160:6202   */\n      0xffffffffffffffffffffffffffffffffffffffff\n        /* \"#utility.yul\":6153:6158   */\n      dup3\n        /* \"#utility.yul\":6149:6203   */\n      and\n        /* \"#utility.yul\":6138:6203   */\n      swap1\n      pop\n        /* \"#utility.yul\":6083:6209   */\n      swap2\n      swap1\n      pop\n      jump\t// out\n        /* \"#utility.yul\":6215:6311   */\n    tag_205:\n        /* \"#utility.yul\":6252:6259   */\n      0x00\n        /* \"#utility.yul\":6281:6305   */\n      tag_302\n        /* \"#utility.yul\":6299:6304   */\n      dup3\n        /* \"#utility.yul\":6281:6305   */\n      tag_204\n      jump\t// in\n    tag_302:\n        /* \"#utility.yul\":6270:6305   */\n      swap1\n      pop\n        /* \"#utility.yul\":6215:6311   */\n      swap2\n      swap1\n      pop\n      jump\t// out\n        /* \"#utility.yul\":6317:6439   */\n    tag_206:\n        /* \"#utility.yul\":6390:6414   */\n      tag_304\n        /* \"#utility.yul\":6408:6413   */\n      dup2\n        /* \"#utility.yul\":6390:6414   */\n      tag_205\n      jump\t// in\n    tag_304:\n        /* \"#utility.yul\":6383:6388   */\n      dup2\n        /* \"#utility.yul\":6380:6415   */\n      eq\n        /* \"#utility.yul\":6370:6433   */\n      tag_305\n      jumpi\n        /* \"#utility.yul\":6429:6430   */\n      0x00\n        /* \"#utility.yul\":6426:6427   */\n      dup1\n        /* \"#utility.yul\":6419:6431   */\n      revert\n        /* \"#utility.yul\":6370:6433   */\n    tag_305:\n        /* \"#utility.yul\":6317:6439   */\n      pop\n      jump\t// out\n        /* \"#utility.yul\":6445:6584   */\n    tag_207:\n        /* \"#utility.yul\":6491:6496   */\n      0x00\n        /* \"#utility.yul\":6529:6535   */\n      dup2\n        /* \"#utility.yul\":6516:6536   */\n      calldataload\n        /* \"#utility.yul\":6507:6536   */\n      swap1\n      pop\n        /* \"#utility.yul\":6545:6578   */\n      tag_307\n        /* \"#utility.yul\":6572:6577   */\n      dup2\n        /* \"#utility.yul\":6545:6578   */\n      tag_206\n      jump\t// in\n    tag_307:\n        /* \"#utility.yul\":6445:6584   */\n      swap3\n      swap2\n      pop\n      pop\n      jump\t// out\n        /* \"#utility.yul\":6590:6919   */\n    tag_25:\n        /* \"#utility.yul\":6649:6655   */\n      0x00\n        /* \"#utility.yul\":6698:6700   */\n      0x20\n        /* \"#utility.yul\":6686:6695   */\n      dup3\n        /* \"#utility.yul\":6677:6684   */\n      dup5\n        /* \"#utility.yul\":6673:6696   */\n      sub\n        /* \"#utility.yul\":6669:6701   */\n      slt\n        /* \"#utility.yul\":6666:6785   */\n      iszero\n      tag_309\n      jumpi\n        /* \"#utility.yul\":6704:6783   */\n      tag_310\n      tag_202\n      jump\t// in\n    tag_310:\n        /* \"#utility.yul\":6666:6785   */\n    tag_309:\n        /* \"#utility.yul\":6824:6825   */\n      0x00\n        /* \"#utility.yul\":6849:6902   */\n      tag_311\n        /* \"#utility.yul\":6894:6901   */\n      dup5\n        /* \"#utility.yul\":6885:6891   */\n      dup3\n        /* \"#utility.yul\":6874:6883   */\n      dup6\n        /* \"#utility.yul\":6870:6892   */\n      add\n        /* \"#utility.yul\":6849:6902   */\n      tag_207\n      jump\t// in\n    tag_311:\n        /* \"#utility.yul\":6839:6902   */\n      swap2\n      pop\n        /* \"#utility.yul\":6795:6912   */\n      pop\n        /* \"#utility.yul\":6590:6919   */\n      swap3\n      swap2\n      pop\n      pop\n      jump\t// out\n        /* \"#utility.yul\":6925:7039   */\n    tag_208:\n        /* \"#utility.yul\":6992:6998   */\n      0x00\n        /* \"#utility.yul\":7026:7031   */\n      dup2\n        /* \"#utility.yul\":7020:7032   */\n      mload\n        /* \"#utility.yul\":7010:7032   */\n      swap1\n      pop\n        /* \"#utility.yul\":6925:7039   */\n      swap2\n      swap1\n      pop\n      jump\t// out\n        /* \"#utility.yul\":7045:7229   */\n    tag_209:\n        /* \"#utility.yul\":7144:7155   */\n      0x00\n        /* \"#utility.yul\":7178:7184   */\n      dup3\n        /* \"#utility.yul\":7173:7176   */\n      dup3\n        /* \"#utility.yul\":7166:7185   */\n      mstore\n        /* \"#utility.yul\":7218:7222   */\n      0x20\n        /* \"#utility.yul\":7213:7216   */\n      dup3\n        /* \"#utility.yul\":7209:7223   */\n      add\n        /* \"#utility.yul\":7194:7223   */\n      swap1\n      pop\n        /* \"#utility.yul\":7045:7229   */\n      swap3\n      swap2\n      pop\n      pop\n      jump\t// out\n        /* \"#utility.yul\":7235:7367   */\n    tag_210:\n        /* \"#utility.yul\":7302:7306   */\n      0x00\n        /* \"#utility.yul\":7325:7328   */\n      dup2\n        /* \"#utility.yul\":7317:7328   */\n      swap1\n      pop\n        /* \"#utility.yul\":7355:7359   */\n      0x20\n        /* \"#utility.yul\":7350:7353   */\n      dup3\n        /* \"#utility.yul\":7346:7360   */\n      add\n        /* \"#utility.yul\":7338:7360   */\n      swap1\n      pop\n        /* \"#utility.yul\":7235:7367   */\n      swap2\n      swap1\n      pop\n      jump\t// out\n        /* \"#utility.yul\":7373:7552   */\n    tag_211:\n        /* \"#utility.yul\":7442:7452   */\n      0x00\n        /* \"#utility.yul\":7463:7509   */\n      tag_316\n        /* \"#utility.yul\":7505:7508   */\n      dup4\n        /* \"#utility.yul\":7497:7503   */\n      dup4\n        /* \"#utility.yul\":7463:7509   */\n      tag_189\n      jump\t// in\n    tag_316:\n        /* \"#utility.yul\":7541:7545   */\n      0x20\n        /* \"#utility.yul\":7536:7539   */\n      dup4\n        /* \"#utility.yul\":7532:7546   */\n      add\n        /* \"#utility.yul\":7518:7546   */\n      swap1\n      pop\n        /* \"#utility.yul\":7373:7552   */\n      swap3\n      swap2\n      pop\n      pop\n      jump\t// out\n        /* \"#utility.yul\":7558:7671   */\n    tag_212:\n        /* \"#utility.yul\":7628:7632   */\n      0x00\n        /* \"#utility.yul\":7660:7664   */\n      0x20\n        /* \"#utility.yul\":7655:7658   */\n      dup3\n        /* \"#utility.yul\":7651:7665   */\n      add\n        /* \"#utility.yul\":7643:7665   */\n      swap1\n      pop\n        /* \"#utility.yul\":7558:7671   */\n      swap2\n      swap1\n      pop\n      jump\t// out\n        /* \"#utility.yul\":7707:8439   */\n    tag_213:\n        /* \"#utility.yul\":7826:7829   */\n      0x00\n        /* \"#utility.yul\":7855:7909   */\n      tag_319\n        /* \"#utility.yul\":7903:7908   */\n      dup3\n        /* \"#utility.yul\":7855:7909   */\n      tag_208\n      jump\t// in\n    tag_319:\n        /* \"#utility.yul\":7925:8011   */\n      tag_320\n        /* \"#utility.yul\":8004:8010   */\n      dup2\n        /* \"#utility.yul\":7999:8002   */\n      dup6\n        /* \"#utility.yul\":7925:8011   */\n      tag_209\n      jump\t// in\n    tag_320:\n        /* \"#utility.yul\":7918:8011   */\n      swap4\n      pop\n        /* \"#utility.yul\":8035:8091   */\n      tag_321\n        /* \"#utility.yul\":8085:8090   */\n      dup4\n        /* \"#utility.yul\":8035:8091   */\n      tag_210\n      jump\t// in\n    tag_321:\n        /* \"#utility.yul\":8114:8121   */\n      dup1\n        /* \"#utility.yul\":8145:8146   */\n      0x00\n        /* \"#utility.yul\":8130:8414   */\n    tag_322:\n        /* \"#utility.yul\":8155:8161   */\n      dup4\n        /* \"#utility.yul\":8152:8153   */\n      dup2\n        /* \"#utility.yul\":8149:8162   */\n      lt\n        /* \"#utility.yul\":8130:8414   */\n      iszero\n      tag_324\n      jumpi\n        /* \"#utility.yul\":8231:8237   */\n      dup2\n        /* \"#utility.yul\":8225:8238   */\n      mload\n        /* \"#utility.yul\":8258:8321   */\n      tag_325\n        /* \"#utility.yul\":8317:8320   */\n      dup9\n        /* \"#utility.yul\":8302:8315   */\n      dup3\n        /* \"#utility.yul\":8258:8321   */\n      tag_211\n      jump\t// in\n    tag_325:\n        /* \"#utility.yul\":8251:8321   */\n      swap8\n      pop\n        /* \"#utility.yul\":8344:8404   */\n      tag_326\n        /* \"#utility.yul\":8397:8403   */\n      dup4\n        /* \"#utility.yul\":8344:8404   */\n      tag_212\n      jump\t// in\n    tag_326:\n        /* \"#utility.yul\":8334:8404   */\n      swap3\n      pop\n        /* \"#utility.yul\":8190:8414   */\n      pop\n        /* \"#utility.yul\":8177:8178   */\n      0x01\n        /* \"#utility.yul\":8174:8175   */\n      dup2\n        /* \"#utility.yul\":8170:8179   */\n      add\n        /* \"#utility.yul\":8165:8179   */\n      swap1\n      pop\n        /* \"#utility.yul\":8130:8414   */\n      jump(tag_322)\n    tag_324:\n        /* \"#utility.yul\":8134:8148   */\n      pop\n        /* \"#utility.yul\":8430:8433   */\n      dup6\n        /* \"#utility.yul\":8423:8433   */\n      swap4\n      pop\n        /* \"#utility.yul\":7831:8439   */\n      pop\n      pop\n      pop\n        /* \"#utility.yul\":7707:8439   */\n      swap3\n      swap2\n      pop\n      pop\n      jump\t// out\n        /* \"#utility.yul\":8445:8818   */\n    tag_33:\n        /* \"#utility.yul\":8588:8592   */\n      0x00\n        /* \"#utility.yul\":8626:8628   */\n      0x20\n        /* \"#utility.yul\":8615:8624   */\n      dup3\n        /* \"#utility.yul\":8611:8629   */\n      add\n        /* \"#utility.yul\":8603:8629   */\n      swap1\n      pop\n        /* \"#utility.yul\":8675:8684   */\n      dup2\n        /* \"#utility.yul\":8669:8673   */\n      dup2\n        /* \"#utility.yul\":8665:8685   */\n      sub\n        /* \"#utility.yul\":8661:8662   */\n      0x00\n        /* \"#utility.yul\":8650:8659   */\n      dup4\n        /* \"#utility.yul\":8646:8663   */\n      add\n        /* \"#utility.yul\":8639:8686   */\n      mstore\n        /* \"#utility.yul\":8703:8811   */\n      tag_328\n        /* \"#utility.yul\":8806:8810   */\n      dup2\n        /* \"#utility.yul\":8797:8803   */\n      dup5\n        /* \"#utility.yul\":8703:8811   */\n      tag_213\n      jump\t// in\n    tag_328:\n        /* \"#utility.yul\":8695:8811   */\n      swap1\n      pop\n        /* \"#utility.yul\":8445:8818   */\n      swap3\n      swap2\n      pop\n      pop\n      jump\t// out\n        /* \"#utility.yul\":8824:8946   */\n    tag_214:\n        /* \"#utility.yul\":8897:8921   */\n      tag_330\n        /* \"#utility.yul\":8915:8920   */\n      dup2\n        /* \"#utility.yul\":8897:8921   */\n      tag_184\n      jump\t// in\n    tag_330:\n        /* \"#utility.yul\":8890:8895   */\n      dup2\n        /* \"#utility.yul\":8887:8922   */\n      eq\n        /* \"#utility.yul\":8877:8940   */\n      tag_331\n      jumpi\n        /* \"#utility.yul\":8936:8937   */\n      0x00\n        /* \"#utility.yul\":8933:8934   */\n      dup1\n        /* \"#utility.yul\":8926:8938   */\n      revert\n        /* \"#utility.yul\":8877:8940   */\n    tag_331:\n        /* \"#utility.yul\":8824:8946   */\n      pop\n      jump\t// out\n        /* \"#utility.yul\":8952:9091   */\n    tag_215:\n        /* \"#utility.yul\":8998:9003   */\n      0x00\n        /* \"#utility.yul\":9036:9042   */\n      dup2\n        /* \"#utility.yul\":9023:9043   */\n      calldataload\n        /* \"#utility.yul\":9014:9043   */\n      swap1\n      pop\n        /* \"#utility.yul\":9052:9085   */\n      tag_333\n        /* \"#utility.yul\":9079:9084   */\n      dup2\n        /* \"#utility.yul\":9052:9085   */\n      tag_214\n      jump\t// in\n    tag_333:\n        /* \"#utility.yul\":8952:9091   */\n      swap3\n      swap2\n      pop\n      pop\n      jump\t// out\n        /* \"#utility.yul\":9097:9214   */\n    tag_216:\n        /* \"#utility.yul\":9206:9207   */\n      0x00\n        /* \"#utility.yul\":9203:9204   */\n      dup1\n        /* \"#utility.yul\":9196:9208   */\n      revert\n        /* \"#utility.yul\":9220:9337   */\n    tag_217:\n        /* \"#utility.yul\":9329:9330   */\n      0x00\n        /* \"#utility.yul\":9326:9327   */\n      dup1\n        /* \"#utility.yul\":9319:9331   */\n      revert\n        /* \"#utility.yul\":9343:9523   */\n    tag_63:\n        /* \"#utility.yul\":9391:9468   */\n      0x4e487b7100000000000000000000000000000000000000000000000000000000\n        /* \"#utility.yul\":9388:9389   */\n      0x00\n        /* \"#utility.yul\":9381:9469   */\n      mstore\n        /* \"#utility.yul\":9488:9492   */\n      0x41\n        /* \"#utility.yul\":9485:9486   */\n      0x04\n        /* \"#utility.yul\":9478:9493   */\n      mstore\n        /* \"#utility.yul\":9512:9516   */\n      0x24\n        /* \"#utility.yul\":9509:9510   */\n      0x00\n        /* \"#utility.yul\":9502:9517   */\n      revert\n        /* \"#utility.yul\":9529:9810   */\n    tag_218:\n        /* \"#utility.yul\":9612:9639   */\n      tag_338\n        /* \"#utility.yul\":9634:9638   */\n      dup3\n        /* \"#utility.yul\":9612:9639   */\n      tag_193\n      jump\t// in\n    tag_338:\n        /* \"#utility.yul\":9604:9610   */\n      dup2\n        /* \"#utility.yul\":9600:9640   */\n      add\n        /* \"#utility.yul\":9742:9748   */\n      dup2\n        /* \"#utility.yul\":9730:9740   */\n      dup2\n        /* \"#utility.yul\":9727:9749   */\n      lt\n        /* \"#utility.yul\":9706:9724   */\n      0xffffffffffffffff\n        /* \"#utility.yul\":9694:9704   */\n      dup3\n        /* \"#utility.yul\":9691:9725   */\n      gt\n        /* \"#utility.yul\":9688:9750   */\n      or\n        /* \"#utility.yul\":9685:9773   */\n      iszero\n      tag_339\n      jumpi\n        /* \"#utility.yul\":9753:9771   */\n      tag_340\n      tag_63\n      jump\t// in\n    tag_340:\n        /* \"#utility.yul\":9685:9773   */\n    tag_339:\n        /* \"#utility.yul\":9793:9803   */\n      dup1\n        /* \"#utility.yul\":9789:9791   */\n      0x40\n        /* \"#utility.yul\":9782:9804   */\n      mstore\n        /* \"#utility.yul\":9572:9810   */\n      pop\n        /* \"#utility.yul\":9529:9810   */\n      pop\n      pop\n      jump\t// out\n        /* \"#utility.yul\":9816:9945   */\n    tag_219:\n        /* \"#utility.yul\":9850:9856   */\n      0x00\n        /* \"#utility.yul\":9877:9897   */\n      tag_342\n      tag_201\n      jump\t// in\n    tag_342:\n        /* \"#utility.yul\":9867:9897   */\n      swap1\n      pop\n        /* \"#utility.yul\":9906:9939   */\n      tag_343\n        /* \"#utility.yul\":9934:9938   */\n      dup3\n        /* \"#utility.yul\":9926:9932   */\n      dup3\n        /* \"#utility.yul\":9906:9939   */\n      tag_218\n      jump\t// in\n    tag_343:\n        /* \"#utility.yul\":9816:9945   */\n      swap2\n      swap1\n      pop\n      jump\t// out\n        /* \"#utility.yul\":9951:10259   */\n    tag_220:\n        /* \"#utility.yul\":10013:10017   */\n      0x00\n        /* \"#utility.yul\":10103:10121   */\n      0xffffffffffffffff\n        /* \"#utility.yul\":10095:10101   */\n      dup3\n        /* \"#utility.yul\":10092:10122   */\n      gt\n        /* \"#utility.yul\":10089:10145   */\n      iszero\n      tag_345\n      jumpi\n        /* \"#utility.yul\":10125:10143   */\n      tag_346\n      tag_63\n      jump\t// in\n    tag_346:\n        /* \"#utility.yul\":10089:10145   */\n    tag_345:\n        /* \"#utility.yul\":10163:10192   */\n      tag_347\n        /* \"#utility.yul\":10185:10191   */\n      dup3\n        /* \"#utility.yul\":10163:10192   */\n      tag_193\n      jump\t// in\n    tag_347:\n        /* \"#utility.yul\":10155:10192   */\n      swap1\n      pop\n        /* \"#utility.yul\":10247:10251   */\n      0x20\n        /* \"#utility.yul\":10241:10245   */\n      dup2\n        /* \"#utility.yul\":10237:10252   */\n      add\n        /* \"#utility.yul\":10229:10252   */\n      swap1\n      pop\n        /* \"#utility.yul\":9951:10259   */\n      swap2\n      swap1\n      pop\n      jump\t// out\n        /* \"#utility.yul\":10265:10411   */\n    tag_221:\n        /* \"#utility.yul\":10362:10368   */\n      dup3\n        /* \"#utility.yul\":10357:10360   */\n      dup2\n        /* \"#utility.yul\":10352:10355   */\n      dup4\n        /* \"#utility.yul\":10339:10369   */\n      calldatacopy\n        /* \"#utility.yul\":10403:10404   */\n      0x00\n        /* \"#utility.yul\":10394:10400   */\n      dup4\n        /* \"#utility.yul\":10389:10392   */\n      dup4\n        /* \"#utility.yul\":10385:10401   */\n      add\n        /* \"#utility.yul\":10378:10405   */\n      mstore\n        /* \"#utility.yul\":10265:10411   */\n      pop\n      pop\n      pop\n      jump\t// out\n        /* \"#utility.yul\":10417:10842   */\n    tag_222:\n        /* \"#utility.yul\":10495:10500   */\n      0x00\n        /* \"#utility.yul\":10520:10586   */\n      tag_350\n        /* \"#utility.yul\":10536:10585   */\n      tag_351\n        /* \"#utility.yul\":10578:10584   */\n      dup5\n        /* \"#utility.yul\":10536:10585   */\n      tag_220\n      jump\t// in\n    tag_351:\n        /* \"#utility.yul\":10520:10586   */\n      tag_219\n      jump\t// in\n    tag_350:\n        /* \"#utility.yul\":10511:10586   */\n      swap1\n      pop\n        /* \"#utility.yul\":10609:10615   */\n      dup3\n        /* \"#utility.yul\":10602:10607   */\n      dup2\n        /* \"#utility.yul\":10595:10616   */\n      mstore\n        /* \"#utility.yul\":10647:10651   */\n      0x20\n        /* \"#utility.yul\":10640:10645   */\n      dup2\n        /* \"#utility.yul\":10636:10652   */\n      add\n        /* \"#utility.yul\":10685:10688   */\n      dup5\n        /* \"#utility.yul\":10676:10682   */\n      dup5\n        /* \"#utility.yul\":10671:10674   */\n      dup5\n        /* \"#utility.yul\":10667:10683   */\n      add\n        /* \"#utility.yul\":10664:10689   */\n      gt\n        /* \"#utility.yul\":10661:10773   */\n      iszero\n      tag_352\n      jumpi\n        /* \"#utility.yul\":10692:10771   */\n      tag_353\n      tag_217\n      jump\t// in\n    tag_353:\n        /* \"#utility.yul\":10661:10773   */\n    tag_352:\n        /* \"#utility.yul\":10782:10836   */\n      tag_354\n        /* \"#utility.yul\":10829:10835   */\n      dup5\n        /* \"#utility.yul\":10824:10827   */\n      dup3\n        /* \"#utility.yul\":10819:10822   */\n      dup6\n        /* \"#utility.yul\":10782:10836   */\n      tag_221\n      jump\t// in\n    tag_354:\n        /* \"#utility.yul\":10501:10842   */\n      pop\n        /* \"#utility.yul\":10417:10842   */\n      swap4\n      swap3\n      pop\n      pop\n      pop\n      jump\t// out\n        /* \"#utility.yul\":10862:11202   */\n    tag_223:\n        /* \"#utility.yul\":10918:10923   */\n      0x00\n        /* \"#utility.yul\":10967:10970   */\n      dup3\n        /* \"#utility.yul\":10960:10964   */\n      0x1f\n        /* \"#utility.yul\":10952:10958   */\n      dup4\n        /* \"#utility.yul\":10948:10965   */\n      add\n        /* \"#utility.yul\":10944:10971   */\n      slt\n        /* \"#utility.yul\":10934:11056   */\n      tag_356\n      jumpi\n        /* \"#utility.yul\":10975:11054   */\n      tag_357\n      tag_216\n      jump\t// in\n    tag_357:\n        /* \"#utility.yul\":10934:11056   */\n    tag_356:\n        /* \"#utility.yul\":11092:11098   */\n      dup2\n        /* \"#utility.yul\":11079:11099   */\n      calldataload\n        /* \"#utility.yul\":11117:11196   */\n      tag_358\n        /* \"#utility.yul\":11192:11195   */\n      dup5\n        /* \"#utility.yul\":11184:11190   */\n      dup3\n        /* \"#utility.yul\":11177:11181   */\n      0x20\n        /* \"#utility.yul\":11169:11175   */\n      dup7\n        /* \"#utility.yul\":11165:11182   */\n      add\n        /* \"#utility.yul\":11117:11196   */\n      tag_222\n      jump\t// in\n    tag_358:\n        /* \"#utility.yul\":11108:11196   */\n      swap2\n      pop\n        /* \"#utility.yul\":10924:11202   */\n      pop\n        /* \"#utility.yul\":10862:11202   */\n      swap3\n      swap2\n      pop\n      pop\n      jump\t// out\n        /* \"#utility.yul\":11208:12659   */\n    tag_37:\n        /* \"#utility.yul\":11333:11339   */\n      0x00\n        /* \"#utility.yul\":11341:11347   */\n      dup1\n        /* \"#utility.yul\":11349:11355   */\n      0x00\n        /* \"#utility.yul\":11357:11363   */\n      dup1\n        /* \"#utility.yul\":11365:11371   */\n      0x00\n        /* \"#utility.yul\":11414:11417   */\n      0xa0\n        /* \"#utility.yul\":11402:11411   */\n      dup7\n        /* \"#utility.yul\":11393:11400   */\n      dup9\n        /* \"#utility.yul\":11389:11412   */\n      sub\n        /* \"#utility.yul\":11385:11418   */\n      slt\n        /* \"#utility.yul\":11382:11502   */\n      iszero\n      tag_360\n      jumpi\n        /* \"#utility.yul\":11421:11500   */\n      tag_361\n      tag_202\n      jump\t// in\n    tag_361:\n        /* \"#utility.yul\":11382:11502   */\n    tag_360:\n        /* \"#utility.yul\":11541:11542   */\n      0x00\n        /* \"#utility.yul\":11566:11619   */\n      tag_362\n        /* \"#utility.yul\":11611:11618   */\n      dup9\n        /* \"#utility.yul\":11602:11608   */\n      dup3\n        /* \"#utility.yul\":11591:11600   */\n      dup10\n        /* \"#utility.yul\":11587:11609   */\n      add\n        /* \"#utility.yul\":11566:11619   */\n      tag_215\n      jump\t// in\n    tag_362:\n        /* \"#utility.yul\":11556:11619   */\n      swap6\n      pop\n        /* \"#utility.yul\":11512:11629   */\n      pop\n        /* \"#utility.yul\":11696:11698   */\n      0x20\n        /* \"#utility.yul\":11685:11694   */\n      dup7\n        /* \"#utility.yul\":11681:11699   */\n      add\n        /* \"#utility.yul\":11668:11700   */\n      calldataload\n        /* \"#utility.yul\":11727:11745   */\n      0xffffffffffffffff\n        /* \"#utility.yul\":11719:11725   */\n      dup2\n        /* \"#utility.yul\":11716:11746   */\n      gt\n        /* \"#utility.yul\":11713:11830   */\n      iszero\n      tag_363\n      jumpi\n        /* \"#utility.yul\":11749:11828   */\n      tag_364\n      tag_203\n      jump\t// in\n    tag_364:\n        /* \"#utility.yul\":11713:11830   */\n    tag_363:\n        /* \"#utility.yul\":11854:11917   */\n      tag_365\n        /* \"#utility.yul\":11909:11916   */\n      dup9\n        /* \"#utility.yul\":11900:11906   */\n      dup3\n        /* \"#utility.yul\":11889:11898   */\n      dup10\n        /* \"#utility.yul\":11885:11907   */\n      add\n        /* \"#utility.yul\":11854:11917   */\n      tag_223\n      jump\t// in\n    tag_365:\n        /* \"#utility.yul\":11844:11917   */\n      swap5\n      pop\n        /* \"#utility.yul\":11639:11927   */\n      pop\n        /* \"#utility.yul\":11994:11996   */\n      0x40\n        /* \"#utility.yul\":11983:11992   */\n      dup7\n        /* \"#utility.yul\":11979:11997   */\n      add\n        /* \"#utility.yul\":11966:11998   */\n      calldataload\n        /* \"#utility.yul\":12025:12043   */\n      0xffffffffffffffff\n        /* \"#utility.yul\":12017:12023   */\n      dup2\n        /* \"#utility.yul\":12014:12044   */\n      gt\n        /* \"#utility.yul\":12011:12128   */\n      iszero\n      tag_366\n      jumpi\n        /* \"#utility.yul\":12047:12126   */\n      tag_367\n      tag_203\n      jump\t// in\n    tag_367:\n        /* \"#utility.yul\":12011:12128   */\n    tag_366:\n        /* \"#utility.yul\":12152:12215   */\n      tag_368\n        /* \"#utility.yul\":12207:12214   */\n      dup9\n        /* \"#utility.yul\":12198:12204   */\n      dup3\n        /* \"#utility.yul\":12187:12196   */\n      dup10\n        /* \"#utility.yul\":12183:12205   */\n      add\n        /* \"#utility.yul\":12152:12215   */\n      tag_223\n      jump\t// in\n    tag_368:\n        /* \"#utility.yul\":12142:12215   */\n      swap4\n      pop\n        /* \"#utility.yul\":11937:12225   */\n      pop\n        /* \"#utility.yul\":12292:12294   */\n      0x60\n        /* \"#utility.yul\":12281:12290   */\n      dup7\n        /* \"#utility.yul\":12277:12295   */\n      add\n        /* \"#utility.yul\":12264:12296   */\n      calldataload\n        /* \"#utility.yul\":12323:12341   */\n      0xffffffffffffffff\n        /* \"#utility.yul\":12315:12321   */\n      dup2\n        /* \"#utility.yul\":12312:12342   */\n      gt\n        /* \"#utility.yul\":12309:12426   */\n      iszero\n      tag_369\n      jumpi\n        /* \"#utility.yul\":12345:12424   */\n      tag_370\n      tag_203\n      jump\t// in\n    tag_370:\n        /* \"#utility.yul\":12309:12426   */\n    tag_369:\n        /* \"#utility.yul\":12450:12513   */\n      tag_371\n        /* \"#utility.yul\":12505:12512   */\n      dup9\n        /* \"#utility.yul\":12496:12502   */\n      dup3\n        /* \"#utility.yul\":12485:12494   */\n      dup10\n        /* \"#utility.yul\":12481:12503   */\n      add\n        /* \"#utility.yul\":12450:12513   */\n      tag_223\n      jump\t// in\n    tag_371:\n        /* \"#utility.yul\":12440:12513   */\n      swap3\n      pop\n        /* \"#utility.yul\":12235:12523   */\n      pop\n        /* \"#utility.yul\":12562:12565   */\n      0x80\n        /* \"#utility.yul\":12589:12642   */\n      tag_372\n        /* \"#utility.yul\":12634:12641   */\n      dup9\n        /* \"#utility.yul\":12625:12631   */\n      dup3\n        /* \"#utility.yul\":12614:12623   */\n      dup10\n        /* \"#utility.yul\":12610:12632   */\n      add\n        /* \"#utility.yul\":12589:12642   */\n      tag_215\n      jump\t// in\n    tag_372:\n        /* \"#utility.yul\":12579:12642   */\n      swap2\n      pop\n        /* \"#utility.yul\":12533:12652   */\n      pop\n        /* \"#utility.yul\":11208:12659   */\n      swap3\n      swap6\n      pop\n      swap3\n      swap6\n      swap1\n      swap4\n      pop\n      jump\t// out\n        /* \"#utility.yul\":12665:12994   */\n    tag_42:\n        /* \"#utility.yul\":12724:12730   */\n      0x00\n        /* \"#utility.yul\":12773:12775   */\n      0x20\n        /* \"#utility.yul\":12761:12770   */\n      dup3\n        /* \"#utility.yul\":12752:12759   */\n      dup5\n        /* \"#utility.yul\":12748:12771   */\n      sub\n        /* \"#utility.yul\":12744:12776   */\n      slt\n        /* \"#utility.yul\":12741:12860   */\n      iszero\n      tag_374\n      jumpi\n        /* \"#utility.yul\":12779:12858   */\n      tag_375\n      tag_202\n      jump\t// in\n    tag_375:\n        /* \"#utility.yul\":12741:12860   */\n    tag_374:\n        /* \"#utility.yul\":12899:12900   */\n      0x00\n        /* \"#utility.yul\":12924:12977   */\n      tag_376\n        /* \"#utility.yul\":12969:12976   */\n      dup5\n        /* \"#utility.yul\":12960:12966   */\n      dup3\n        /* \"#utility.yul\":12949:12958   */\n      dup6\n        /* \"#utility.yul\":12945:12967   */\n      add\n        /* \"#utility.yul\":12924:12977   */\n      tag_215\n      jump\t// in\n    tag_376:\n        /* \"#utility.yul\":12914:12977   */\n      swap2\n      pop\n        /* \"#utility.yul\":12870:12987   */\n      pop\n        /* \"#utility.yul\":12665:12994   */\n      swap3\n      swap2\n      pop\n      pop\n      jump\t// out\n        /* \"#utility.yul\":13000:13169   */\n    tag_224:\n        /* \"#utility.yul\":13084:13095   */\n      0x00\n        /* \"#utility.yul\":13118:13124   */\n      dup3\n        /* \"#utility.yul\":13113:13116   */\n      dup3\n        /* \"#utility.yul\":13106:13125   */\n      mstore\n        /* \"#utility.yul\":13158:13162   */\n      0x20\n        /* \"#utility.yul\":13153:13156   */\n      dup3\n        /* \"#utility.yul\":13149:13163   */\n      add\n        /* \"#utility.yul\":13134:13163   */\n      swap1\n      pop\n        /* \"#utility.yul\":13000:13169   */\n      swap3\n      swap2\n      pop\n      pop\n      jump\t// out\n        /* \"#utility.yul\":13175:13552   */\n    tag_225:\n        /* \"#utility.yul\":13263:13266   */\n      0x00\n        /* \"#utility.yul\":13291:13330   */\n      tag_379\n        /* \"#utility.yul\":13324:13329   */\n      dup3\n        /* \"#utility.yul\":13291:13330   */\n      tag_190\n      jump\t// in\n    tag_379:\n        /* \"#utility.yul\":13346:13417   */\n      tag_380\n        /* \"#utility.yul\":13410:13416   */\n      dup2\n        /* \"#utility.yul\":13405:13408   */\n      dup6\n        /* \"#utility.yul\":13346:13417   */\n      tag_224\n      jump\t// in\n    tag_380:\n        /* \"#utility.yul\":13339:13417   */\n      swap4\n      pop\n        /* \"#utility.yul\":13426:13491   */\n      tag_381\n        /* \"#utility.yul\":13484:13490   */\n      dup2\n        /* \"#utility.yul\":13479:13482   */\n      dup6\n        /* \"#utility.yul\":13472:13476   */\n      0x20\n        /* \"#utility.yul\":13465:13470   */\n      dup7\n        /* \"#utility.yul\":13461:13477   */\n      add\n        /* \"#utility.yul\":13426:13491   */\n      tag_192\n      jump\t// in\n    tag_381:\n        /* \"#utility.yul\":13516:13545   */\n      tag_382\n        /* \"#utility.yul\":13538:13544   */\n      dup2\n        /* \"#utility.yul\":13516:13545   */\n      tag_193\n      jump\t// in\n    tag_382:\n        /* \"#utility.yul\":13511:13514   */\n      dup5\n        /* \"#utility.yul\":13507:13546   */\n      add\n        /* \"#utility.yul\":13500:13546   */\n      swap2\n      pop\n        /* \"#utility.yul\":13267:13552   */\n      pop\n        /* \"#utility.yul\":13175:13552   */\n      swap3\n      swap2\n      pop\n      pop\n      jump\t// out\n        /* \"#utility.yul\":13558:13667   */\n    tag_226:\n        /* \"#utility.yul\":13639:13660   */\n      tag_384\n        /* \"#utility.yul\":13654:13659   */\n      dup2\n        /* \"#utility.yul\":13639:13660   */\n      tag_195\n      jump\t// in\n    tag_384:\n        /* \"#utility.yul\":13634:13637   */\n      dup3\n        /* \"#utility.yul\":13627:13661   */\n      mstore\n        /* \"#utility.yul\":13558:13667   */\n      pop\n      pop\n      jump\t// out\n        /* \"#utility.yul\":13673:14709   */\n    tag_45:\n        /* \"#utility.yul\":13960:13964   */\n      0x00\n        /* \"#utility.yul\":13998:14001   */\n      0xc0\n        /* \"#utility.yul\":13987:13996   */\n      dup3\n        /* \"#utility.yul\":13983:14002   */\n      add\n        /* \"#utility.yul\":13975:14002   */\n      swap1\n      pop\n        /* \"#utility.yul\":14012:14083   */\n      tag_386\n        /* \"#utility.yul\":14080:14081   */\n      0x00\n        /* \"#utility.yul\":14069:14078   */\n      dup4\n        /* \"#utility.yul\":14065:14082   */\n      add\n        /* \"#utility.yul\":14056:14062   */\n      dup10\n        /* \"#utility.yul\":14012:14083   */\n      tag_185\n      jump\t// in\n    tag_386:\n        /* \"#utility.yul\":14130:14139   */\n      dup2\n        /* \"#utility.yul\":14124:14128   */\n      dup2\n        /* \"#utility.yul\":14120:14140   */\n      sub\n        /* \"#utility.yul\":14115:14117   */\n      0x20\n        /* \"#utility.yul\":14104:14113   */\n      dup4\n        /* \"#utility.yul\":14100:14118   */\n      add\n        /* \"#utility.yul\":14093:14141   */\n      mstore\n        /* \"#utility.yul\":14158:14236   */\n      tag_387\n        /* \"#utility.yul\":14231:14235   */\n      dup2\n        /* \"#utility.yul\":14222:14228   */\n      dup9\n        /* \"#utility.yul\":14158:14236   */\n      tag_225\n      jump\t// in\n    tag_387:\n        /* \"#utility.yul\":14150:14236   */\n      swap1\n      pop\n        /* \"#utility.yul\":14283:14292   */\n      dup2\n        /* \"#utility.yul\":14277:14281   */\n      dup2\n        /* \"#utility.yul\":14273:14293   */\n      sub\n        /* \"#utility.yul\":14268:14270   */\n      0x40\n        /* \"#utility.yul\":14257:14266   */\n      dup4\n        /* \"#utility.yul\":14253:14271   */\n      add\n        /* \"#utility.yul\":14246:14294   */\n      mstore\n        /* \"#utility.yul\":14311:14389   */\n      tag_388\n        /* \"#utility.yul\":14384:14388   */\n      dup2\n        /* \"#utility.yul\":14375:14381   */\n      dup8\n        /* \"#utility.yul\":14311:14389   */\n      tag_225\n      jump\t// in\n    tag_388:\n        /* \"#utility.yul\":14303:14389   */\n      swap1\n      pop\n        /* \"#utility.yul\":14436:14445   */\n      dup2\n        /* \"#utility.yul\":14430:14434   */\n      dup2\n        /* \"#utility.yul\":14426:14446   */\n      sub\n        /* \"#utility.yul\":14421:14423   */\n      0x60\n        /* \"#utility.yul\":14410:14419   */\n      dup4\n        /* \"#utility.yul\":14406:14424   */\n      add\n        /* \"#utility.yul\":14399:14447   */\n      mstore\n        /* \"#utility.yul\":14464:14542   */\n      tag_389\n        /* \"#utility.yul\":14537:14541   */\n      dup2\n        /* \"#utility.yul\":14528:14534   */\n      dup7\n        /* \"#utility.yul\":14464:14542   */\n      tag_225\n      jump\t// in\n    tag_389:\n        /* \"#utility.yul\":14456:14542   */\n      swap1\n      pop\n        /* \"#utility.yul\":14552:14625   */\n      tag_390\n        /* \"#utility.yul\":14620:14623   */\n      0x80\n        /* \"#utility.yul\":14609:14618   */\n      dup4\n        /* \"#utility.yul\":14605:14624   */\n      add\n        /* \"#utility.yul\":14596:14602   */\n      dup6\n        /* \"#utility.yul\":14552:14625   */\n      tag_185\n      jump\t// in\n    tag_390:\n        /* \"#utility.yul\":14635:14702   */\n      tag_391\n        /* \"#utility.yul\":14697:14700   */\n      0xa0\n        /* \"#utility.yul\":14686:14695   */\n      dup4\n        /* \"#utility.yul\":14682:14701   */\n      add\n        /* \"#utility.yul\":14673:14679   */\n      dup5\n        /* \"#utility.yul\":14635:14702   */\n      tag_226\n      jump\t// in\n    tag_391:\n        /* \"#utility.yul\":13673:14709   */\n      swap8\n      swap7\n      pop\n      pop\n      pop\n      pop\n      pop\n      pop\n      pop\n      jump\t// out\n        /* \"#utility.yul\":14715:15189   */\n    tag_57:\n        /* \"#utility.yul\":14783:14789   */\n      0x00\n        /* \"#utility.yul\":14791:14797   */\n      dup1\n        /* \"#utility.yul\":14840:14842   */\n      0x40\n        /* \"#utility.yul\":14828:14837   */\n      dup4\n        /* \"#utility.yul\":14819:14826   */\n      dup6\n        /* \"#utility.yul\":14815:14838   */\n      sub\n        /* \"#utility.yul\":14811:14843   */\n      slt\n        /* \"#utility.yul\":14808:14927   */\n      iszero\n      tag_393\n      jumpi\n        /* \"#utility.yul\":14846:14925   */\n      tag_394\n      tag_202\n      jump\t// in\n    tag_394:\n        /* \"#utility.yul\":14808:14927   */\n    tag_393:\n        /* \"#utility.yul\":14966:14967   */\n      0x00\n        /* \"#utility.yul\":14991:15044   */\n      tag_395\n        /* \"#utility.yul\":15036:15043   */\n      dup6\n        /* \"#utility.yul\":15027:15033   */\n      dup3\n        /* \"#utility.yul\":15016:15025   */\n      dup7\n        /* \"#utility.yul\":15012:15034   */\n      add\n        /* \"#utility.yul\":14991:15044   */\n      tag_207\n      jump\t// in\n    tag_395:\n        /* \"#utility.yul\":14981:15044   */\n      swap3\n      pop\n        /* \"#utility.yul\":14937:15054   */\n      pop\n        /* \"#utility.yul\":15093:15095   */\n      0x20\n        /* \"#utility.yul\":15119:15172   */\n      tag_396\n        /* \"#utility.yul\":15164:15171   */\n      dup6\n        /* \"#utility.yul\":15155:15161   */\n      dup3\n        /* \"#utility.yul\":15144:15153   */\n      dup7\n        /* \"#utility.yul\":15140:15162   */\n      add\n        /* \"#utility.yul\":15119:15172   */\n      tag_215\n      jump\t// in\n    tag_396:\n        /* \"#utility.yul\":15109:15172   */\n      swap2\n      pop\n        /* \"#utility.yul\":15064:15182   */\n      pop\n        /* \"#utility.yul\":14715:15189   */\n      swap3\n      pop\n      swap3\n      swap1\n      pop\n      jump\t// out\n        /* \"#utility.yul\":15195:15375   */\n    tag_227:\n        /* \"#utility.yul\":15243:15320   */\n      0x4e487b7100000000000000000000000000000000000000000000000000000000\n        /* \"#utility.yul\":15240:15241   */\n      0x00\n        /* \"#utility.yul\":15233:15321   */\n      mstore\n        /* \"#utility.yul\":15340:15344   */\n      0x22\n        /* \"#utility.yul\":15337:15338   */\n      0x04\n        /* \"#utility.yul\":15330:15345   */\n      mstore\n        /* \"#utility.yul\":15364:15368   */\n      0x24\n        /* \"#utility.yul\":15361:15362   */\n      0x00\n        /* \"#utility.yul\":15354:15369   */\n      revert\n        /* \"#utility.yul\":15381:15701   */\n    tag_72:\n        /* \"#utility.yul\":15425:15431   */\n      0x00\n        /* \"#utility.yul\":15462:15463   */\n      0x02\n        /* \"#utility.yul\":15456:15460   */\n      dup3\n        /* \"#utility.yul\":15452:15464   */\n      div\n        /* \"#utility.yul\":15442:15464   */\n      swap1\n      pop\n        /* \"#utility.yul\":15509:15510   */\n      0x01\n        /* \"#utility.yul\":15503:15507   */\n      dup3\n        /* \"#utility.yul\":15499:15511   */\n      and\n        /* \"#utility.yul\":15530:15548   */\n      dup1\n        /* \"#utility.yul\":15520:15601   */\n      tag_399\n      jumpi\n        /* \"#utility.yul\":15586:15590   */\n      0x7f\n        /* \"#utility.yul\":15578:15584   */\n      dup3\n        /* \"#utility.yul\":15574:15591   */\n      and\n        /* \"#utility.yul\":15564:15591   */\n      swap2\n      pop\n        /* \"#utility.yul\":15520:15601   */\n    tag_399:\n        /* \"#utility.yul\":15648:15650   */\n      0x20\n        /* \"#utility.yul\":15640:15646   */\n      dup3\n        /* \"#utility.yul\":15637:15651   */\n      lt\n        /* \"#utility.yul\":15617:15635   */\n      dup2\n        /* \"#utility.yul\":15614:15652   */\n      sub\n        /* \"#utility.yul\":15611:15695   */\n      tag_400\n      jumpi\n        /* \"#utility.yul\":15667:15685   */\n      tag_401\n      tag_227\n      jump\t// in\n    tag_401:\n        /* \"#utility.yul\":15611:15695   */\n    tag_400:\n        /* \"#utility.yul\":15432:15701   */\n      pop\n        /* \"#utility.yul\":15381:15701   */\n      swap2\n      swap1\n      pop\n      jump\t// out\n        /* \"#utility.yul\":15707:15887   */\n    tag_89:\n        /* \"#utility.yul\":15755:15832   */\n      0x4e487b7100000000000000000000000000000000000000000000000000000000\n        /* \"#utility.yul\":15752:15753   */\n      0x00\n        /* \"#utility.yul\":15745:15833   */\n      mstore\n        /* \"#utility.yul\":15852:15856   */\n      0x32\n        /* \"#utility.yul\":15849:15850   */\n      0x04\n        /* \"#utility.yul\":15842:15857   */\n      mstore\n        /* \"#utility.yul\":15876:15880   */\n      0x24\n        /* \"#utility.yul\":15873:15874   */\n      0x00\n        /* \"#utility.yul\":15866:15881   */\n      revert\n        /* \"#utility.yul\":15893:16118   */\n    tag_228:\n        /* \"#utility.yul\":16033:16067   */\n      0x51756164726f20636f6e206c6f2073746573736f204944206769612720657369\n        /* \"#utility.yul\":16029:16030   */\n      0x00\n        /* \"#utility.yul\":16021:16027   */\n      dup3\n        /* \"#utility.yul\":16017:16031   */\n      add\n        /* \"#utility.yul\":16010:16068   */\n      mstore\n        /* \"#utility.yul\":16102:16110   */\n      0x7374656e74650000000000000000000000000000000000000000000000000000\n        /* \"#utility.yul\":16097:16099   */\n      0x20\n        /* \"#utility.yul\":16089:16095   */\n      dup3\n        /* \"#utility.yul\":16085:16100   */\n      add\n        /* \"#utility.yul\":16078:16111   */\n      mstore\n        /* \"#utility.yul\":15893:16118   */\n      pop\n      jump\t// out\n        /* \"#utility.yul\":16124:16490   */\n    tag_229:\n        /* \"#utility.yul\":16266:16269   */\n      0x00\n        /* \"#utility.yul\":16287:16354   */\n      tag_405\n        /* \"#utility.yul\":16351:16353   */\n      0x26\n        /* \"#utility.yul\":16346:16349   */\n      dup4\n        /* \"#utility.yul\":16287:16354   */\n      tag_224\n      jump\t// in\n    tag_405:\n        /* \"#utility.yul\":16280:16354   */\n      swap2\n      pop\n        /* \"#utility.yul\":16363:16456   */\n      tag_406\n        /* \"#utility.yul\":16452:16455   */\n      dup3\n        /* \"#utility.yul\":16363:16456   */\n      tag_228\n      jump\t// in\n    tag_406:\n        /* \"#utility.yul\":16481:16483   */\n      0x40\n        /* \"#utility.yul\":16476:16479   */\n      dup3\n        /* \"#utility.yul\":16472:16484   */\n      add\n        /* \"#utility.yul\":16465:16484   */\n      swap1\n      pop\n        /* \"#utility.yul\":16124:16490   */\n      swap2\n      swap1\n      pop\n      jump\t// out\n        /* \"#utility.yul\":16496:16915   */\n    tag_126:\n        /* \"#utility.yul\":16662:16666   */\n      0x00\n        /* \"#utility.yul\":16700:16702   */\n      0x20\n        /* \"#utility.yul\":16689:16698   */\n      dup3\n        /* \"#utility.yul\":16685:16703   */\n      add\n        /* \"#utility.yul\":16677:16703   */\n      swap1\n      pop\n        /* \"#utility.yul\":16749:16758   */\n      dup2\n        /* \"#utility.yul\":16743:16747   */\n      dup2\n        /* \"#utility.yul\":16739:16759   */\n      sub\n        /* \"#utility.yul\":16735:16736   */\n      0x00\n        /* \"#utility.yul\":16724:16733   */\n      dup4\n        /* \"#utility.yul\":16720:16737   */\n      add\n        /* \"#utility.yul\":16713:16760   */\n      mstore\n        /* \"#utility.yul\":16777:16908   */\n      tag_408\n        /* \"#utility.yul\":16903:16907   */\n      dup2\n        /* \"#utility.yul\":16777:16908   */\n      tag_229\n      jump\t// in\n    tag_408:\n        /* \"#utility.yul\":16769:16908   */\n      swap1\n      pop\n        /* \"#utility.yul\":16496:16915   */\n      swap2\n      swap1\n      pop\n      jump\t// out\n        /* \"#utility.yul\":16921:17062   */\n    tag_230:\n        /* \"#utility.yul\":16970:16974   */\n      0x00\n        /* \"#utility.yul\":16993:16996   */\n      dup2\n        /* \"#utility.yul\":16985:16996   */\n      swap1\n      pop\n        /* \"#utility.yul\":17016:17019   */\n      dup2\n        /* \"#utility.yul\":17013:17014   */\n      0x00\n        /* \"#utility.yul\":17006:17020   */\n      mstore\n        /* \"#utility.yul\":17050:17054   */\n      0x20\n        /* \"#utility.yul\":17047:17048   */\n      0x00\n        /* \"#utility.yul\":17037:17055   */\n      keccak256\n        /* \"#utility.yul\":17029:17055   */\n      swap1\n      pop\n        /* \"#utility.yul\":16921:17062   */\n      swap2\n      swap1\n      pop\n      jump\t// out\n        /* \"#utility.yul\":17068:17161   */\n    tag_231:\n        /* \"#utility.yul\":17105:17111   */\n      0x00\n        /* \"#utility.yul\":17152:17154   */\n      0x20\n        /* \"#utility.yul\":17147:17149   */\n      0x1f\n        /* \"#utility.yul\":17140:17145   */\n      dup4\n        /* \"#utility.yul\":17136:17150   */\n      add\n        /* \"#utility.yul\":17132:17155   */\n      div\n        /* \"#utility.yul\":17122:17155   */\n      swap1\n      pop\n        /* \"#utility.yul\":17068:17161   */\n      swap2\n      swap1\n      pop\n      jump\t// out\n        /* \"#utility.yul\":17167:17274   */\n    tag_232:\n        /* \"#utility.yul\":17211:17219   */\n      0x00\n        /* \"#utility.yul\":17261:17266   */\n      dup3\n        /* \"#utility.yul\":17255:17259   */\n      dup3\n        /* \"#utility.yul\":17251:17267   */\n      shl\n        /* \"#utility.yul\":17230:17267   */\n      swap1\n      pop\n        /* \"#utility.yul\":17167:17274   */\n      swap3\n      swap2\n      pop\n      pop\n      jump\t// out\n        /* \"#utility.yul\":17280:17673   */\n    tag_233:\n        /* \"#utility.yul\":17349:17355   */\n      0x00\n        /* \"#utility.yul\":17399:17400   */\n      0x08\n        /* \"#utility.yul\":17387:17397   */\n      dup4\n        /* \"#utility.yul\":17383:17401   */\n      mul\n        /* \"#utility.yul\":17422:17519   */\n      tag_413\n        /* \"#utility.yul\":17452:17518   */\n      0xffffffffffffffffffffffffffffffffffffffffffffffffffffffffffffffff\n        /* \"#utility.yul\":17441:17450   */\n      dup3\n        /* \"#utility.yul\":17422:17519   */\n      tag_232\n      jump\t// in\n    tag_413:\n        /* \"#utility.yul\":17540:17579   */\n      tag_414\n        /* \"#utility.yul\":17570:17578   */\n      dup7\n        /* \"#utility.yul\":17559:17568   */\n      dup4\n        /* \"#utility.yul\":17540:17579   */\n      tag_232\n      jump\t// in\n    tag_414:\n        /* \"#utility.yul\":17528:17579   */\n      swap6\n      pop\n        /* \"#utility.yul\":17612:17616   */\n      dup1\n        /* \"#utility.yul\":17608:17617   */\n      not\n        /* \"#utility.yul\":17601:17606   */\n      dup5\n        /* \"#utility.yul\":17597:17618   */\n      and\n        /* \"#utility.yul\":17588:17618   */\n      swap4\n      pop\n        /* \"#utility.yul\":17661:17665   */\n      dup1\n        /* \"#utility.yul\":17651:17659   */\n      dup7\n        /* \"#utility.yul\":17647:17666   */\n      and\n        /* \"#utility.yul\":17640:17645   */\n      dup5\n        /* \"#utility.yul\":17637:17667   */\n      or\n        /* \"#utility.yul\":17627:17667   */\n      swap3\n      pop\n        /* \"#utility.yul\":17356:17673   */\n      pop\n      pop\n        /* \"#utility.yul\":17280:17673   */\n      swap4\n      swap3\n      pop\n      pop\n      pop\n      jump\t// out\n        /* \"#utility.yul\":17679:17739   */\n    tag_234:\n        /* \"#utility.yul\":17707:17710   */\n      0x00\n        /* \"#utility.yul\":17728:17733   */\n      dup2\n        /* \"#utility.yul\":17721:17733   */\n      swap1\n      pop\n        /* \"#utility.yul\":17679:17739   */\n      swap2\n      swap1\n      pop\n      jump\t// out\n        /* \"#utility.yul\":17745:17887   */\n    tag_235:\n        /* \"#utility.yul\":17795:17804   */\n      0x00\n        /* \"#utility.yul\":17828:17881   */\n      tag_417\n        /* \"#utility.yul\":17846:17880   */\n      tag_418\n        /* \"#utility.yul\":17855:17879   */\n      tag_419\n        /* \"#utility.yul\":17873:17878   */\n      dup5\n        /* \"#utility.yul\":17855:17879   */\n      tag_184\n      jump\t// in\n    tag_419:\n        /* \"#utility.yul\":17846:17880   */\n      tag_234\n      jump\t// in\n    tag_418:\n        /* \"#utility.yul\":17828:17881   */\n      tag_184\n      jump\t// in\n    tag_417:\n        /* \"#utility.yul\":17815:17881   */\n      swap1\n      pop\n        /* \"#utility.yul\":17745:17887   */\n      swap2\n      swap1\n      pop\n      jump\t// out\n        /* \"#utility.yul\":17893:17968   */\n    tag_236:\n        /* \"#utility.yul\":17936:17939   */\n      0x00\n        /* \"#utility.yul\":17957:17962   */\n      dup2\n        /* \"#utility.yul\":17950:17962   */\n      swap1\n      pop\n        /* \"#utility.yul\":17893:17968   */\n      swap2\n      swap1\n      pop\n      jump\t// out\n        /* \"#utility.yul\":17974:18243   */\n    tag_237:\n        /* \"#utility.yul\":18084:18123   */\n      tag_422\n        /* \"#utility.yul\":18115:18122   */\n      dup4\n        /* \"#utility.yul\":18084:18123   */\n      tag_235\n      jump\t// in\n    tag_422:\n        /* \"#utility.yul\":18145:18236   */\n      tag_423\n        /* \"#utility.yul\":18194:18235   */\n      tag_424\n        /* \"#utility.yul\":18218:18234   */\n      dup3\n        /* \"#utility.yul\":18194:18235   */\n      tag_236\n      jump\t// in\n    tag_424:\n        /* \"#utility.yul\":18186:18192   */\n      dup5\n        /* \"#utility.yul\":18179:18183   */\n      dup5\n        /* \"#utility.yul\":18173:18184   */\n      sload\n        /* \"#utility.yul\":18145:18236   */\n      tag_233\n      jump\t// in\n    tag_423:\n        /* \"#utility.yul\":18139:18143   */\n      dup3\n        /* \"#utility.yul\":18132:18237   */\n      sstore\n        /* \"#utility.yul\":18050:18243   */\n      pop\n        /* \"#utility.yul\":17974:18243   */\n      pop\n      pop\n      pop\n      jump\t// out\n        /* \"#utility.yul\":18249:18322   */\n    tag_238:\n        /* \"#utility.yul\":18294:18297   */\n      0x00\n        /* \"#utility.yul\":18249:18322   */\n      swap1\n      jump\t// out\n        /* \"#utility.yul\":18328:18517   */\n    tag_239:\n        /* \"#utility.yul\":18405:18437   */\n      tag_427\n      tag_238\n      jump\t// in\n    tag_427:\n        /* \"#utility.yul\":18446:18511   */\n      tag_428\n        /* \"#utility.yul\":18504:18510   */\n      dup2\n        /* \"#utility.yul\":18496:18502   */\n      dup5\n        /* \"#utility.yul\":18490:18494   */\n      dup5\n        /* \"#utility.yul\":18446:18511   */\n      tag_237\n      jump\t// in\n    tag_428:\n        /* \"#utility.yul\":18381:18517   */\n      pop\n        /* \"#utility.yul\":18328:18517   */\n      pop\n      pop\n      jump\t// out\n        /* \"#utility.yul\":18523:18709   */\n    tag_240:\n        /* \"#utility.yul\":18583:18703   */\n    tag_430:\n        /* \"#utility.yul\":18600:18603   */\n      dup2\n        /* \"#utility.yul\":18593:18598   */\n      dup2\n        /* \"#utility.yul\":18590:18604   */\n      lt\n        /* \"#utility.yul\":18583:18703   */\n      iszero\n      tag_432\n      jumpi\n        /* \"#utility.yul\":18654:18693   */\n      tag_433\n        /* \"#utility.yul\":18691:18692   */\n      0x00\n        /* \"#utility.yul\":18684:18689   */\n      dup3\n        /* \"#utility.yul\":18654:18693   */\n      tag_239\n      jump\t// in\n    tag_433:\n        /* \"#utility.yul\":18627:18628   */\n      0x01\n        /* \"#utility.yul\":18620:18625   */\n      dup2\n        /* \"#utility.yul\":18616:18629   */\n      add\n        /* \"#utility.yul\":18607:18629   */\n      swap1\n      pop\n        /* \"#utility.yul\":18583:18703   */\n      jump(tag_430)\n    tag_432:\n        /* \"#utility.yul\":18523:18709   */\n      pop\n      pop\n      jump\t// out\n        /* \"#utility.yul\":18715:19258   */\n    tag_241:\n        /* \"#utility.yul\":18816:18818   */\n      0x1f\n        /* \"#utility.yul\":18811:18814   */\n      dup3\n        /* \"#utility.yul\":18808:18819   */\n      gt\n        /* \"#utility.yul\":18805:19251   */\n      iszero\n      tag_435\n      jumpi\n        /* \"#utility.yul\":18850:18888   */\n      tag_436\n        /* \"#utility.yul\":18882:18887   */\n      dup2\n        /* \"#utility.yul\":18850:18888   */\n      tag_230\n      jump\t// in\n    tag_436:\n        /* \"#utility.yul\":18934:18963   */\n      tag_437\n        /* \"#utility.yul\":18952:18962   */\n      dup5\n        /* \"#utility.yul\":18934:18963   */\n      tag_231\n      jump\t// in\n    tag_437:\n        /* \"#utility.yul\":18924:18932   */\n      dup2\n        /* \"#utility.yul\":18920:18964   */\n      add\n        /* \"#utility.yul\":19117:19119   */\n      0x20\n        /* \"#utility.yul\":19105:19115   */\n      dup6\n        /* \"#utility.yul\":19102:19120   */\n      lt\n        /* \"#utility.yul\":19099:19148   */\n      iszero\n      tag_438\n      jumpi\n        /* \"#utility.yul\":19138:19146   */\n      dup2\n        /* \"#utility.yul\":19123:19146   */\n      swap1\n      pop\n        /* \"#utility.yul\":19099:19148   */\n    tag_438:\n        /* \"#utility.yul\":19161:19241   */\n      tag_439\n        /* \"#utility.yul\":19217:19239   */\n      tag_440\n        /* \"#utility.yul\":19235:19238   */\n      dup6\n        /* \"#utility.yul\":19217:19239   */\n      tag_231\n      jump\t// in\n    tag_440:\n        /* \"#utility.yul\":19207:19215   */\n      dup4\n        /* \"#utility.yul\":19203:19240   */\n      add\n        /* \"#utility.yul\":19190:19201   */\n      dup3\n        /* \"#utility.yul\":19161:19241   */\n      tag_240\n      jump\t// in\n    tag_439:\n        /* \"#utility.yul\":18820:19251   */\n      pop\n      pop\n        /* \"#utility.yul\":18805:19251   */\n    tag_435:\n        /* \"#utility.yul\":18715:19258   */\n      pop\n      pop\n      pop\n      jump\t// out\n        /* \"#utility.yul\":19264:19381   */\n    tag_242:\n        /* \"#utility.yul\":19318:19326   */\n      0x00\n        /* \"#utility.yul\":19368:19373   */\n      dup3\n        /* \"#utility.yul\":19362:19366   */\n      dup3\n        /* \"#utility.yul\":19358:19374   */\n      shr\n        /* \"#utility.yul\":19337:19374   */\n      swap1\n      pop\n        /* \"#utility.yul\":19264:19381   */\n      swap3\n      swap2\n      pop\n      pop\n      jump\t// out\n        /* \"#utility.yul\":19387:19556   */\n    tag_243:\n        /* \"#utility.yul\":19431:19437   */\n      0x00\n        /* \"#utility.yul\":19464:19515   */\n      tag_443\n        /* \"#utility.yul\":19512:19513   */\n      0x00\n        /* \"#utility.yul\":19508:19514   */\n      not\n        /* \"#utility.yul\":19500:19505   */\n      dup5\n        /* \"#utility.yul\":19497:19498   */\n      0x08\n        /* \"#utility.yul\":19493:19506   */\n      mul\n        /* \"#utility.yul\":19464:19515   */\n      tag_242\n      jump\t// in\n    tag_443:\n        /* \"#utility.yul\":19460:19516   */\n      not\n        /* \"#utility.yul\":19545:19549   */\n      dup1\n        /* \"#utility.yul\":19539:19543   */\n      dup4\n        /* \"#utility.yul\":19535:19550   */\n      and\n        /* \"#utility.yul\":19525:19550   */\n      swap2\n      pop\n        /* \"#utility.yul\":19438:19556   */\n      pop\n        /* \"#utility.yul\":19387:19556   */\n      swap3\n      swap2\n      pop\n      pop\n      jump\t// out\n        /* \"#utility.yul\":19561:19856   */\n    tag_244:\n        /* \"#utility.yul\":19637:19641   */\n      0x00\n        /* \"#utility.yul\":19783:19812   */\n      tag_445\n        /* \"#utility.yul\":19808:19811   */\n      dup4\n        /* \"#utility.yul\":19802:19806   */\n      dup4\n        /* \"#utility.yul\":19783:19812   */\n      tag_243\n      jump\t// in\n    tag_445:\n        /* \"#utility.yul\":19775:19812   */\n      swap2\n      pop\n        /* \"#utility.yul\":19845:19848   */\n      dup3\n        /* \"#utility.yul\":19842:19843   */\n      0x02\n        /* \"#utility.yul\":19838:19849   */\n      mul\n        /* \"#utility.yul\":19832:19836   */\n      dup3\n        /* \"#utility.yul\":19829:19850   */\n      or\n        /* \"#utility.yul\":19821:19850   */\n      swap1\n      pop\n        /* \"#utility.yul\":19561:19856   */\n      swap3\n      swap2\n      pop\n      pop\n      jump\t// out\n        /* \"#utility.yul\":19861:21256   */\n    tag_128:\n        /* \"#utility.yul\":19978:20015   */\n      tag_447\n        /* \"#utility.yul\":20011:20014   */\n      dup3\n        /* \"#utility.yul\":19978:20015   */\n      tag_190\n      jump\t// in\n    tag_447:\n        /* \"#utility.yul\":20080:20098   */\n      0xffffffffffffffff\n        /* \"#utility.yul\":20072:20078   */\n      dup2\n        /* \"#utility.yul\":20069:20099   */\n      gt\n        /* \"#utility.yul\":20066:20122   */\n      iszero\n      tag_448\n      jumpi\n        /* \"#utility.yul\":20102:20120   */\n      tag_449\n      tag_63\n      jump\t// in\n    tag_449:\n        /* \"#utility.yul\":20066:20122   */\n    tag_448:\n        /* \"#utility.yul\":20146:20184   */\n      tag_450\n        /* \"#utility.yul\":20178:20182   */\n      dup3\n        /* \"#utility.yul\":20172:20183   */\n      sload\n        /* \"#utility.yul\":20146:20184   */\n      tag_72\n      jump\t// in\n    tag_450:\n        /* \"#utility.yul\":20231:20298   */\n      tag_451\n        /* \"#utility.yul\":20291:20297   */\n      dup3\n        /* \"#utility.yul\":20283:20289   */\n      dup3\n        /* \"#utility.yul\":20277:20281   */\n      dup6\n        /* \"#utility.yul\":20231:20298   */\n      tag_241\n      jump\t// in\n    tag_451:\n        /* \"#utility.yul\":20325:20326   */\n      0x00\n        /* \"#utility.yul\":20349:20353   */\n      0x20\n        /* \"#utility.yul\":20336:20353   */\n      swap1\n      pop\n        /* \"#utility.yul\":20381:20383   */\n      0x1f\n        /* \"#utility.yul\":20373:20379   */\n      dup4\n        /* \"#utility.yul\":20370:20384   */\n      gt\n        /* \"#utility.yul\":20398:20399   */\n      0x01\n        /* \"#utility.yul\":20393:21011   */\n      dup2\n      eq\n      tag_453\n      jumpi\n        /* \"#utility.yul\":21055:21056   */\n      0x00\n        /* \"#utility.yul\":21072:21078   */\n      dup5\n        /* \"#utility.yul\":21069:21146   */\n      iszero\n      tag_454\n      jumpi\n        /* \"#utility.yul\":21121:21130   */\n      dup3\n        /* \"#utility.yul\":21116:21119   */\n      dup8\n        /* \"#utility.yul\":21112:21131   */\n      add\n        /* \"#utility.yul\":21106:21132   */\n      mload\n        /* \"#utility.yul\":21097:21132   */\n      swap1\n      pop\n        /* \"#utility.yul\":21069:21146   */\n    tag_454:\n        /* \"#utility.yul\":21172:21239   */\n      tag_455\n        /* \"#utility.yul\":21232:21238   */\n      dup6\n        /* \"#utility.yul\":21225:21230   */\n      dup3\n        /* \"#utility.yul\":21172:21239   */\n      tag_244\n      jump\t// in\n    tag_455:\n        /* \"#utility.yul\":21166:21170   */\n      dup7\n        /* \"#utility.yul\":21159:21240   */\n      sstore\n        /* \"#utility.yul\":21028:21250   */\n      pop\n        /* \"#utility.yul\":20363:21250   */\n      jump(tag_452)\n        /* \"#utility.yul\":20393:21011   */\n    tag_453:\n        /* \"#utility.yul\":20445:20449   */\n      0x1f\n        /* \"#utility.yul\":20441:20450   */\n      not\n        /* \"#utility.yul\":20433:20439   */\n      dup5\n        /* \"#utility.yul\":20429:20451   */\n      and\n        /* \"#utility.yul\":20479:20516   */\n      tag_456\n        /* \"#utility.yul\":20511:20515   */\n      dup7\n        /* \"#utility.yul\":20479:20516   */\n      tag_230\n      jump\t// in\n    tag_456:\n        /* \"#utility.yul\":20538:20539   */\n      0x00\n        /* \"#utility.yul\":20552:20760   */\n    tag_457:\n        /* \"#utility.yul\":20566:20573   */\n      dup3\n        /* \"#utility.yul\":20563:20564   */\n      dup2\n        /* \"#utility.yul\":20560:20574   */\n      lt\n        /* \"#utility.yul\":20552:20760   */\n      iszero\n      tag_459\n      jumpi\n        /* \"#utility.yul\":20645:20654   */\n      dup5\n        /* \"#utility.yul\":20640:20643   */\n      dup10\n        /* \"#utility.yul\":20636:20655   */\n      add\n        /* \"#utility.yul\":20630:20656   */\n      mload\n        /* \"#utility.yul\":20622:20628   */\n      dup3\n        /* \"#utility.yul\":20615:20657   */\n      sstore\n        /* \"#utility.yul\":20696:20697   */\n      0x01\n        /* \"#utility.yul\":20688:20694   */\n      dup3\n        /* \"#utility.yul\":20684:20698   */\n      add\n        /* \"#utility.yul\":20674:20698   */\n      swap2\n      pop\n        /* \"#utility.yul\":20743:20745   */\n      0x20\n        /* \"#utility.yul\":20732:20741   */\n      dup6\n        /* \"#utility.yul\":20728:20746   */\n      add\n        /* \"#utility.yul\":20715:20746   */\n      swap5\n      pop\n        /* \"#utility.yul\":20589:20593   */\n      0x20\n        /* \"#utility.yul\":20586:20587   */\n      dup2\n        /* \"#utility.yul\":20582:20594   */\n      add\n        /* \"#utility.yul\":20577:20594   */\n      swap1\n      pop\n        /* \"#utility.yul\":20552:20760   */\n      jump(tag_457)\n    tag_459:\n        /* \"#utility.yul\":20788:20794   */\n      dup7\n        /* \"#utility.yul\":20779:20786   */\n      dup4\n        /* \"#utility.yul\":20776:20795   */\n      lt\n        /* \"#utility.yul\":20773:20952   */\n      iszero\n      tag_460\n      jumpi\n        /* \"#utility.yul\":20846:20855   */\n      dup5\n        /* \"#utility.yul\":20841:20844   */\n      dup10\n        /* \"#utility.yul\":20837:20856   */\n      add\n        /* \"#utility.yul\":20831:20857   */\n      mload\n        /* \"#utility.yul\":20889:20937   */\n      tag_461\n        /* \"#utility.yul\":20931:20935   */\n      0x1f\n        /* \"#utility.yul\":20923:20929   */\n      dup10\n        /* \"#utility.yul\":20919:20936   */\n      and\n        /* \"#utility.yul\":20908:20917   */\n      dup3\n        /* \"#utility.yul\":20889:20937   */\n      tag_243\n      jump\t// in\n    tag_461:\n        /* \"#utility.yul\":20881:20887   */\n      dup4\n        /* \"#utility.yul\":20874:20938   */\n      sstore\n        /* \"#utility.yul\":20796:20952   */\n      pop\n        /* \"#utility.yul\":20773:20952   */\n    tag_460:\n        /* \"#utility.yul\":20998:20999   */\n      0x01\n        /* \"#utility.yul\":20994:20995   */\n      0x02\n        /* \"#utility.yul\":20986:20992   */\n      dup9\n        /* \"#utility.yul\":20982:20996   */\n      mul\n        /* \"#utility.yul\":20978:21000   */\n      add\n        /* \"#utility.yul\":20972:20976   */\n      dup9\n        /* \"#utility.yul\":20965:21001   */\n      sstore\n        /* \"#utility.yul\":20400:21011   */\n      pop\n      pop\n      pop\n        /* \"#utility.yul\":20363:21250   */\n    tag_452:\n      pop\n        /* \"#utility.yul\":19953:21256   */\n      pop\n      pop\n      pop\n        /* \"#utility.yul\":19861:21256   */\n      pop\n      pop\n      jump\t// out\n        /* \"#utility.yul\":21262:21442   */\n    tag_245:\n        /* \"#utility.yul\":21310:21387   */\n      0x4e487b7100000000000000000000000000000000000000000000000000000000\n        /* \"#utility.yul\":21307:21308   */\n      0x00\n        /* \"#utility.yul\":21300:21388   */\n      mstore\n        /* \"#utility.yul\":21407:21411   */\n      0x11\n        /* \"#utility.yul\":21404:21405   */\n      0x04\n        /* \"#utility.yul\":21397:21412   */\n      mstore\n        /* \"#utility.yul\":21431:21435   */\n      0x24\n        /* \"#utility.yul\":21428:21429   */\n      0x00\n        /* \"#utility.yul\":21421:21436   */\n      revert\n        /* \"#utility.yul\":21448:21681   */\n    tag_132:\n        /* \"#utility.yul\":21487:21490   */\n      0x00\n        /* \"#utility.yul\":21510:21534   */\n      tag_464\n        /* \"#utility.yul\":21528:21533   */\n      dup3\n        /* \"#utility.yul\":21510:21534   */\n      tag_184\n      jump\t// in\n    tag_464:\n        /* \"#utility.yul\":21501:21534   */\n      swap2\n      pop\n        /* \"#utility.yul\":21556:21622   */\n      0xffffffffffffffffffffffffffffffffffffffffffffffffffffffffffffffff\n        /* \"#utility.yul\":21549:21554   */\n      dup3\n        /* \"#utility.yul\":21546:21623   */\n      sub\n        /* \"#utility.yul\":21543:21646   */\n      tag_465\n      jumpi\n        /* \"#utility.yul\":21626:21644   */\n      tag_466\n      tag_245\n      jump\t// in\n    tag_466:\n        /* \"#utility.yul\":21543:21646   */\n    tag_465:\n        /* \"#utility.yul\":21673:21674   */\n      0x01\n        /* \"#utility.yul\":21666:21671   */\n      dup3\n        /* \"#utility.yul\":21662:21675   */\n      add\n        /* \"#utility.yul\":21655:21675   */\n      swap1\n      pop\n        /* \"#utility.yul\":21448:21681   */\n      swap2\n      swap1\n      pop\n      jump\t// out\n        /* \"#utility.yul\":21687:21865   */\n    tag_246:\n        /* \"#utility.yul\":21827:21857   */\n      0x496c2071756164726f206e6f6e20652720646973706f6e6962696c6500000000\n        /* \"#utility.yul\":21823:21824   */\n      0x00\n        /* \"#utility.yul\":21815:21821   */\n      dup3\n        /* \"#utility.yul\":21811:21825   */\n      add\n        /* \"#utility.yul\":21804:21858   */\n      mstore\n        /* \"#utility.yul\":21687:21865   */\n      pop\n      jump\t// out\n        /* \"#utility.yul\":21871:22237   */\n    tag_247:\n        /* \"#utility.yul\":22013:22016   */\n      0x00\n        /* \"#utility.yul\":22034:22101   */\n      tag_469\n        /* \"#utility.yul\":22098:22100   */\n      0x1c\n        /* \"#utility.yul\":22093:22096   */\n      dup4\n        /* \"#utility.yul\":22034:22101   */\n      tag_224\n      jump\t// in\n    tag_469:\n        /* \"#utility.yul\":22027:22101   */\n      swap2\n      pop\n        /* \"#utility.yul\":22110:22203   */\n      tag_470\n        /* \"#utility.yul\":22199:22202   */\n      dup3\n        /* \"#utility.yul\":22110:22203   */\n      tag_246\n      jump\t// in\n    tag_470:\n        /* \"#utility.yul\":22228:22230   */\n      0x20\n        /* \"#utility.yul\":22223:22226   */\n      dup3\n        /* \"#utility.yul\":22219:22231   */\n      add\n        /* \"#utility.yul\":22212:22231   */\n      swap1\n      pop\n        /* \"#utility.yul\":21871:22237   */\n      swap2\n      swap1\n      pop\n      jump\t// out\n        /* \"#utility.yul\":22243:22662   */\n    tag_151:\n        /* \"#utility.yul\":22409:22413   */\n      0x00\n        /* \"#utility.yul\":22447:22449   */\n      0x20\n        /* \"#utility.yul\":22436:22445   */\n      dup3\n        /* \"#utility.yul\":22432:22450   */\n      add\n        /* \"#utility.yul\":22424:22450   */\n      swap1\n      pop\n        /* \"#utility.yul\":22496:22505   */\n      dup2\n        /* \"#utility.yul\":22490:22494   */\n      dup2\n        /* \"#utility.yul\":22486:22506   */\n      sub\n        /* \"#utility.yul\":22482:22483   */\n      0x00\n        /* \"#utility.yul\":22471:22480   */\n      dup4\n        /* \"#utility.yul\":22467:22484   */\n      add\n        /* \"#utility.yul\":22460:22507   */\n      mstore\n        /* \"#utility.yul\":22524:22655   */\n      tag_472\n        /* \"#utility.yul\":22650:22654   */\n      dup2\n        /* \"#utility.yul\":22524:22655   */\n      tag_247\n      jump\t// in\n    tag_472:\n        /* \"#utility.yul\":22516:22655   */\n      swap1\n      pop\n        /* \"#utility.yul\":22243:22662   */\n      swap2\n      swap1\n      pop\n      jump\t// out\n        /* \"#utility.yul\":22668:22849   */\n    tag_248:\n        /* \"#utility.yul\":22808:22841   */\n      0x486169206769612720636f6d707261746f2071756573746f2071756164726f00\n        /* \"#utility.yul\":22804:22805   */\n      0x00\n        /* \"#utility.yul\":22796:22802   */\n      dup3\n        /* \"#utility.yul\":22792:22806   */\n      add\n        /* \"#utility.yul\":22785:22842   */\n      mstore\n        /* \"#utility.yul\":22668:22849   */\n      pop\n      jump\t// out\n        /* \"#utility.yul\":22855:23221   */\n    tag_249:\n        /* \"#utility.yul\":22997:23000   */\n      0x00\n        /* \"#utility.yul\":23018:23085   */\n      tag_475\n        /* \"#utility.yul\":23082:23084   */\n      0x1f\n        /* \"#utility.yul\":23077:23080   */\n      dup4\n        /* \"#utility.yul\":23018:23085   */\n      tag_224\n      jump\t// in\n    tag_475:\n        /* \"#utility.yul\":23011:23085   */\n      swap2\n      pop\n        /* \"#utility.yul\":23094:23187   */\n      tag_476\n        /* \"#utility.yul\":23183:23186   */\n      dup3\n        /* \"#utility.yul\":23094:23187   */\n      tag_248\n      jump\t// in\n    tag_476:\n        /* \"#utility.yul\":23212:23214   */\n      0x20\n        /* \"#utility.yul\":23207:23210   */\n      dup3\n        /* \"#utility.yul\":23203:23215   */\n      add\n        /* \"#utility.yul\":23196:23215   */\n      swap1\n      pop\n        /* \"#utility.yul\":22855:23221   */\n      swap2\n      swap1\n      pop\n      jump\t// out\n        /* \"#utility.yul\":23227:23646   */\n    tag_156:\n        /* \"#utility.yul\":23393:23397   */\n      0x00\n        /* \"#utility.yul\":23431:23433   */\n      0x20\n        /* \"#utility.yul\":23420:23429   */\n      dup3\n        /* \"#utility.yul\":23416:23434   */\n      add\n        /* \"#utility.yul\":23408:23434   */\n      swap1\n      pop\n        /* \"#utility.yul\":23480:23489   */\n      dup2\n        /* \"#utility.yul\":23474:23478   */\n      dup2\n        /* \"#utility.yul\":23470:23490   */\n      sub\n        /* \"#utility.yul\":23466:23467   */\n      0x00\n        /* \"#utility.yul\":23455:23464   */\n      dup4\n        /* \"#utility.yul\":23451:23468   */\n      add\n        /* \"#utility.yul\":23444:23491   */\n      mstore\n        /* \"#utility.yul\":23508:23639   */\n      tag_478\n        /* \"#utility.yul\":23634:23638   */\n      dup2\n        /* \"#utility.yul\":23508:23639   */\n      tag_249\n      jump\t// in\n    tag_478:\n        /* \"#utility.yul\":23500:23639   */\n      swap1\n      pop\n        /* \"#utility.yul\":23227:23646   */\n      swap2\n      swap1\n      pop\n      jump\t// out\n\n    auxdata: 0xa26469706673582212202e7407cf6e0329627668cb25d2ce3117f979046e52250102db7339a9ede0f20064736f6c63430008160033\n}\n",
				"bytecode": {
					"linkReferences": {},
					"object": "608060405234801561000f575f80fd5b505f8081905550611c05806100235f395ff3fe608060405260043610610085575f3560e01c8063305b6d8c11610058578063305b6d8c146101555780636e65db3e1461017d578063a8eca8b2146101be578063c7b92d70146101da578063f71426941461021b57610085565b806303454b46146100895780630d20f524146100b357806310b46615146100dd57806315ec881514610119575b5f80fd5b348015610094575f80fd5b5061009d610257565b6040516100aa9190611019565b60405180910390f35b3480156100be575f80fd5b506100c761025c565b6040516100d49190611234565b60405180910390f35b3480156100e8575f80fd5b5061010360048036038101906100fe91906112bf565b6104ed565b6040516101109190611234565b60405180910390f35b348015610124575f80fd5b5061013f600480360381019061013a91906112bf565b610828565b60405161014c9190611392565b60405180910390f35b348015610160575f80fd5b5061017b60048036038101906101769190611508565b6108c0565b005b348015610188575f80fd5b506101a3600480360381019061019e91906115d3565b6109e9565b6040516101b596959493929190611655565b60405180910390f35b6101d860048036038101906101d391906115d3565b610bbf565b005b3480156101e5575f80fd5b5061020060048036038101906101fb91906115d3565b610d16565b60405161021296959493929190611655565b60405180910390f35b348015610226575f80fd5b50610241600480360381019061023c91906116c9565b610f0c565b60405161024e9190611019565b60405180910390f35b5f5481565b60605f805467ffffffffffffffff81111561027a576102796113e4565b5b6040519080825280602002602001820160405280156102b357816020015b6102a0610fcc565b8152602001906001900390816102985790505b5090505f5b5f548110156104e55760015f8281526020019081526020015f206040518060c00160405290815f82015481526020016001820180546102f690611734565b80601f016020809104026020016040519081016040528092919081815260200182805461032290611734565b801561036d5780601f106103445761010080835404028352916020019161036d565b820191905f5260205f20905b81548152906001019060200180831161035057829003601f168201915b5050505050815260200160028201805461038690611734565b80601f01602080910402602001604051908101604052809291908181526020018280546103b290611734565b80156103fd5780601f106103d4576101008083540402835291602001916103fd565b820191905f5260205f20905b8154815290600101906020018083116103e057829003601f168201915b5050505050815260200160038201805461041690611734565b80601f016020809104026020016040519081016040528092919081815260200182805461044290611734565b801561048d5780601f106104645761010080835404028352916020019161048d565b820191905f5260205f20905b81548152906001019060200180831161047057829003601f168201915b5050505050815260200160048201548152602001600582015f9054906101000a900460ff1615151515815250508282815181106104cd576104cc611764565b5b602002602001018190525080806001019150506102b8565b508091505090565b60605f60025f8473ffffffffffffffffffffffffffffffffffffffff1673ffffffffffffffffffffffffffffffffffffffff1681526020019081526020015f2080548060200260200160405190810160405280929190818152602001828054801561057557602002820191905f5260205f20905b815481526020019060010190808311610561575b505050505090505f815167ffffffffffffffff811115610598576105976113e4565b5b6040519080825280602002602001820160405280156105d157816020015b6105be610fcc565b8152602001906001900390816105b65790505b5090505f5b825181101561081d5760015f8483815181106105f5576105f4611764565b5b602002602001015181526020019081526020015f206040518060c00160405290815f820154815260200160018201805461062e90611734565b80601f016020809104026020016040519081016040528092919081815260200182805461065a90611734565b80156106a55780601f1061067c576101008083540402835291602001916106a5565b820191905f5260205f20905b81548152906001019060200180831161068857829003601f168201915b505050505081526020016002820180546106be90611734565b80601f01602080910402602001604051908101604052809291908181526020018280546106ea90611734565b80156107355780601f1061070c57610100808354040283529160200191610735565b820191905f5260205f20905b81548152906001019060200180831161071857829003601f168201915b5050505050815260200160038201805461074e90611734565b80601f016020809104026020016040519081016040528092919081815260200182805461077a90611734565b80156107c55780601f1061079c576101008083540402835291602001916107c5565b820191905f5260205f20905b8154815290600101906020018083116107a857829003601f168201915b5050505050815260200160048201548152602001600582015f9054906101000a900460ff16151515158152505082828151811061080557610804611764565b5b602002602001018190525080806001019150506105d6565b508092505050919050565b60605f60025f8473ffffffffffffffffffffffffffffffffffffffff1673ffffffffffffffffffffffffffffffffffffffff1681526020019081526020015f208054806020026020016040519081016040528092919081815260200182805480156108b057602002820191905f5260205f20905b81548152602001906001019080831161089c575b5050505050905080915050919050565b5f60015f8781526020019081526020015f205f015414610915576040517f08c379a000000000000000000000000000000000000000000000000000000000815260040161090c90611801565b60405180910390fd5b6040518060c001604052808681526020018581526020018481526020018381526020018281526020016001151581525060015f8781526020019081526020015f205f820151815f0155602082015181600101908161097391906119bc565b50604082015181600201908161098991906119bc565b50606082015181600301908161099f91906119bc565b506080820151816004015560a0820151816005015f6101000a81548160ff0219169083151502179055509050505f808154809291906109dd90611ab8565b91905055505050505050565b6001602052805f5260405f205f91509050805f015490806001018054610a0e90611734565b80601f0160208091040260200160405190810160405280929190818152602001828054610a3a90611734565b8015610a855780601f10610a5c57610100808354040283529160200191610a85565b820191905f5260205f20905b815481529060010190602001808311610a6857829003601f168201915b505050505090806002018054610a9a90611734565b80601f0160208091040260200160405190810160405280929190818152602001828054610ac690611734565b8015610b115780601f10610ae857610100808354040283529160200191610b11565b820191905f5260205f20905b815481529060010190602001808311610af457829003601f168201915b505050505090806003018054610b2690611734565b80601f0160208091040260200160405190810160405280929190818152602001828054610b5290611734565b8015610b9d5780601f10610b7457610100808354040283529160200191610b9d565b820191905f5260205f20905b815481529060010190602001808311610b8057829003601f168201915b505050505090806004015490806005015f9054906101000a900460ff16905086565b5f60015f8381526020019081526020015f209050806005015f9054906101000a900460ff16610c23576040517f08c379a0000000000000000000000000000000000000000000000000000000008152600401610c1a90611b49565b60405180910390fd5b610c2d3383610f37565b15610c6d576040517f08c379a0000000000000000000000000000000000000000000000000000000008152600401610c6490611bb1565b60405180910390fd5b60025f3373ffffffffffffffffffffffffffffffffffffffff1673ffffffffffffffffffffffffffffffffffffffff1681526020019081526020015f2082908060018154018082558091505060019003905f5260205f20015f9091909190915055813373ffffffffffffffffffffffffffffffffffffffff167f1219234621cfbda08eed13673c6e71cbf4b399ec00b0cdc44d8366e22d06670060405160405180910390a35050565b5f60608060605f805f60015f8981526020019081526020015f209050805f01548160010182600201836003018460040154856005015f9054906101000a900460ff16848054610d6490611734565b80601f0160208091040260200160405190810160405280929190818152602001828054610d9090611734565b8015610ddb5780601f10610db257610100808354040283529160200191610ddb565b820191905f5260205f20905b815481529060010190602001808311610dbe57829003601f168201915b50505050509450838054610dee90611734565b80601f0160208091040260200160405190810160405280929190818152602001828054610e1a90611734565b8015610e655780601f10610e3c57610100808354040283529160200191610e65565b820191905f5260205f20905b815481529060010190602001808311610e4857829003601f168201915b50505050509350828054610e7890611734565b80601f0160208091040260200160405190810160405280929190818152602001828054610ea490611734565b8015610eef5780601f10610ec657610100808354040283529160200191610eef565b820191905f5260205f20905b815481529060010190602001808311610ed257829003601f168201915b505050505092509650965096509650965096505091939550919395565b6002602052815f5260405f208181548110610f25575f80fd5b905f5260205f20015f91509150505481565b5f8060025f8573ffffffffffffffffffffffffffffffffffffffff1673ffffffffffffffffffffffffffffffffffffffff1681526020019081526020015f2090505f5b8180549050811015610fc05783828281548110610f9a57610f99611764565b5b905f5260205f20015403610fb357600192505050610fc6565b8080600101915050610f7a565b505f9150505b92915050565b6040518060c001604052805f81526020016060815260200160608152602001606081526020015f81526020015f151581525090565b5f819050919050565b61101381611001565b82525050565b5f60208201905061102c5f83018461100a565b92915050565b5f81519050919050565b5f82825260208201905092915050565b5f819050602082019050919050565b61106481611001565b82525050565b5f81519050919050565b5f82825260208201905092915050565b5f5b838110156110a1578082015181840152602081019050611086565b5f8484015250505050565b5f601f19601f8301169050919050565b5f6110c68261106a565b6110d08185611074565b93506110e0818560208601611084565b6110e9816110ac565b840191505092915050565b5f8115159050919050565b611108816110f4565b82525050565b5f60c083015f8301516111235f86018261105b565b506020830151848203602086015261113b82826110bc565b9150506040830151848203604086015261115582826110bc565b9150506060830151848203606086015261116f82826110bc565b9150506080830151611184608086018261105b565b5060a083015161119760a08601826110ff565b508091505092915050565b5f6111ad838361110e565b905092915050565b5f602082019050919050565b5f6111cb82611032565b6111d5818561103c565b9350836020820285016111e78561104c565b805f5b85811015611222578484038952815161120385826111a2565b945061120e836111b5565b925060208a019950506001810190506111ea565b50829750879550505050505092915050565b5f6020820190508181035f83015261124c81846111c1565b905092915050565b5f604051905090565b5f80fd5b5f80fd5b5f73ffffffffffffffffffffffffffffffffffffffff82169050919050565b5f61128e82611265565b9050919050565b61129e81611284565b81146112a8575f80fd5b50565b5f813590506112b981611295565b92915050565b5f602082840312156112d4576112d361125d565b5b5f6112e1848285016112ab565b91505092915050565b5f81519050919050565b5f82825260208201905092915050565b5f819050602082019050919050565b5f61131e838361105b565b60208301905092915050565b5f602082019050919050565b5f611340826112ea565b61134a81856112f4565b935061135583611304565b805f5b8381101561138557815161136c8882611313565b97506113778361132a565b925050600181019050611358565b5085935050505092915050565b5f6020820190508181035f8301526113aa8184611336565b905092915050565b6113bb81611001565b81146113c5575f80fd5b50565b5f813590506113d6816113b2565b92915050565b5f80fd5b5f80fd5b7f4e487b71000000000000000000000000000000000000000000000000000000005f52604160045260245ffd5b61141a826110ac565b810181811067ffffffffffffffff82111715611439576114386113e4565b5b80604052505050565b5f61144b611254565b90506114578282611411565b919050565b5f67ffffffffffffffff821115611476576114756113e4565b5b61147f826110ac565b9050602081019050919050565b828183375f83830152505050565b5f6114ac6114a78461145c565b611442565b9050828152602081018484840111156114c8576114c76113e0565b5b6114d384828561148c565b509392505050565b5f82601f8301126114ef576114ee6113dc565b5b81356114ff84826020860161149a565b91505092915050565b5f805f805f60a086880312156115215761152061125d565b5b5f61152e888289016113c8565b955050602086013567ffffffffffffffff81111561154f5761154e611261565b5b61155b888289016114db565b945050604086013567ffffffffffffffff81111561157c5761157b611261565b5b611588888289016114db565b935050606086013567ffffffffffffffff8111156115a9576115a8611261565b5b6115b5888289016114db565b92505060806115c6888289016113c8565b9150509295509295909350565b5f602082840312156115e8576115e761125d565b5b5f6115f5848285016113c8565b91505092915050565b5f82825260208201905092915050565b5f6116188261106a565b61162281856115fe565b9350611632818560208601611084565b61163b816110ac565b840191505092915050565b61164f816110f4565b82525050565b5f60c0820190506116685f83018961100a565b818103602083015261167a818861160e565b9050818103604083015261168e818761160e565b905081810360608301526116a2818661160e565b90506116b1608083018561100a565b6116be60a0830184611646565b979650505050505050565b5f80604083850312156116df576116de61125d565b5b5f6116ec858286016112ab565b92505060206116fd858286016113c8565b9150509250929050565b7f4e487b71000000000000000000000000000000000000000000000000000000005f52602260045260245ffd5b5f600282049050600182168061174b57607f821691505b60208210810361175e5761175d611707565b5b50919050565b7f4e487b71000000000000000000000000000000000000000000000000000000005f52603260045260245ffd5b7f51756164726f20636f6e206c6f2073746573736f2049442067696127206573695f8201527f7374656e74650000000000000000000000000000000000000000000000000000602082015250565b5f6117eb6026836115fe565b91506117f682611791565b604082019050919050565b5f6020820190508181035f830152611818816117df565b9050919050565b5f819050815f5260205f209050919050565b5f6020601f8301049050919050565b5f82821b905092915050565b5f6008830261187b7fffffffffffffffffffffffffffffffffffffffffffffffffffffffffffffffff82611840565b6118858683611840565b95508019841693508086168417925050509392505050565b5f819050919050565b5f6118c06118bb6118b684611001565b61189d565b611001565b9050919050565b5f819050919050565b6118d9836118a6565b6118ed6118e5826118c7565b84845461184c565b825550505050565b5f90565b6119016118f5565b61190c8184846118d0565b505050565b5b8181101561192f576119245f826118f9565b600181019050611912565b5050565b601f821115611974576119458161181f565b61194e84611831565b8101602085101561195d578190505b61197161196985611831565b830182611911565b50505b505050565b5f82821c905092915050565b5f6119945f1984600802611979565b1980831691505092915050565b5f6119ac8383611985565b9150826002028217905092915050565b6119c58261106a565b67ffffffffffffffff8111156119de576119dd6113e4565b5b6119e88254611734565b6119f3828285611933565b5f60209050601f831160018114611a24575f8415611a12578287015190505b611a1c85826119a1565b865550611a83565b601f198416611a328661181f565b5f5b82811015611a5957848901518255600182019150602085019450602081019050611a34565b86831015611a765784890151611a72601f891682611985565b8355505b6001600288020188555050505b505050505050565b7f4e487b71000000000000000000000000000000000000000000000000000000005f52601160045260245ffd5b5f611ac282611001565b91507fffffffffffffffffffffffffffffffffffffffffffffffffffffffffffffffff8203611af457611af3611a8b565b5b600182019050919050565b7f496c2071756164726f206e6f6e20652720646973706f6e6962696c65000000005f82015250565b5f611b33601c836115fe565b9150611b3e82611aff565b602082019050919050565b5f6020820190508181035f830152611b6081611b27565b9050919050565b7f486169206769612720636f6d707261746f2071756573746f2071756164726f005f82015250565b5f611b9b601f836115fe565b9150611ba682611b67565b602082019050919050565b5f6020820190508181035f830152611bc881611b8f565b905091905056fea26469706673582212202e7407cf6e0329627668cb25d2ce3117f979046e52250102db7339a9ede0f20064736f6c63430008160033",
					"opcodes": "PUSH1 0x80 PUSH1 0x40 MSTORE CALLVALUE DUP1 ISZERO PUSH2 0xF JUMPI PUSH0 DUP1 REVERT JUMPDEST POP PUSH0 DUP1 DUP2 SWAP1 SSTORE POP PUSH2 0x1C05 DUP1 PUSH2 0x23 PUSH0 CODECOPY PUSH0 RETURN INVALID PUSH1 0x80 PUSH1 0x40 MSTORE PUSH1 0x4 CALLDATASIZE LT PUSH2 0x85 JUMPI PUSH0 CALLDATALOAD PUSH1 0xE0 SHR DUP1 PUSH4 0x305B6D8C GT PUSH2 0x58 JUMPI DUP1 PUSH4 0x305B6D8C EQ PUSH2 0x155 JUMPI DUP1 PUSH4 0x6E65DB3E EQ PUSH2 0x17D JUMPI DUP1 PUSH4 0xA8ECA8B2 EQ PUSH2 0x1BE JUMPI DUP1 PUSH4 0xC7B92D70 EQ PUSH2 0x1DA JUMPI DUP1 PUSH4 0xF7142694 EQ PUSH2 0x21B JUMPI PUSH2 0x85 JUMP JUMPDEST DUP1 PUSH4 0x3454B46 EQ PUSH2 0x89 JUMPI DUP1 PUSH4 0xD20F524 EQ PUSH2 0xB3 JUMPI DUP1 PUSH4 0x10B46615 EQ PUSH2 0xDD JUMPI DUP1 PUSH4 0x15EC8815 EQ PUSH2 0x119 JUMPI JUMPDEST PUSH0 DUP1 REVERT JUMPDEST CALLVALUE DUP1 ISZERO PUSH2 0x94 JUMPI PUSH0 DUP1 REVERT JUMPDEST POP PUSH2 0x9D PUSH2 0x257 JUMP JUMPDEST PUSH1 0x40 MLOAD PUSH2 0xAA SWAP2 SWAP1 PUSH2 0x1019 JUMP JUMPDEST PUSH1 0x40 MLOAD DUP1 SWAP2 SUB SWAP1 RETURN JUMPDEST CALLVALUE DUP1 ISZERO PUSH2 0xBE JUMPI PUSH0 DUP1 REVERT JUMPDEST POP PUSH2 0xC7 PUSH2 0x25C JUMP JUMPDEST PUSH1 0x40 MLOAD PUSH2 0xD4 SWAP2 SWAP1 PUSH2 0x1234 JUMP JUMPDEST PUSH1 0x40 MLOAD DUP1 SWAP2 SUB SWAP1 RETURN JUMPDEST CALLVALUE DUP1 ISZERO PUSH2 0xE8 JUMPI PUSH0 DUP1 REVERT JUMPDEST POP PUSH2 0x103 PUSH1 0x4 DUP1 CALLDATASIZE SUB DUP2 ADD SWAP1 PUSH2 0xFE SWAP2 SWAP1 PUSH2 0x12BF JUMP JUMPDEST PUSH2 0x4ED JUMP JUMPDEST PUSH1 0x40 MLOAD PUSH2 0x110 SWAP2 SWAP1 PUSH2 0x1234 JUMP JUMPDEST PUSH1 0x40 MLOAD DUP1 SWAP2 SUB SWAP1 RETURN JUMPDEST CALLVALUE DUP1 ISZERO PUSH2 0x124 JUMPI PUSH0 DUP1 REVERT JUMPDEST POP PUSH2 0x13F PUSH1 0x4 DUP1 CALLDATASIZE SUB DUP2 ADD SWAP1 PUSH2 0x13A SWAP2 SWAP1 PUSH2 0x12BF JUMP JUMPDEST PUSH2 0x828 JUMP JUMPDEST PUSH1 0x40 MLOAD PUSH2 0x14C SWAP2 SWAP1 PUSH2 0x1392 JUMP JUMPDEST PUSH1 0x40 MLOAD DUP1 SWAP2 SUB SWAP1 RETURN JUMPDEST CALLVALUE DUP1 ISZERO PUSH2 0x160 JUMPI PUSH0 DUP1 REVERT JUMPDEST POP PUSH2 0x17B PUSH1 0x4 DUP1 CALLDATASIZE SUB DUP2 ADD SWAP1 PUSH2 0x176 SWAP2 SWAP1 PUSH2 0x1508 JUMP JUMPDEST PUSH2 0x8C0 JUMP JUMPDEST STOP JUMPDEST CALLVALUE DUP1 ISZERO PUSH2 0x188 JUMPI PUSH0 DUP1 REVERT JUMPDEST POP PUSH2 0x1A3 PUSH1 0x4 DUP1 CALLDATASIZE SUB DUP2 ADD SWAP1 PUSH2 0x19E SWAP2 SWAP1 PUSH2 0x15D3 JUMP JUMPDEST PUSH2 0x9E9 JUMP JUMPDEST PUSH1 0x40 MLOAD PUSH2 0x1B5 SWAP7 SWAP6 SWAP5 SWAP4 SWAP3 SWAP2 SWAP1 PUSH2 0x1655 JUMP JUMPDEST PUSH1 0x40 MLOAD DUP1 SWAP2 SUB SWAP1 RETURN JUMPDEST PUSH2 0x1D8 PUSH1 0x4 DUP1 CALLDATASIZE SUB DUP2 ADD SWAP1 PUSH2 0x1D3 SWAP2 SWAP1 PUSH2 0x15D3 JUMP JUMPDEST PUSH2 0xBBF JUMP JUMPDEST STOP JUMPDEST CALLVALUE DUP1 ISZERO PUSH2 0x1E5 JUMPI PUSH0 DUP1 REVERT JUMPDEST POP PUSH2 0x200 PUSH1 0x4 DUP1 CALLDATASIZE SUB DUP2 ADD SWAP1 PUSH2 0x1FB SWAP2 SWAP1 PUSH2 0x15D3 JUMP JUMPDEST PUSH2 0xD16 JUMP JUMPDEST PUSH1 0x40 MLOAD PUSH2 0x212 SWAP7 SWAP6 SWAP5 SWAP4 SWAP3 SWAP2 SWAP1 PUSH2 0x1655 JUMP JUMPDEST PUSH1 0x40 MLOAD DUP1 SWAP2 SUB SWAP1 RETURN JUMPDEST CALLVALUE DUP1 ISZERO PUSH2 0x226 JUMPI PUSH0 DUP1 REVERT JUMPDEST POP PUSH2 0x241 PUSH1 0x4 DUP1 CALLDATASIZE SUB DUP2 ADD SWAP1 PUSH2 0x23C SWAP2 SWAP1 PUSH2 0x16C9 JUMP JUMPDEST PUSH2 0xF0C JUMP JUMPDEST PUSH1 0x40 MLOAD PUSH2 0x24E SWAP2 SWAP1 PUSH2 0x1019 JUMP JUMPDEST PUSH1 0x40 MLOAD DUP1 SWAP2 SUB SWAP1 RETURN JUMPDEST PUSH0 SLOAD DUP2 JUMP JUMPDEST PUSH1 0x60 PUSH0 DUP1 SLOAD PUSH8 0xFFFFFFFFFFFFFFFF DUP2 GT ISZERO PUSH2 0x27A JUMPI PUSH2 0x279 PUSH2 0x13E4 JUMP JUMPDEST JUMPDEST PUSH1 0x40 MLOAD SWAP1 DUP1 DUP3 MSTORE DUP1 PUSH1 0x20 MUL PUSH1 0x20 ADD DUP3 ADD PUSH1 0x40 MSTORE DUP1 ISZERO PUSH2 0x2B3 JUMPI DUP2 PUSH1 0x20 ADD JUMPDEST PUSH2 0x2A0 PUSH2 0xFCC JUMP JUMPDEST DUP2 MSTORE PUSH1 0x20 ADD SWAP1 PUSH1 0x1 SWAP1 SUB SWAP1 DUP2 PUSH2 0x298 JUMPI SWAP1 POP JUMPDEST POP SWAP1 POP PUSH0 JUMPDEST PUSH0 SLOAD DUP2 LT ISZERO PUSH2 0x4E5 JUMPI PUSH1 0x1 PUSH0 DUP3 DUP2 MSTORE PUSH1 0x20 ADD SWAP1 DUP2 MSTORE PUSH1 0x20 ADD PUSH0 KECCAK256 PUSH1 0x40 MLOAD DUP1 PUSH1 0xC0 ADD PUSH1 0x40 MSTORE SWAP1 DUP2 PUSH0 DUP3 ADD SLOAD DUP2 MSTORE PUSH1 0x20 ADD PUSH1 0x1 DUP3 ADD DUP1 SLOAD PUSH2 0x2F6 SWAP1 PUSH2 0x1734 JUMP JUMPDEST DUP1 PUSH1 0x1F ADD PUSH1 0x20 DUP1 SWAP2 DIV MUL PUSH1 0x20 ADD PUSH1 0x40 MLOAD SWAP1 DUP2 ADD PUSH1 0x40 MSTORE DUP1 SWAP3 SWAP2 SWAP1 DUP2 DUP2 MSTORE PUSH1 0x20 ADD DUP3 DUP1 SLOAD PUSH2 0x322 SWAP1 PUSH2 0x1734 JUMP JUMPDEST DUP1 ISZERO PUSH2 0x36D JUMPI DUP1 PUSH1 0x1F LT PUSH2 0x344 JUMPI PUSH2 0x100 DUP1 DUP4 SLOAD DIV MUL DUP4 MSTORE SWAP2 PUSH1 0x20 ADD SWAP2 PUSH2 0x36D JUMP JUMPDEST DUP3 ADD SWAP2 SWAP1 PUSH0 MSTORE PUSH1 0x20 PUSH0 KECCAK256 SWAP1 JUMPDEST DUP2 SLOAD DUP2 MSTORE SWAP1 PUSH1 0x1 ADD SWAP1 PUSH1 0x20 ADD DUP1 DUP4 GT PUSH2 0x350 JUMPI DUP3 SWAP1 SUB PUSH1 0x1F AND DUP3 ADD SWAP2 JUMPDEST POP POP POP POP POP DUP2 MSTORE PUSH1 0x20 ADD PUSH1 0x2 DUP3 ADD DUP1 SLOAD PUSH2 0x386 SWAP1 PUSH2 0x1734 JUMP JUMPDEST DUP1 PUSH1 0x1F ADD PUSH1 0x20 DUP1 SWAP2 DIV MUL PUSH1 0x20 ADD PUSH1 0x40 MLOAD SWAP1 DUP2 ADD PUSH1 0x40 MSTORE DUP1 SWAP3 SWAP2 SWAP1 DUP2 DUP2 MSTORE PUSH1 0x20 ADD DUP3 DUP1 SLOAD PUSH2 0x3B2 SWAP1 PUSH2 0x1734 JUMP JUMPDEST DUP1 ISZERO PUSH2 0x3FD JUMPI DUP1 PUSH1 0x1F LT PUSH2 0x3D4 JUMPI PUSH2 0x100 DUP1 DUP4 SLOAD DIV MUL DUP4 MSTORE SWAP2 PUSH1 0x20 ADD SWAP2 PUSH2 0x3FD JUMP JUMPDEST DUP3 ADD SWAP2 SWAP1 PUSH0 MSTORE PUSH1 0x20 PUSH0 KECCAK256 SWAP1 JUMPDEST DUP2 SLOAD DUP2 MSTORE SWAP1 PUSH1 0x1 ADD SWAP1 PUSH1 0x20 ADD DUP1 DUP4 GT PUSH2 0x3E0 JUMPI DUP3 SWAP1 SUB PUSH1 0x1F AND DUP3 ADD SWAP2 JUMPDEST POP POP POP POP POP DUP2 MSTORE PUSH1 0x20 ADD PUSH1 0x3 DUP3 ADD DUP1 SLOAD PUSH2 0x416 SWAP1 PUSH2 0x1734 JUMP JUMPDEST DUP1 PUSH1 0x1F ADD PUSH1 0x20 DUP1 SWAP2 DIV MUL PUSH1 0x20 ADD PUSH1 0x40 MLOAD SWAP1 DUP2 ADD PUSH1 0x40 MSTORE DUP1 SWAP3 SWAP2 SWAP1 DUP2 DUP2 MSTORE PUSH1 0x20 ADD DUP3 DUP1 SLOAD PUSH2 0x442 SWAP1 PUSH2 0x1734 JUMP JUMPDEST DUP1 ISZERO PUSH2 0x48D JUMPI DUP1 PUSH1 0x1F LT PUSH2 0x464 JUMPI PUSH2 0x100 DUP1 DUP4 SLOAD DIV MUL DUP4 MSTORE SWAP2 PUSH1 0x20 ADD SWAP2 PUSH2 0x48D JUMP JUMPDEST DUP3 ADD SWAP2 SWAP1 PUSH0 MSTORE PUSH1 0x20 PUSH0 KECCAK256 SWAP1 JUMPDEST DUP2 SLOAD DUP2 MSTORE SWAP1 PUSH1 0x1 ADD SWAP1 PUSH1 0x20 ADD DUP1 DUP4 GT PUSH2 0x470 JUMPI DUP3 SWAP1 SUB PUSH1 0x1F AND DUP3 ADD SWAP2 JUMPDEST POP POP POP POP POP DUP2 MSTORE PUSH1 0x20 ADD PUSH1 0x4 DUP3 ADD SLOAD DUP2 MSTORE PUSH1 0x20 ADD PUSH1 0x5 DUP3 ADD PUSH0 SWAP1 SLOAD SWAP1 PUSH2 0x100 EXP SWAP1 DIV PUSH1 0xFF AND ISZERO ISZERO ISZERO ISZERO DUP2 MSTORE POP POP DUP3 DUP3 DUP2 MLOAD DUP2 LT PUSH2 0x4CD JUMPI PUSH2 0x4CC PUSH2 0x1764 JUMP JUMPDEST JUMPDEST PUSH1 0x20 MUL PUSH1 0x20 ADD ADD DUP2 SWAP1 MSTORE POP DUP1 DUP1 PUSH1 0x1 ADD SWAP2 POP POP PUSH2 0x2B8 JUMP JUMPDEST POP DUP1 SWAP2 POP POP SWAP1 JUMP JUMPDEST PUSH1 0x60 PUSH0 PUSH1 0x2 PUSH0 DUP5 PUSH20 0xFFFFFFFFFFFFFFFFFFFFFFFFFFFFFFFFFFFFFFFF AND PUSH20 0xFFFFFFFFFFFFFFFFFFFFFFFFFFFFFFFFFFFFFFFF AND DUP2 MSTORE PUSH1 0x20 ADD SWAP1 DUP2 MSTORE PUSH1 0x20 ADD PUSH0 KECCAK256 DUP1 SLOAD DUP1 PUSH1 0x20 MUL PUSH1 0x20 ADD PUSH1 0x40 MLOAD SWAP1 DUP2 ADD PUSH1 0x40 MSTORE DUP1 SWAP3 SWAP2 SWAP1 DUP2 DUP2 MSTORE PUSH1 0x20 ADD DUP3 DUP1 SLOAD DUP1 ISZERO PUSH2 0x575 JUMPI PUSH1 0x20 MUL DUP3 ADD SWAP2 SWAP1 PUSH0 MSTORE PUSH1 0x20 PUSH0 KECCAK256 SWAP1 JUMPDEST DUP2 SLOAD DUP2 MSTORE PUSH1 0x20 ADD SWAP1 PUSH1 0x1 ADD SWAP1 DUP1 DUP4 GT PUSH2 0x561 JUMPI JUMPDEST POP POP POP POP POP SWAP1 POP PUSH0 DUP2 MLOAD PUSH8 0xFFFFFFFFFFFFFFFF DUP2 GT ISZERO PUSH2 0x598 JUMPI PUSH2 0x597 PUSH2 0x13E4 JUMP JUMPDEST JUMPDEST PUSH1 0x40 MLOAD SWAP1 DUP1 DUP3 MSTORE DUP1 PUSH1 0x20 MUL PUSH1 0x20 ADD DUP3 ADD PUSH1 0x40 MSTORE DUP1 ISZERO PUSH2 0x5D1 JUMPI DUP2 PUSH1 0x20 ADD JUMPDEST PUSH2 0x5BE PUSH2 0xFCC JUMP JUMPDEST DUP2 MSTORE PUSH1 0x20 ADD SWAP1 PUSH1 0x1 SWAP1 SUB SWAP1 DUP2 PUSH2 0x5B6 JUMPI SWAP1 POP JUMPDEST POP SWAP1 POP PUSH0 JUMPDEST DUP3 MLOAD DUP2 LT ISZERO PUSH2 0x81D JUMPI PUSH1 0x1 PUSH0 DUP5 DUP4 DUP2 MLOAD DUP2 LT PUSH2 0x5F5 JUMPI PUSH2 0x5F4 PUSH2 0x1764 JUMP JUMPDEST JUMPDEST PUSH1 0x20 MUL PUSH1 0x20 ADD ADD MLOAD DUP2 MSTORE PUSH1 0x20 ADD SWAP1 DUP2 MSTORE PUSH1 0x20 ADD PUSH0 KECCAK256 PUSH1 0x40 MLOAD DUP1 PUSH1 0xC0 ADD PUSH1 0x40 MSTORE SWAP1 DUP2 PUSH0 DUP3 ADD SLOAD DUP2 MSTORE PUSH1 0x20 ADD PUSH1 0x1 DUP3 ADD DUP1 SLOAD PUSH2 0x62E SWAP1 PUSH2 0x1734 JUMP JUMPDEST DUP1 PUSH1 0x1F ADD PUSH1 0x20 DUP1 SWAP2 DIV MUL PUSH1 0x20 ADD PUSH1 0x40 MLOAD SWAP1 DUP2 ADD PUSH1 0x40 MSTORE DUP1 SWAP3 SWAP2 SWAP1 DUP2 DUP2 MSTORE PUSH1 0x20 ADD DUP3 DUP1 SLOAD PUSH2 0x65A SWAP1 PUSH2 0x1734 JUMP JUMPDEST DUP1 ISZERO PUSH2 0x6A5 JUMPI DUP1 PUSH1 0x1F LT PUSH2 0x67C JUMPI PUSH2 0x100 DUP1 DUP4 SLOAD DIV MUL DUP4 MSTORE SWAP2 PUSH1 0x20 ADD SWAP2 PUSH2 0x6A5 JUMP JUMPDEST DUP3 ADD SWAP2 SWAP1 PUSH0 MSTORE PUSH1 0x20 PUSH0 KECCAK256 SWAP1 JUMPDEST DUP2 SLOAD DUP2 MSTORE SWAP1 PUSH1 0x1 ADD SWAP1 PUSH1 0x20 ADD DUP1 DUP4 GT PUSH2 0x688 JUMPI DUP3 SWAP1 SUB PUSH1 0x1F AND DUP3 ADD SWAP2 JUMPDEST POP POP POP POP POP DUP2 MSTORE PUSH1 0x20 ADD PUSH1 0x2 DUP3 ADD DUP1 SLOAD PUSH2 0x6BE SWAP1 PUSH2 0x1734 JUMP JUMPDEST DUP1 PUSH1 0x1F ADD PUSH1 0x20 DUP1 SWAP2 DIV MUL PUSH1 0x20 ADD PUSH1 0x40 MLOAD SWAP1 DUP2 ADD PUSH1 0x40 MSTORE DUP1 SWAP3 SWAP2 SWAP1 DUP2 DUP2 MSTORE PUSH1 0x20 ADD DUP3 DUP1 SLOAD PUSH2 0x6EA SWAP1 PUSH2 0x1734 JUMP JUMPDEST DUP1 ISZERO PUSH2 0x735 JUMPI DUP1 PUSH1 0x1F LT PUSH2 0x70C JUMPI PUSH2 0x100 DUP1 DUP4 SLOAD DIV MUL DUP4 MSTORE SWAP2 PUSH1 0x20 ADD SWAP2 PUSH2 0x735 JUMP JUMPDEST DUP3 ADD SWAP2 SWAP1 PUSH0 MSTORE PUSH1 0x20 PUSH0 KECCAK256 SWAP1 JUMPDEST DUP2 SLOAD DUP2 MSTORE SWAP1 PUSH1 0x1 ADD SWAP1 PUSH1 0x20 ADD DUP1 DUP4 GT PUSH2 0x718 JUMPI DUP3 SWAP1 SUB PUSH1 0x1F AND DUP3 ADD SWAP2 JUMPDEST POP POP POP POP POP DUP2 MSTORE PUSH1 0x20 ADD PUSH1 0x3 DUP3 ADD DUP1 SLOAD PUSH2 0x74E SWAP1 PUSH2 0x1734 JUMP JUMPDEST DUP1 PUSH1 0x1F ADD PUSH1 0x20 DUP1 SWAP2 DIV MUL PUSH1 0x20 ADD PUSH1 0x40 MLOAD SWAP1 DUP2 ADD PUSH1 0x40 MSTORE DUP1 SWAP3 SWAP2 SWAP1 DUP2 DUP2 MSTORE PUSH1 0x20 ADD DUP3 DUP1 SLOAD PUSH2 0x77A SWAP1 PUSH2 0x1734 JUMP JUMPDEST DUP1 ISZERO PUSH2 0x7C5 JUMPI DUP1 PUSH1 0x1F LT PUSH2 0x79C JUMPI PUSH2 0x100 DUP1 DUP4 SLOAD DIV MUL DUP4 MSTORE SWAP2 PUSH1 0x20 ADD SWAP2 PUSH2 0x7C5 JUMP JUMPDEST DUP3 ADD SWAP2 SWAP1 PUSH0 MSTORE PUSH1 0x20 PUSH0 KECCAK256 SWAP1 JUMPDEST DUP2 SLOAD DUP2 MSTORE SWAP1 PUSH1 0x1 ADD SWAP1 PUSH1 0x20 ADD DUP1 DUP4 GT PUSH2 0x7A8 JUMPI DUP3 SWAP1 SUB PUSH1 0x1F AND DUP3 ADD SWAP2 JUMPDEST POP POP POP POP POP DUP2 MSTORE PUSH1 0x20 ADD PUSH1 0x4 DUP3 ADD SLOAD DUP2 MSTORE PUSH1 0x20 ADD PUSH1 0x5 DUP3 ADD PUSH0 SWAP1 SLOAD SWAP1 PUSH2 0x100 EXP SWAP1 DIV PUSH1 0xFF AND ISZERO ISZERO ISZERO ISZERO DUP2 MSTORE POP POP DUP3 DUP3 DUP2 MLOAD DUP2 LT PUSH2 0x805 JUMPI PUSH2 0x804 PUSH2 0x1764 JUMP JUMPDEST JUMPDEST PUSH1 0x20 MUL PUSH1 0x20 ADD ADD DUP2 SWAP1 MSTORE POP DUP1 DUP1 PUSH1 0x1 ADD SWAP2 POP POP PUSH2 0x5D6 JUMP JUMPDEST POP DUP1 SWAP3 POP POP POP SWAP2 SWAP1 POP JUMP JUMPDEST PUSH1 0x60 PUSH0 PUSH1 0x2 PUSH0 DUP5 PUSH20 0xFFFFFFFFFFFFFFFFFFFFFFFFFFFFFFFFFFFFFFFF AND PUSH20 0xFFFFFFFFFFFFFFFFFFFFFFFFFFFFFFFFFFFFFFFF AND DUP2 MSTORE PUSH1 0x20 ADD SWAP1 DUP2 MSTORE PUSH1 0x20 ADD PUSH0 KECCAK256 DUP1 SLOAD DUP1 PUSH1 0x20 MUL PUSH1 0x20 ADD PUSH1 0x40 MLOAD SWAP1 DUP2 ADD PUSH1 0x40 MSTORE DUP1 SWAP3 SWAP2 SWAP1 DUP2 DUP2 MSTORE PUSH1 0x20 ADD DUP3 DUP1 SLOAD DUP1 ISZERO PUSH2 0x8B0 JUMPI PUSH1 0x20 MUL DUP3 ADD SWAP2 SWAP1 PUSH0 MSTORE PUSH1 0x20 PUSH0 KECCAK256 SWAP1 JUMPDEST DUP2 SLOAD DUP2 MSTORE PUSH1 0x20 ADD SWAP1 PUSH1 0x1 ADD SWAP1 DUP1 DUP4 GT PUSH2 0x89C JUMPI JUMPDEST POP POP POP POP POP SWAP1 POP DUP1 SWAP2 POP POP SWAP2 SWAP1 POP JUMP JUMPDEST PUSH0 PUSH1 0x1 PUSH0 DUP8 DUP2 MSTORE PUSH1 0x20 ADD SWAP1 DUP2 MSTORE PUSH1 0x20 ADD PUSH0 KECCAK256 PUSH0 ADD SLOAD EQ PUSH2 0x915 JUMPI PUSH1 0x40 MLOAD PUSH32 0x8C379A000000000000000000000000000000000000000000000000000000000 DUP2 MSTORE PUSH1 0x4 ADD PUSH2 0x90C SWAP1 PUSH2 0x1801 JUMP JUMPDEST PUSH1 0x40 MLOAD DUP1 SWAP2 SUB SWAP1 REVERT JUMPDEST PUSH1 0x40 MLOAD DUP1 PUSH1 0xC0 ADD PUSH1 0x40 MSTORE DUP1 DUP7 DUP2 MSTORE PUSH1 0x20 ADD DUP6 DUP2 MSTORE PUSH1 0x20 ADD DUP5 DUP2 MSTORE PUSH1 0x20 ADD DUP4 DUP2 MSTORE PUSH1 0x20 ADD DUP3 DUP2 MSTORE PUSH1 0x20 ADD PUSH1 0x1 ISZERO ISZERO DUP2 MSTORE POP PUSH1 0x1 PUSH0 DUP8 DUP2 MSTORE PUSH1 0x20 ADD SWAP1 DUP2 MSTORE PUSH1 0x20 ADD PUSH0 KECCAK256 PUSH0 DUP3 ADD MLOAD DUP2 PUSH0 ADD SSTORE PUSH1 0x20 DUP3 ADD MLOAD DUP2 PUSH1 0x1 ADD SWAP1 DUP2 PUSH2 0x973 SWAP2 SWAP1 PUSH2 0x19BC JUMP JUMPDEST POP PUSH1 0x40 DUP3 ADD MLOAD DUP2 PUSH1 0x2 ADD SWAP1 DUP2 PUSH2 0x989 SWAP2 SWAP1 PUSH2 0x19BC JUMP JUMPDEST POP PUSH1 0x60 DUP3 ADD MLOAD DUP2 PUSH1 0x3 ADD SWAP1 DUP2 PUSH2 0x99F SWAP2 SWAP1 PUSH2 0x19BC JUMP JUMPDEST POP PUSH1 0x80 DUP3 ADD MLOAD DUP2 PUSH1 0x4 ADD SSTORE PUSH1 0xA0 DUP3 ADD MLOAD DUP2 PUSH1 0x5 ADD PUSH0 PUSH2 0x100 EXP DUP2 SLOAD DUP2 PUSH1 0xFF MUL NOT AND SWAP1 DUP4 ISZERO ISZERO MUL OR SWAP1 SSTORE POP SWAP1 POP POP PUSH0 DUP1 DUP2 SLOAD DUP1 SWAP3 SWAP2 SWAP1 PUSH2 0x9DD SWAP1 PUSH2 0x1AB8 JUMP JUMPDEST SWAP2 SWAP1 POP SSTORE POP POP POP POP POP POP JUMP JUMPDEST PUSH1 0x1 PUSH1 0x20 MSTORE DUP1 PUSH0 MSTORE PUSH1 0x40 PUSH0 KECCAK256 PUSH0 SWAP2 POP SWAP1 POP DUP1 PUSH0 ADD SLOAD SWAP1 DUP1 PUSH1 0x1 ADD DUP1 SLOAD PUSH2 0xA0E SWAP1 PUSH2 0x1734 JUMP JUMPDEST DUP1 PUSH1 0x1F ADD PUSH1 0x20 DUP1 SWAP2 DIV MUL PUSH1 0x20 ADD PUSH1 0x40 MLOAD SWAP1 DUP2 ADD PUSH1 0x40 MSTORE DUP1 SWAP3 SWAP2 SWAP1 DUP2 DUP2 MSTORE PUSH1 0x20 ADD DUP3 DUP1 SLOAD PUSH2 0xA3A SWAP1 PUSH2 0x1734 JUMP JUMPDEST DUP1 ISZERO PUSH2 0xA85 JUMPI DUP1 PUSH1 0x1F LT PUSH2 0xA5C JUMPI PUSH2 0x100 DUP1 DUP4 SLOAD DIV MUL DUP4 MSTORE SWAP2 PUSH1 0x20 ADD SWAP2 PUSH2 0xA85 JUMP JUMPDEST DUP3 ADD SWAP2 SWAP1 PUSH0 MSTORE PUSH1 0x20 PUSH0 KECCAK256 SWAP1 JUMPDEST DUP2 SLOAD DUP2 MSTORE SWAP1 PUSH1 0x1 ADD SWAP1 PUSH1 0x20 ADD DUP1 DUP4 GT PUSH2 0xA68 JUMPI DUP3 SWAP1 SUB PUSH1 0x1F AND DUP3 ADD SWAP2 JUMPDEST POP POP POP POP POP SWAP1 DUP1 PUSH1 0x2 ADD DUP1 SLOAD PUSH2 0xA9A SWAP1 PUSH2 0x1734 JUMP JUMPDEST DUP1 PUSH1 0x1F ADD PUSH1 0x20 DUP1 SWAP2 DIV MUL PUSH1 0x20 ADD PUSH1 0x40 MLOAD SWAP1 DUP2 ADD PUSH1 0x40 MSTORE DUP1 SWAP3 SWAP2 SWAP1 DUP2 DUP2 MSTORE PUSH1 0x20 ADD DUP3 DUP1 SLOAD PUSH2 0xAC6 SWAP1 PUSH2 0x1734 JUMP JUMPDEST DUP1 ISZERO PUSH2 0xB11 JUMPI DUP1 PUSH1 0x1F LT PUSH2 0xAE8 JUMPI PUSH2 0x100 DUP1 DUP4 SLOAD DIV MUL DUP4 MSTORE SWAP2 PUSH1 0x20 ADD SWAP2 PUSH2 0xB11 JUMP JUMPDEST DUP3 ADD SWAP2 SWAP1 PUSH0 MSTORE PUSH1 0x20 PUSH0 KECCAK256 SWAP1 JUMPDEST DUP2 SLOAD DUP2 MSTORE SWAP1 PUSH1 0x1 ADD SWAP1 PUSH1 0x20 ADD DUP1 DUP4 GT PUSH2 0xAF4 JUMPI DUP3 SWAP1 SUB PUSH1 0x1F AND DUP3 ADD SWAP2 JUMPDEST POP POP POP POP POP SWAP1 DUP1 PUSH1 0x3 ADD DUP1 SLOAD PUSH2 0xB26 SWAP1 PUSH2 0x1734 JUMP JUMPDEST DUP1 PUSH1 0x1F ADD PUSH1 0x20 DUP1 SWAP2 DIV MUL PUSH1 0x20 ADD PUSH1 0x40 MLOAD SWAP1 DUP2 ADD PUSH1 0x40 MSTORE DUP1 SWAP3 SWAP2 SWAP1 DUP2 DUP2 MSTORE PUSH1 0x20 ADD DUP3 DUP1 SLOAD PUSH2 0xB52 SWAP1 PUSH2 0x1734 JUMP JUMPDEST DUP1 ISZERO PUSH2 0xB9D JUMPI DUP1 PUSH1 0x1F LT PUSH2 0xB74 JUMPI PUSH2 0x100 DUP1 DUP4 SLOAD DIV MUL DUP4 MSTORE SWAP2 PUSH1 0x20 ADD SWAP2 PUSH2 0xB9D JUMP JUMPDEST DUP3 ADD SWAP2 SWAP1 PUSH0 MSTORE PUSH1 0x20 PUSH0 KECCAK256 SWAP1 JUMPDEST DUP2 SLOAD DUP2 MSTORE SWAP1 PUSH1 0x1 ADD SWAP1 PUSH1 0x20 ADD DUP1 DUP4 GT PUSH2 0xB80 JUMPI DUP3 SWAP1 SUB PUSH1 0x1F AND DUP3 ADD SWAP2 JUMPDEST POP POP POP POP POP SWAP1 DUP1 PUSH1 0x4 ADD SLOAD SWAP1 DUP1 PUSH1 0x5 ADD PUSH0 SWAP1 SLOAD SWAP1 PUSH2 0x100 EXP SWAP1 DIV PUSH1 0xFF AND SWAP1 POP DUP7 JUMP JUMPDEST PUSH0 PUSH1 0x1 PUSH0 DUP4 DUP2 MSTORE PUSH1 0x20 ADD SWAP1 DUP2 MSTORE PUSH1 0x20 ADD PUSH0 KECCAK256 SWAP1 POP DUP1 PUSH1 0x5 ADD PUSH0 SWAP1 SLOAD SWAP1 PUSH2 0x100 EXP SWAP1 DIV PUSH1 0xFF AND PUSH2 0xC23 JUMPI PUSH1 0x40 MLOAD PUSH32 0x8C379A000000000000000000000000000000000000000000000000000000000 DUP2 MSTORE PUSH1 0x4 ADD PUSH2 0xC1A SWAP1 PUSH2 0x1B49 JUMP JUMPDEST PUSH1 0x40 MLOAD DUP1 SWAP2 SUB SWAP1 REVERT JUMPDEST PUSH2 0xC2D CALLER DUP4 PUSH2 0xF37 JUMP JUMPDEST ISZERO PUSH2 0xC6D JUMPI PUSH1 0x40 MLOAD PUSH32 0x8C379A000000000000000000000000000000000000000000000000000000000 DUP2 MSTORE PUSH1 0x4 ADD PUSH2 0xC64 SWAP1 PUSH2 0x1BB1 JUMP JUMPDEST PUSH1 0x40 MLOAD DUP1 SWAP2 SUB SWAP1 REVERT JUMPDEST PUSH1 0x2 PUSH0 CALLER PUSH20 0xFFFFFFFFFFFFFFFFFFFFFFFFFFFFFFFFFFFFFFFF AND PUSH20 0xFFFFFFFFFFFFFFFFFFFFFFFFFFFFFFFFFFFFFFFF AND DUP2 MSTORE PUSH1 0x20 ADD SWAP1 DUP2 MSTORE PUSH1 0x20 ADD PUSH0 KECCAK256 DUP3 SWAP1 DUP1 PUSH1 0x1 DUP2 SLOAD ADD DUP1 DUP3 SSTORE DUP1 SWAP2 POP POP PUSH1 0x1 SWAP1 SUB SWAP1 PUSH0 MSTORE PUSH1 0x20 PUSH0 KECCAK256 ADD PUSH0 SWAP1 SWAP2 SWAP1 SWAP2 SWAP1 SWAP2 POP SSTORE DUP2 CALLER PUSH20 0xFFFFFFFFFFFFFFFFFFFFFFFFFFFFFFFFFFFFFFFF AND PUSH32 0x1219234621CFBDA08EED13673C6E71CBF4B399EC00B0CDC44D8366E22D066700 PUSH1 0x40 MLOAD PUSH1 0x40 MLOAD DUP1 SWAP2 SUB SWAP1 LOG3 POP POP JUMP JUMPDEST PUSH0 PUSH1 0x60 DUP1 PUSH1 0x60 PUSH0 DUP1 PUSH0 PUSH1 0x1 PUSH0 DUP10 DUP2 MSTORE PUSH1 0x20 ADD SWAP1 DUP2 MSTORE PUSH1 0x20 ADD PUSH0 KECCAK256 SWAP1 POP DUP1 PUSH0 ADD SLOAD DUP2 PUSH1 0x1 ADD DUP3 PUSH1 0x2 ADD DUP4 PUSH1 0x3 ADD DUP5 PUSH1 0x4 ADD SLOAD DUP6 PUSH1 0x5 ADD PUSH0 SWAP1 SLOAD SWAP1 PUSH2 0x100 EXP SWAP1 DIV PUSH1 0xFF AND DUP5 DUP1 SLOAD PUSH2 0xD64 SWAP1 PUSH2 0x1734 JUMP JUMPDEST DUP1 PUSH1 0x1F ADD PUSH1 0x20 DUP1 SWAP2 DIV MUL PUSH1 0x20 ADD PUSH1 0x40 MLOAD SWAP1 DUP2 ADD PUSH1 0x40 MSTORE DUP1 SWAP3 SWAP2 SWAP1 DUP2 DUP2 MSTORE PUSH1 0x20 ADD DUP3 DUP1 SLOAD PUSH2 0xD90 SWAP1 PUSH2 0x1734 JUMP JUMPDEST DUP1 ISZERO PUSH2 0xDDB JUMPI DUP1 PUSH1 0x1F LT PUSH2 0xDB2 JUMPI PUSH2 0x100 DUP1 DUP4 SLOAD DIV MUL DUP4 MSTORE SWAP2 PUSH1 0x20 ADD SWAP2 PUSH2 0xDDB JUMP JUMPDEST DUP3 ADD SWAP2 SWAP1 PUSH0 MSTORE PUSH1 0x20 PUSH0 KECCAK256 SWAP1 JUMPDEST DUP2 SLOAD DUP2 MSTORE SWAP1 PUSH1 0x1 ADD SWAP1 PUSH1 0x20 ADD DUP1 DUP4 GT PUSH2 0xDBE JUMPI DUP3 SWAP1 SUB PUSH1 0x1F AND DUP3 ADD SWAP2 JUMPDEST POP POP POP POP POP SWAP5 POP DUP4 DUP1 SLOAD PUSH2 0xDEE SWAP1 PUSH2 0x1734 JUMP JUMPDEST DUP1 PUSH1 0x1F ADD PUSH1 0x20 DUP1 SWAP2 DIV MUL PUSH1 0x20 ADD PUSH1 0x40 MLOAD SWAP1 DUP2 ADD PUSH1 0x40 MSTORE DUP1 SWAP3 SWAP2 SWAP1 DUP2 DUP2 MSTORE PUSH1 0x20 ADD DUP3 DUP1 SLOAD PUSH2 0xE1A SWAP1 PUSH2 0x1734 JUMP JUMPDEST DUP1 ISZERO PUSH2 0xE65 JUMPI DUP1 PUSH1 0x1F LT PUSH2 0xE3C JUMPI PUSH2 0x100 DUP1 DUP4 SLOAD DIV MUL DUP4 MSTORE SWAP2 PUSH1 0x20 ADD SWAP2 PUSH2 0xE65 JUMP JUMPDEST DUP3 ADD SWAP2 SWAP1 PUSH0 MSTORE PUSH1 0x20 PUSH0 KECCAK256 SWAP1 JUMPDEST DUP2 SLOAD DUP2 MSTORE SWAP1 PUSH1 0x1 ADD SWAP1 PUSH1 0x20 ADD DUP1 DUP4 GT PUSH2 0xE48 JUMPI DUP3 SWAP1 SUB PUSH1 0x1F AND DUP3 ADD SWAP2 JUMPDEST POP POP POP POP POP SWAP4 POP DUP3 DUP1 SLOAD PUSH2 0xE78 SWAP1 PUSH2 0x1734 JUMP JUMPDEST DUP1 PUSH1 0x1F ADD PUSH1 0x20 DUP1 SWAP2 DIV MUL PUSH1 0x20 ADD PUSH1 0x40 MLOAD SWAP1 DUP2 ADD PUSH1 0x40 MSTORE DUP1 SWAP3 SWAP2 SWAP1 DUP2 DUP2 MSTORE PUSH1 0x20 ADD DUP3 DUP1 SLOAD PUSH2 0xEA4 SWAP1 PUSH2 0x1734 JUMP JUMPDEST DUP1 ISZERO PUSH2 0xEEF JUMPI DUP1 PUSH1 0x1F LT PUSH2 0xEC6 JUMPI PUSH2 0x100 DUP1 DUP4 SLOAD DIV MUL DUP4 MSTORE SWAP2 PUSH1 0x20 ADD SWAP2 PUSH2 0xEEF JUMP JUMPDEST DUP3 ADD SWAP2 SWAP1 PUSH0 MSTORE PUSH1 0x20 PUSH0 KECCAK256 SWAP1 JUMPDEST DUP2 SLOAD DUP2 MSTORE SWAP1 PUSH1 0x1 ADD SWAP1 PUSH1 0x20 ADD DUP1 DUP4 GT PUSH2 0xED2 JUMPI DUP3 SWAP1 SUB PUSH1 0x1F AND DUP3 ADD SWAP2 JUMPDEST POP POP POP POP POP SWAP3 POP SWAP7 POP SWAP7 POP SWAP7 POP SWAP7 POP SWAP7 POP SWAP7 POP POP SWAP2 SWAP4 SWAP6 POP SWAP2 SWAP4 SWAP6 JUMP JUMPDEST PUSH1 0x2 PUSH1 0x20 MSTORE DUP2 PUSH0 MSTORE PUSH1 0x40 PUSH0 KECCAK256 DUP2 DUP2 SLOAD DUP2 LT PUSH2 0xF25 JUMPI PUSH0 DUP1 REVERT JUMPDEST SWAP1 PUSH0 MSTORE PUSH1 0x20 PUSH0 KECCAK256 ADD PUSH0 SWAP2 POP SWAP2 POP POP SLOAD DUP2 JUMP JUMPDEST PUSH0 DUP1 PUSH1 0x2 PUSH0 DUP6 PUSH20 0xFFFFFFFFFFFFFFFFFFFFFFFFFFFFFFFFFFFFFFFF AND PUSH20 0xFFFFFFFFFFFFFFFFFFFFFFFFFFFFFFFFFFFFFFFF AND DUP2 MSTORE PUSH1 0x20 ADD SWAP1 DUP2 MSTORE PUSH1 0x20 ADD PUSH0 KECCAK256 SWAP1 POP PUSH0 JUMPDEST DUP2 DUP1 SLOAD SWAP1 POP DUP2 LT ISZERO PUSH2 0xFC0 JUMPI DUP4 DUP3 DUP3 DUP2 SLOAD DUP2 LT PUSH2 0xF9A JUMPI PUSH2 0xF99 PUSH2 0x1764 JUMP JUMPDEST JUMPDEST SWAP1 PUSH0 MSTORE PUSH1 0x20 PUSH0 KECCAK256 ADD SLOAD SUB PUSH2 0xFB3 JUMPI PUSH1 0x1 SWAP3 POP POP POP PUSH2 0xFC6 JUMP JUMPDEST DUP1 DUP1 PUSH1 0x1 ADD SWAP2 POP POP PUSH2 0xF7A JUMP JUMPDEST POP PUSH0 SWAP2 POP POP JUMPDEST SWAP3 SWAP2 POP POP JUMP JUMPDEST PUSH1 0x40 MLOAD DUP1 PUSH1 0xC0 ADD PUSH1 0x40 MSTORE DUP1 PUSH0 DUP2 MSTORE PUSH1 0x20 ADD PUSH1 0x60 DUP2 MSTORE PUSH1 0x20 ADD PUSH1 0x60 DUP2 MSTORE PUSH1 0x20 ADD PUSH1 0x60 DUP2 MSTORE PUSH1 0x20 ADD PUSH0 DUP2 MSTORE PUSH1 0x20 ADD PUSH0 ISZERO ISZERO DUP2 MSTORE POP SWAP1 JUMP JUMPDEST PUSH0 DUP2 SWAP1 POP SWAP2 SWAP1 POP JUMP JUMPDEST PUSH2 0x1013 DUP2 PUSH2 0x1001 JUMP JUMPDEST DUP3 MSTORE POP POP JUMP JUMPDEST PUSH0 PUSH1 0x20 DUP3 ADD SWAP1 POP PUSH2 0x102C PUSH0 DUP4 ADD DUP5 PUSH2 0x100A JUMP JUMPDEST SWAP3 SWAP2 POP POP JUMP JUMPDEST PUSH0 DUP2 MLOAD SWAP1 POP SWAP2 SWAP1 POP JUMP JUMPDEST PUSH0 DUP3 DUP3 MSTORE PUSH1 0x20 DUP3 ADD SWAP1 POP SWAP3 SWAP2 POP POP JUMP JUMPDEST PUSH0 DUP2 SWAP1 POP PUSH1 0x20 DUP3 ADD SWAP1 POP SWAP2 SWAP1 POP JUMP JUMPDEST PUSH2 0x1064 DUP2 PUSH2 0x1001 JUMP JUMPDEST DUP3 MSTORE POP POP JUMP JUMPDEST PUSH0 DUP2 MLOAD SWAP1 POP SWAP2 SWAP1 POP JUMP JUMPDEST PUSH0 DUP3 DUP3 MSTORE PUSH1 0x20 DUP3 ADD SWAP1 POP SWAP3 SWAP2 POP POP JUMP JUMPDEST PUSH0 JUMPDEST DUP4 DUP2 LT ISZERO PUSH2 0x10A1 JUMPI DUP1 DUP3 ADD MLOAD DUP2 DUP5 ADD MSTORE PUSH1 0x20 DUP2 ADD SWAP1 POP PUSH2 0x1086 JUMP JUMPDEST PUSH0 DUP5 DUP5 ADD MSTORE POP POP POP POP JUMP JUMPDEST PUSH0 PUSH1 0x1F NOT PUSH1 0x1F DUP4 ADD AND SWAP1 POP SWAP2 SWAP1 POP JUMP JUMPDEST PUSH0 PUSH2 0x10C6 DUP3 PUSH2 0x106A JUMP JUMPDEST PUSH2 0x10D0 DUP2 DUP6 PUSH2 0x1074 JUMP JUMPDEST SWAP4 POP PUSH2 0x10E0 DUP2 DUP6 PUSH1 0x20 DUP7 ADD PUSH2 0x1084 JUMP JUMPDEST PUSH2 0x10E9 DUP2 PUSH2 0x10AC JUMP JUMPDEST DUP5 ADD SWAP2 POP POP SWAP3 SWAP2 POP POP JUMP JUMPDEST PUSH0 DUP2 ISZERO ISZERO SWAP1 POP SWAP2 SWAP1 POP JUMP JUMPDEST PUSH2 0x1108 DUP2 PUSH2 0x10F4 JUMP JUMPDEST DUP3 MSTORE POP POP JUMP JUMPDEST PUSH0 PUSH1 0xC0 DUP4 ADD PUSH0 DUP4 ADD MLOAD PUSH2 0x1123 PUSH0 DUP7 ADD DUP3 PUSH2 0x105B JUMP JUMPDEST POP PUSH1 0x20 DUP4 ADD MLOAD DUP5 DUP3 SUB PUSH1 0x20 DUP7 ADD MSTORE PUSH2 0x113B DUP3 DUP3 PUSH2 0x10BC JUMP JUMPDEST SWAP2 POP POP PUSH1 0x40 DUP4 ADD MLOAD DUP5 DUP3 SUB PUSH1 0x40 DUP7 ADD MSTORE PUSH2 0x1155 DUP3 DUP3 PUSH2 0x10BC JUMP JUMPDEST SWAP2 POP POP PUSH1 0x60 DUP4 ADD MLOAD DUP5 DUP3 SUB PUSH1 0x60 DUP7 ADD MSTORE PUSH2 0x116F DUP3 DUP3 PUSH2 0x10BC JUMP JUMPDEST SWAP2 POP POP PUSH1 0x80 DUP4 ADD MLOAD PUSH2 0x1184 PUSH1 0x80 DUP7 ADD DUP3 PUSH2 0x105B JUMP JUMPDEST POP PUSH1 0xA0 DUP4 ADD MLOAD PUSH2 0x1197 PUSH1 0xA0 DUP7 ADD DUP3 PUSH2 0x10FF JUMP JUMPDEST POP DUP1 SWAP2 POP POP SWAP3 SWAP2 POP POP JUMP JUMPDEST PUSH0 PUSH2 0x11AD DUP4 DUP4 PUSH2 0x110E JUMP JUMPDEST SWAP1 POP SWAP3 SWAP2 POP POP JUMP JUMPDEST PUSH0 PUSH1 0x20 DUP3 ADD SWAP1 POP SWAP2 SWAP1 POP JUMP JUMPDEST PUSH0 PUSH2 0x11CB DUP3 PUSH2 0x1032 JUMP JUMPDEST PUSH2 0x11D5 DUP2 DUP6 PUSH2 0x103C JUMP JUMPDEST SWAP4 POP DUP4 PUSH1 0x20 DUP3 MUL DUP6 ADD PUSH2 0x11E7 DUP6 PUSH2 0x104C JUMP JUMPDEST DUP1 PUSH0 JUMPDEST DUP6 DUP2 LT ISZERO PUSH2 0x1222 JUMPI DUP5 DUP5 SUB DUP10 MSTORE DUP2 MLOAD PUSH2 0x1203 DUP6 DUP3 PUSH2 0x11A2 JUMP JUMPDEST SWAP5 POP PUSH2 0x120E DUP4 PUSH2 0x11B5 JUMP JUMPDEST SWAP3 POP PUSH1 0x20 DUP11 ADD SWAP10 POP POP PUSH1 0x1 DUP2 ADD SWAP1 POP PUSH2 0x11EA JUMP JUMPDEST POP DUP3 SWAP8 POP DUP8 SWAP6 POP POP POP POP POP POP SWAP3 SWAP2 POP POP JUMP JUMPDEST PUSH0 PUSH1 0x20 DUP3 ADD SWAP1 POP DUP2 DUP2 SUB PUSH0 DUP4 ADD MSTORE PUSH2 0x124C DUP2 DUP5 PUSH2 0x11C1 JUMP JUMPDEST SWAP1 POP SWAP3 SWAP2 POP POP JUMP JUMPDEST PUSH0 PUSH1 0x40 MLOAD SWAP1 POP SWAP1 JUMP JUMPDEST PUSH0 DUP1 REVERT JUMPDEST PUSH0 DUP1 REVERT JUMPDEST PUSH0 PUSH20 0xFFFFFFFFFFFFFFFFFFFFFFFFFFFFFFFFFFFFFFFF DUP3 AND SWAP1 POP SWAP2 SWAP1 POP JUMP JUMPDEST PUSH0 PUSH2 0x128E DUP3 PUSH2 0x1265 JUMP JUMPDEST SWAP1 POP SWAP2 SWAP1 POP JUMP JUMPDEST PUSH2 0x129E DUP2 PUSH2 0x1284 JUMP JUMPDEST DUP2 EQ PUSH2 0x12A8 JUMPI PUSH0 DUP1 REVERT JUMPDEST POP JUMP JUMPDEST PUSH0 DUP2 CALLDATALOAD SWAP1 POP PUSH2 0x12B9 DUP2 PUSH2 0x1295 JUMP JUMPDEST SWAP3 SWAP2 POP POP JUMP JUMPDEST PUSH0 PUSH1 0x20 DUP3 DUP5 SUB SLT ISZERO PUSH2 0x12D4 JUMPI PUSH2 0x12D3 PUSH2 0x125D JUMP JUMPDEST JUMPDEST PUSH0 PUSH2 0x12E1 DUP5 DUP3 DUP6 ADD PUSH2 0x12AB JUMP JUMPDEST SWAP2 POP POP SWAP3 SWAP2 POP POP JUMP JUMPDEST PUSH0 DUP2 MLOAD SWAP1 POP SWAP2 SWAP1 POP JUMP JUMPDEST PUSH0 DUP3 DUP3 MSTORE PUSH1 0x20 DUP3 ADD SWAP1 POP SWAP3 SWAP2 POP POP JUMP JUMPDEST PUSH0 DUP2 SWAP1 POP PUSH1 0x20 DUP3 ADD SWAP1 POP SWAP2 SWAP1 POP JUMP JUMPDEST PUSH0 PUSH2 0x131E DUP4 DUP4 PUSH2 0x105B JUMP JUMPDEST PUSH1 0x20 DUP4 ADD SWAP1 POP SWAP3 SWAP2 POP POP JUMP JUMPDEST PUSH0 PUSH1 0x20 DUP3 ADD SWAP1 POP SWAP2 SWAP1 POP JUMP JUMPDEST PUSH0 PUSH2 0x1340 DUP3 PUSH2 0x12EA JUMP JUMPDEST PUSH2 0x134A DUP2 DUP6 PUSH2 0x12F4 JUMP JUMPDEST SWAP4 POP PUSH2 0x1355 DUP4 PUSH2 0x1304 JUMP JUMPDEST DUP1 PUSH0 JUMPDEST DUP4 DUP2 LT ISZERO PUSH2 0x1385 JUMPI DUP2 MLOAD PUSH2 0x136C DUP9 DUP3 PUSH2 0x1313 JUMP JUMPDEST SWAP8 POP PUSH2 0x1377 DUP4 PUSH2 0x132A JUMP JUMPDEST SWAP3 POP POP PUSH1 0x1 DUP2 ADD SWAP1 POP PUSH2 0x1358 JUMP JUMPDEST POP DUP6 SWAP4 POP POP POP POP SWAP3 SWAP2 POP POP JUMP JUMPDEST PUSH0 PUSH1 0x20 DUP3 ADD SWAP1 POP DUP2 DUP2 SUB PUSH0 DUP4 ADD MSTORE PUSH2 0x13AA DUP2 DUP5 PUSH2 0x1336 JUMP JUMPDEST SWAP1 POP SWAP3 SWAP2 POP POP JUMP JUMPDEST PUSH2 0x13BB DUP2 PUSH2 0x1001 JUMP JUMPDEST DUP2 EQ PUSH2 0x13C5 JUMPI PUSH0 DUP1 REVERT JUMPDEST POP JUMP JUMPDEST PUSH0 DUP2 CALLDATALOAD SWAP1 POP PUSH2 0x13D6 DUP2 PUSH2 0x13B2 JUMP JUMPDEST SWAP3 SWAP2 POP POP JUMP JUMPDEST PUSH0 DUP1 REVERT JUMPDEST PUSH0 DUP1 REVERT JUMPDEST PUSH32 0x4E487B7100000000000000000000000000000000000000000000000000000000 PUSH0 MSTORE PUSH1 0x41 PUSH1 0x4 MSTORE PUSH1 0x24 PUSH0 REVERT JUMPDEST PUSH2 0x141A DUP3 PUSH2 0x10AC JUMP JUMPDEST DUP2 ADD DUP2 DUP2 LT PUSH8 0xFFFFFFFFFFFFFFFF DUP3 GT OR ISZERO PUSH2 0x1439 JUMPI PUSH2 0x1438 PUSH2 0x13E4 JUMP JUMPDEST JUMPDEST DUP1 PUSH1 0x40 MSTORE POP POP POP JUMP JUMPDEST PUSH0 PUSH2 0x144B PUSH2 0x1254 JUMP JUMPDEST SWAP1 POP PUSH2 0x1457 DUP3 DUP3 PUSH2 0x1411 JUMP JUMPDEST SWAP2 SWAP1 POP JUMP JUMPDEST PUSH0 PUSH8 0xFFFFFFFFFFFFFFFF DUP3 GT ISZERO PUSH2 0x1476 JUMPI PUSH2 0x1475 PUSH2 0x13E4 JUMP JUMPDEST JUMPDEST PUSH2 0x147F DUP3 PUSH2 0x10AC JUMP JUMPDEST SWAP1 POP PUSH1 0x20 DUP2 ADD SWAP1 POP SWAP2 SWAP1 POP JUMP JUMPDEST DUP3 DUP2 DUP4 CALLDATACOPY PUSH0 DUP4 DUP4 ADD MSTORE POP POP POP JUMP JUMPDEST PUSH0 PUSH2 0x14AC PUSH2 0x14A7 DUP5 PUSH2 0x145C JUMP JUMPDEST PUSH2 0x1442 JUMP JUMPDEST SWAP1 POP DUP3 DUP2 MSTORE PUSH1 0x20 DUP2 ADD DUP5 DUP5 DUP5 ADD GT ISZERO PUSH2 0x14C8 JUMPI PUSH2 0x14C7 PUSH2 0x13E0 JUMP JUMPDEST JUMPDEST PUSH2 0x14D3 DUP5 DUP3 DUP6 PUSH2 0x148C JUMP JUMPDEST POP SWAP4 SWAP3 POP POP POP JUMP JUMPDEST PUSH0 DUP3 PUSH1 0x1F DUP4 ADD SLT PUSH2 0x14EF JUMPI PUSH2 0x14EE PUSH2 0x13DC JUMP JUMPDEST JUMPDEST DUP2 CALLDATALOAD PUSH2 0x14FF DUP5 DUP3 PUSH1 0x20 DUP7 ADD PUSH2 0x149A JUMP JUMPDEST SWAP2 POP POP SWAP3 SWAP2 POP POP JUMP JUMPDEST PUSH0 DUP1 PUSH0 DUP1 PUSH0 PUSH1 0xA0 DUP7 DUP9 SUB SLT ISZERO PUSH2 0x1521 JUMPI PUSH2 0x1520 PUSH2 0x125D JUMP JUMPDEST JUMPDEST PUSH0 PUSH2 0x152E DUP9 DUP3 DUP10 ADD PUSH2 0x13C8 JUMP JUMPDEST SWAP6 POP POP PUSH1 0x20 DUP7 ADD CALLDATALOAD PUSH8 0xFFFFFFFFFFFFFFFF DUP2 GT ISZERO PUSH2 0x154F JUMPI PUSH2 0x154E PUSH2 0x1261 JUMP JUMPDEST JUMPDEST PUSH2 0x155B DUP9 DUP3 DUP10 ADD PUSH2 0x14DB JUMP JUMPDEST SWAP5 POP POP PUSH1 0x40 DUP7 ADD CALLDATALOAD PUSH8 0xFFFFFFFFFFFFFFFF DUP2 GT ISZERO PUSH2 0x157C JUMPI PUSH2 0x157B PUSH2 0x1261 JUMP JUMPDEST JUMPDEST PUSH2 0x1588 DUP9 DUP3 DUP10 ADD PUSH2 0x14DB JUMP JUMPDEST SWAP4 POP POP PUSH1 0x60 DUP7 ADD CALLDATALOAD PUSH8 0xFFFFFFFFFFFFFFFF DUP2 GT ISZERO PUSH2 0x15A9 JUMPI PUSH2 0x15A8 PUSH2 0x1261 JUMP JUMPDEST JUMPDEST PUSH2 0x15B5 DUP9 DUP3 DUP10 ADD PUSH2 0x14DB JUMP JUMPDEST SWAP3 POP POP PUSH1 0x80 PUSH2 0x15C6 DUP9 DUP3 DUP10 ADD PUSH2 0x13C8 JUMP JUMPDEST SWAP2 POP POP SWAP3 SWAP6 POP SWAP3 SWAP6 SWAP1 SWAP4 POP JUMP JUMPDEST PUSH0 PUSH1 0x20 DUP3 DUP5 SUB SLT ISZERO PUSH2 0x15E8 JUMPI PUSH2 0x15E7 PUSH2 0x125D JUMP JUMPDEST JUMPDEST PUSH0 PUSH2 0x15F5 DUP5 DUP3 DUP6 ADD PUSH2 0x13C8 JUMP JUMPDEST SWAP2 POP POP SWAP3 SWAP2 POP POP JUMP JUMPDEST PUSH0 DUP3 DUP3 MSTORE PUSH1 0x20 DUP3 ADD SWAP1 POP SWAP3 SWAP2 POP POP JUMP JUMPDEST PUSH0 PUSH2 0x1618 DUP3 PUSH2 0x106A JUMP JUMPDEST PUSH2 0x1622 DUP2 DUP6 PUSH2 0x15FE JUMP JUMPDEST SWAP4 POP PUSH2 0x1632 DUP2 DUP6 PUSH1 0x20 DUP7 ADD PUSH2 0x1084 JUMP JUMPDEST PUSH2 0x163B DUP2 PUSH2 0x10AC JUMP JUMPDEST DUP5 ADD SWAP2 POP POP SWAP3 SWAP2 POP POP JUMP JUMPDEST PUSH2 0x164F DUP2 PUSH2 0x10F4 JUMP JUMPDEST DUP3 MSTORE POP POP JUMP JUMPDEST PUSH0 PUSH1 0xC0 DUP3 ADD SWAP1 POP PUSH2 0x1668 PUSH0 DUP4 ADD DUP10 PUSH2 0x100A JUMP JUMPDEST DUP2 DUP2 SUB PUSH1 0x20 DUP4 ADD MSTORE PUSH2 0x167A DUP2 DUP9 PUSH2 0x160E JUMP JUMPDEST SWAP1 POP DUP2 DUP2 SUB PUSH1 0x40 DUP4 ADD MSTORE PUSH2 0x168E DUP2 DUP8 PUSH2 0x160E JUMP JUMPDEST SWAP1 POP DUP2 DUP2 SUB PUSH1 0x60 DUP4 ADD MSTORE PUSH2 0x16A2 DUP2 DUP7 PUSH2 0x160E JUMP JUMPDEST SWAP1 POP PUSH2 0x16B1 PUSH1 0x80 DUP4 ADD DUP6 PUSH2 0x100A JUMP JUMPDEST PUSH2 0x16BE PUSH1 0xA0 DUP4 ADD DUP5 PUSH2 0x1646 JUMP JUMPDEST SWAP8 SWAP7 POP POP POP POP POP POP POP JUMP JUMPDEST PUSH0 DUP1 PUSH1 0x40 DUP4 DUP6 SUB SLT ISZERO PUSH2 0x16DF JUMPI PUSH2 0x16DE PUSH2 0x125D JUMP JUMPDEST JUMPDEST PUSH0 PUSH2 0x16EC DUP6 DUP3 DUP7 ADD PUSH2 0x12AB JUMP JUMPDEST SWAP3 POP POP PUSH1 0x20 PUSH2 0x16FD DUP6 DUP3 DUP7 ADD PUSH2 0x13C8 JUMP JUMPDEST SWAP2 POP POP SWAP3 POP SWAP3 SWAP1 POP JUMP JUMPDEST PUSH32 0x4E487B7100000000000000000000000000000000000000000000000000000000 PUSH0 MSTORE PUSH1 0x22 PUSH1 0x4 MSTORE PUSH1 0x24 PUSH0 REVERT JUMPDEST PUSH0 PUSH1 0x2 DUP3 DIV SWAP1 POP PUSH1 0x1 DUP3 AND DUP1 PUSH2 0x174B JUMPI PUSH1 0x7F DUP3 AND SWAP2 POP JUMPDEST PUSH1 0x20 DUP3 LT DUP2 SUB PUSH2 0x175E JUMPI PUSH2 0x175D PUSH2 0x1707 JUMP JUMPDEST JUMPDEST POP SWAP2 SWAP1 POP JUMP JUMPDEST PUSH32 0x4E487B7100000000000000000000000000000000000000000000000000000000 PUSH0 MSTORE PUSH1 0x32 PUSH1 0x4 MSTORE PUSH1 0x24 PUSH0 REVERT JUMPDEST PUSH32 0x51756164726F20636F6E206C6F2073746573736F204944206769612720657369 PUSH0 DUP3 ADD MSTORE PUSH32 0x7374656E74650000000000000000000000000000000000000000000000000000 PUSH1 0x20 DUP3 ADD MSTORE POP JUMP JUMPDEST PUSH0 PUSH2 0x17EB PUSH1 0x26 DUP4 PUSH2 0x15FE JUMP JUMPDEST SWAP2 POP PUSH2 0x17F6 DUP3 PUSH2 0x1791 JUMP JUMPDEST PUSH1 0x40 DUP3 ADD SWAP1 POP SWAP2 SWAP1 POP JUMP JUMPDEST PUSH0 PUSH1 0x20 DUP3 ADD SWAP1 POP DUP2 DUP2 SUB PUSH0 DUP4 ADD MSTORE PUSH2 0x1818 DUP2 PUSH2 0x17DF JUMP JUMPDEST SWAP1 POP SWAP2 SWAP1 POP JUMP JUMPDEST PUSH0 DUP2 SWAP1 POP DUP2 PUSH0 MSTORE PUSH1 0x20 PUSH0 KECCAK256 SWAP1 POP SWAP2 SWAP1 POP JUMP JUMPDEST PUSH0 PUSH1 0x20 PUSH1 0x1F DUP4 ADD DIV SWAP1 POP SWAP2 SWAP1 POP JUMP JUMPDEST PUSH0 DUP3 DUP3 SHL SWAP1 POP SWAP3 SWAP2 POP POP JUMP JUMPDEST PUSH0 PUSH1 0x8 DUP4 MUL PUSH2 0x187B PUSH32 0xFFFFFFFFFFFFFFFFFFFFFFFFFFFFFFFFFFFFFFFFFFFFFFFFFFFFFFFFFFFFFFFF DUP3 PUSH2 0x1840 JUMP JUMPDEST PUSH2 0x1885 DUP7 DUP4 PUSH2 0x1840 JUMP JUMPDEST SWAP6 POP DUP1 NOT DUP5 AND SWAP4 POP DUP1 DUP7 AND DUP5 OR SWAP3 POP POP POP SWAP4 SWAP3 POP POP POP JUMP JUMPDEST PUSH0 DUP2 SWAP1 POP SWAP2 SWAP1 POP JUMP JUMPDEST PUSH0 PUSH2 0x18C0 PUSH2 0x18BB PUSH2 0x18B6 DUP5 PUSH2 0x1001 JUMP JUMPDEST PUSH2 0x189D JUMP JUMPDEST PUSH2 0x1001 JUMP JUMPDEST SWAP1 POP SWAP2 SWAP1 POP JUMP JUMPDEST PUSH0 DUP2 SWAP1 POP SWAP2 SWAP1 POP JUMP JUMPDEST PUSH2 0x18D9 DUP4 PUSH2 0x18A6 JUMP JUMPDEST PUSH2 0x18ED PUSH2 0x18E5 DUP3 PUSH2 0x18C7 JUMP JUMPDEST DUP5 DUP5 SLOAD PUSH2 0x184C JUMP JUMPDEST DUP3 SSTORE POP POP POP POP JUMP JUMPDEST PUSH0 SWAP1 JUMP JUMPDEST PUSH2 0x1901 PUSH2 0x18F5 JUMP JUMPDEST PUSH2 0x190C DUP2 DUP5 DUP5 PUSH2 0x18D0 JUMP JUMPDEST POP POP POP JUMP JUMPDEST JUMPDEST DUP2 DUP2 LT ISZERO PUSH2 0x192F JUMPI PUSH2 0x1924 PUSH0 DUP3 PUSH2 0x18F9 JUMP JUMPDEST PUSH1 0x1 DUP2 ADD SWAP1 POP PUSH2 0x1912 JUMP JUMPDEST POP POP JUMP JUMPDEST PUSH1 0x1F DUP3 GT ISZERO PUSH2 0x1974 JUMPI PUSH2 0x1945 DUP2 PUSH2 0x181F JUMP JUMPDEST PUSH2 0x194E DUP5 PUSH2 0x1831 JUMP JUMPDEST DUP2 ADD PUSH1 0x20 DUP6 LT ISZERO PUSH2 0x195D JUMPI DUP2 SWAP1 POP JUMPDEST PUSH2 0x1971 PUSH2 0x1969 DUP6 PUSH2 0x1831 JUMP JUMPDEST DUP4 ADD DUP3 PUSH2 0x1911 JUMP JUMPDEST POP POP JUMPDEST POP POP POP JUMP JUMPDEST PUSH0 DUP3 DUP3 SHR SWAP1 POP SWAP3 SWAP2 POP POP JUMP JUMPDEST PUSH0 PUSH2 0x1994 PUSH0 NOT DUP5 PUSH1 0x8 MUL PUSH2 0x1979 JUMP JUMPDEST NOT DUP1 DUP4 AND SWAP2 POP POP SWAP3 SWAP2 POP POP JUMP JUMPDEST PUSH0 PUSH2 0x19AC DUP4 DUP4 PUSH2 0x1985 JUMP JUMPDEST SWAP2 POP DUP3 PUSH1 0x2 MUL DUP3 OR SWAP1 POP SWAP3 SWAP2 POP POP JUMP JUMPDEST PUSH2 0x19C5 DUP3 PUSH2 0x106A JUMP JUMPDEST PUSH8 0xFFFFFFFFFFFFFFFF DUP2 GT ISZERO PUSH2 0x19DE JUMPI PUSH2 0x19DD PUSH2 0x13E4 JUMP JUMPDEST JUMPDEST PUSH2 0x19E8 DUP3 SLOAD PUSH2 0x1734 JUMP JUMPDEST PUSH2 0x19F3 DUP3 DUP3 DUP6 PUSH2 0x1933 JUMP JUMPDEST PUSH0 PUSH1 0x20 SWAP1 POP PUSH1 0x1F DUP4 GT PUSH1 0x1 DUP2 EQ PUSH2 0x1A24 JUMPI PUSH0 DUP5 ISZERO PUSH2 0x1A12 JUMPI DUP3 DUP8 ADD MLOAD SWAP1 POP JUMPDEST PUSH2 0x1A1C DUP6 DUP3 PUSH2 0x19A1 JUMP JUMPDEST DUP7 SSTORE POP PUSH2 0x1A83 JUMP JUMPDEST PUSH1 0x1F NOT DUP5 AND PUSH2 0x1A32 DUP7 PUSH2 0x181F JUMP JUMPDEST PUSH0 JUMPDEST DUP3 DUP2 LT ISZERO PUSH2 0x1A59 JUMPI DUP5 DUP10 ADD MLOAD DUP3 SSTORE PUSH1 0x1 DUP3 ADD SWAP2 POP PUSH1 0x20 DUP6 ADD SWAP5 POP PUSH1 0x20 DUP2 ADD SWAP1 POP PUSH2 0x1A34 JUMP JUMPDEST DUP7 DUP4 LT ISZERO PUSH2 0x1A76 JUMPI DUP5 DUP10 ADD MLOAD PUSH2 0x1A72 PUSH1 0x1F DUP10 AND DUP3 PUSH2 0x1985 JUMP JUMPDEST DUP4 SSTORE POP JUMPDEST PUSH1 0x1 PUSH1 0x2 DUP9 MUL ADD DUP9 SSTORE POP POP POP JUMPDEST POP POP POP POP POP POP JUMP JUMPDEST PUSH32 0x4E487B7100000000000000000000000000000000000000000000000000000000 PUSH0 MSTORE PUSH1 0x11 PUSH1 0x4 MSTORE PUSH1 0x24 PUSH0 REVERT JUMPDEST PUSH0 PUSH2 0x1AC2 DUP3 PUSH2 0x1001 JUMP JUMPDEST SWAP2 POP PUSH32 0xFFFFFFFFFFFFFFFFFFFFFFFFFFFFFFFFFFFFFFFFFFFFFFFFFFFFFFFFFFFFFFFF DUP3 SUB PUSH2 0x1AF4 JUMPI PUSH2 0x1AF3 PUSH2 0x1A8B JUMP JUMPDEST JUMPDEST PUSH1 0x1 DUP3 ADD SWAP1 POP SWAP2 SWAP1 POP JUMP JUMPDEST PUSH32 0x496C2071756164726F206E6F6E20652720646973706F6E6962696C6500000000 PUSH0 DUP3 ADD MSTORE POP JUMP JUMPDEST PUSH0 PUSH2 0x1B33 PUSH1 0x1C DUP4 PUSH2 0x15FE JUMP JUMPDEST SWAP2 POP PUSH2 0x1B3E DUP3 PUSH2 0x1AFF JUMP JUMPDEST PUSH1 0x20 DUP3 ADD SWAP1 POP SWAP2 SWAP1 POP JUMP JUMPDEST PUSH0 PUSH1 0x20 DUP3 ADD SWAP1 POP DUP2 DUP2 SUB PUSH0 DUP4 ADD MSTORE PUSH2 0x1B60 DUP2 PUSH2 0x1B27 JUMP JUMPDEST SWAP1 POP SWAP2 SWAP1 POP JUMP JUMPDEST PUSH32 0x486169206769612720636F6D707261746F2071756573746F2071756164726F00 PUSH0 DUP3 ADD MSTORE POP JUMP JUMPDEST PUSH0 PUSH2 0x1B9B PUSH1 0x1F DUP4 PUSH2 0x15FE JUMP JUMPDEST SWAP2 POP PUSH2 0x1BA6 DUP3 PUSH2 0x1B67 JUMP JUMPDEST PUSH1 0x20 DUP3 ADD SWAP1 POP SWAP2 SWAP1 POP JUMP JUMPDEST PUSH0 PUSH1 0x20 DUP3 ADD SWAP1 POP DUP2 DUP2 SUB PUSH0 DUP4 ADD MSTORE PUSH2 0x1BC8 DUP2 PUSH2 0x1B8F JUMP JUMPDEST SWAP1 POP SWAP2 SWAP1 POP JUMP INVALID LOG2 PUSH5 0x6970667358 0x22 SLT KECCAK256 0x2E PUSH21 0x7CF6E0329627668CB25D2CE3117F979046E522501 MUL 0xDB PUSH20 0x39A9EDE0F20064736F6C63430008160033000000 "
				},
				"gasEstimates": {
					"creation": {
						"codeDepositCost": "1434600",
						"executionCost": "6510",
						"totalCost": "1441110"
					},
					"external": {
						"buyPaint(uint256)": "infinite",
						"counterPaints()": "2425",
						"createPaint(uint256,string,string,string,uint256)": "infinite",
						"getAllPaint()": "infinite",
						"getPaintDetails(uint256)": "infinite",
						"getPurchasedPaintIds(address)": "infinite",
						"getPurchasedPaints(address)": "infinite",
						"paints(uint256)": "infinite",
						"purchasedPaints(address,uint256)": "infinite"
					},
					"internal": {
						"purchasedSatus(address,uint256)": "infinite"
					}
				},
				"methodIdentifiers": {
					"buyPaint(uint256)": "a8eca8b2",
					"counterPaints()": "03454b46",
					"createPaint(uint256,string,string,string,uint256)": "305b6d8c",
					"getAllPaint()": "0d20f524",
					"getPaintDetails(uint256)": "c7b92d70",
					"getPurchasedPaintIds(address)": "15ec8815",
					"getPurchasedPaints(address)": "10b46615",
					"paints(uint256)": "6e65db3e",
					"purchasedPaints(address,uint256)": "f7142694"
				}
			},
			"storageLayout": {
				"storage": [
					{
						"astId": 3,
						"contract": "contracts/PaintContract.sol:PaintContract",
						"label": "counterPaints",
						"offset": 0,
						"slot": "0",
						"type": "t_uint256"
					},
					{
						"astId": 21,
						"contract": "contracts/PaintContract.sol:PaintContract",
						"label": "paints",
						"offset": 0,
						"slot": "1",
						"type": "t_mapping(t_uint256,t_struct(Paint)16_storage)"
					},
					{
						"astId": 26,
						"contract": "contracts/PaintContract.sol:PaintContract",
						"label": "purchasedPaints",
						"offset": 0,
						"slot": "2",
						"type": "t_mapping(t_address,t_array(t_uint256)dyn_storage)"
					}
				],
				"types": {
					"t_address": {
						"encoding": "inplace",
						"label": "address",
						"numberOfBytes": "20"
					},
					"t_array(t_uint256)dyn_storage": {
						"base": "t_uint256",
						"encoding": "dynamic_array",
						"label": "uint256[]",
						"numberOfBytes": "32"
					},
					"t_bool": {
						"encoding": "inplace",
						"label": "bool",
						"numberOfBytes": "1"
					},
					"t_mapping(t_address,t_array(t_uint256)dyn_storage)": {
						"encoding": "mapping",
						"key": "t_address",
						"label": "mapping(address => uint256[])",
						"numberOfBytes": "32",
						"value": "t_array(t_uint256)dyn_storage"
					},
					"t_mapping(t_uint256,t_struct(Paint)16_storage)": {
						"encoding": "mapping",
						"key": "t_uint256",
						"label": "mapping(uint256 => struct PaintContract.Paint)",
						"numberOfBytes": "32",
						"value": "t_struct(Paint)16_storage"
					},
					"t_string_storage": {
						"encoding": "bytes",
						"label": "string",
						"numberOfBytes": "32"
					},
					"t_struct(Paint)16_storage": {
						"encoding": "inplace",
						"label": "struct PaintContract.Paint",
						"members": [
							{
								"astId": 5,
								"contract": "contracts/PaintContract.sol:PaintContract",
								"label": "id",
								"offset": 0,
								"slot": "0",
								"type": "t_uint256"
							},
							{
								"astId": 7,
								"contract": "contracts/PaintContract.sol:PaintContract",
								"label": "title",
								"offset": 0,
								"slot": "1",
								"type": "t_string_storage"
							},
							{
								"astId": 9,
								"contract": "contracts/PaintContract.sol:PaintContract",
								"label": "img",
								"offset": 0,
								"slot": "2",
								"type": "t_string_storage"
							},
							{
								"astId": 11,
								"contract": "contracts/PaintContract.sol:PaintContract",
								"label": "artist",
								"offset": 0,
								"slot": "3",
								"type": "t_string_storage"
							},
							{
								"astId": 13,
								"contract": "contracts/PaintContract.sol:PaintContract",
								"label": "price",
								"offset": 0,
								"slot": "4",
								"type": "t_uint256"
							},
							{
								"astId": 15,
								"contract": "contracts/PaintContract.sol:PaintContract",
								"label": "status",
								"offset": 0,
								"slot": "5",
								"type": "t_bool"
							}
						],
						"numberOfBytes": "192"
					},
					"t_uint256": {
						"encoding": "inplace",
						"label": "uint256",
						"numberOfBytes": "32"
					}
				}
			},
			"userdoc": {
				"kind": "user",
				"methods": {},
				"version": 1
			}
		}
	}
}