{
  "contractName": "PaintContract",
  "abi": [
    {
      "inputs": [],
      "stateMutability": "nonpayable",
      "type": "constructor"
    },
    {
      "anonymous": false,
      "inputs": [
        {
          "indexed": true,
          "internalType": "address",
          "name": "buyer",
          "type": "address"
        },
        {
          "indexed": true,
          "internalType": "uint256",
          "name": "paintId",
          "type": "uint256"
        }
      ],
      "name": "PaintPurchased",
      "type": "event"
    },
    {
      "inputs": [],
      "name": "owner",
      "outputs": [
        {
          "internalType": "address",
          "name": "",
          "type": "address"
        }
      ],
      "stateMutability": "view",
      "type": "function",
      "constant": true
    },
    {
      "inputs": [
        {
          "internalType": "uint256",
          "name": "",
          "type": "uint256"
        }
      ],
      "name": "paintOwners",
      "outputs": [
        {
          "internalType": "address",
          "name": "",
          "type": "address"
        }
      ],
      "stateMutability": "view",
      "type": "function",
      "constant": true
    },
    {
      "inputs": [
        {
          "internalType": "uint256",
          "name": "",
          "type": "uint256"
        }
      ],
      "name": "paintPrices",
      "outputs": [
        {
          "internalType": "uint256",
          "name": "",
          "type": "uint256"
        }
      ],
      "stateMutability": "view",
      "type": "function",
      "constant": true
    },
    {
      "inputs": [
        {
          "internalType": "uint256",
          "name": "",
          "type": "uint256"
        }
      ],
      "name": "paintPurchased",
      "outputs": [
        {
          "internalType": "bool",
          "name": "",
          "type": "bool"
        }
      ],
      "stateMutability": "view",
      "type": "function",
      "constant": true
    },
    {
      "inputs": [
        {
          "internalType": "uint256",
          "name": "paintId",
          "type": "uint256"
        },
        {
          "internalType": "uint256",
          "name": "price",
          "type": "uint256"
        }
      ],
      "name": "setPaintPrice",
      "outputs": [],
      "stateMutability": "nonpayable",
      "type": "function"
    },
    {
      "inputs": [
        {
          "internalType": "uint256",
          "name": "paintId",
          "type": "uint256"
        }
      ],
      "name": "purchasePaint",
      "outputs": [],
      "stateMutability": "payable",
      "type": "function",
      "payable": true
    },
    {
      "inputs": [
        {
          "internalType": "uint256",
          "name": "paintId",
          "type": "uint256"
        }
      ],
      "name": "getPaint",
      "outputs": [
        {
          "internalType": "address",
          "name": "",
          "type": "address"
        }
      ],
      "stateMutability": "view",
      "type": "function",
      "constant": true
    },
    {
      "inputs": [
        {
          "internalType": "address",
          "name": "newOwner",
          "type": "address"
        }
      ],
      "name": "setOwner",
      "outputs": [],
      "stateMutability": "nonpayable",
      "type": "function"
    }
  ],
  "bytecode": "0x608060405234801561001057600080fd5b50336000806101000a81548173ffffffffffffffffffffffffffffffffffffffff021916908373ffffffffffffffffffffffffffffffffffffffff16021790555061093e806100606000396000f3fe60806040526004361061007b5760003560e01c80638da5cb5b1161004e5780638da5cb5b1461013f57806394c176de1461016a578063d2b9583d14610193578063eb3df00f146101d05761007b565b806313af4035146100805780633b05a5b2146100a957806362b1b98d146100e6578063717b086014610123575b600080fd5b34801561008c57600080fd5b506100a760048036038101906100a29190610633565b61020d565b005b3480156100b557600080fd5b506100d060048036038101906100cb9190610696565b6102de565b6040516100dd91906106de565b60405180910390f35b3480156100f257600080fd5b5061010d60048036038101906101089190610696565b6102fe565b60405161011a9190610708565b60405180910390f35b61013d60048036038101906101389190610696565b610316565b005b34801561014b57600080fd5b50610154610492565b6040516101619190610732565b60405180910390f35b34801561017657600080fd5b50610191600480360381019061018c919061074d565b6104b6565b005b34801561019f57600080fd5b506101ba60048036038101906101b59190610696565b610560565b6040516101c79190610732565b60405180910390f35b3480156101dc57600080fd5b506101f760048036038101906101f29190610696565b610593565b6040516102049190610732565b60405180910390f35b60008054906101000a900473ffffffffffffffffffffffffffffffffffffffff1673ffffffffffffffffffffffffffffffffffffffff163373ffffffffffffffffffffffffffffffffffffffff161461029b576040517f08c379a000000000000000000000000000000000000000000000000000000000815260040161029290610810565b60405180910390fd5b806000806101000a81548173ffffffffffffffffffffffffffffffffffffffff021916908373ffffffffffffffffffffffffffffffffffffffff16021790555050565b60026020528060005260406000206000915054906101000a900460ff1681565b60036020528060005260406000206000915090505481565b6002600082815260200190815260200160002060009054906101000a900460ff1615610377576040517f08c379a000000000000000000000000000000000000000000000000000000000815260040161036e9061087c565b60405180910390fd5b60036000828152602001908152602001600020543410156103cd576040517f08c379a00000000000000000000000000000000000000000000000000000000081526004016103c4906108e8565b60405180910390fd5b336001600083815260200190815260200160002060006101000a81548173ffffffffffffffffffffffffffffffffffffffff021916908373ffffffffffffffffffffffffffffffffffffffff16021790555060016002600083815260200190815260200160002060006101000a81548160ff021916908315150217905550803373ffffffffffffffffffffffffffffffffffffffff167f697fd06253f28e79af2d7e8cba6ac3c3f7804a8b0a43210c3036cddba1e1f48160405160405180910390a350565b60008054906101000a900473ffffffffffffffffffffffffffffffffffffffff1681565b60008054906101000a900473ffffffffffffffffffffffffffffffffffffffff1673ffffffffffffffffffffffffffffffffffffffff163373ffffffffffffffffffffffffffffffffffffffff1614610544576040517f08c379a000000000000000000000000000000000000000000000000000000000815260040161053b90610810565b60405180910390fd5b8060036000848152602001908152602001600020819055505050565b60016020528060005260406000206000915054906101000a900473ffffffffffffffffffffffffffffffffffffffff1681565b60006001600083815260200190815260200160002060009054906101000a900473ffffffffffffffffffffffffffffffffffffffff169050919050565b600080fd5b600073ffffffffffffffffffffffffffffffffffffffff82169050919050565b6000610600826105d5565b9050919050565b610610816105f5565b811461061b57600080fd5b50565b60008135905061062d81610607565b92915050565b600060208284031215610649576106486105d0565b5b60006106578482850161061e565b91505092915050565b6000819050919050565b61067381610660565b811461067e57600080fd5b50565b6000813590506106908161066a565b92915050565b6000602082840312156106ac576106ab6105d0565b5b60006106ba84828501610681565b91505092915050565b60008115159050919050565b6106d8816106c3565b82525050565b60006020820190506106f360008301846106cf565b92915050565b61070281610660565b82525050565b600060208201905061071d60008301846106f9565b92915050565b61072c816105f5565b82525050565b60006020820190506107476000830184610723565b92915050565b60008060408385031215610764576107636105d0565b5b600061077285828601610681565b925050602061078385828601610681565b9150509250929050565b600082825260208201905092915050565b7f4f6e6c7920746865206f776e65722063616e2063616c6c20746869732066756e60008201527f6374696f6e000000000000000000000000000000000000000000000000000000602082015250565b60006107fa60258361078d565b91506108058261079e565b604082019050919050565b60006020820190508181036000830152610829816107ed565b9050919050565b7f5061696e7420616c726561647920707572636861736564000000000000000000600082015250565b600061086660178361078d565b915061087182610830565b602082019050919050565b6000602082019050818103600083015261089581610859565b9050919050565b7f4e6f7420656e6f7567682045746865722073656e740000000000000000000000600082015250565b60006108d260158361078d565b91506108dd8261089c565b602082019050919050565b60006020820190508181036000830152610901816108c5565b905091905056fea2646970667358221220911c90751e03b71417d9cd2f20b14e6b032bf7e5f8551aba95557458165b747464736f6c63430008130033",
  "immutableReferences": {},
  "source": "// SPDX-License-Identifier: MIT\r\npragma solidity ^0.8.0;\r\n\r\ncontract PaintContract {\r\n    address public owner;\r\n    mapping(uint256 => address) public paintOwners;\r\n    mapping(uint256 => bool) public paintPurchased;\r\n    //Mapping per convertire i prezzi\r\n    mapping(uint256 => uint256) public paintPrices;\r\n\r\n    event PaintPurchased(address indexed buyer, uint256 indexed paintId);\r\n\r\n    modifier onlyOwner() {\r\n        require(msg.sender == owner, \"Only the owner can call this function\");\r\n        _;\r\n    }\r\n\r\n    constructor() {\r\n        owner = msg.sender;\r\n    }\r\n\r\n    //Imposta il prezzo\r\n    function setPaintPrice(uint256 paintId, uint256 price) external onlyOwner {\r\n        paintPrices[paintId] = price;\r\n    }\r\n\r\n    function purchasePaint(uint256 paintId) external payable {\r\n        require(!paintPurchased[paintId], \"Paint already purchased\");\r\n        require(msg.value >= paintPrices[paintId], \"Not enough Ether sent\");\r\n\r\n        paintOwners[paintId] = msg.sender;\r\n        paintPurchased[paintId] = true;\r\n\r\n        emit PaintPurchased(msg.sender, paintId);\r\n    }\r\n\r\n    function getPaint(uint256 paintId) external view returns (address) {\r\n        return paintOwners[paintId];\r\n    }\r\n\r\n    function setOwner(address newOwner) external onlyOwner {\r\n        owner = newOwner;\r\n    }\r\n}\r\n",
  "sourcePath": "C:\\Users\\angel\\OneDrive\\Desktop\\Chain_Of_Art\\Chain-Of-Art\\contracts\\PaintContract.sol",
  "compiler": {
    "name": "solc",
    "version": "0.8.19+commit.7dd6d404.Emscripten.clang"
  },
  "schemaVersion": "3.4.16",
  "updatedAt": "2024-01-07T15:52:26.507Z",
  "networkType": "ethereum",
  "devdoc": {
    "kind": "dev",
    "methods": {},
    "version": 1
  },
  "userdoc": {
    "kind": "user",
    "methods": {},
    "version": 1
  }
}