{
  "contractName": "PaintContract",
  "abi": [
    {
      "inputs": [],
      "stateMutability": "nonpayable",
      "type": "constructor"
    },
    {
      "anonymous": false,
      "inputs": [
        {
          "indexed": true,
          "internalType": "uint256",
          "name": "paintId",
          "type": "uint256"
        },
        {
          "indexed": true,
          "internalType": "address",
          "name": "buyer",
          "type": "address"
        }
      ],
      "name": "PaintPurchased",
      "type": "event"
    },
    {
      "inputs": [
        {
          "internalType": "uint256",
          "name": "",
          "type": "uint256"
        }
      ],
      "name": "paints",
      "outputs": [
        {
          "internalType": "uint256",
          "name": "id",
          "type": "uint256"
        },
        {
          "internalType": "string",
          "name": "name",
          "type": "string"
        },
        {
          "internalType": "string",
          "name": "image",
          "type": "string"
        },
        {
          "internalType": "string",
          "name": "artist",
          "type": "string"
        },
        {
          "internalType": "uint256",
          "name": "price",
          "type": "uint256"
        },
        {
          "internalType": "bool",
          "name": "isAvailable",
          "type": "bool"
        }
      ],
      "stateMutability": "view",
      "type": "function"
    },
    {
      "inputs": [],
      "name": "paintsCount",
      "outputs": [
        {
          "internalType": "uint256",
          "name": "",
          "type": "uint256"
        }
      ],
      "stateMutability": "view",
      "type": "function"
    },
    {
      "inputs": [
        {
          "internalType": "string",
          "name": "name",
          "type": "string"
        },
        {
          "internalType": "string",
          "name": "image",
          "type": "string"
        },
        {
          "internalType": "string",
          "name": "artist",
          "type": "string"
        },
        {
          "internalType": "uint256",
          "name": "price",
          "type": "uint256"
        }
      ],
      "name": "addPaint",
      "outputs": [],
      "stateMutability": "nonpayable",
      "type": "function"
    },
    {
      "inputs": [
        {
          "internalType": "uint256",
          "name": "paintId",
          "type": "uint256"
        }
      ],
      "name": "purchasePaint",
      "outputs": [],
      "stateMutability": "payable",
      "type": "function"
    }
  ],
  "bytecode": "0x60806040523480156200001157600080fd5b50620000cb6040518060400160405280601081526020017f44697374657365207374656c6c617465000000000000000000000000000000008152506040518060400160405280600c81526020017f696d672f6169312e6a70656700000000000000000000000000000000000000008152506040518060400160405280601381526020017f416c657373616e64726f2056696272616e746500000000000000000000000000815250651e7e42b64837620000d160201b60201c565b62000593565b60016000815480929190620000e690620001ef565b91905055506040518060c001604052806001548152602001858152602001848152602001838152602001828152602001600115158152506000806001548152602001908152602001600020600082015181600001556020820151816001019081620001529190620004ac565b5060408201518160020190816200016a9190620004ac565b506060820151816003019081620001829190620004ac565b506080820151816004015560a08201518160050160006101000a81548160ff02191690831515021790555090505050505050565b7f4e487b7100000000000000000000000000000000000000000000000000000000600052601160045260246000fd5b6000819050919050565b6000620001fc82620001e5565b91507fffffffffffffffffffffffffffffffffffffffffffffffffffffffffffffffff8203620002315762000230620001b6565b5b600182019050919050565b600081519050919050565b7f4e487b7100000000000000000000000000000000000000000000000000000000600052604160045260246000fd5b7f4e487b7100000000000000000000000000000000000000000000000000000000600052602260045260246000fd5b60006002820490506001821680620002be57607f821691505b602082108103620002d457620002d362000276565b5b50919050565b60008190508160005260206000209050919050565b60006020601f8301049050919050565b600082821b905092915050565b6000600883026200033e7fffffffffffffffffffffffffffffffffffffffffffffffffffffffffffffffff82620002ff565b6200034a8683620002ff565b95508019841693508086168417925050509392505050565b6000819050919050565b60006200038d620003876200038184620001e5565b62000362565b620001e5565b9050919050565b6000819050919050565b620003a9836200036c565b620003c1620003b88262000394565b8484546200030c565b825550505050565b600090565b620003d8620003c9565b620003e58184846200039e565b505050565b5b818110156200040d5762000401600082620003ce565b600181019050620003eb565b5050565b601f8211156200045c576200042681620002da565b6200043184620002ef565b8101602085101562000441578190505b620004596200045085620002ef565b830182620003ea565b50505b505050565b600082821c905092915050565b6000620004816000198460080262000461565b1980831691505092915050565b60006200049c83836200046e565b9150826002028217905092915050565b620004b7826200023c565b67ffffffffffffffff811115620004d357620004d262000247565b5b620004df8254620002a5565b620004ec82828562000411565b600060209050601f8311600181146200052457600084156200050f578287015190505b6200051b85826200048e565b8655506200058b565b601f1984166200053486620002da565b60005b828110156200055e5784890151825560018201915060208501945060208101905062000537565b868310156200057e57848901516200057a601f8916826200046e565b8355505b6001600288020188555050505b505050505050565b610ce180620005a36000396000f3fe60806040526004361061003f5760003560e01c80635eeacd96146100445780636e65db3e1461006f578063717b0860146100b157806375091172146100cd575b600080fd5b34801561005057600080fd5b506100596100f6565b60405161006691906104e5565b60405180910390f35b34801561007b57600080fd5b5061009660048036038101906100919190610540565b6100fc565b6040516100a896959493929190610618565b60405180910390f35b6100cb60048036038101906100c69190610540565b6102dd565b005b3480156100d957600080fd5b506100f460048036038101906100ef91906107c3565b6103ef565b005b60015481565b6000602052806000526040600020600091509050806000015490806001018054610125906108ad565b80601f0160208091040260200160405190810160405280929190818152602001828054610151906108ad565b801561019e5780601f106101735761010080835404028352916020019161019e565b820191906000526020600020905b81548152906001019060200180831161018157829003601f168201915b5050505050908060020180546101b3906108ad565b80601f01602080910402602001604051908101604052809291908181526020018280546101df906108ad565b801561022c5780601f106102015761010080835404028352916020019161022c565b820191906000526020600020905b81548152906001019060200180831161020f57829003601f168201915b505050505090806003018054610241906108ad565b80601f016020809104026020016040519081016040528092919081815260200182805461026d906108ad565b80156102ba5780601f1061028f576101008083540402835291602001916102ba565b820191906000526020600020905b81548152906001019060200180831161029d57829003601f168201915b5050505050908060040154908060050160009054906101000a900460ff16905086565b600080600083815260200190815260200160002090508060050160009054906101000a900460ff16610344576040517f08c379a000000000000000000000000000000000000000000000000000000000815260040161033b9061092a565b60405180910390fd5b8060040154341461038a576040517f08c379a000000000000000000000000000000000000000000000000000000000815260040161038190610996565b60405180910390fd5b60008160050160006101000a81548160ff0219169083151502179055503373ffffffffffffffffffffffffffffffffffffffff16827fb63ec0ca7984504252b4e496d45fd24c27b44bd0336ae2e442403ba54767ed5060405160405180910390a35050565b60016000815480929190610402906109e5565b91905055506040518060c00160405280600154815260200185815260200184815260200183815260200182815260200160011515815250600080600154815260200190815260200160002060008201518160000155602082015181600101908161046c9190610bd9565b5060408201518160020190816104829190610bd9565b5060608201518160030190816104989190610bd9565b506080820151816004015560a08201518160050160006101000a81548160ff02191690831515021790555090505050505050565b6000819050919050565b6104df816104cc565b82525050565b60006020820190506104fa60008301846104d6565b92915050565b6000604051905090565b600080fd5b600080fd5b61051d816104cc565b811461052857600080fd5b50565b60008135905061053a81610514565b92915050565b6000602082840312156105565761055561050a565b5b60006105648482850161052b565b91505092915050565b600081519050919050565b600082825260208201905092915050565b60005b838110156105a757808201518184015260208101905061058c565b60008484015250505050565b6000601f19601f8301169050919050565b60006105cf8261056d565b6105d98185610578565b93506105e9818560208601610589565b6105f2816105b3565b840191505092915050565b60008115159050919050565b610612816105fd565b82525050565b600060c08201905061062d60008301896104d6565b818103602083015261063f81886105c4565b9050818103604083015261065381876105c4565b9050818103606083015261066781866105c4565b905061067660808301856104d6565b61068360a0830184610609565b979650505050505050565b600080fd5b600080fd5b7f4e487b7100000000000000000000000000000000000000000000000000000000600052604160045260246000fd5b6106d0826105b3565b810181811067ffffffffffffffff821117156106ef576106ee610698565b5b80604052505050565b6000610702610500565b905061070e82826106c7565b919050565b600067ffffffffffffffff82111561072e5761072d610698565b5b610737826105b3565b9050602081019050919050565b82818337600083830152505050565b600061076661076184610713565b6106f8565b90508281526020810184848401111561078257610781610693565b5b61078d848285610744565b509392505050565b600082601f8301126107aa576107a961068e565b5b81356107ba848260208601610753565b91505092915050565b600080600080608085870312156107dd576107dc61050a565b5b600085013567ffffffffffffffff8111156107fb576107fa61050f565b5b61080787828801610795565b945050602085013567ffffffffffffffff8111156108285761082761050f565b5b61083487828801610795565b935050604085013567ffffffffffffffff8111156108555761085461050f565b5b61086187828801610795565b92505060606108728782880161052b565b91505092959194509250565b7f4e487b7100000000000000000000000000000000000000000000000000000000600052602260045260246000fd5b600060028204905060018216806108c557607f821691505b6020821081036108d8576108d761087e565b5b50919050565b7f54686973207061696e74696e67206973206e6f7420617661696c61626c650000600082015250565b6000610914601e83610578565b915061091f826108de565b602082019050919050565b6000602082019050818103600083015261094381610907565b9050919050565b7f496e636f7272656374207061796d656e7420616d6f756e740000000000000000600082015250565b6000610980601883610578565b915061098b8261094a565b602082019050919050565b600060208201905081810360008301526109af81610973565b9050919050565b7f4e487b7100000000000000000000000000000000000000000000000000000000600052601160045260246000fd5b60006109f0826104cc565b91507fffffffffffffffffffffffffffffffffffffffffffffffffffffffffffffffff8203610a2257610a216109b6565b5b600182019050919050565b60008190508160005260206000209050919050565b60006020601f8301049050919050565b600082821b905092915050565b600060088302610a8f7fffffffffffffffffffffffffffffffffffffffffffffffffffffffffffffffff82610a52565b610a998683610a52565b95508019841693508086168417925050509392505050565b6000819050919050565b6000610ad6610ad1610acc846104cc565b610ab1565b6104cc565b9050919050565b6000819050919050565b610af083610abb565b610b04610afc82610add565b848454610a5f565b825550505050565b600090565b610b19610b0c565b610b24818484610ae7565b505050565b5b81811015610b4857610b3d600082610b11565b600181019050610b2a565b5050565b601f821115610b8d57610b5e81610a2d565b610b6784610a42565b81016020851015610b76578190505b610b8a610b8285610a42565b830182610b29565b50505b505050565b600082821c905092915050565b6000610bb060001984600802610b92565b1980831691505092915050565b6000610bc98383610b9f565b9150826002028217905092915050565b610be28261056d565b67ffffffffffffffff811115610bfb57610bfa610698565b5b610c0582546108ad565b610c10828285610b4c565b600060209050601f831160018114610c435760008415610c31578287015190505b610c3b8582610bbd565b865550610ca3565b601f198416610c5186610a2d565b60005b82811015610c7957848901518255600182019150602085019450602081019050610c54565b86831015610c965784890151610c92601f891682610b9f565b8355505b6001600288020188555050505b50505050505056fea26469706673582212200dfebe93298f2dec3124ed5292e8e5d4ce045531ef73e51d010a5df73e7af9b464736f6c63430008130033",
  "immutableReferences": {},
  "source": "// SPDX-License-Identifier: MIT\npragma solidity ^0.8.0;\n\ncontract PaintContract {\n    struct Paint {\n        uint256 id;\n        string name;\n        string image;\n        string artist;\n        uint256 price;\n        bool isAvailable;\n    }\n\n    mapping(uint256 => Paint) public paints;\n    uint256 public paintsCount;\n\n    event PaintPurchased(uint256 indexed paintId, address indexed buyer);\n\n    constructor() {\n        addPaint(\"Distese stellate\", \"img/ai1.jpeg\", \"Alessandro Vibrante\", 33527633954871);\n        // Aggiungi altri quadri se necessario\n    }\n\n    function addPaint(\n        string memory name,\n        string memory image,\n        string memory artist,\n        uint256 price\n    ) public {\n        paintsCount++;\n        paints[paintsCount] = Paint(paintsCount, name, image, artist, price, true);\n    }\n\n    function purchasePaint(uint256 paintId) public payable {\n        Paint storage paint = paints[paintId];\n\n        require(paint.isAvailable, \"This painting is not available\");\n        require(msg.value == paint.price, \"Incorrect payment amount\");\n\n        paint.isAvailable = false;\n        emit PaintPurchased(paintId, msg.sender);\n    }\n}\n",
  "sourcePath": "/Users/marcociano/Desktop/Chain-Of-Art/contracts/PaintContract.sol",
  "compiler": {
    "name": "solc",
    "version": "0.8.19+commit.7dd6d404.Emscripten.clang"
  },
  "schemaVersion": "3.4.16",
  "updatedAt": "2024-01-04T15:01:02.094Z",
  "devdoc": {
    "kind": "dev",
    "methods": {},
    "version": 1
  },
  "userdoc": {
    "kind": "user",
    "methods": {},
    "version": 1
  }
}