{
  "contractName": "PaintContract",
  "abi": [
    {
      "inputs": [],
      "stateMutability": "nonpayable",
      "type": "constructor"
    },
    {
      "anonymous": false,
      "inputs": [
        {
          "indexed": true,
          "internalType": "address",
          "name": "buyer",
          "type": "address"
        },
        {
          "indexed": true,
          "internalType": "uint256",
          "name": "paintId",
          "type": "uint256"
        }
      ],
      "name": "purchasedPaint",
      "type": "event"
    },
    {
      "inputs": [],
      "name": "counterPaints",
      "outputs": [
        {
          "internalType": "uint256",
          "name": "",
          "type": "uint256"
        }
      ],
      "stateMutability": "view",
      "type": "function",
      "constant": true
    },
    {
      "inputs": [
        {
          "internalType": "uint256",
          "name": "",
          "type": "uint256"
        }
      ],
      "name": "paints",
      "outputs": [
        {
          "internalType": "uint256",
          "name": "id",
          "type": "uint256"
        },
        {
          "internalType": "string",
          "name": "title",
          "type": "string"
        },
        {
          "internalType": "string",
          "name": "img",
          "type": "string"
        },
        {
          "internalType": "string",
          "name": "artist",
          "type": "string"
        },
        {
          "internalType": "string",
          "name": "price",
          "type": "string"
        },
        {
          "internalType": "bool",
          "name": "isSold",
          "type": "bool"
        }
      ],
      "stateMutability": "view",
      "type": "function",
      "constant": true
    },
    {
      "inputs": [
        {
          "internalType": "address",
          "name": "",
          "type": "address"
        },
        {
          "internalType": "uint256",
          "name": "",
          "type": "uint256"
        }
      ],
      "name": "purchasedPaints",
      "outputs": [
        {
          "internalType": "uint256",
          "name": "",
          "type": "uint256"
        }
      ],
      "stateMutability": "view",
      "type": "function",
      "constant": true
    },
    {
      "inputs": [],
      "name": "loadPaints",
      "outputs": [],
      "stateMutability": "nonpayable",
      "type": "function"
    },
    {
      "inputs": [
        {
          "internalType": "uint256",
          "name": "id",
          "type": "uint256"
        },
        {
          "internalType": "string",
          "name": "title",
          "type": "string"
        },
        {
          "internalType": "string",
          "name": "img",
          "type": "string"
        },
        {
          "internalType": "string",
          "name": "artist",
          "type": "string"
        },
        {
          "internalType": "string",
          "name": "price",
          "type": "string"
        }
      ],
      "name": "createPaint",
      "outputs": [],
      "stateMutability": "nonpayable",
      "type": "function"
    },
    {
      "inputs": [
        {
          "internalType": "uint256",
          "name": "paintId",
          "type": "uint256"
        }
      ],
      "name": "getPaintDetails",
      "outputs": [
        {
          "internalType": "uint256",
          "name": "id",
          "type": "uint256"
        },
        {
          "internalType": "string",
          "name": "title",
          "type": "string"
        },
        {
          "internalType": "string",
          "name": "img",
          "type": "string"
        },
        {
          "internalType": "string",
          "name": "artist",
          "type": "string"
        },
        {
          "internalType": "string",
          "name": "price",
          "type": "string"
        },
        {
          "internalType": "bool",
          "name": "isSold",
          "type": "bool"
        }
      ],
      "stateMutability": "view",
      "type": "function",
      "constant": true
    },
    {
      "inputs": [
        {
          "internalType": "uint256",
          "name": "paintId",
          "type": "uint256"
        }
      ],
      "name": "paintExists",
      "outputs": [
        {
          "internalType": "bool",
          "name": "",
          "type": "bool"
        }
      ],
      "stateMutability": "view",
      "type": "function",
      "constant": true
    },
    {
      "inputs": [
        {
          "internalType": "uint256",
          "name": "paintId",
          "type": "uint256"
        }
      ],
      "name": "buyPaint",
      "outputs": [],
      "stateMutability": "payable",
      "type": "function",
      "payable": true
    },
    {
      "inputs": [
        {
          "internalType": "address",
          "name": "buyer",
          "type": "address"
        }
      ],
      "name": "getPurchasedPaintIds",
      "outputs": [
        {
          "internalType": "uint256[]",
          "name": "",
          "type": "uint256[]"
        }
      ],
      "stateMutability": "view",
      "type": "function",
      "constant": true
    },
    {
      "inputs": [
        {
          "internalType": "address",
          "name": "buyer",
          "type": "address"
        }
      ],
      "name": "getPurchasedPaints",
      "outputs": [
        {
          "components": [
            {
              "internalType": "uint256",
              "name": "id",
              "type": "uint256"
            },
            {
              "internalType": "string",
              "name": "title",
              "type": "string"
            },
            {
              "internalType": "string",
              "name": "img",
              "type": "string"
            },
            {
              "internalType": "string",
              "name": "artist",
              "type": "string"
            },
            {
              "internalType": "string",
              "name": "price",
              "type": "string"
            },
            {
              "internalType": "bool",
              "name": "isSold",
              "type": "bool"
            }
          ],
          "internalType": "struct PaintContract.Paint[]",
          "name": "",
          "type": "tuple[]"
        }
      ],
      "stateMutability": "view",
      "type": "function",
      "constant": true
    }
  ],
  "bytecode": "0x60806040523480156200001157600080fd5b5060008081905550620000296200002f60201b60201c565b62000ff5565b6200011960006040518060400160405280601081526020017f44697374657365205374656c6c617465000000000000000000000000000000008152506040518060400160405280600c81526020017f696d672f6169312e6a70656700000000000000000000000000000000000000008152506040518060400160405280601381526020017f416c657373616e64726f2056696272616e7465000000000000000000000000008152506040518060400160405280600481526020017f302e33330000000000000000000000000000000000000000000000000000000081525062000a2360201b60201c565b6200020360016040518060400160405280601c81526020017f53696e666f6e69612064692053706972616c6920436f736d69636865000000008152506040518060400160405280601081526020017f696d672f696d675f69615f312e706e67000000000000000000000000000000008152506040518060400160405280600f81526020017f4d6172636f205465737369746f726500000000000000000000000000000000008152506040518060400160405280600481526020017f302e34330000000000000000000000000000000000000000000000000000000081525062000a2360201b60201c565b620002ed60026040518060400160405280600981526020017f496c2067696f726e6f00000000000000000000000000000000000000000000008152506040518060400160405280600c81526020017f696d672f6169322e6a70656700000000000000000000000000000000000000008152506040518060400160405280601081526020017f566974746f72696f20466f726d616c65000000000000000000000000000000008152506040518060400160405280600481526020017f302e32360000000000000000000000000000000000000000000000000000000081525062000a2360201b60201c565b620003d760036040518060400160405280601381526020017f457175696c696272696f20417374726174746f000000000000000000000000008152506040518060400160405280600c81526020017f696d672f6169332e6a70656700000000000000000000000000000000000000008152506040518060400160405280600e81526020017f53696c76696f20426172617474610000000000000000000000000000000000008152506040518060400160405280600481526020017f302e34370000000000000000000000000000000000000000000000000000000081525062000a2360201b60201c565b620004c160046040518060400160405280600681526020017f4c274564656e00000000000000000000000000000000000000000000000000008152506040518060400160405280600c81526020017f696d672f6169342e6a70656700000000000000000000000000000000000000008152506040518060400160405280601181526020017f47696f656c65205061747465726e61746f0000000000000000000000000000008152506040518060400160405280600481526020017f302e32320000000000000000000000000000000000000000000000000000000081525062000a2360201b60201c565b620005ab60056040518060400160405280601581526020017f416c626120646f72617461206e656c20706165736500000000000000000000008152506040518060400160405280601081526020017f696d672f696d675f69615f322e706e67000000000000000000000000000000008152506040518060400160405280601181526020017f4c656f6e6172646f204c756d696e6f736f0000000000000000000000000000008152506040518060400160405280600481526020017f302e31340000000000000000000000000000000000000000000000000000000081525062000a2360201b60201c565b62000679600660405180606001604052806021815260200162003649602191396040518060400160405280601081526020017f696d672f696d675f69615f332e706e67000000000000000000000000000000008152506040518060400160405280600c81526020017f466c6176696f20536f676e6f00000000000000000000000000000000000000008152506040518060400160405280600481526020017f302e31350000000000000000000000000000000000000000000000000000000081525062000a2360201b60201c565b6200076360076040518060400160405280601681526020017f416c6c65677269612064656c2056696c6c616767696f000000000000000000008152506040518060400160405280600c81526020017f696d672f6169352e6a70656700000000000000000000000000000000000000008152506040518060400160405280601081526020017f4272756e6f20456c656d656e74617265000000000000000000000000000000008152506040518060400160405280600481526020017f302e34370000000000000000000000000000000000000000000000000000000081525062000a2360201b60201c565b6200084d60086040518060400160405280600881526020017f4c696265727461270000000000000000000000000000000000000000000000008152506040518060400160405280600c81526020017f696d672f6169362e6a70656700000000000000000000000000000000000000008152506040518060400160405280600d81526020017f416e67656c6f20526f6d616e6f000000000000000000000000000000000000008152506040518060400160405280600481526020017f302e34370000000000000000000000000000000000000000000000000000000081525062000a2360201b60201c565b6200093760096040518060400160405280601881526020017f46696f7269747572612064656c2053656e74696d656e746f00000000000000008152506040518060400160405280600c81526020017f696d672f6169372e6a70656700000000000000000000000000000000000000008152506040518060400160405280600f81526020017f4672616e636573636f20507265746500000000000000000000000000000000008152506040518060400160405280600481526020017f302e34310000000000000000000000000000000000000000000000000000000081525062000a2360201b60201c565b62000a21600a6040518060400160405280600781526020017f496c20766f6c6f000000000000000000000000000000000000000000000000008152506040518060400160405280600c81526020017f696d672f6169382e6a70656700000000000000000000000000000000000000008152506040518060400160405280600d81526020017f4c756361204365636368696e6f000000000000000000000000000000000000008152506040518060400160405280600481526020017f302e33370000000000000000000000000000000000000000000000000000000081525062000a2360201b60201c565b565b600060016000878152602001908152602001600020600001541462000a7f576040517f08c379a000000000000000000000000000000000000000000000000000000000815260040162000a769062000bf6565b60405180910390fd5b6040518060c00160405280868152602001858152602001848152602001838152602001828152602001600015158152506001600087815260200190815260200160002060008201518160000155602082015181600101908162000ae3919062000e92565b50604082015181600201908162000afb919062000e92565b50606082015181600301908162000b13919062000e92565b50608082015181600401908162000b2b919062000e92565b5060a08201518160050160006101000a81548160ff02191690831515021790555090505060008081548092919062000b639062000fa8565b91905055505050505050565b600082825260208201905092915050565b7f51756164726f20636f6e206c6f2073746573736f20494420676961272065736960008201527f7374656e74650000000000000000000000000000000000000000000000000000602082015250565b600062000bde60268362000b6f565b915062000beb8262000b80565b604082019050919050565b6000602082019050818103600083015262000c118162000bcf565b9050919050565b600081519050919050565b7f4e487b7100000000000000000000000000000000000000000000000000000000600052604160045260246000fd5b7f4e487b7100000000000000000000000000000000000000000000000000000000600052602260045260246000fd5b6000600282049050600182168062000c9a57607f821691505b60208210810362000cb05762000caf62000c52565b5b50919050565b60008190508160005260206000209050919050565b60006020601f8301049050919050565b600082821b905092915050565b60006008830262000d1a7fffffffffffffffffffffffffffffffffffffffffffffffffffffffffffffffff8262000cdb565b62000d26868362000cdb565b95508019841693508086168417925050509392505050565b6000819050919050565b6000819050919050565b600062000d7362000d6d62000d678462000d3e565b62000d48565b62000d3e565b9050919050565b6000819050919050565b62000d8f8362000d52565b62000da762000d9e8262000d7a565b84845462000ce8565b825550505050565b600090565b62000dbe62000daf565b62000dcb81848462000d84565b505050565b5b8181101562000df35762000de760008262000db4565b60018101905062000dd1565b5050565b601f82111562000e425762000e0c8162000cb6565b62000e178462000ccb565b8101602085101562000e27578190505b62000e3f62000e368562000ccb565b83018262000dd0565b50505b505050565b600082821c905092915050565b600062000e676000198460080262000e47565b1980831691505092915050565b600062000e82838362000e54565b9150826002028217905092915050565b62000e9d8262000c18565b67ffffffffffffffff81111562000eb95762000eb862000c23565b5b62000ec5825462000c81565b62000ed282828562000df7565b600060209050601f83116001811462000f0a576000841562000ef5578287015190505b62000f01858262000e74565b86555062000f71565b601f19841662000f1a8662000cb6565b60005b8281101562000f445784890151825560018201915060208501945060208101905062000f1d565b8683101562000f64578489015162000f60601f89168262000e54565b8355505b6001600288020188555050505b505050505050565b7f4e487b7100000000000000000000000000000000000000000000000000000000600052601160045260246000fd5b600062000fb58262000d3e565b91507fffffffffffffffffffffffffffffffffffffffffffffffffffffffffffffffff820362000fea5762000fe962000f79565b5b600182019050919050565b61264480620010056000396000f3fe6080604052600436106100915760003560e01c8063a8eca8b211610059578063a8eca8b214610194578063ac75006e146101b0578063b32ceade146101d9578063c7b92d7014610216578063f71426941461025857610091565b806303454b461461009657806310b46615146100c157806315ec8815146100fe5780636e10f8df1461013b5780636e65db3e14610152575b600080fd5b3480156100a257600080fd5b506100ab610295565b6040516100b891906119fa565b60405180910390f35b3480156100cd57600080fd5b506100e860048036038101906100e39190611a87565b61029b565b6040516100f59190611cce565b60405180910390f35b34801561010a57600080fd5b5061012560048036038101906101209190611a87565b610675565b6040516101329190611d9f565b60405180910390f35b34801561014757600080fd5b50610150610712565b005b34801561015e57600080fd5b5061017960048036038101906101749190611ded565b6110ad565b60405161018b96959493929190611e73565b60405180910390f35b6101ae60048036038101906101a99190611ded565b611316565b005b3480156101bc57600080fd5b506101d760048036038101906101d29190612025565b6114dc565b005b3480156101e557600080fd5b5061020060048036038101906101fb9190611ded565b61161b565b60405161020d9190612110565b60405180910390f35b34801561022257600080fd5b5061023d60048036038101906102389190611ded565b611649565b60405161024f96959493929190611e73565b60405180910390f35b34801561026457600080fd5b5061027f600480360381019061027a919061212b565b6118d6565b60405161028c91906119fa565b60405180910390f35b60005481565b60606000600260008473ffffffffffffffffffffffffffffffffffffffff1673ffffffffffffffffffffffffffffffffffffffff16815260200190815260200160002080548060200260200160405190810160405280929190818152602001828054801561032857602002820191906000526020600020905b815481526020019060010190808311610314575b505050505090506000815167ffffffffffffffff81111561034c5761034b611efa565b5b60405190808252806020026020018201604052801561038557816020015b6103726119a9565b81526020019060019003908161036a5790505b50905060005b825181101561066a57600160008483815181106103ab576103aa61216b565b5b602002602001015181526020019081526020016000206040518060c0016040529081600082015481526020016001820180546103e6906121c9565b80601f0160208091040260200160405190810160405280929190818152602001828054610412906121c9565b801561045f5780601f106104345761010080835404028352916020019161045f565b820191906000526020600020905b81548152906001019060200180831161044257829003601f168201915b50505050508152602001600282018054610478906121c9565b80601f01602080910402602001604051908101604052809291908181526020018280546104a4906121c9565b80156104f15780601f106104c6576101008083540402835291602001916104f1565b820191906000526020600020905b8154815290600101906020018083116104d457829003601f168201915b5050505050815260200160038201805461050a906121c9565b80601f0160208091040260200160405190810160405280929190818152602001828054610536906121c9565b80156105835780601f1061055857610100808354040283529160200191610583565b820191906000526020600020905b81548152906001019060200180831161056657829003601f168201915b5050505050815260200160048201805461059c906121c9565b80601f01602080910402602001604051908101604052809291908181526020018280546105c8906121c9565b80156106155780601f106105ea57610100808354040283529160200191610615565b820191906000526020600020905b8154815290600101906020018083116105f857829003601f168201915b505050505081526020016005820160009054906101000a900460ff16151515158152505082828151811061064c5761064b61216b565b5b6020026020010181905250808061066290612229565b91505061038b565b508092505050919050565b60606000600260008473ffffffffffffffffffffffffffffffffffffffff1673ffffffffffffffffffffffffffffffffffffffff16815260200190815260200160002080548060200260200160405190810160405280929190818152602001828054801561070257602002820191906000526020600020905b8154815260200190600101908083116106ee575b5050505050905080915050919050565b6107f460006040518060400160405280601081526020017f44697374657365205374656c6c617465000000000000000000000000000000008152506040518060400160405280600c81526020017f696d672f6169312e6a70656700000000000000000000000000000000000000008152506040518060400160405280601381526020017f416c657373616e64726f2056696272616e7465000000000000000000000000008152506040518060400160405280600481526020017f302e3333000000000000000000000000000000000000000000000000000000008152506114dc565b6108d660016040518060400160405280601c81526020017f53696e666f6e69612064692053706972616c6920436f736d69636865000000008152506040518060400160405280601081526020017f696d672f696d675f69615f312e706e67000000000000000000000000000000008152506040518060400160405280600f81526020017f4d6172636f205465737369746f726500000000000000000000000000000000008152506040518060400160405280600481526020017f302e3433000000000000000000000000000000000000000000000000000000008152506114dc565b6109b860026040518060400160405280600981526020017f496c2067696f726e6f00000000000000000000000000000000000000000000008152506040518060400160405280600c81526020017f696d672f6169322e6a70656700000000000000000000000000000000000000008152506040518060400160405280601081526020017f566974746f72696f20466f726d616c65000000000000000000000000000000008152506040518060400160405280600481526020017f302e3236000000000000000000000000000000000000000000000000000000008152506114dc565b610a9a60036040518060400160405280601381526020017f457175696c696272696f20417374726174746f000000000000000000000000008152506040518060400160405280600c81526020017f696d672f6169332e6a70656700000000000000000000000000000000000000008152506040518060400160405280600e81526020017f53696c76696f20426172617474610000000000000000000000000000000000008152506040518060400160405280600481526020017f302e3437000000000000000000000000000000000000000000000000000000008152506114dc565b610b7c60046040518060400160405280600681526020017f4c274564656e00000000000000000000000000000000000000000000000000008152506040518060400160405280600c81526020017f696d672f6169342e6a70656700000000000000000000000000000000000000008152506040518060400160405280601181526020017f47696f656c65205061747465726e61746f0000000000000000000000000000008152506040518060400160405280600481526020017f302e3232000000000000000000000000000000000000000000000000000000008152506114dc565b610c5e60056040518060400160405280601581526020017f416c626120646f72617461206e656c20706165736500000000000000000000008152506040518060400160405280601081526020017f696d672f696d675f69615f322e706e67000000000000000000000000000000008152506040518060400160405280601181526020017f4c656f6e6172646f204c756d696e6f736f0000000000000000000000000000008152506040518060400160405280600481526020017f302e3134000000000000000000000000000000000000000000000000000000008152506114dc565b610d2360066040518060600160405280602181526020016125ee602191396040518060400160405280601081526020017f696d672f696d675f69615f332e706e67000000000000000000000000000000008152506040518060400160405280600c81526020017f466c6176696f20536f676e6f00000000000000000000000000000000000000008152506040518060400160405280600481526020017f302e3135000000000000000000000000000000000000000000000000000000008152506114dc565b610e0560076040518060400160405280601681526020017f416c6c65677269612064656c2056696c6c616767696f000000000000000000008152506040518060400160405280600c81526020017f696d672f6169352e6a70656700000000000000000000000000000000000000008152506040518060400160405280601081526020017f4272756e6f20456c656d656e74617265000000000000000000000000000000008152506040518060400160405280600481526020017f302e3437000000000000000000000000000000000000000000000000000000008152506114dc565b610ee760086040518060400160405280600881526020017f4c696265727461270000000000000000000000000000000000000000000000008152506040518060400160405280600c81526020017f696d672f6169362e6a70656700000000000000000000000000000000000000008152506040518060400160405280600d81526020017f416e67656c6f20526f6d616e6f000000000000000000000000000000000000008152506040518060400160405280600481526020017f302e3437000000000000000000000000000000000000000000000000000000008152506114dc565b610fc960096040518060400160405280601881526020017f46696f7269747572612064656c2053656e74696d656e746f00000000000000008152506040518060400160405280600c81526020017f696d672f6169372e6a70656700000000000000000000000000000000000000008152506040518060400160405280600f81526020017f4672616e636573636f20507265746500000000000000000000000000000000008152506040518060400160405280600481526020017f302e3431000000000000000000000000000000000000000000000000000000008152506114dc565b6110ab600a6040518060400160405280600781526020017f496c20766f6c6f000000000000000000000000000000000000000000000000008152506040518060400160405280600c81526020017f696d672f6169382e6a70656700000000000000000000000000000000000000008152506040518060400160405280600d81526020017f4c756361204365636368696e6f000000000000000000000000000000000000008152506040518060400160405280600481526020017f302e3337000000000000000000000000000000000000000000000000000000008152506114dc565b565b60016020528060005260406000206000915090508060000154908060010180546110d6906121c9565b80601f0160208091040260200160405190810160405280929190818152602001828054611102906121c9565b801561114f5780601f106111245761010080835404028352916020019161114f565b820191906000526020600020905b81548152906001019060200180831161113257829003601f168201915b505050505090806002018054611164906121c9565b80601f0160208091040260200160405190810160405280929190818152602001828054611190906121c9565b80156111dd5780601f106111b2576101008083540402835291602001916111dd565b820191906000526020600020905b8154815290600101906020018083116111c057829003601f168201915b5050505050908060030180546111f2906121c9565b80601f016020809104026020016040519081016040528092919081815260200182805461121e906121c9565b801561126b5780601f106112405761010080835404028352916020019161126b565b820191906000526020600020905b81548152906001019060200180831161124e57829003601f168201915b505050505090806004018054611280906121c9565b80601f01602080910402602001604051908101604052809291908181526020018280546112ac906121c9565b80156112f95780601f106112ce576101008083540402835291602001916112f9565b820191906000526020600020905b8154815290600101906020018083116112dc57829003601f168201915b5050505050908060050160009054906101000a900460ff16905086565b60006001600083815260200190815260200160002090506113368261161b565b611375576040517f08c379a000000000000000000000000000000000000000000000000000000000815260040161136c906122bd565b60405180910390fd5b8060050160009054906101000a900460ff16156113c7576040517f08c379a00000000000000000000000000000000000000000000000000000000081526004016113be906122bd565b60405180910390fd5b6113d13383611907565b15611411576040517f08c379a0000000000000000000000000000000000000000000000000000000008152600401611408906122bd565b60405180910390fd5b60018160050160006101000a81548160ff021916908315150217905550600260003373ffffffffffffffffffffffffffffffffffffffff1673ffffffffffffffffffffffffffffffffffffffff168152602001908152602001600020829080600181540180825580915050600190039060005260206000200160009091909190915055813373ffffffffffffffffffffffffffffffffffffffff167f1219234621cfbda08eed13673c6e71cbf4b399ec00b0cdc44d8366e22d06670060405160405180910390a35050565b6000600160008781526020019081526020016000206000015414611535576040517f08c379a000000000000000000000000000000000000000000000000000000000815260040161152c9061234f565b60405180910390fd5b6040518060c001604052808681526020018581526020018481526020018381526020018281526020016000151581525060016000878152602001908152602001600020600082015181600001556020820151816001019081611597919061251b565b5060408201518160020190816115ad919061251b565b5060608201518160030190816115c3919061251b565b5060808201518160040190816115d9919061251b565b5060a08201518160050160006101000a81548160ff02191690831515021790555090505060008081548092919061160f90612229565b91905055505050505050565b60006001600083815260200190815260200160002060050160009054906101000a900460ff16159050919050565b60006060806060806000806001600089815260200190815260200160002090508060000154816001018260020183600301846004018560050160009054906101000a900460ff1684805461169c906121c9565b80601f01602080910402602001604051908101604052809291908181526020018280546116c8906121c9565b80156117155780601f106116ea57610100808354040283529160200191611715565b820191906000526020600020905b8154815290600101906020018083116116f857829003601f168201915b50505050509450838054611728906121c9565b80601f0160208091040260200160405190810160405280929190818152602001828054611754906121c9565b80156117a15780601f10611776576101008083540402835291602001916117a1565b820191906000526020600020905b81548152906001019060200180831161178457829003601f168201915b505050505093508280546117b4906121c9565b80601f01602080910402602001604051908101604052809291908181526020018280546117e0906121c9565b801561182d5780601f106118025761010080835404028352916020019161182d565b820191906000526020600020905b81548152906001019060200180831161181057829003601f168201915b50505050509250818054611840906121c9565b80601f016020809104026020016040519081016040528092919081815260200182805461186c906121c9565b80156118b95780601f1061188e576101008083540402835291602001916118b9565b820191906000526020600020905b81548152906001019060200180831161189c57829003601f168201915b505050505091509650965096509650965096505091939550919395565b600260205281600052604060002081815481106118f257600080fd5b90600052602060002001600091509150505481565b600080600260008573ffffffffffffffffffffffffffffffffffffffff1673ffffffffffffffffffffffffffffffffffffffff168152602001908152602001600020905060005b818054905081101561199c578382828154811061196e5761196d61216b565b5b906000526020600020015403611989576001925050506119a3565b808061199490612229565b91505061194e565b5060009150505b92915050565b6040518060c0016040528060008152602001606081526020016060815260200160608152602001606081526020016000151581525090565b6000819050919050565b6119f4816119e1565b82525050565b6000602082019050611a0f60008301846119eb565b92915050565b6000604051905090565b600080fd5b600080fd5b600073ffffffffffffffffffffffffffffffffffffffff82169050919050565b6000611a5482611a29565b9050919050565b611a6481611a49565b8114611a6f57600080fd5b50565b600081359050611a8181611a5b565b92915050565b600060208284031215611a9d57611a9c611a1f565b5b6000611aab84828501611a72565b91505092915050565b600081519050919050565b600082825260208201905092915050565b6000819050602082019050919050565b611ae9816119e1565b82525050565b600081519050919050565b600082825260208201905092915050565b60005b83811015611b29578082015181840152602081019050611b0e565b60008484015250505050565b6000601f19601f8301169050919050565b6000611b5182611aef565b611b5b8185611afa565b9350611b6b818560208601611b0b565b611b7481611b35565b840191505092915050565b60008115159050919050565b611b9481611b7f565b82525050565b600060c083016000830151611bb26000860182611ae0565b5060208301518482036020860152611bca8282611b46565b91505060408301518482036040860152611be48282611b46565b91505060608301518482036060860152611bfe8282611b46565b91505060808301518482036080860152611c188282611b46565b91505060a0830151611c2d60a0860182611b8b565b508091505092915050565b6000611c448383611b9a565b905092915050565b6000602082019050919050565b6000611c6482611ab4565b611c6e8185611abf565b935083602082028501611c8085611ad0565b8060005b85811015611cbc5784840389528151611c9d8582611c38565b9450611ca883611c4c565b925060208a01995050600181019050611c84565b50829750879550505050505092915050565b60006020820190508181036000830152611ce88184611c59565b905092915050565b600081519050919050565b600082825260208201905092915050565b6000819050602082019050919050565b6000611d288383611ae0565b60208301905092915050565b6000602082019050919050565b6000611d4c82611cf0565b611d568185611cfb565b9350611d6183611d0c565b8060005b83811015611d92578151611d798882611d1c565b9750611d8483611d34565b925050600181019050611d65565b5085935050505092915050565b60006020820190508181036000830152611db98184611d41565b905092915050565b611dca816119e1565b8114611dd557600080fd5b50565b600081359050611de781611dc1565b92915050565b600060208284031215611e0357611e02611a1f565b5b6000611e1184828501611dd8565b91505092915050565b600082825260208201905092915050565b6000611e3682611aef565b611e408185611e1a565b9350611e50818560208601611b0b565b611e5981611b35565b840191505092915050565b611e6d81611b7f565b82525050565b600060c082019050611e8860008301896119eb565b8181036020830152611e9a8188611e2b565b90508181036040830152611eae8187611e2b565b90508181036060830152611ec28186611e2b565b90508181036080830152611ed68185611e2b565b9050611ee560a0830184611e64565b979650505050505050565b600080fd5b600080fd5b7f4e487b7100000000000000000000000000000000000000000000000000000000600052604160045260246000fd5b611f3282611b35565b810181811067ffffffffffffffff82111715611f5157611f50611efa565b5b80604052505050565b6000611f64611a15565b9050611f708282611f29565b919050565b600067ffffffffffffffff821115611f9057611f8f611efa565b5b611f9982611b35565b9050602081019050919050565b82818337600083830152505050565b6000611fc8611fc384611f75565b611f5a565b905082815260208101848484011115611fe457611fe3611ef5565b5b611fef848285611fa6565b509392505050565b600082601f83011261200c5761200b611ef0565b5b813561201c848260208601611fb5565b91505092915050565b600080600080600060a0868803121561204157612040611a1f565b5b600061204f88828901611dd8565b955050602086013567ffffffffffffffff8111156120705761206f611a24565b5b61207c88828901611ff7565b945050604086013567ffffffffffffffff81111561209d5761209c611a24565b5b6120a988828901611ff7565b935050606086013567ffffffffffffffff8111156120ca576120c9611a24565b5b6120d688828901611ff7565b925050608086013567ffffffffffffffff8111156120f7576120f6611a24565b5b61210388828901611ff7565b9150509295509295909350565b60006020820190506121256000830184611e64565b92915050565b6000806040838503121561214257612141611a1f565b5b600061215085828601611a72565b925050602061216185828601611dd8565b9150509250929050565b7f4e487b7100000000000000000000000000000000000000000000000000000000600052603260045260246000fd5b7f4e487b7100000000000000000000000000000000000000000000000000000000600052602260045260246000fd5b600060028204905060018216806121e157607f821691505b6020821081036121f4576121f361219a565b5b50919050565b7f4e487b7100000000000000000000000000000000000000000000000000000000600052601160045260246000fd5b6000612234826119e1565b91507fffffffffffffffffffffffffffffffffffffffffffffffffffffffffffffffff8203612266576122656121fa565b5b600182019050919050565b7f496c2071756164726f206e6f6e20652720646973706f6e6962696c6500000000600082015250565b60006122a7601c83611e1a565b91506122b282612271565b602082019050919050565b600060208201905081810360008301526122d68161229a565b9050919050565b7f51756164726f20636f6e206c6f2073746573736f20494420676961272065736960008201527f7374656e74650000000000000000000000000000000000000000000000000000602082015250565b6000612339602683611e1a565b9150612344826122dd565b604082019050919050565b600060208201905081810360008301526123688161232c565b9050919050565b60008190508160005260206000209050919050565b60006020601f8301049050919050565b600082821b905092915050565b6000600883026123d17fffffffffffffffffffffffffffffffffffffffffffffffffffffffffffffffff82612394565b6123db8683612394565b95508019841693508086168417925050509392505050565b6000819050919050565b600061241861241361240e846119e1565b6123f3565b6119e1565b9050919050565b6000819050919050565b612432836123fd565b61244661243e8261241f565b8484546123a1565b825550505050565b600090565b61245b61244e565b612466818484612429565b505050565b5b8181101561248a5761247f600082612453565b60018101905061246c565b5050565b601f8211156124cf576124a08161236f565b6124a984612384565b810160208510156124b8578190505b6124cc6124c485612384565b83018261246b565b50505b505050565b600082821c905092915050565b60006124f2600019846008026124d4565b1980831691505092915050565b600061250b83836124e1565b9150826002028217905092915050565b61252482611aef565b67ffffffffffffffff81111561253d5761253c611efa565b5b61254782546121c9565b61255282828561248e565b600060209050601f8311600181146125855760008415612573578287015190505b61257d85826124ff565b8655506125e5565b601f1984166125938661236f565b60005b828110156125bb57848901518255600182019150602085019450602081019050612596565b868310156125d857848901516125d4601f8916826124e1565b8355505b6001600288020188555050505b50505050505056fe54656d706573746120536f6c6172652073756c6c652043696d6520457465726e65a26469706673582212204af4e81896f4dc9fa9a15578d2949079561a72cea68bc16cb39d6120a4e09e0564736f6c6343000813003354656d706573746120536f6c6172652073756c6c652043696d6520457465726e65",
  "immutableReferences": {},
  "source": "// SPDX-License-Identifier: MIT\npragma solidity ^0.8.0;\n\n// Contratto per la gestione di una collezione di quadri digitali\ncontract PaintContract {\n    uint public counterPaints;\n\n    // Struttura di un singolo quadro\n    struct Paint {\n        uint id;\n        string title;\n        string img;\n        string artist;\n        string price;\n        bool isSold;\n    }\n\n    // Mappatura degli ID dei quadri con i loro dettagli\n    mapping(uint => Paint) public paints;\n\n    // Mappatura degli indirizzi degli acquirenti con gli ID dei quadri acquistati\n    mapping(address => uint[]) public purchasedPaints;\n\n    // Evento emesso quando un quadro viene acquistato\n    event purchasedPaint(address indexed buyer, uint indexed paintId);\n\n    // Costruttore del contratto\n    constructor() {\n        counterPaints = 0;\n        loadPaints();\n    }\n\n    function loadPaints() public {\n        createPaint(\n            0,\n            \"Distese Stellate\",\n            \"img/ai1.jpeg\",\n            \"Alessandro Vibrante\",\n            \"0.33\"\n        );\n        createPaint(\n            1,\n            \"Sinfonia di Spirali Cosmiche\",\n            \"img/img_ia_1.png\",\n            \"Marco Tessitore\",\n            \"0.43\"\n        );\n        createPaint(2, \"Il giorno\", \"img/ai2.jpeg\", \"Vittorio Formale\", \"0.26\");\n        createPaint(\n            3,\n            \"Equilibrio Astratto\",\n            \"img/ai3.jpeg\",\n            \"Silvio Baratta\",\n            \"0.47\"\n        );\n        createPaint(4, \"L'Eden\", \"img/ai4.jpeg\", \"Gioele Patternato\", \"0.22\");\n        createPaint(\n            5,\n            \"Alba dorata nel paese\",\n            \"img/img_ia_2.png\",\n            \"Leonardo Luminoso\",\n            \"0.14\"\n        );\n        createPaint(\n            6,\n            \"Tempesta Solare sulle Cime Eterne\",\n            \"img/img_ia_3.png\",\n            \"Flavio Sogno\",\n            \"0.15\"\n        );\n        createPaint(\n            7,\n            \"Allegria del Villaggio\",\n            \"img/ai5.jpeg\",\n            \"Bruno Elementare\",\n            \"0.47\"\n        );\n        createPaint(8, \"Liberta'\", \"img/ai6.jpeg\", \"Angelo Romano\", \"0.47\");\n        createPaint(\n            9,\n            \"Fioritura del Sentimento\",\n            \"img/ai7.jpeg\",\n            \"Francesco Prete\",\n            \"0.41\"\n        );\n        createPaint(10, \"Il volo\", \"img/ai8.jpeg\", \"Luca Cecchino\", \"0.37\");\n    }\n\n    // Funzione per creare un nuovo quadro nella collezione\n    function createPaint(\n        uint id,\n        string memory title,\n        string memory img,\n        string memory artist,\n        string memory price\n    ) public {\n        require(paints[id].id == 0, \"Quadro con lo stesso ID gia' esistente\");\n\n        paints[id] = Paint(id, title, img, artist, price, false);\n        counterPaints++;\n    }\n\n    // Funzione per ottenere i dettagli di un quadro dato il suo ID\n    function getPaintDetails(\n        uint paintId\n    )\n        public\n        view\n        returns (\n            uint id,\n            string memory title,\n            string memory img,\n            string memory artist,\n            string memory price,\n            bool isSold\n        )\n    {\n        Paint storage paint = paints[paintId];\n        return (\n            paint.id,\n            paint.title,\n            paint.img,\n            paint.artist,\n            paint.price,\n            paint.isSold\n        );\n    }\n\n    function paintExists(uint paintId) public view returns (bool) {\n         return !paints[paintId].isSold;\n    }\n\n    // Funzione per acquistare un quadro\n    function buyPaint(uint paintId) public payable {\n        Paint storage paint = paints[paintId];\n         require(paintExists(paintId), \"Il quadro non e' disponibile\");\n\n        // Verifica se il quadro  disponibile\n        require(!paint.isSold, \"Il quadro non e' disponibile\");\n\n        // Verifica se l'utente ha gi acquistato questo quadro\n        require(\n            !purchasedStatus(msg.sender, paintId),\n            \"Il quadro non e' disponibile\"\n        );\n\n        // Aggiorna lo stato del quadro come venduto\n        paint.isSold = true;\n\n        // Aggiungi l'ID del quadro agli acquisti dell'utente\n        purchasedPaints[msg.sender].push(paintId);\n\n        // Emetti l'evento per registrare l'acquisto\n        emit purchasedPaint(msg.sender, paintId);\n    }\n\n    // Funzione di supporto per verificare se un utente ha gi acquistato un quadro\n    function purchasedStatus(\n        address buyer,\n        uint paintId\n    ) internal view returns (bool) {\n        uint[] storage purchasedIds = purchasedPaints[buyer];\n        for (uint i = 0; i < purchasedIds.length; i++) {\n            if (purchasedIds[i] == paintId) {\n                return true;\n            }\n        }\n        return false;\n    }\n\n    // Funzione per ottenere gli ID dei quadri acquistati da un utente\n    function getPurchasedPaintIds(\n        address buyer\n    ) public view returns (uint[] memory) {\n        uint[] memory purchasedIds = purchasedPaints[buyer];\n        return purchasedIds;\n    }\n\n    // Funzione per ottenere i dettagli dei quadri acquistati da un utente\n    function getPurchasedPaints(\n        address buyer\n    ) public view returns (Paint[] memory) {\n        uint[] memory purchasedIds = purchasedPaints[buyer];\n        Paint[] memory purchasedPaintsArray = new Paint[](purchasedIds.length);\n\n        for (uint i = 0; i < purchasedIds.length; i++) {\n            purchasedPaintsArray[i] = paints[purchasedIds[i]];\n        }\n        return purchasedPaintsArray;\n    }\n}\n",
  "sourcePath": "/Users/marcociano/Desktop/Chain-Of-Art/contracts/PaintContract.sol",
  "compiler": {
    "name": "solc",
    "version": "0.8.19+commit.7dd6d404.Emscripten.clang"
  },
  "schemaVersion": "3.4.16",
  "updatedAt": "2024-01-18T13:33:32.463Z",
  "networkType": "ethereum",
  "devdoc": {
    "kind": "dev",
    "methods": {},
    "version": 1
  },
  "userdoc": {
    "kind": "user",
    "methods": {},
    "version": 1
  }
}