{
  "contractName": "PaintContract",
  "abi": [
    {
      "inputs": [],
      "stateMutability": "nonpayable",
      "type": "constructor"
    },
    {
      "anonymous": false,
      "inputs": [
        {
          "indexed": true,
          "internalType": "address",
          "name": "buyer",
          "type": "address"
        },
        {
          "indexed": true,
          "internalType": "uint256",
          "name": "paintId",
          "type": "uint256"
        }
      ],
      "name": "purchasedPaint",
      "type": "event"
    },
    {
      "inputs": [],
      "name": "counterPaints",
      "outputs": [
        {
          "internalType": "uint256",
          "name": "",
          "type": "uint256"
        }
      ],
      "stateMutability": "view",
      "type": "function",
      "constant": true
    },
    {
      "inputs": [
        {
          "internalType": "uint256",
          "name": "",
          "type": "uint256"
        }
      ],
      "name": "paints",
      "outputs": [
        {
          "internalType": "uint256",
          "name": "id",
          "type": "uint256"
        },
        {
          "internalType": "string",
          "name": "title",
          "type": "string"
        },
        {
          "internalType": "string",
          "name": "img",
          "type": "string"
        },
        {
          "internalType": "string",
          "name": "artist",
          "type": "string"
        },
        {
          "internalType": "string",
          "name": "price",
          "type": "string"
        },
        {
          "internalType": "bool",
          "name": "isSold",
          "type": "bool"
        }
      ],
      "stateMutability": "view",
      "type": "function",
      "constant": true
    },
    {
      "inputs": [
        {
          "internalType": "address",
          "name": "",
          "type": "address"
        },
        {
          "internalType": "uint256",
          "name": "",
          "type": "uint256"
        }
      ],
      "name": "purchasedPaints",
      "outputs": [
        {
          "internalType": "uint256",
          "name": "",
          "type": "uint256"
        }
      ],
      "stateMutability": "view",
      "type": "function",
      "constant": true
    },
    {
      "inputs": [],
      "name": "loadPaints",
      "outputs": [],
      "stateMutability": "nonpayable",
      "type": "function"
    },
    {
      "inputs": [
        {
          "internalType": "uint256",
          "name": "id",
          "type": "uint256"
        },
        {
          "internalType": "string",
          "name": "title",
          "type": "string"
        },
        {
          "internalType": "string",
          "name": "img",
          "type": "string"
        },
        {
          "internalType": "string",
          "name": "artist",
          "type": "string"
        },
        {
          "internalType": "string",
          "name": "price",
          "type": "string"
        }
      ],
      "name": "createPaint",
      "outputs": [],
      "stateMutability": "nonpayable",
      "type": "function"
    },
    {
      "inputs": [
        {
          "internalType": "uint256",
          "name": "paintId",
          "type": "uint256"
        }
      ],
      "name": "getPaintDetails",
      "outputs": [
        {
          "internalType": "uint256",
          "name": "id",
          "type": "uint256"
        },
        {
          "internalType": "string",
          "name": "title",
          "type": "string"
        },
        {
          "internalType": "string",
          "name": "img",
          "type": "string"
        },
        {
          "internalType": "string",
          "name": "artist",
          "type": "string"
        },
        {
          "internalType": "string",
          "name": "price",
          "type": "string"
        },
        {
          "internalType": "bool",
          "name": "isSold",
          "type": "bool"
        }
      ],
      "stateMutability": "view",
      "type": "function",
      "constant": true
    },
    {
      "inputs": [
        {
          "internalType": "uint256",
          "name": "paintId",
          "type": "uint256"
        }
      ],
      "name": "buyPaint",
      "outputs": [],
      "stateMutability": "payable",
      "type": "function",
      "payable": true
    },
    {
      "inputs": [
        {
          "internalType": "address",
          "name": "buyer",
          "type": "address"
        }
      ],
      "name": "getPurchasedPaintIds",
      "outputs": [
        {
          "internalType": "uint256[]",
          "name": "",
          "type": "uint256[]"
        }
      ],
      "stateMutability": "view",
      "type": "function",
      "constant": true
    },
    {
      "inputs": [
        {
          "internalType": "address",
          "name": "buyer",
          "type": "address"
        }
      ],
      "name": "getPurchasedPaints",
      "outputs": [
        {
          "components": [
            {
              "internalType": "uint256",
              "name": "id",
              "type": "uint256"
            },
            {
              "internalType": "string",
              "name": "title",
              "type": "string"
            },
            {
              "internalType": "string",
              "name": "img",
              "type": "string"
            },
            {
              "internalType": "string",
              "name": "artist",
              "type": "string"
            },
            {
              "internalType": "string",
              "name": "price",
              "type": "string"
            },
            {
              "internalType": "bool",
              "name": "isSold",
              "type": "bool"
            }
          ],
          "internalType": "struct PaintContract.Paint[]",
          "name": "",
          "type": "tuple[]"
        }
      ],
      "stateMutability": "view",
      "type": "function",
      "constant": true
    }
  ],
  "bytecode": "0x60806040523480156200001157600080fd5b5060008081905550620000296200002f60201b60201c565b62000ff5565b6200011960006040518060400160405280601081526020017f44697374657365205374656c6c617465000000000000000000000000000000008152506040518060400160405280600c81526020017f696d672f6169312e6a70656700000000000000000000000000000000000000008152506040518060400160405280601381526020017f416c657373616e64726f2056696272616e7465000000000000000000000000008152506040518060400160405280600481526020017f302e33330000000000000000000000000000000000000000000000000000000081525062000a2360201b60201c565b6200020360016040518060400160405280601c81526020017f53696e666f6e69612064692053706972616c6920436f736d69636865000000008152506040518060400160405280601081526020017f696d672f696d675f69615f312e706e67000000000000000000000000000000008152506040518060400160405280600f81526020017f4d6172636f205465737369746f726500000000000000000000000000000000008152506040518060400160405280600481526020017f302e34330000000000000000000000000000000000000000000000000000000081525062000a2360201b60201c565b620002ed60026040518060400160405280600981526020017f496c2067696f726e6f00000000000000000000000000000000000000000000008152506040518060400160405280600c81526020017f696d672f6169322e6a70656700000000000000000000000000000000000000008152506040518060400160405280601081526020017f566974746f72696f20466f726d616c65000000000000000000000000000000008152506040518060400160405280600481526020017f302e32360000000000000000000000000000000000000000000000000000000081525062000a2360201b60201c565b620003d760036040518060400160405280601381526020017f457175696c696272696f20417374726174746f000000000000000000000000008152506040518060400160405280600c81526020017f696d672f6169332e6a70656700000000000000000000000000000000000000008152506040518060400160405280600e81526020017f53696c76696f20426172617474610000000000000000000000000000000000008152506040518060400160405280600481526020017f302e34370000000000000000000000000000000000000000000000000000000081525062000a2360201b60201c565b620004c160046040518060400160405280600681526020017f4c274564656e00000000000000000000000000000000000000000000000000008152506040518060400160405280600c81526020017f696d672f6169342e6a70656700000000000000000000000000000000000000008152506040518060400160405280601181526020017f47696f656c65205061747465726e61746f0000000000000000000000000000008152506040518060400160405280600481526020017f302e32320000000000000000000000000000000000000000000000000000000081525062000a2360201b60201c565b620005ab60056040518060400160405280601581526020017f416c626120646f72617461206e656c20706165736500000000000000000000008152506040518060400160405280601081526020017f696d672f696d675f69615f322e706e67000000000000000000000000000000008152506040518060400160405280601181526020017f4c656f6e6172646f204c756d696e6f736f0000000000000000000000000000008152506040518060400160405280600481526020017f302e31340000000000000000000000000000000000000000000000000000000081525062000a2360201b60201c565b620006796006604051806060016040528060218152602001620035bf602191396040518060400160405280601081526020017f696d672f696d675f69615f332e706e67000000000000000000000000000000008152506040518060400160405280600c81526020017f466c6176696f20536f676e6f00000000000000000000000000000000000000008152506040518060400160405280600481526020017f302e31350000000000000000000000000000000000000000000000000000000081525062000a2360201b60201c565b6200076360076040518060400160405280601681526020017f416c6c65677269612064656c2056696c6c616767696f000000000000000000008152506040518060400160405280600c81526020017f696d672f6169352e6a70656700000000000000000000000000000000000000008152506040518060400160405280601081526020017f4272756e6f20456c656d656e74617265000000000000000000000000000000008152506040518060400160405280600481526020017f302e34370000000000000000000000000000000000000000000000000000000081525062000a2360201b60201c565b6200084d60086040518060400160405280600881526020017f4c696265727461270000000000000000000000000000000000000000000000008152506040518060400160405280600c81526020017f696d672f6169362e6a70656700000000000000000000000000000000000000008152506040518060400160405280600d81526020017f416e67656c6f20526f6d616e6f000000000000000000000000000000000000008152506040518060400160405280600481526020017f302e34370000000000000000000000000000000000000000000000000000000081525062000a2360201b60201c565b6200093760096040518060400160405280601881526020017f46696f7269747572612064656c2053656e74696d656e746f00000000000000008152506040518060400160405280600c81526020017f696d672f6169372e6a70656700000000000000000000000000000000000000008152506040518060400160405280600f81526020017f4672616e636573636f20507265746500000000000000000000000000000000008152506040518060400160405280600481526020017f302e34310000000000000000000000000000000000000000000000000000000081525062000a2360201b60201c565b62000a21600a6040518060400160405280600781526020017f496c20766f6c6f000000000000000000000000000000000000000000000000008152506040518060400160405280600c81526020017f696d672f6169382e6a70656700000000000000000000000000000000000000008152506040518060400160405280600d81526020017f4c756361204365636368696e6f000000000000000000000000000000000000008152506040518060400160405280600481526020017f302e33370000000000000000000000000000000000000000000000000000000081525062000a2360201b60201c565b565b600060016000878152602001908152602001600020600001541462000a7f576040517f08c379a000000000000000000000000000000000000000000000000000000000815260040162000a769062000bf6565b60405180910390fd5b6040518060c00160405280868152602001858152602001848152602001838152602001828152602001600015158152506001600087815260200190815260200160002060008201518160000155602082015181600101908162000ae3919062000e92565b50604082015181600201908162000afb919062000e92565b50606082015181600301908162000b13919062000e92565b50608082015181600401908162000b2b919062000e92565b5060a08201518160050160006101000a81548160ff02191690831515021790555090505060008081548092919062000b639062000fa8565b91905055505050505050565b600082825260208201905092915050565b7f51756164726f20636f6e206c6f2073746573736f20494420676961272065736960008201527f7374656e74650000000000000000000000000000000000000000000000000000602082015250565b600062000bde60268362000b6f565b915062000beb8262000b80565b604082019050919050565b6000602082019050818103600083015262000c118162000bcf565b9050919050565b600081519050919050565b7f4e487b7100000000000000000000000000000000000000000000000000000000600052604160045260246000fd5b7f4e487b7100000000000000000000000000000000000000000000000000000000600052602260045260246000fd5b6000600282049050600182168062000c9a57607f821691505b60208210810362000cb05762000caf62000c52565b5b50919050565b60008190508160005260206000209050919050565b60006020601f8301049050919050565b600082821b905092915050565b60006008830262000d1a7fffffffffffffffffffffffffffffffffffffffffffffffffffffffffffffffff8262000cdb565b62000d26868362000cdb565b95508019841693508086168417925050509392505050565b6000819050919050565b6000819050919050565b600062000d7362000d6d62000d678462000d3e565b62000d48565b62000d3e565b9050919050565b6000819050919050565b62000d8f8362000d52565b62000da762000d9e8262000d7a565b84845462000ce8565b825550505050565b600090565b62000dbe62000daf565b62000dcb81848462000d84565b505050565b5b8181101562000df35762000de760008262000db4565b60018101905062000dd1565b5050565b601f82111562000e425762000e0c8162000cb6565b62000e178462000ccb565b8101602085101562000e27578190505b62000e3f62000e368562000ccb565b83018262000dd0565b50505b505050565b600082821c905092915050565b600062000e676000198460080262000e47565b1980831691505092915050565b600062000e82838362000e54565b9150826002028217905092915050565b62000e9d8262000c18565b67ffffffffffffffff81111562000eb95762000eb862000c23565b5b62000ec5825462000c81565b62000ed282828562000df7565b600060209050601f83116001811462000f0a576000841562000ef5578287015190505b62000f01858262000e74565b86555062000f71565b601f19841662000f1a8662000cb6565b60005b8281101562000f445784890151825560018201915060208501945060208101905062000f1d565b8683101562000f64578489015162000f60601f89168262000e54565b8355505b6001600288020188555050505b505050505050565b7f4e487b7100000000000000000000000000000000000000000000000000000000600052601160045260246000fd5b600062000fb58262000d3e565b91507fffffffffffffffffffffffffffffffffffffffffffffffffffffffffffffffff820362000fea5762000fe962000f79565b5b600182019050919050565b6125ba80620010056000396000f3fe6080604052600436106100865760003560e01c80636e65db3e116100595780636e65db3e14610147578063a8eca8b214610189578063ac75006e146101a5578063c7b92d70146101ce578063f71426941461021057610086565b806303454b461461008b57806310b46615146100b657806315ec8815146100f35780636e10f8df14610130575b600080fd5b34801561009757600080fd5b506100a061024d565b6040516100ad919061191f565b60405180910390f35b3480156100c257600080fd5b506100dd60048036038101906100d891906119ac565b610253565b6040516100ea9190611bf3565b60405180910390f35b3480156100ff57600080fd5b5061011a600480360381019061011591906119ac565b61062d565b6040516101279190611cc4565b60405180910390f35b34801561013c57600080fd5b506101456106ca565b005b34801561015357600080fd5b5061016e60048036038101906101699190611d12565b611065565b60405161018096959493929190611d98565b60405180910390f35b6101a3600480360381019061019e9190611d12565b6112ce565b005b3480156101b157600080fd5b506101cc60048036038101906101c79190611f4a565b61142f565b005b3480156101da57600080fd5b506101f560048036038101906101f09190611d12565b61156e565b60405161020796959493929190611d98565b60405180910390f35b34801561021c57600080fd5b5061023760048036038101906102329190612035565b6117fb565b604051610244919061191f565b60405180910390f35b60005481565b60606000600260008473ffffffffffffffffffffffffffffffffffffffff1673ffffffffffffffffffffffffffffffffffffffff1681526020019081526020016000208054806020026020016040519081016040528092919081815260200182805480156102e057602002820191906000526020600020905b8154815260200190600101908083116102cc575b505050505090506000815167ffffffffffffffff81111561030457610303611e1f565b5b60405190808252806020026020018201604052801561033d57816020015b61032a6118ce565b8152602001906001900390816103225790505b50905060005b8251811015610622576001600084838151811061036357610362612075565b5b602002602001015181526020019081526020016000206040518060c00160405290816000820154815260200160018201805461039e906120d3565b80601f01602080910402602001604051908101604052809291908181526020018280546103ca906120d3565b80156104175780601f106103ec57610100808354040283529160200191610417565b820191906000526020600020905b8154815290600101906020018083116103fa57829003601f168201915b50505050508152602001600282018054610430906120d3565b80601f016020809104026020016040519081016040528092919081815260200182805461045c906120d3565b80156104a95780601f1061047e576101008083540402835291602001916104a9565b820191906000526020600020905b81548152906001019060200180831161048c57829003601f168201915b505050505081526020016003820180546104c2906120d3565b80601f01602080910402602001604051908101604052809291908181526020018280546104ee906120d3565b801561053b5780601f106105105761010080835404028352916020019161053b565b820191906000526020600020905b81548152906001019060200180831161051e57829003601f168201915b50505050508152602001600482018054610554906120d3565b80601f0160208091040260200160405190810160405280929190818152602001828054610580906120d3565b80156105cd5780601f106105a2576101008083540402835291602001916105cd565b820191906000526020600020905b8154815290600101906020018083116105b057829003601f168201915b505050505081526020016005820160009054906101000a900460ff16151515158152505082828151811061060457610603612075565b5b6020026020010181905250808061061a90612133565b915050610343565b508092505050919050565b60606000600260008473ffffffffffffffffffffffffffffffffffffffff1673ffffffffffffffffffffffffffffffffffffffff1681526020019081526020016000208054806020026020016040519081016040528092919081815260200182805480156106ba57602002820191906000526020600020905b8154815260200190600101908083116106a6575b5050505050905080915050919050565b6107ac60006040518060400160405280601081526020017f44697374657365205374656c6c617465000000000000000000000000000000008152506040518060400160405280600c81526020017f696d672f6169312e6a70656700000000000000000000000000000000000000008152506040518060400160405280601381526020017f416c657373616e64726f2056696272616e7465000000000000000000000000008152506040518060400160405280600481526020017f302e33330000000000000000000000000000000000000000000000000000000081525061142f565b61088e60016040518060400160405280601c81526020017f53696e666f6e69612064692053706972616c6920436f736d69636865000000008152506040518060400160405280601081526020017f696d672f696d675f69615f312e706e67000000000000000000000000000000008152506040518060400160405280600f81526020017f4d6172636f205465737369746f726500000000000000000000000000000000008152506040518060400160405280600481526020017f302e34330000000000000000000000000000000000000000000000000000000081525061142f565b61097060026040518060400160405280600981526020017f496c2067696f726e6f00000000000000000000000000000000000000000000008152506040518060400160405280600c81526020017f696d672f6169322e6a70656700000000000000000000000000000000000000008152506040518060400160405280601081526020017f566974746f72696f20466f726d616c65000000000000000000000000000000008152506040518060400160405280600481526020017f302e32360000000000000000000000000000000000000000000000000000000081525061142f565b610a5260036040518060400160405280601381526020017f457175696c696272696f20417374726174746f000000000000000000000000008152506040518060400160405280600c81526020017f696d672f6169332e6a70656700000000000000000000000000000000000000008152506040518060400160405280600e81526020017f53696c76696f20426172617474610000000000000000000000000000000000008152506040518060400160405280600481526020017f302e34370000000000000000000000000000000000000000000000000000000081525061142f565b610b3460046040518060400160405280600681526020017f4c274564656e00000000000000000000000000000000000000000000000000008152506040518060400160405280600c81526020017f696d672f6169342e6a70656700000000000000000000000000000000000000008152506040518060400160405280601181526020017f47696f656c65205061747465726e61746f0000000000000000000000000000008152506040518060400160405280600481526020017f302e32320000000000000000000000000000000000000000000000000000000081525061142f565b610c1660056040518060400160405280601581526020017f416c626120646f72617461206e656c20706165736500000000000000000000008152506040518060400160405280601081526020017f696d672f696d675f69615f322e706e67000000000000000000000000000000008152506040518060400160405280601181526020017f4c656f6e6172646f204c756d696e6f736f0000000000000000000000000000008152506040518060400160405280600481526020017f302e31340000000000000000000000000000000000000000000000000000000081525061142f565b610cdb6006604051806060016040528060218152602001612564602191396040518060400160405280601081526020017f696d672f696d675f69615f332e706e67000000000000000000000000000000008152506040518060400160405280600c81526020017f466c6176696f20536f676e6f00000000000000000000000000000000000000008152506040518060400160405280600481526020017f302e31350000000000000000000000000000000000000000000000000000000081525061142f565b610dbd60076040518060400160405280601681526020017f416c6c65677269612064656c2056696c6c616767696f000000000000000000008152506040518060400160405280600c81526020017f696d672f6169352e6a70656700000000000000000000000000000000000000008152506040518060400160405280601081526020017f4272756e6f20456c656d656e74617265000000000000000000000000000000008152506040518060400160405280600481526020017f302e34370000000000000000000000000000000000000000000000000000000081525061142f565b610e9f60086040518060400160405280600881526020017f4c696265727461270000000000000000000000000000000000000000000000008152506040518060400160405280600c81526020017f696d672f6169362e6a70656700000000000000000000000000000000000000008152506040518060400160405280600d81526020017f416e67656c6f20526f6d616e6f000000000000000000000000000000000000008152506040518060400160405280600481526020017f302e34370000000000000000000000000000000000000000000000000000000081525061142f565b610f8160096040518060400160405280601881526020017f46696f7269747572612064656c2053656e74696d656e746f00000000000000008152506040518060400160405280600c81526020017f696d672f6169372e6a70656700000000000000000000000000000000000000008152506040518060400160405280600f81526020017f4672616e636573636f20507265746500000000000000000000000000000000008152506040518060400160405280600481526020017f302e34310000000000000000000000000000000000000000000000000000000081525061142f565b611063600a6040518060400160405280600781526020017f496c20766f6c6f000000000000000000000000000000000000000000000000008152506040518060400160405280600c81526020017f696d672f6169382e6a70656700000000000000000000000000000000000000008152506040518060400160405280600d81526020017f4c756361204365636368696e6f000000000000000000000000000000000000008152506040518060400160405280600481526020017f302e33370000000000000000000000000000000000000000000000000000000081525061142f565b565b600160205280600052604060002060009150905080600001549080600101805461108e906120d3565b80601f01602080910402602001604051908101604052809291908181526020018280546110ba906120d3565b80156111075780601f106110dc57610100808354040283529160200191611107565b820191906000526020600020905b8154815290600101906020018083116110ea57829003601f168201915b50505050509080600201805461111c906120d3565b80601f0160208091040260200160405190810160405280929190818152602001828054611148906120d3565b80156111955780601f1061116a57610100808354040283529160200191611195565b820191906000526020600020905b81548152906001019060200180831161117857829003601f168201915b5050505050908060030180546111aa906120d3565b80601f01602080910402602001604051908101604052809291908181526020018280546111d6906120d3565b80156112235780601f106111f857610100808354040283529160200191611223565b820191906000526020600020905b81548152906001019060200180831161120657829003601f168201915b505050505090806004018054611238906120d3565b80601f0160208091040260200160405190810160405280929190818152602001828054611264906120d3565b80156112b15780601f10611286576101008083540402835291602001916112b1565b820191906000526020600020905b81548152906001019060200180831161129457829003601f168201915b5050505050908060050160009054906101000a900460ff16905086565b60006001600083815260200190815260200160002090508060050160009054906101000a900460ff1615611337576040517f08c379a000000000000000000000000000000000000000000000000000000000815260040161132e906121c7565b60405180910390fd5b611341338361182c565b15611381576040517f08c379a000000000000000000000000000000000000000000000000000000000815260040161137890612233565b60405180910390fd5b600260003373ffffffffffffffffffffffffffffffffffffffff1673ffffffffffffffffffffffffffffffffffffffff168152602001908152602001600020829080600181540180825580915050600190039060005260206000200160009091909190915055813373ffffffffffffffffffffffffffffffffffffffff167f1219234621cfbda08eed13673c6e71cbf4b399ec00b0cdc44d8366e22d06670060405160405180910390a35050565b6000600160008781526020019081526020016000206000015414611488576040517f08c379a000000000000000000000000000000000000000000000000000000000815260040161147f906122c5565b60405180910390fd5b6040518060c0016040528086815260200185815260200184815260200183815260200182815260200160001515815250600160008781526020019081526020016000206000820151816000015560208201518160010190816114ea9190612491565b5060408201518160020190816115009190612491565b5060608201518160030190816115169190612491565b50608082015181600401908161152c9190612491565b5060a08201518160050160006101000a81548160ff02191690831515021790555090505060008081548092919061156290612133565b91905055505050505050565b60006060806060806000806001600089815260200190815260200160002090508060000154816001018260020183600301846004018560050160009054906101000a900460ff168480546115c1906120d3565b80601f01602080910402602001604051908101604052809291908181526020018280546115ed906120d3565b801561163a5780601f1061160f5761010080835404028352916020019161163a565b820191906000526020600020905b81548152906001019060200180831161161d57829003601f168201915b5050505050945083805461164d906120d3565b80601f0160208091040260200160405190810160405280929190818152602001828054611679906120d3565b80156116c65780601f1061169b576101008083540402835291602001916116c6565b820191906000526020600020905b8154815290600101906020018083116116a957829003601f168201915b505050505093508280546116d9906120d3565b80601f0160208091040260200160405190810160405280929190818152602001828054611705906120d3565b80156117525780601f1061172757610100808354040283529160200191611752565b820191906000526020600020905b81548152906001019060200180831161173557829003601f168201915b50505050509250818054611765906120d3565b80601f0160208091040260200160405190810160405280929190818152602001828054611791906120d3565b80156117de5780601f106117b3576101008083540402835291602001916117de565b820191906000526020600020905b8154815290600101906020018083116117c157829003601f168201915b505050505091509650965096509650965096505091939550919395565b6002602052816000526040600020818154811061181757600080fd5b90600052602060002001600091509150505481565b600080600260008573ffffffffffffffffffffffffffffffffffffffff1673ffffffffffffffffffffffffffffffffffffffff168152602001908152602001600020905060005b81805490508110156118c1578382828154811061189357611892612075565b5b9060005260206000200154036118ae576001925050506118c8565b80806118b990612133565b915050611873565b5060009150505b92915050565b6040518060c0016040528060008152602001606081526020016060815260200160608152602001606081526020016000151581525090565b6000819050919050565b61191981611906565b82525050565b60006020820190506119346000830184611910565b92915050565b6000604051905090565b600080fd5b600080fd5b600073ffffffffffffffffffffffffffffffffffffffff82169050919050565b60006119798261194e565b9050919050565b6119898161196e565b811461199457600080fd5b50565b6000813590506119a681611980565b92915050565b6000602082840312156119c2576119c1611944565b5b60006119d084828501611997565b91505092915050565b600081519050919050565b600082825260208201905092915050565b6000819050602082019050919050565b611a0e81611906565b82525050565b600081519050919050565b600082825260208201905092915050565b60005b83811015611a4e578082015181840152602081019050611a33565b60008484015250505050565b6000601f19601f8301169050919050565b6000611a7682611a14565b611a808185611a1f565b9350611a90818560208601611a30565b611a9981611a5a565b840191505092915050565b60008115159050919050565b611ab981611aa4565b82525050565b600060c083016000830151611ad76000860182611a05565b5060208301518482036020860152611aef8282611a6b565b91505060408301518482036040860152611b098282611a6b565b91505060608301518482036060860152611b238282611a6b565b91505060808301518482036080860152611b3d8282611a6b565b91505060a0830151611b5260a0860182611ab0565b508091505092915050565b6000611b698383611abf565b905092915050565b6000602082019050919050565b6000611b89826119d9565b611b9381856119e4565b935083602082028501611ba5856119f5565b8060005b85811015611be15784840389528151611bc28582611b5d565b9450611bcd83611b71565b925060208a01995050600181019050611ba9565b50829750879550505050505092915050565b60006020820190508181036000830152611c0d8184611b7e565b905092915050565b600081519050919050565b600082825260208201905092915050565b6000819050602082019050919050565b6000611c4d8383611a05565b60208301905092915050565b6000602082019050919050565b6000611c7182611c15565b611c7b8185611c20565b9350611c8683611c31565b8060005b83811015611cb7578151611c9e8882611c41565b9750611ca983611c59565b925050600181019050611c8a565b5085935050505092915050565b60006020820190508181036000830152611cde8184611c66565b905092915050565b611cef81611906565b8114611cfa57600080fd5b50565b600081359050611d0c81611ce6565b92915050565b600060208284031215611d2857611d27611944565b5b6000611d3684828501611cfd565b91505092915050565b600082825260208201905092915050565b6000611d5b82611a14565b611d658185611d3f565b9350611d75818560208601611a30565b611d7e81611a5a565b840191505092915050565b611d9281611aa4565b82525050565b600060c082019050611dad6000830189611910565b8181036020830152611dbf8188611d50565b90508181036040830152611dd38187611d50565b90508181036060830152611de78186611d50565b90508181036080830152611dfb8185611d50565b9050611e0a60a0830184611d89565b979650505050505050565b600080fd5b600080fd5b7f4e487b7100000000000000000000000000000000000000000000000000000000600052604160045260246000fd5b611e5782611a5a565b810181811067ffffffffffffffff82111715611e7657611e75611e1f565b5b80604052505050565b6000611e8961193a565b9050611e958282611e4e565b919050565b600067ffffffffffffffff821115611eb557611eb4611e1f565b5b611ebe82611a5a565b9050602081019050919050565b82818337600083830152505050565b6000611eed611ee884611e9a565b611e7f565b905082815260208101848484011115611f0957611f08611e1a565b5b611f14848285611ecb565b509392505050565b600082601f830112611f3157611f30611e15565b5b8135611f41848260208601611eda565b91505092915050565b600080600080600060a08688031215611f6657611f65611944565b5b6000611f7488828901611cfd565b955050602086013567ffffffffffffffff811115611f9557611f94611949565b5b611fa188828901611f1c565b945050604086013567ffffffffffffffff811115611fc257611fc1611949565b5b611fce88828901611f1c565b935050606086013567ffffffffffffffff811115611fef57611fee611949565b5b611ffb88828901611f1c565b925050608086013567ffffffffffffffff81111561201c5761201b611949565b5b61202888828901611f1c565b9150509295509295909350565b6000806040838503121561204c5761204b611944565b5b600061205a85828601611997565b925050602061206b85828601611cfd565b9150509250929050565b7f4e487b7100000000000000000000000000000000000000000000000000000000600052603260045260246000fd5b7f4e487b7100000000000000000000000000000000000000000000000000000000600052602260045260246000fd5b600060028204905060018216806120eb57607f821691505b6020821081036120fe576120fd6120a4565b5b50919050565b7f4e487b7100000000000000000000000000000000000000000000000000000000600052601160045260246000fd5b600061213e82611906565b91507fffffffffffffffffffffffffffffffffffffffffffffffffffffffffffffffff82036121705761216f612104565b5b600182019050919050565b7f496c2071756164726f206e6f6e20652720646973706f6e6962696c6500000000600082015250565b60006121b1601c83611d3f565b91506121bc8261217b565b602082019050919050565b600060208201905081810360008301526121e0816121a4565b9050919050565b7f486169206769612720636f6d707261746f2071756573746f2071756164726f00600082015250565b600061221d601f83611d3f565b9150612228826121e7565b602082019050919050565b6000602082019050818103600083015261224c81612210565b9050919050565b7f51756164726f20636f6e206c6f2073746573736f20494420676961272065736960008201527f7374656e74650000000000000000000000000000000000000000000000000000602082015250565b60006122af602683611d3f565b91506122ba82612253565b604082019050919050565b600060208201905081810360008301526122de816122a2565b9050919050565b60008190508160005260206000209050919050565b60006020601f8301049050919050565b600082821b905092915050565b6000600883026123477fffffffffffffffffffffffffffffffffffffffffffffffffffffffffffffffff8261230a565b612351868361230a565b95508019841693508086168417925050509392505050565b6000819050919050565b600061238e61238961238484611906565b612369565b611906565b9050919050565b6000819050919050565b6123a883612373565b6123bc6123b482612395565b848454612317565b825550505050565b600090565b6123d16123c4565b6123dc81848461239f565b505050565b5b81811015612400576123f56000826123c9565b6001810190506123e2565b5050565b601f82111561244557612416816122e5565b61241f846122fa565b8101602085101561242e578190505b61244261243a856122fa565b8301826123e1565b50505b505050565b600082821c905092915050565b60006124686000198460080261244a565b1980831691505092915050565b60006124818383612457565b9150826002028217905092915050565b61249a82611a14565b67ffffffffffffffff8111156124b3576124b2611e1f565b5b6124bd82546120d3565b6124c8828285612404565b600060209050601f8311600181146124fb57600084156124e9578287015190505b6124f38582612475565b86555061255b565b601f198416612509866122e5565b60005b828110156125315784890151825560018201915060208501945060208101905061250c565b8683101561254e578489015161254a601f891682612457565b8355505b6001600288020188555050505b50505050505056fe54656d706573746120536f6c6172652073756c6c652043696d6520457465726e65a26469706673582212201a698561678a137eb9efbe7dc753cb90a9f1c5f2f1e5a3a0877f64c7a29f6e0264736f6c6343000813003354656d706573746120536f6c6172652073756c6c652043696d6520457465726e65",
  "immutableReferences": {},
  "source": "// SPDX-License-Identifier: MIT\r\npragma solidity ^0.8.0;\r\n\r\n// Contratto per la gestione di una collezione di quadri digitali\r\ncontract PaintContract {\r\n    uint public counterPaints;\r\n\r\n    // Struttura di un singolo quadro\r\n    struct Paint {\r\n        uint id;\r\n        string title;\r\n        string img;\r\n        string artist;\r\n        string price;\r\n        bool isSold;\r\n    }\r\n\r\n    // Mappatura degli ID dei quadri con i loro dettagli\r\n    mapping (uint => Paint) public paints;\r\n\r\n    // Mappatura degli indirizzi degli acquirenti con gli ID dei quadri acquistati\r\n    mapping (address => uint[]) public purchasedPaints;\r\n\r\n    // Evento emesso quando un quadro viene acquistato\r\n    event purchasedPaint(address indexed buyer, uint indexed paintId);\r\n\r\n    // Costruttore del contratto\r\n    constructor() {\r\n        counterPaints = 0;\r\n        loadPaints();\r\n    }\r\n\r\n    function loadPaints() public {\r\n        createPaint(0,\"Distese Stellate\", \"img/ai1.jpeg\", \"Alessandro Vibrante\", \"0.33\");\r\n        createPaint(1,\"Sinfonia di Spirali Cosmiche\", \"img/img_ia_1.png\", \"Marco Tessitore\", \"0.43\");\r\n        createPaint(2,\"Il giorno\", \"img/ai2.jpeg\", \"Vittorio Formale\", \"0.26\");\r\n        createPaint(3,\"Equilibrio Astratto\", \"img/ai3.jpeg\", \"Silvio Baratta\", \"0.47\");\r\n        createPaint(4,\"L'Eden\", \"img/ai4.jpeg\", \"Gioele Patternato\", \"0.22\");\r\n        createPaint(5,\"Alba dorata nel paese\", \"img/img_ia_2.png\", \"Leonardo Luminoso\", \"0.14\");\r\n        createPaint(6,\"Tempesta Solare sulle Cime Eterne\", \"img/img_ia_3.png\", \"Flavio Sogno\", \"0.15\");\r\n        createPaint(7,\"Allegria del Villaggio\", \"img/ai5.jpeg\", \"Bruno Elementare\", \"0.47\");\r\n        createPaint(8,\"Liberta'\", \"img/ai6.jpeg\", \"Angelo Romano\", \"0.47\");\r\n        createPaint(9,\"Fioritura del Sentimento\", \"img/ai7.jpeg\", \"Francesco Prete\", \"0.41\");  \r\n        createPaint(10,\"Il volo\", \"img/ai8.jpeg\", \"Luca Cecchino\", \"0.37\");\r\n    }\r\n\r\n    // Funzione per creare un nuovo quadro nella collezione\r\n    function createPaint(\r\n        uint id,\r\n        string memory title,\r\n        string memory img,\r\n        string memory artist,\r\n        string memory price \r\n    ) public {\r\n        require(paints[id].id == 0, \"Quadro con lo stesso ID gia' esistente\");\r\n\r\n        paints[id] = Paint(\r\n            id,\r\n            title,\r\n            img,\r\n            artist,\r\n            price,\r\n            false\r\n        );\r\n        counterPaints++;\r\n    }\r\n\r\n    // Funzione per ottenere i dettagli di un quadro dato il suo ID\r\n    function getPaintDetails(uint paintId) public view returns (\r\n        uint id,\r\n        string memory title,\r\n        string memory img,\r\n        string memory artist,\r\n        string memory price,\r\n        bool isSold \r\n    ){\r\n        Paint storage paint = paints[paintId];\r\n        return (\r\n            paint.id,\r\n            paint.title,\r\n            paint.img,\r\n            paint.artist,\r\n            paint.price,\r\n            paint.isSold\r\n        );\r\n    }\r\n\r\n    // Funzione per acquistare un quadro\r\n    function buyPaint(uint paintId) public payable {\r\n        Paint storage paint = paints[paintId];\r\n\r\n        // Verifica se il quadro  disponibile\r\n        require(!paint.isSold, \"Il quadro non e' disponibile\");\r\n\r\n        // Verifica se l'utente ha gi acquistato questo quadro\r\n        require(!purchasedStatus(msg.sender, paintId), \"Hai gia' comprato questo quadro\");\r\n\r\n        // Aggiungi l'ID del quadro agli acquisti dell'utente\r\n        purchasedPaints[msg.sender].push(paintId);\r\n\r\n        // Emetti l'evento per registrare l'acquisto\r\n        emit purchasedPaint(msg.sender, paintId);\r\n    }\r\n\r\n    // Funzione di supporto per verificare se un utente ha gi acquistato un quadro\r\n    function purchasedStatus(address buyer, uint paintId) internal view returns (bool) {\r\n        uint[] storage purchasedIds = purchasedPaints[buyer];\r\n        for (uint i = 0; i < purchasedIds.length; i++) {\r\n            if (purchasedIds[i] == paintId) {\r\n                return true;\r\n            }\r\n        }\r\n        return false;\r\n    }\r\n\r\n    // Funzione per ottenere gli ID dei quadri acquistati da un utente\r\n    function getPurchasedPaintIds(address buyer) public view returns (uint[] memory){\r\n        uint[] memory purchasedIds = purchasedPaints[buyer];\r\n        return purchasedIds;\r\n    }\r\n\r\n    // Funzione per ottenere i dettagli dei quadri acquistati da un utente\r\n    function getPurchasedPaints(address buyer) public view returns (Paint[] memory){\r\n        uint[] memory purchasedIds = purchasedPaints[buyer];\r\n        Paint[] memory purchasedPaintsArray = new Paint[](purchasedIds.length);\r\n\r\n        for(uint i= 0; i< purchasedIds.length; i++){\r\n            purchasedPaintsArray[i] = paints[purchasedIds[i]];\r\n        }\r\n        return purchasedPaintsArray;\r\n    }      \r\n}\r\n",
  "sourcePath": "C:\\Users\\angel\\OneDrive\\Desktop\\Chain_Of_Art\\Chain-Of-Art\\contracts\\PaintContract.sol",
  "compiler": {
    "name": "solc",
    "version": "0.8.19+commit.7dd6d404.Emscripten.clang"
  },
  "schemaVersion": "3.4.16",
  "updatedAt": "2024-01-15T13:50:11.717Z",
  "networkType": "ethereum",
  "devdoc": {
    "kind": "dev",
    "methods": {},
    "version": 1
  },
  "userdoc": {
    "kind": "user",
    "methods": {},
    "version": 1
  }
}