{
  "contractName": "PaintContract",
  "abi": [
    {
      "inputs": [],
      "stateMutability": "nonpayable",
      "type": "constructor"
    },
    {
      "anonymous": false,
      "inputs": [
        {
          "indexed": true,
          "internalType": "uint256",
          "name": "paintId",
          "type": "uint256"
        },
        {
          "indexed": true,
          "internalType": "address",
          "name": "buyer",
          "type": "address"
        },
        {
          "indexed": false,
          "internalType": "uint256",
          "name": "price",
          "type": "uint256"
        }
      ],
      "name": "PaintPurchased",
      "type": "event"
    },
    {
      "inputs": [],
      "name": "owner",
      "outputs": [
        {
          "internalType": "address",
          "name": "",
          "type": "address"
        }
      ],
      "stateMutability": "view",
      "type": "function",
      "constant": true
    },
    {
      "inputs": [
        {
          "internalType": "uint256",
          "name": "",
          "type": "uint256"
        }
      ],
      "name": "paintOwners",
      "outputs": [
        {
          "internalType": "address",
          "name": "",
          "type": "address"
        }
      ],
      "stateMutability": "view",
      "type": "function",
      "constant": true
    },
    {
      "inputs": [
        {
          "internalType": "uint256",
          "name": "",
          "type": "uint256"
        }
      ],
      "name": "paintPrices",
      "outputs": [
        {
          "internalType": "uint256",
          "name": "",
          "type": "uint256"
        }
      ],
      "stateMutability": "view",
      "type": "function",
      "constant": true
    },
    {
      "inputs": [
        {
          "internalType": "uint256",
          "name": "",
          "type": "uint256"
        }
      ],
      "name": "paintPurchased",
      "outputs": [
        {
          "internalType": "bool",
          "name": "",
          "type": "bool"
        }
      ],
      "stateMutability": "view",
      "type": "function",
      "constant": true
    },
    {
      "inputs": [],
      "name": "totalPaintings",
      "outputs": [
        {
          "internalType": "uint256",
          "name": "",
          "type": "uint256"
        }
      ],
      "stateMutability": "view",
      "type": "function",
      "constant": true
    },
    {
      "inputs": [
        {
          "internalType": "uint256",
          "name": "price",
          "type": "uint256"
        }
      ],
      "name": "addPainting",
      "outputs": [],
      "stateMutability": "nonpayable",
      "type": "function"
    },
    {
      "inputs": [
        {
          "internalType": "uint256",
          "name": "paintId",
          "type": "uint256"
        }
      ],
      "name": "buyPainting",
      "outputs": [],
      "stateMutability": "payable",
      "type": "function",
      "payable": true
    },
    {
      "inputs": [],
      "name": "getBuyers",
      "outputs": [
        {
          "internalType": "address[]",
          "name": "",
          "type": "address[]"
        },
        {
          "internalType": "uint256[]",
          "name": "",
          "type": "uint256[]"
        },
        {
          "internalType": "bool[]",
          "name": "",
          "type": "bool[]"
        }
      ],
      "stateMutability": "view",
      "type": "function",
      "constant": true
    }
  ],
  "bytecode": "0x608060405234801561001057600080fd5b50336000806101000a81548173ffffffffffffffffffffffffffffffffffffffff021916908373ffffffffffffffffffffffffffffffffffffffff160217905550610dae806100606000396000f3fe60806040526004361061007b5760003560e01c8063d2b9583d1161004e578063d2b9583d14610141578063f64bfaba1461017e578063f7f97262146101ab578063fe9c8bfa146101d45761007b565b80633b05a5b21461008057806362b1b98d146100bd5780638da5cb5b146100fa578063b2edb37e14610125575b600080fd5b34801561008c57600080fd5b506100a760048036038101906100a2919061075f565b6101ff565b6040516100b491906107a7565b60405180910390f35b3480156100c957600080fd5b506100e460048036038101906100df919061075f565b61021f565b6040516100f191906107d1565b60405180910390f35b34801561010657600080fd5b5061010f610237565b60405161011c919061082d565b60405180910390f35b61013f600480360381019061013a919061075f565b61025b565b005b34801561014d57600080fd5b506101686004803603810190610163919061075f565b6103e3565b604051610175919061082d565b60405180910390f35b34801561018a57600080fd5b50610193610416565b6040516101a293929190610a82565b60405180910390f35b3480156101b757600080fd5b506101d260048036038101906101cd919061075f565b61065b565b005b3480156101e057600080fd5b506101e961071e565b6040516101f691906107d1565b60405180910390f35b60036020528060005260406000206000915054906101000a900460ff1681565b60026020528060005260406000206000915090505481565b60008054906101000a900473ffffffffffffffffffffffffffffffffffffffff1681565b806003600082815260200190815260200160002060009054906101000a900460ff16156102bd576040517f08c379a00000000000000000000000000000000000000000000000000000000081526004016102b490610b51565b60405180910390fd5b60026000838152602001908152602001600020543414610312576040517f08c379a000000000000000000000000000000000000000000000000000000000815260040161030990610bbd565b60405180910390fd5b336001600084815260200190815260200160002060006101000a81548173ffffffffffffffffffffffffffffffffffffffff021916908373ffffffffffffffffffffffffffffffffffffffff16021790555060016003600084815260200190815260200160002060006101000a81548160ff0219169083151502179055503373ffffffffffffffffffffffffffffffffffffffff16827fc5ad8378afa3e3da61803e9a72958d0308e783299a90ef794a800fe00cfc7b9d346040516103d791906107d1565b60405180910390a35050565b60016020528060005260406000206000915054906101000a900473ffffffffffffffffffffffffffffffffffffffff1681565b6060806060600060045467ffffffffffffffff81111561043957610438610bdd565b5b6040519080825280602002602001820160405280156104675781602001602082028036833780820191505090505b509050600060045467ffffffffffffffff81111561048857610487610bdd565b5b6040519080825280602002602001820160405280156104b65781602001602082028036833780820191505090505b509050600060045467ffffffffffffffff8111156104d7576104d6610bdd565b5b6040519080825280602002602001820160405280156105055781602001602082028036833780820191505090505b5090506000600190505b6004548111610649576001600082815260200190815260200160002060009054906101000a900473ffffffffffffffffffffffffffffffffffffffff168460018361055a9190610c3b565b8151811061056b5761056a610c6f565b5b602002602001019073ffffffffffffffffffffffffffffffffffffffff16908173ffffffffffffffffffffffffffffffffffffffff16815250506002600082815260200190815260200160002054836001836105c79190610c3b565b815181106105d8576105d7610c6f565b5b6020026020010181815250506003600082815260200190815260200160002060009054906101000a900460ff16826001836106139190610c3b565b8151811061062457610623610c6f565b5b602002602001019015159081151581525050808061064190610c9e565b91505061050f565b50828282955095509550505050909192565b60008054906101000a900473ffffffffffffffffffffffffffffffffffffffff1673ffffffffffffffffffffffffffffffffffffffff163373ffffffffffffffffffffffffffffffffffffffff16146106e9576040517f08c379a00000000000000000000000000000000000000000000000000000000081526004016106e090610d58565b60405180910390fd5b600460008154809291906106fc90610c9e565b9190505550806002600060045481526020019081526020016000208190555050565b60045481565b600080fd5b6000819050919050565b61073c81610729565b811461074757600080fd5b50565b60008135905061075981610733565b92915050565b60006020828403121561077557610774610724565b5b60006107838482850161074a565b91505092915050565b60008115159050919050565b6107a18161078c565b82525050565b60006020820190506107bc6000830184610798565b92915050565b6107cb81610729565b82525050565b60006020820190506107e660008301846107c2565b92915050565b600073ffffffffffffffffffffffffffffffffffffffff82169050919050565b6000610817826107ec565b9050919050565b6108278161080c565b82525050565b6000602082019050610842600083018461081e565b92915050565b600081519050919050565b600082825260208201905092915050565b6000819050602082019050919050565b61087d8161080c565b82525050565b600061088f8383610874565b60208301905092915050565b6000602082019050919050565b60006108b382610848565b6108bd8185610853565b93506108c883610864565b8060005b838110156108f95781516108e08882610883565b97506108eb8361089b565b9250506001810190506108cc565b5085935050505092915050565b600081519050919050565b600082825260208201905092915050565b6000819050602082019050919050565b61093b81610729565b82525050565b600061094d8383610932565b60208301905092915050565b6000602082019050919050565b600061097182610906565b61097b8185610911565b935061098683610922565b8060005b838110156109b757815161099e8882610941565b97506109a983610959565b92505060018101905061098a565b5085935050505092915050565b600081519050919050565b600082825260208201905092915050565b6000819050602082019050919050565b6109f98161078c565b82525050565b6000610a0b83836109f0565b60208301905092915050565b6000602082019050919050565b6000610a2f826109c4565b610a3981856109cf565b9350610a44836109e0565b8060005b83811015610a75578151610a5c88826109ff565b9750610a6783610a17565b925050600181019050610a48565b5085935050505092915050565b60006060820190508181036000830152610a9c81866108a8565b90508181036020830152610ab08185610966565b90508181036040830152610ac48184610a24565b9050949350505050565b600082825260208201905092915050565b7f54686973207061696e742068617320616c7265616479206265656e207075726360008201527f6861736564000000000000000000000000000000000000000000000000000000602082015250565b6000610b3b602583610ace565b9150610b4682610adf565b604082019050919050565b60006020820190508181036000830152610b6a81610b2e565b9050919050565b7f496e636f7272656374207061796d656e7420616d6f756e740000000000000000600082015250565b6000610ba7601883610ace565b9150610bb282610b71565b602082019050919050565b60006020820190508181036000830152610bd681610b9a565b9050919050565b7f4e487b7100000000000000000000000000000000000000000000000000000000600052604160045260246000fd5b7f4e487b7100000000000000000000000000000000000000000000000000000000600052601160045260246000fd5b6000610c4682610729565b9150610c5183610729565b9250828203905081811115610c6957610c68610c0c565b5b92915050565b7f4e487b7100000000000000000000000000000000000000000000000000000000600052603260045260246000fd5b6000610ca982610729565b91507fffffffffffffffffffffffffffffffffffffffffffffffffffffffffffffffff8203610cdb57610cda610c0c565b5b600182019050919050565b7f4f6e6c7920746865206f776e65722063616e2063616c6c20746869732066756e60008201527f6374696f6e000000000000000000000000000000000000000000000000000000602082015250565b6000610d42602583610ace565b9150610d4d82610ce6565b604082019050919050565b60006020820190508181036000830152610d7181610d35565b905091905056fea2646970667358221220e6f4ac2964841f7eac0609f31b40df747b1f4cdf4e8674ba86d3c203d5d3c23d64736f6c63430008130033",
  "immutableReferences": {},
  "source": "// SPDX-License-Identifier: MIT\npragma solidity ^0.8.0;\n\ncontract PaintContract {\n    address public owner;\n    mapping(uint256 => address) public paintOwners;\n    mapping(uint256 => uint256) public paintPrices;\n    mapping(uint256 => bool) public paintPurchased;\n    uint256 public totalPaintings;\n\n    event PaintPurchased(uint256 indexed paintId, address indexed buyer, uint256 price);\n\n    modifier onlyOwner() {\n        require(msg.sender == owner, \"Only the owner can call this function\");\n        _;\n    }\n\n    modifier onlyIfNotPurchased(uint256 paintId) {\n        require(!paintPurchased[paintId], \"This paint has already been purchased\");\n        _;\n    }\n\n    constructor() {\n        owner = msg.sender;\n    }\n\n    function addPainting(uint256 price) external onlyOwner {\n        totalPaintings++;\n        paintPrices[totalPaintings] = price;\n    }\n\n    function buyPainting(uint256 paintId) external payable onlyIfNotPurchased(paintId) {\n        require(msg.value == paintPrices[paintId], \"Incorrect payment amount\");\n\n        paintOwners[paintId] = msg.sender;\n        paintPurchased[paintId] = true;\n\n        emit PaintPurchased(paintId, msg.sender, msg.value);\n    }\n\n    function getBuyers() external view returns (address[] memory, uint256[] memory, bool[] memory) {\n        address[] memory buyers = new address[](totalPaintings);\n        uint256[] memory prices = new uint256[](totalPaintings);\n        bool[] memory purchasedStatus = new bool[](totalPaintings);\n\n        for (uint256 i = 1; i <= totalPaintings; i++) {\n            buyers[i - 1] = paintOwners[i];\n            prices[i - 1] = paintPrices[i];\n            purchasedStatus[i - 1] = paintPurchased[i];\n        }\n\n        return (buyers, prices, purchasedStatus);\n    }\n}\n",
  "sourcePath": "/Users/marcociano/Desktop/Chain-Of-Art/contracts/PaintContract.sol",
  "compiler": {
    "name": "solc",
    "version": "0.8.19+commit.7dd6d404.Emscripten.clang"
  },
  "schemaVersion": "3.4.16",
  "updatedAt": "2024-01-12T20:39:43.562Z",
  "networkType": "ethereum",
  "devdoc": {
    "kind": "dev",
    "methods": {},
    "version": 1
  },
  "userdoc": {
    "kind": "user",
    "methods": {},
    "version": 1
  }
}