{
  "contractName": "PaintContract",
  "abi": [
    {
      "inputs": [],
      "stateMutability": "nonpayable",
      "type": "constructor"
    },
    {
      "anonymous": false,
      "inputs": [
        {
          "indexed": true,
          "internalType": "address",
          "name": "buyer",
          "type": "address"
        },
        {
          "indexed": true,
          "internalType": "uint256",
          "name": "paintId",
          "type": "uint256"
        }
      ],
      "name": "PaintPurchased",
      "type": "event"
    },
    {
      "inputs": [],
      "name": "owner",
      "outputs": [
        {
          "internalType": "address",
          "name": "",
          "type": "address"
        }
      ],
      "stateMutability": "view",
      "type": "function"
    },
    {
      "inputs": [
        {
          "internalType": "uint256",
          "name": "",
          "type": "uint256"
        }
      ],
      "name": "paintPrices",
      "outputs": [
        {
          "internalType": "uint256",
          "name": "",
          "type": "uint256"
        }
      ],
      "stateMutability": "view",
      "type": "function"
    },
    {
      "inputs": [
        {
          "internalType": "uint256",
          "name": "",
          "type": "uint256"
        }
      ],
      "name": "paintPurchases",
      "outputs": [
        {
          "internalType": "address",
          "name": "buyer",
          "type": "address"
        },
        {
          "internalType": "bool",
          "name": "isPurchased",
          "type": "bool"
        }
      ],
      "stateMutability": "view",
      "type": "function"
    },
    {
      "inputs": [],
      "name": "paintPurchasesCount",
      "outputs": [
        {
          "internalType": "uint256",
          "name": "",
          "type": "uint256"
        }
      ],
      "stateMutability": "view",
      "type": "function"
    },
    {
      "inputs": [
        {
          "internalType": "uint256",
          "name": "paintId",
          "type": "uint256"
        }
      ],
      "name": "setPaintPrice",
      "outputs": [],
      "stateMutability": "payable",
      "type": "function"
    },
    {
      "inputs": [
        {
          "internalType": "uint256",
          "name": "paintId",
          "type": "uint256"
        }
      ],
      "name": "purchasePaint",
      "outputs": [],
      "stateMutability": "payable",
      "type": "function"
    },
    {
      "inputs": [
        {
          "internalType": "address",
          "name": "buyer",
          "type": "address"
        }
      ],
      "name": "getAcquisitionsByBuyer",
      "outputs": [
        {
          "internalType": "uint256[]",
          "name": "",
          "type": "uint256[]"
        }
      ],
      "stateMutability": "view",
      "type": "function"
    },
    {
      "inputs": [],
      "name": "getPaints",
      "outputs": [
        {
          "internalType": "address",
          "name": "",
          "type": "address"
        }
      ],
      "stateMutability": "view",
      "type": "function"
    }
  ],
  "bytecode": "0x608060405234801561001057600080fd5b50336000806101000a81548173ffffffffffffffffffffffffffffffffffffffff021916908373ffffffffffffffffffffffffffffffffffffffff1602179055506000600181905550610ea0806100686000396000f3fe60806040526004361061007b5760003560e01c8063717b08601161004e578063717b08601461016357806384c5b8e71461017f5780638da5cb5b146101aa578063e6dd2277146101d55761007b565b80633255a895146100805780634c263e21146100bd57806362b1b98d146100fb5780636d3f965b14610138575b600080fd5b34801561008c57600080fd5b506100a760048036038101906100a291906108f4565b6101f1565b6040516100b491906109e9565b60405180910390f35b3480156100c957600080fd5b506100e460048036038101906100df9190610a37565b6103fb565b6040516100f2929190610a8e565b60405180910390f35b34801561010757600080fd5b50610122600480360381019061011d9190610a37565b61044c565b60405161012f9190610ac6565b60405180910390f35b34801561014457600080fd5b5061014d610464565b60405161015a9190610ac6565b60405180910390f35b61017d60048036038101906101789190610a37565b61046a565b005b34801561018b57600080fd5b50610194610758565b6040516101a19190610ae1565b60405180910390f35b3480156101b657600080fd5b506101bf610781565b6040516101cc9190610ae1565b60405180910390f35b6101ef60048036038101906101ea9190610a37565b6107a5565b005b60606000805b6001548110156102b9578373ffffffffffffffffffffffffffffffffffffffff166002600083815260200190815260200160002060000160009054906101000a900473ffffffffffffffffffffffffffffffffffffffff1673ffffffffffffffffffffffffffffffffffffffff1614801561029257506002600082815260200190815260200160002060000160149054906101000a900460ff165b156102a65781806102a290610b2b565b9250505b80806102b190610b2b565b9150506101f7565b5060008167ffffffffffffffff8111156102d6576102d5610b73565b5b6040519080825280602002602001820160405280156103045781602001602082028036833780820191505090505b5090506000915060005b6001548110156103f0578473ffffffffffffffffffffffffffffffffffffffff166002600083815260200190815260200160002060000160009054906101000a900473ffffffffffffffffffffffffffffffffffffffff1673ffffffffffffffffffffffffffffffffffffffff161480156103a957506002600082815260200190815260200160002060000160149054906101000a900460ff165b156103dd57808284815181106103c2576103c1610ba2565b5b60200260200101818152505082806103d990610b2b565b9350505b80806103e890610b2b565b91505061030e565b508092505050919050565b60026020528060005260406000206000915090508060000160009054906101000a900473ffffffffffffffffffffffffffffffffffffffff16908060000160149054906101000a900460ff16905082565b60036020528060005260406000206000915090505481565b60015481565b6002600082815260200190815260200160002060000160149054906101000a900460ff16156104ce576040517f08c379a00000000000000000000000000000000000000000000000000000000081526004016104c590610c2e565b60405180910390fd5b6003600082815260200190815260200160002054341015610524576040517f08c379a000000000000000000000000000000000000000000000000000000000815260040161051b90610c9a565b60405180910390fd5b6000600360008381526020019081526020016000205490508034101561057f576040517f08c379a000000000000000000000000000000000000000000000000000000000815260040161057690610c9a565b60405180910390fd5b60008060009054906101000a900473ffffffffffffffffffffffffffffffffffffffff1673ffffffffffffffffffffffffffffffffffffffff16826040516105c690610ceb565b60006040518083038185875af1925050503d8060008114610603576040519150601f19603f3d011682016040523d82523d6000602084013e610608565b606091505b505090508061064c576040517f08c379a000000000000000000000000000000000000000000000000000000000815260040161064390610d4c565b60405180910390fd5b60405180604001604052803373ffffffffffffffffffffffffffffffffffffffff168152602001600115158152506002600085815260200190815260200160002060008201518160000160006101000a81548173ffffffffffffffffffffffffffffffffffffffff021916908373ffffffffffffffffffffffffffffffffffffffff16021790555060208201518160000160146101000a81548160ff0219169083151502179055509050506001600081548092919061070a90610b2b565b9190505550823373ffffffffffffffffffffffffffffffffffffffff167f697fd06253f28e79af2d7e8cba6ac3c3f7804a8b0a43210c3036cddba1e1f48160405160405180910390a3505050565b60008060009054906101000a900473ffffffffffffffffffffffffffffffffffffffff16905090565b60008054906101000a900473ffffffffffffffffffffffffffffffffffffffff1681565b60008054906101000a900473ffffffffffffffffffffffffffffffffffffffff1673ffffffffffffffffffffffffffffffffffffffff163373ffffffffffffffffffffffffffffffffffffffff1614610833576040517f08c379a000000000000000000000000000000000000000000000000000000000815260040161082a90610dde565b60405180910390fd5b60003411610876576040517f08c379a000000000000000000000000000000000000000000000000000000000815260040161086d90610e4a565b60405180910390fd5b34600360008381526020019081526020016000208190555050565b600080fd5b600073ffffffffffffffffffffffffffffffffffffffff82169050919050565b60006108c182610896565b9050919050565b6108d1816108b6565b81146108dc57600080fd5b50565b6000813590506108ee816108c8565b92915050565b60006020828403121561090a57610909610891565b5b6000610918848285016108df565b91505092915050565b600081519050919050565b600082825260208201905092915050565b6000819050602082019050919050565b6000819050919050565b6109608161094d565b82525050565b60006109728383610957565b60208301905092915050565b6000602082019050919050565b600061099682610921565b6109a0818561092c565b93506109ab8361093d565b8060005b838110156109dc5781516109c38882610966565b97506109ce8361097e565b9250506001810190506109af565b5085935050505092915050565b60006020820190508181036000830152610a03818461098b565b905092915050565b610a148161094d565b8114610a1f57600080fd5b50565b600081359050610a3181610a0b565b92915050565b600060208284031215610a4d57610a4c610891565b5b6000610a5b84828501610a22565b91505092915050565b610a6d816108b6565b82525050565b60008115159050919050565b610a8881610a73565b82525050565b6000604082019050610aa36000830185610a64565b610ab06020830184610a7f565b9392505050565b610ac08161094d565b82525050565b6000602082019050610adb6000830184610ab7565b92915050565b6000602082019050610af66000830184610a64565b92915050565b7f4e487b7100000000000000000000000000000000000000000000000000000000600052601160045260246000fd5b6000610b368261094d565b91507fffffffffffffffffffffffffffffffffffffffffffffffffffffffffffffffff8203610b6857610b67610afc565b5b600182019050919050565b7f4e487b7100000000000000000000000000000000000000000000000000000000600052604160045260246000fd5b7f4e487b7100000000000000000000000000000000000000000000000000000000600052603260045260246000fd5b600082825260208201905092915050565b7f5061696e7420616c726561647920707572636861736564000000000000000000600082015250565b6000610c18601783610bd1565b9150610c2382610be2565b602082019050919050565b60006020820190508181036000830152610c4781610c0b565b9050919050565b7f4e6f7420656e6f7567682045746865722073656e740000000000000000000000600082015250565b6000610c84601583610bd1565b9150610c8f82610c4e565b602082019050919050565b60006020820190508181036000830152610cb381610c77565b9050919050565b600081905092915050565b50565b6000610cd5600083610cba565b9150610ce082610cc5565b600082019050919050565b6000610cf682610cc8565b9150819050919050565b7f5472616e73616374696f6e206661696c65640000000000000000000000000000600082015250565b6000610d36601283610bd1565b9150610d4182610d00565b602082019050919050565b60006020820190508181036000830152610d6581610d29565b9050919050565b7f4f6e6c7920746865206f776e65722063616e2063616c6c20746869732066756e60008201527f6374696f6e000000000000000000000000000000000000000000000000000000602082015250565b6000610dc8602583610bd1565b9150610dd382610d6c565b604082019050919050565b60006020820190508181036000830152610df781610dbb565b9050919050565b7f4e6f2045746865722073656e7400000000000000000000000000000000000000600082015250565b6000610e34600d83610bd1565b9150610e3f82610dfe565b602082019050919050565b60006020820190508181036000830152610e6381610e27565b905091905056fea26469706673582212205ac9961cc4b0698d3fbd9bb8265b4797ae7ed3af362fd23c2ed2df0f7d535fdc64736f6c63430008130033",
  "immutableReferences": {},
  "source": "// SPDX-License-Identifier: MIT\npragma solidity ^0.8.0;\n\ncontract PaintContract {\n    address public owner;\n\n    struct Purchase {\n        address buyer;\n        bool isPurchased;\n    }\n\n    uint256 public paintPurchasesCount;\n    mapping(uint256 => Purchase) public paintPurchases;\n    mapping(uint256 => uint256) public paintPrices;\n\n    event PaintPurchased(address indexed buyer, uint256 indexed paintId);\n\n    modifier onlyOwner() {\n        require(msg.sender == owner, \"Only the owner can call this function\");\n        _;\n    }\n\n    constructor() {\n        owner = msg.sender;\n        paintPurchasesCount = 0;\n    }\n\n    function setPaintPrice(uint256 paintId) external onlyOwner payable {\n    require(msg.value > 0, \"No Ether sent\");\n    paintPrices[paintId] = msg.value;\n}\n\n\n  function purchasePaint(uint256 paintId) external payable {\n    require(!paintPurchases[paintId].isPurchased, \"Paint already purchased\");\n    require(msg.value >= paintPrices[paintId], \"Not enough Ether sent\");\n\n    // Calcola la quantit di Ether effettivamente pagata per il quadro\n    uint256 actualPrice = paintPrices[paintId];\n    require(msg.value >= actualPrice, \"Not enough Ether sent\");\n\n    // Effettua la transazione utilizzando l'actualPrice\n    (bool success, ) = owner.call{value: actualPrice}(\"\");\n    require(success, \"Transaction failed\");\n\n    // Aggiorna lo stato del quadro\n    paintPurchases[paintId] = Purchase(msg.sender, true);\n    paintPurchasesCount++;\n\n    emit PaintPurchased(msg.sender, paintId);\n}\n\n\n    function getAcquisitionsByBuyer(address buyer) external view returns (uint256[] memory) {\n        uint256 count = 0;\n\n        // Conta il numero di quadri acquistati dall'acquirente specificato\n        for (uint256 i = 0; i < paintPurchasesCount; i++) {\n            if (paintPurchases[i].buyer == buyer && paintPurchases[i].isPurchased) {\n                count++;\n            }\n        }\n\n        // Crea un array contenente gli ID dei quadri acquistati\n        uint256[] memory result = new uint256[](count);\n        count = 0;\n        for (uint256 i = 0; i < paintPurchasesCount; i++) {\n            if (paintPurchases[i].buyer == buyer && paintPurchases[i].isPurchased) {\n                result[count] = i;\n                count++;\n            }\n        }\n\n        return result;\n    }\n    function getPaints() public view returns (address) {\n        return owner;\n    }\n}\n",
  "sourcePath": "/Users/marcociano/Desktop/Chain-Of-Art/contracts/PaintContract.sol",
  "compiler": {
    "name": "solc",
    "version": "0.8.19+commit.7dd6d404.Emscripten.clang"
  },
  "schemaVersion": "3.4.16",
  "updatedAt": "2024-01-09T21:40:33.727Z",
  "devdoc": {
    "kind": "dev",
    "methods": {},
    "version": 1
  },
  "userdoc": {
    "kind": "user",
    "methods": {},
    "version": 1
  }
}