{
  "contractName": "PaintContract",
  "abi": [
    {
      "inputs": [],
      "stateMutability": "nonpayable",
      "type": "constructor"
    },
    {
      "anonymous": false,
      "inputs": [
        {
          "indexed": true,
          "internalType": "address",
          "name": "buyer",
          "type": "address"
        },
        {
          "indexed": true,
          "internalType": "uint256",
          "name": "paintId",
          "type": "uint256"
        }
      ],
      "name": "PaintPurchased",
      "type": "event"
    },
    {
      "inputs": [],
      "name": "owner",
      "outputs": [
        {
          "internalType": "address",
          "name": "",
          "type": "address"
        }
      ],
      "stateMutability": "view",
      "type": "function",
      "constant": true
    },
    {
      "inputs": [
        {
          "internalType": "uint256",
          "name": "",
          "type": "uint256"
        }
      ],
      "name": "paintOwners",
      "outputs": [
        {
          "internalType": "address",
          "name": "",
          "type": "address"
        }
      ],
      "stateMutability": "view",
      "type": "function",
      "constant": true
    },
    {
      "inputs": [
        {
          "internalType": "uint256",
          "name": "",
          "type": "uint256"
        }
      ],
      "name": "paintPurchased",
      "outputs": [
        {
          "internalType": "bool",
          "name": "",
          "type": "bool"
        }
      ],
      "stateMutability": "view",
      "type": "function",
      "constant": true
    },
    {
      "inputs": [
        {
          "internalType": "uint256",
          "name": "paintId",
          "type": "uint256"
        }
      ],
      "name": "purchasePaint",
      "outputs": [],
      "stateMutability": "nonpayable",
      "type": "function"
    },
    {
      "inputs": [
        {
          "internalType": "uint256",
          "name": "paintId",
          "type": "uint256"
        }
      ],
      "name": "getPaint",
      "outputs": [
        {
          "internalType": "address",
          "name": "",
          "type": "address"
        }
      ],
      "stateMutability": "view",
      "type": "function",
      "constant": true
    },
    {
      "inputs": [
        {
          "internalType": "address",
          "name": "newOwner",
          "type": "address"
        }
      ],
      "name": "setOwner",
      "outputs": [],
      "stateMutability": "nonpayable",
      "type": "function"
    }
  ],
  "bytecode": "0x608060405234801561001057600080fd5b50336000806101000a81548173ffffffffffffffffffffffffffffffffffffffff021916908373ffffffffffffffffffffffffffffffffffffffff160217905550610690806100606000396000f3fe608060405234801561001057600080fd5b50600436106100625760003560e01c806313af4035146100675780633b05a5b214610083578063717b0860146100b35780638da5cb5b146100cf578063d2b9583d146100ed578063eb3df00f1461011d575b600080fd5b610081600480360381019061007c919061045b565b61014d565b005b61009d600480360381019061009891906104be565b61021e565b6040516100aa9190610506565b60405180910390f35b6100cd60048036038101906100c891906104be565b61023e565b005b6100d7610364565b6040516100e49190610530565b60405180910390f35b610107600480360381019061010291906104be565b610388565b6040516101149190610530565b60405180910390f35b610137600480360381019061013291906104be565b6103bb565b6040516101449190610530565b60405180910390f35b60008054906101000a900473ffffffffffffffffffffffffffffffffffffffff1673ffffffffffffffffffffffffffffffffffffffff163373ffffffffffffffffffffffffffffffffffffffff16146101db576040517f08c379a00000000000000000000000000000000000000000000000000000000081526004016101d2906105ce565b60405180910390fd5b806000806101000a81548173ffffffffffffffffffffffffffffffffffffffff021916908373ffffffffffffffffffffffffffffffffffffffff16021790555050565b60026020528060005260406000206000915054906101000a900460ff1681565b6002600082815260200190815260200160002060009054906101000a900460ff161561029f576040517f08c379a00000000000000000000000000000000000000000000000000000000081526004016102969061063a565b60405180910390fd5b336001600083815260200190815260200160002060006101000a81548173ffffffffffffffffffffffffffffffffffffffff021916908373ffffffffffffffffffffffffffffffffffffffff16021790555060016002600083815260200190815260200160002060006101000a81548160ff021916908315150217905550803373ffffffffffffffffffffffffffffffffffffffff167f697fd06253f28e79af2d7e8cba6ac3c3f7804a8b0a43210c3036cddba1e1f48160405160405180910390a350565b60008054906101000a900473ffffffffffffffffffffffffffffffffffffffff1681565b60016020528060005260406000206000915054906101000a900473ffffffffffffffffffffffffffffffffffffffff1681565b60006001600083815260200190815260200160002060009054906101000a900473ffffffffffffffffffffffffffffffffffffffff169050919050565b600080fd5b600073ffffffffffffffffffffffffffffffffffffffff82169050919050565b6000610428826103fd565b9050919050565b6104388161041d565b811461044357600080fd5b50565b6000813590506104558161042f565b92915050565b600060208284031215610471576104706103f8565b5b600061047f84828501610446565b91505092915050565b6000819050919050565b61049b81610488565b81146104a657600080fd5b50565b6000813590506104b881610492565b92915050565b6000602082840312156104d4576104d36103f8565b5b60006104e2848285016104a9565b91505092915050565b60008115159050919050565b610500816104eb565b82525050565b600060208201905061051b60008301846104f7565b92915050565b61052a8161041d565b82525050565b60006020820190506105456000830184610521565b92915050565b600082825260208201905092915050565b7f4f6e6c7920746865206f776e65722063616e2063616c6c20746869732066756e60008201527f6374696f6e000000000000000000000000000000000000000000000000000000602082015250565b60006105b860258361054b565b91506105c38261055c565b604082019050919050565b600060208201905081810360008301526105e7816105ab565b9050919050565b7f5061696e7420616c726561647920707572636861736564000000000000000000600082015250565b600061062460178361054b565b915061062f826105ee565b602082019050919050565b6000602082019050818103600083015261065381610617565b905091905056fea2646970667358221220b952ea22c5da28f243e12905ba2ad720c642dd0a3dd32715b0c5e45e18f3bc5064736f6c63430008130033",
  "immutableReferences": {},
  "source": "// SPDX-License-Identifier: MIT\npragma solidity ^0.8.0;\n\ncontract PaintContract {\n    address public owner;\n    mapping(uint256 => address) public paintOwners;\n    mapping(uint256 => bool) public paintPurchased;\n\n    event PaintPurchased(address indexed buyer, uint256 indexed paintId);\n\n    modifier onlyOwner() {\n        require(msg.sender == owner, \"Only the owner can call this function\");\n        _;\n    }\n\n    constructor() {\n        owner = msg.sender;\n    }\n\n    function purchasePaint(uint256 paintId) external {\n        require(!paintPurchased[paintId], \"Paint already purchased\");\n        \n        paintOwners[paintId] = msg.sender;\n        paintPurchased[paintId] = true;\n\n        emit PaintPurchased(msg.sender, paintId);\n    }\n\n    function getPaint(uint256 paintId) external view returns (address) {\n        return paintOwners[paintId];\n    }\n\n    function setOwner(address newOwner) external onlyOwner {\n        owner = newOwner;\n    }\n}\n",
  "sourcePath": "/Users/marcociano/Desktop/Chain-Of-Art/contracts/PaintContract.sol",
  "compiler": {
    "name": "solc",
    "version": "0.8.19+commit.7dd6d404.Emscripten.clang"
  },
  "schemaVersion": "3.4.16",
  "updatedAt": "2024-01-04T17:25:27.949Z",
  "networkType": "ethereum",
  "devdoc": {
    "kind": "dev",
    "methods": {},
    "version": 1
  },
  "userdoc": {
    "kind": "user",
    "methods": {},
    "version": 1
  }
}