{
  "contractName": "PaintContract",
  "abi": [
    {
      "inputs": [],
      "stateMutability": "nonpayable",
      "type": "constructor"
    },
    {
      "anonymous": false,
      "inputs": [
        {
          "indexed": true,
          "internalType": "address",
          "name": "buyer",
          "type": "address"
        },
        {
          "indexed": false,
          "internalType": "uint256",
          "name": "paintingId",
          "type": "uint256"
        },
        {
          "indexed": false,
          "internalType": "uint256",
          "name": "price",
          "type": "uint256"
        }
      ],
      "name": "PaintingPurchased",
      "type": "event"
    },
    {
      "inputs": [],
      "name": "counterPaints",
      "outputs": [
        {
          "internalType": "uint256",
          "name": "",
          "type": "uint256"
        }
      ],
      "stateMutability": "view",
      "type": "function",
      "constant": true
    },
    {
      "inputs": [],
      "name": "nextPaintingId",
      "outputs": [
        {
          "internalType": "uint256",
          "name": "",
          "type": "uint256"
        }
      ],
      "stateMutability": "view",
      "type": "function",
      "constant": true
    },
    {
      "inputs": [],
      "name": "owner",
      "outputs": [
        {
          "internalType": "address",
          "name": "",
          "type": "address"
        }
      ],
      "stateMutability": "view",
      "type": "function",
      "constant": true
    },
    {
      "inputs": [
        {
          "internalType": "uint256",
          "name": "",
          "type": "uint256"
        }
      ],
      "name": "paintingIdToOwner",
      "outputs": [
        {
          "internalType": "address",
          "name": "",
          "type": "address"
        }
      ],
      "stateMutability": "view",
      "type": "function",
      "constant": true
    },
    {
      "inputs": [
        {
          "internalType": "uint256",
          "name": "",
          "type": "uint256"
        }
      ],
      "name": "paintingIdToPrice",
      "outputs": [
        {
          "internalType": "uint256",
          "name": "",
          "type": "uint256"
        }
      ],
      "stateMutability": "view",
      "type": "function",
      "constant": true
    },
    {
      "inputs": [
        {
          "internalType": "uint256",
          "name": "price",
          "type": "uint256"
        }
      ],
      "name": "mintPainting",
      "outputs": [],
      "stateMutability": "nonpayable",
      "type": "function"
    },
    {
      "inputs": [
        {
          "internalType": "uint256",
          "name": "paintingId",
          "type": "uint256"
        }
      ],
      "name": "purchasePainting",
      "outputs": [],
      "stateMutability": "payable",
      "type": "function",
      "payable": true
    }
  ],
  "bytecode": "0x608060405234801561001057600080fd5b506000808190555033600160006101000a81548173ffffffffffffffffffffffffffffffffffffffff021916908373ffffffffffffffffffffffffffffffffffffffff160217905550610918806100686000396000f3fe6080604052600436106100705760003560e01c806366bb51da1161004e57806366bb51da1461011a5780637f5dc9b3146101455780638da5cb5b14610161578063eb55e1cb1461018c57610070565b806303454b46146100755780631465b253146100a05780631a53552c146100dd575b600080fd5b34801561008157600080fd5b5061008a6101b5565b6040516100979190610618565b60405180910390f35b3480156100ac57600080fd5b506100c760048036038101906100c29190610664565b6101bb565b6040516100d49190610618565b60405180910390f35b3480156100e957600080fd5b5061010460048036038101906100ff9190610664565b6101d3565b60405161011191906106d2565b60405180910390f35b34801561012657600080fd5b5061012f610206565b60405161013c9190610618565b60405180910390f35b61015f600480360381019061015a9190610664565b61020c565b005b34801561016d57600080fd5b50610176610428565b60405161018391906106d2565b60405180910390f35b34801561019857600080fd5b506101b360048036038101906101ae9190610664565b61044e565b005b60005481565b60036020528060005260406000206000915090505481565b60046020528060005260406000206000915054906101000a900473ffffffffffffffffffffffffffffffffffffffff1681565b60025481565b600073ffffffffffffffffffffffffffffffffffffffff166004600083815260200190815260200160002060009054906101000a900473ffffffffffffffffffffffffffffffffffffffff1673ffffffffffffffffffffffffffffffffffffffff16036102ae576040517f08c379a00000000000000000000000000000000000000000000000000000000081526004016102a59061074a565b60405180910390fd5b60036000828152602001908152602001600020543414610303576040517f08c379a00000000000000000000000000000000000000000000000000000000081526004016102fa906107b6565b60405180910390fd5b60006004600083815260200190815260200160002060009054906101000a900473ffffffffffffffffffffffffffffffffffffffff1690508073ffffffffffffffffffffffffffffffffffffffff166108fc349081150290604051600060405180830381858888f19350505050158015610381573d6000803e3d6000fd5b50336004600084815260200190815260200160002060006101000a81548173ffffffffffffffffffffffffffffffffffffffff021916908373ffffffffffffffffffffffffffffffffffffffff1602179055503373ffffffffffffffffffffffffffffffffffffffff167f487e9dfab41431ac56b457e590b2327c2a0ee6f310606d75aeb060b056fbce33833460405161041c9291906107d6565b60405180910390a25050565b600160009054906101000a900473ffffffffffffffffffffffffffffffffffffffff1681565b600160009054906101000a900473ffffffffffffffffffffffffffffffffffffffff1673ffffffffffffffffffffffffffffffffffffffff163373ffffffffffffffffffffffffffffffffffffffff16146104de576040517f08c379a00000000000000000000000000000000000000000000000000000000081526004016104d59061084b565b60405180910390fd5b60006002549050600160009054906101000a900473ffffffffffffffffffffffffffffffffffffffff166004600083815260200190815260200160002060006101000a81548173ffffffffffffffffffffffffffffffffffffffff021916908373ffffffffffffffffffffffffffffffffffffffff160217905550816003600083815260200190815260200160002081905550600260008154809291906105849061089a565b9190505550600160009054906101000a900473ffffffffffffffffffffffffffffffffffffffff1673ffffffffffffffffffffffffffffffffffffffff167f487e9dfab41431ac56b457e590b2327c2a0ee6f310606d75aeb060b056fbce3382846040516105f39291906107d6565b60405180910390a25050565b6000819050919050565b610612816105ff565b82525050565b600060208201905061062d6000830184610609565b92915050565b600080fd5b610641816105ff565b811461064c57600080fd5b50565b60008135905061065e81610638565b92915050565b60006020828403121561067a57610679610633565b5b60006106888482850161064f565b91505092915050565b600073ffffffffffffffffffffffffffffffffffffffff82169050919050565b60006106bc82610691565b9050919050565b6106cc816106b1565b82525050565b60006020820190506106e760008301846106c3565b92915050565b600082825260208201905092915050565b7f5061696e74696e6720494420646f6573206e6f74206578697374000000000000600082015250565b6000610734601a836106ed565b915061073f826106fe565b602082019050919050565b6000602082019050818103600083015261076381610727565b9050919050565b7f496e636f7272656374207061796d656e7420616d6f756e740000000000000000600082015250565b60006107a06018836106ed565b91506107ab8261076a565b602082019050919050565b600060208201905081810360008301526107cf81610793565b9050919050565b60006040820190506107eb6000830185610609565b6107f86020830184610609565b9392505050565b7f4e6f7420746865206f776e657200000000000000000000000000000000000000600082015250565b6000610835600d836106ed565b9150610840826107ff565b602082019050919050565b6000602082019050818103600083015261086481610828565b9050919050565b7f4e487b7100000000000000000000000000000000000000000000000000000000600052601160045260246000fd5b60006108a5826105ff565b91507fffffffffffffffffffffffffffffffffffffffffffffffffffffffffffffffff82036108d7576108d661086b565b5b60018201905091905056fea26469706673582212202dbd1271823bb817d28ad7186233015817137e2284af3cc8325afb7ab8401b4e64736f6c63430008130033",
  "immutableReferences": {},
  "source": "// SPDX-License-Identifier: MIT\npragma solidity >=0.4.22 <0.9.0;\n\ncontract PaintContract {\n    uint public counterPaints;\n    address public owner;\n    uint256 public nextPaintingId;\n    mapping(uint256 => uint256) public paintingIdToPrice;\n    mapping(uint256 => address) public paintingIdToOwner;\n\n    event PaintingPurchased(address indexed buyer, uint256 paintingId, uint256 price);\n\n    modifier onlyOwner() {\n        require(msg.sender == owner, \"Not the owner\");\n        _;\n    }\n\n    constructor() {\n        counterPaints=0;\n        owner = msg.sender;\n    }\n\n    function mintPainting(uint256 price) external onlyOwner {\n        uint256 paintingId = nextPaintingId;\n        paintingIdToOwner[paintingId] = owner;\n        paintingIdToPrice[paintingId] = price;\n        nextPaintingId++;\n        emit PaintingPurchased(owner, paintingId, price);\n    }\n\n    function purchasePainting(uint256 paintingId) external payable {\n        require(paintingIdToOwner[paintingId] != address(0), \"Painting ID does not exist\");\n        require(msg.value == paintingIdToPrice[paintingId], \"Incorrect payment amount\");\n\n        address payable seller = payable(paintingIdToOwner[paintingId]);\n        seller.transfer(msg.value);\n\n        paintingIdToOwner[paintingId] = msg.sender;\n        emit PaintingPurchased(msg.sender, paintingId, msg.value);\n    }\n}\n",
  "sourcePath": "/Users/marcociano/Desktop/Chain-Of-Art/contracts/PaintContract.sol",
  "compiler": {
    "name": "solc",
    "version": "0.8.19+commit.7dd6d404.Emscripten.clang"
  },
  "schemaVersion": "3.4.16",
  "updatedAt": "2024-01-03T17:58:48.000Z",
  "networkType": "ethereum",
  "devdoc": {
    "kind": "dev",
    "methods": {},
    "version": 1
  },
  "userdoc": {
    "kind": "user",
    "methods": {},
    "version": 1
  }
}