{
  "contractName": "PaintContract",
  "abi": [
    {
      "inputs": [],
      "stateMutability": "nonpayable",
      "type": "constructor"
    },
    {
      "anonymous": false,
      "inputs": [
        {
          "indexed": true,
          "internalType": "address",
          "name": "buyer",
          "type": "address"
        },
        {
          "indexed": true,
          "internalType": "uint256",
          "name": "paintId",
          "type": "uint256"
        }
      ],
      "name": "purchasedPaint",
      "type": "event"
    },
    {
      "inputs": [],
      "name": "counterPaints",
      "outputs": [
        {
          "internalType": "uint256",
          "name": "",
          "type": "uint256"
        }
      ],
      "stateMutability": "view",
      "type": "function",
      "constant": true
    },
    {
      "inputs": [
        {
          "internalType": "uint256",
          "name": "",
          "type": "uint256"
        }
      ],
      "name": "paints",
      "outputs": [
        {
          "internalType": "uint256",
          "name": "id",
          "type": "uint256"
        },
        {
          "internalType": "string",
          "name": "title",
          "type": "string"
        },
        {
          "internalType": "string",
          "name": "img",
          "type": "string"
        },
        {
          "internalType": "string",
          "name": "artist",
          "type": "string"
        },
        {
          "internalType": "string",
          "name": "price",
          "type": "string"
        },
        {
          "internalType": "bool",
          "name": "status",
          "type": "bool"
        }
      ],
      "stateMutability": "view",
      "type": "function",
      "constant": true
    },
    {
      "inputs": [
        {
          "internalType": "address",
          "name": "",
          "type": "address"
        },
        {
          "internalType": "uint256",
          "name": "",
          "type": "uint256"
        }
      ],
      "name": "purchasedPaints",
      "outputs": [
        {
          "internalType": "uint256",
          "name": "",
          "type": "uint256"
        }
      ],
      "stateMutability": "view",
      "type": "function",
      "constant": true
    },
    {
      "inputs": [],
      "name": "loadPaints",
      "outputs": [],
      "stateMutability": "nonpayable",
      "type": "function"
    },
    {
      "inputs": [
        {
          "internalType": "uint256",
          "name": "id",
          "type": "uint256"
        },
        {
          "internalType": "string",
          "name": "title",
          "type": "string"
        },
        {
          "internalType": "string",
          "name": "img",
          "type": "string"
        },
        {
          "internalType": "string",
          "name": "artist",
          "type": "string"
        },
        {
          "internalType": "string",
          "name": "price",
          "type": "string"
        }
      ],
      "name": "createPaint",
      "outputs": [],
      "stateMutability": "nonpayable",
      "type": "function"
    },
    {
      "inputs": [
        {
          "internalType": "uint256",
          "name": "paintId",
          "type": "uint256"
        }
      ],
      "name": "getPaintDetails",
      "outputs": [
        {
          "internalType": "uint256",
          "name": "id",
          "type": "uint256"
        },
        {
          "internalType": "string",
          "name": "title",
          "type": "string"
        },
        {
          "internalType": "string",
          "name": "img",
          "type": "string"
        },
        {
          "internalType": "string",
          "name": "artist",
          "type": "string"
        },
        {
          "internalType": "string",
          "name": "price",
          "type": "string"
        },
        {
          "internalType": "bool",
          "name": "status",
          "type": "bool"
        }
      ],
      "stateMutability": "view",
      "type": "function",
      "constant": true
    },
    {
      "inputs": [
        {
          "internalType": "uint256",
          "name": "paintId",
          "type": "uint256"
        }
      ],
      "name": "buyPaint",
      "outputs": [],
      "stateMutability": "payable",
      "type": "function",
      "payable": true
    },
    {
      "inputs": [
        {
          "internalType": "address",
          "name": "buyer",
          "type": "address"
        }
      ],
      "name": "getPurchasedPaintIds",
      "outputs": [
        {
          "internalType": "uint256[]",
          "name": "",
          "type": "uint256[]"
        }
      ],
      "stateMutability": "view",
      "type": "function",
      "constant": true
    },
    {
      "inputs": [
        {
          "internalType": "address",
          "name": "buyer",
          "type": "address"
        }
      ],
      "name": "getPurchasedPaints",
      "outputs": [
        {
          "components": [
            {
              "internalType": "uint256",
              "name": "id",
              "type": "uint256"
            },
            {
              "internalType": "string",
              "name": "title",
              "type": "string"
            },
            {
              "internalType": "string",
              "name": "img",
              "type": "string"
            },
            {
              "internalType": "string",
              "name": "artist",
              "type": "string"
            },
            {
              "internalType": "string",
              "name": "price",
              "type": "string"
            },
            {
              "internalType": "bool",
              "name": "status",
              "type": "bool"
            }
          ],
          "internalType": "struct PaintContract.Paint[]",
          "name": "",
          "type": "tuple[]"
        }
      ],
      "stateMutability": "view",
      "type": "function",
      "constant": true
    }
  ],
  "bytecode": "0x60806040523480156200001157600080fd5b5060008081905550620000296200002f60201b60201c565b62000ff5565b6200011960006040518060400160405280601081526020017f44697374657365205374656c6c617465000000000000000000000000000000008152506040518060400160405280600c81526020017f696d672f6169312e6a70656700000000000000000000000000000000000000008152506040518060400160405280601381526020017f416c657373616e64726f2056696272616e7465000000000000000000000000008152506040518060400160405280600481526020017f302e33330000000000000000000000000000000000000000000000000000000081525062000a2360201b60201c565b6200020360016040518060400160405280601c81526020017f53696e666f6e69612064692053706972616c6920436f736d69636865000000008152506040518060400160405280601081526020017f696d672f696d675f69615f312e706e67000000000000000000000000000000008152506040518060400160405280600f81526020017f4d6172636f205465737369746f726500000000000000000000000000000000008152506040518060400160405280600481526020017f302e34330000000000000000000000000000000000000000000000000000000081525062000a2360201b60201c565b620002ed60026040518060400160405280600981526020017f496c2067696f726e6f00000000000000000000000000000000000000000000008152506040518060400160405280600c81526020017f696d672f6169322e6a70656700000000000000000000000000000000000000008152506040518060400160405280601081526020017f566974746f72696f20466f726d616c65000000000000000000000000000000008152506040518060400160405280600481526020017f302e32360000000000000000000000000000000000000000000000000000000081525062000a2360201b60201c565b620003d760036040518060400160405280601381526020017f457175696c696272696f20417374726174746f000000000000000000000000008152506040518060400160405280600c81526020017f696d672f6169332e6a70656700000000000000000000000000000000000000008152506040518060400160405280600e81526020017f53696c76696f20426172617474610000000000000000000000000000000000008152506040518060400160405280600481526020017f302e34370000000000000000000000000000000000000000000000000000000081525062000a2360201b60201c565b620004c160046040518060400160405280600681526020017f4c274564656e00000000000000000000000000000000000000000000000000008152506040518060400160405280600c81526020017f696d672f6169342e6a70656700000000000000000000000000000000000000008152506040518060400160405280601181526020017f47696f656c65205061747465726e61746f0000000000000000000000000000008152506040518060400160405280600481526020017f302e32320000000000000000000000000000000000000000000000000000000081525062000a2360201b60201c565b620005ab60056040518060400160405280601581526020017f416c626120646f72617461206e656c20706165736500000000000000000000008152506040518060400160405280601081526020017f696d672f696d675f69615f322e706e67000000000000000000000000000000008152506040518060400160405280601181526020017f4c656f6e6172646f204c756d696e6f736f0000000000000000000000000000008152506040518060400160405280600481526020017f302e31340000000000000000000000000000000000000000000000000000000081525062000a2360201b60201c565b620006796006604051806060016040528060218152602001620035db602191396040518060400160405280601081526020017f696d672f696d675f69615f332e706e67000000000000000000000000000000008152506040518060400160405280600c81526020017f466c6176696f20536f676e6f00000000000000000000000000000000000000008152506040518060400160405280600481526020017f302e31350000000000000000000000000000000000000000000000000000000081525062000a2360201b60201c565b6200076360076040518060400160405280601681526020017f416c6c65677269612064656c2056696c6c616767696f000000000000000000008152506040518060400160405280600c81526020017f696d672f6169352e6a70656700000000000000000000000000000000000000008152506040518060400160405280601081526020017f4272756e6f20456c656d656e74617265000000000000000000000000000000008152506040518060400160405280600481526020017f302e34370000000000000000000000000000000000000000000000000000000081525062000a2360201b60201c565b6200084d60086040518060400160405280600881526020017f4c696265727461270000000000000000000000000000000000000000000000008152506040518060400160405280600c81526020017f696d672f6169362e6a70656700000000000000000000000000000000000000008152506040518060400160405280600d81526020017f416e67656c6f20526f6d616e6f000000000000000000000000000000000000008152506040518060400160405280600481526020017f302e34370000000000000000000000000000000000000000000000000000000081525062000a2360201b60201c565b6200093760096040518060400160405280601881526020017f46696f7269747572612064656c2053656e74696d656e746f00000000000000008152506040518060400160405280600c81526020017f696d672f6169372e6a70656700000000000000000000000000000000000000008152506040518060400160405280600f81526020017f4672616e636573636f20507265746500000000000000000000000000000000008152506040518060400160405280600481526020017f302e34310000000000000000000000000000000000000000000000000000000081525062000a2360201b60201c565b62000a21600a6040518060400160405280600781526020017f496c20766f6c6f000000000000000000000000000000000000000000000000008152506040518060400160405280600c81526020017f696d672f6169382e6a70656700000000000000000000000000000000000000008152506040518060400160405280600d81526020017f4c756361204365636368696e6f000000000000000000000000000000000000008152506040518060400160405280600481526020017f302e33370000000000000000000000000000000000000000000000000000000081525062000a2360201b60201c565b565b600060016000878152602001908152602001600020600001541462000a7f576040517f08c379a000000000000000000000000000000000000000000000000000000000815260040162000a769062000bf6565b60405180910390fd5b6040518060c00160405280868152602001858152602001848152602001838152602001828152602001600115158152506001600087815260200190815260200160002060008201518160000155602082015181600101908162000ae3919062000e92565b50604082015181600201908162000afb919062000e92565b50606082015181600301908162000b13919062000e92565b50608082015181600401908162000b2b919062000e92565b5060a08201518160050160006101000a81548160ff02191690831515021790555090505060008081548092919062000b639062000fa8565b91905055505050505050565b600082825260208201905092915050565b7f51756164726f20636f6e206c6f2073746573736f20494420676961272065736960008201527f7374656e74650000000000000000000000000000000000000000000000000000602082015250565b600062000bde60268362000b6f565b915062000beb8262000b80565b604082019050919050565b6000602082019050818103600083015262000c118162000bcf565b9050919050565b600081519050919050565b7f4e487b7100000000000000000000000000000000000000000000000000000000600052604160045260246000fd5b7f4e487b7100000000000000000000000000000000000000000000000000000000600052602260045260246000fd5b6000600282049050600182168062000c9a57607f821691505b60208210810362000cb05762000caf62000c52565b5b50919050565b60008190508160005260206000209050919050565b60006020601f8301049050919050565b600082821b905092915050565b60006008830262000d1a7fffffffffffffffffffffffffffffffffffffffffffffffffffffffffffffffff8262000cdb565b62000d26868362000cdb565b95508019841693508086168417925050509392505050565b6000819050919050565b6000819050919050565b600062000d7362000d6d62000d678462000d3e565b62000d48565b62000d3e565b9050919050565b6000819050919050565b62000d8f8362000d52565b62000da762000d9e8262000d7a565b84845462000ce8565b825550505050565b600090565b62000dbe62000daf565b62000dcb81848462000d84565b505050565b5b8181101562000df35762000de760008262000db4565b60018101905062000dd1565b5050565b601f82111562000e425762000e0c8162000cb6565b62000e178462000ccb565b8101602085101562000e27578190505b62000e3f62000e368562000ccb565b83018262000dd0565b50505b505050565b600082821c905092915050565b600062000e676000198460080262000e47565b1980831691505092915050565b600062000e82838362000e54565b9150826002028217905092915050565b62000e9d8262000c18565b67ffffffffffffffff81111562000eb95762000eb862000c23565b5b62000ec5825462000c81565b62000ed282828562000df7565b600060209050601f83116001811462000f0a576000841562000ef5578287015190505b62000f01858262000e74565b86555062000f71565b601f19841662000f1a8662000cb6565b60005b8281101562000f445784890151825560018201915060208501945060208101905062000f1d565b8683101562000f64578489015162000f60601f89168262000e54565b8355505b6001600288020188555050505b505050505050565b7f4e487b7100000000000000000000000000000000000000000000000000000000600052601160045260246000fd5b600062000fb58262000d3e565b91507fffffffffffffffffffffffffffffffffffffffffffffffffffffffffffffffff820362000fea5762000fe962000f79565b5b600182019050919050565b6125d680620010056000396000f3fe6080604052600436106100865760003560e01c80636e65db3e116100595780636e65db3e14610147578063a8eca8b214610189578063ac75006e146101a5578063c7b92d70146101ce578063f71426941461021057610086565b806303454b461461008b57806310b46615146100b657806315ec8815146100f35780636e10f8df14610130575b600080fd5b34801561009757600080fd5b506100a061024d565b6040516100ad919061193b565b60405180910390f35b3480156100c257600080fd5b506100dd60048036038101906100d891906119c8565b610253565b6040516100ea9190611c0f565b60405180910390f35b3480156100ff57600080fd5b5061011a600480360381019061011591906119c8565b61062d565b6040516101279190611ce0565b60405180910390f35b34801561013c57600080fd5b506101456106ca565b005b34801561015357600080fd5b5061016e60048036038101906101699190611d2e565b611065565b60405161018096959493929190611db4565b60405180910390f35b6101a3600480360381019061019e9190611d2e565b6112ce565b005b3480156101b157600080fd5b506101cc60048036038101906101c79190611f66565b61144b565b005b3480156101da57600080fd5b506101f560048036038101906101f09190611d2e565b61158a565b60405161020796959493929190611db4565b60405180910390f35b34801561021c57600080fd5b5061023760048036038101906102329190612051565b611817565b604051610244919061193b565b60405180910390f35b60005481565b60606000600260008473ffffffffffffffffffffffffffffffffffffffff1673ffffffffffffffffffffffffffffffffffffffff1681526020019081526020016000208054806020026020016040519081016040528092919081815260200182805480156102e057602002820191906000526020600020905b8154815260200190600101908083116102cc575b505050505090506000815167ffffffffffffffff81111561030457610303611e3b565b5b60405190808252806020026020018201604052801561033d57816020015b61032a6118ea565b8152602001906001900390816103225790505b50905060005b8251811015610622576001600084838151811061036357610362612091565b5b602002602001015181526020019081526020016000206040518060c00160405290816000820154815260200160018201805461039e906120ef565b80601f01602080910402602001604051908101604052809291908181526020018280546103ca906120ef565b80156104175780601f106103ec57610100808354040283529160200191610417565b820191906000526020600020905b8154815290600101906020018083116103fa57829003601f168201915b50505050508152602001600282018054610430906120ef565b80601f016020809104026020016040519081016040528092919081815260200182805461045c906120ef565b80156104a95780601f1061047e576101008083540402835291602001916104a9565b820191906000526020600020905b81548152906001019060200180831161048c57829003601f168201915b505050505081526020016003820180546104c2906120ef565b80601f01602080910402602001604051908101604052809291908181526020018280546104ee906120ef565b801561053b5780601f106105105761010080835404028352916020019161053b565b820191906000526020600020905b81548152906001019060200180831161051e57829003601f168201915b50505050508152602001600482018054610554906120ef565b80601f0160208091040260200160405190810160405280929190818152602001828054610580906120ef565b80156105cd5780601f106105a2576101008083540402835291602001916105cd565b820191906000526020600020905b8154815290600101906020018083116105b057829003601f168201915b505050505081526020016005820160009054906101000a900460ff16151515158152505082828151811061060457610603612091565b5b6020026020010181905250808061061a9061214f565b915050610343565b508092505050919050565b60606000600260008473ffffffffffffffffffffffffffffffffffffffff1673ffffffffffffffffffffffffffffffffffffffff1681526020019081526020016000208054806020026020016040519081016040528092919081815260200182805480156106ba57602002820191906000526020600020905b8154815260200190600101908083116106a6575b5050505050905080915050919050565b6107ac60006040518060400160405280601081526020017f44697374657365205374656c6c617465000000000000000000000000000000008152506040518060400160405280600c81526020017f696d672f6169312e6a70656700000000000000000000000000000000000000008152506040518060400160405280601381526020017f416c657373616e64726f2056696272616e7465000000000000000000000000008152506040518060400160405280600481526020017f302e33330000000000000000000000000000000000000000000000000000000081525061144b565b61088e60016040518060400160405280601c81526020017f53696e666f6e69612064692053706972616c6920436f736d69636865000000008152506040518060400160405280601081526020017f696d672f696d675f69615f312e706e67000000000000000000000000000000008152506040518060400160405280600f81526020017f4d6172636f205465737369746f726500000000000000000000000000000000008152506040518060400160405280600481526020017f302e34330000000000000000000000000000000000000000000000000000000081525061144b565b61097060026040518060400160405280600981526020017f496c2067696f726e6f00000000000000000000000000000000000000000000008152506040518060400160405280600c81526020017f696d672f6169322e6a70656700000000000000000000000000000000000000008152506040518060400160405280601081526020017f566974746f72696f20466f726d616c65000000000000000000000000000000008152506040518060400160405280600481526020017f302e32360000000000000000000000000000000000000000000000000000000081525061144b565b610a5260036040518060400160405280601381526020017f457175696c696272696f20417374726174746f000000000000000000000000008152506040518060400160405280600c81526020017f696d672f6169332e6a70656700000000000000000000000000000000000000008152506040518060400160405280600e81526020017f53696c76696f20426172617474610000000000000000000000000000000000008152506040518060400160405280600481526020017f302e34370000000000000000000000000000000000000000000000000000000081525061144b565b610b3460046040518060400160405280600681526020017f4c274564656e00000000000000000000000000000000000000000000000000008152506040518060400160405280600c81526020017f696d672f6169342e6a70656700000000000000000000000000000000000000008152506040518060400160405280601181526020017f47696f656c65205061747465726e61746f0000000000000000000000000000008152506040518060400160405280600481526020017f302e32320000000000000000000000000000000000000000000000000000000081525061144b565b610c1660056040518060400160405280601581526020017f416c626120646f72617461206e656c20706165736500000000000000000000008152506040518060400160405280601081526020017f696d672f696d675f69615f322e706e67000000000000000000000000000000008152506040518060400160405280601181526020017f4c656f6e6172646f204c756d696e6f736f0000000000000000000000000000008152506040518060400160405280600481526020017f302e31340000000000000000000000000000000000000000000000000000000081525061144b565b610cdb6006604051806060016040528060218152602001612580602191396040518060400160405280601081526020017f696d672f696d675f69615f332e706e67000000000000000000000000000000008152506040518060400160405280600c81526020017f466c6176696f20536f676e6f00000000000000000000000000000000000000008152506040518060400160405280600481526020017f302e31350000000000000000000000000000000000000000000000000000000081525061144b565b610dbd60076040518060400160405280601681526020017f416c6c65677269612064656c2056696c6c616767696f000000000000000000008152506040518060400160405280600c81526020017f696d672f6169352e6a70656700000000000000000000000000000000000000008152506040518060400160405280601081526020017f4272756e6f20456c656d656e74617265000000000000000000000000000000008152506040518060400160405280600481526020017f302e34370000000000000000000000000000000000000000000000000000000081525061144b565b610e9f60086040518060400160405280600881526020017f4c696265727461270000000000000000000000000000000000000000000000008152506040518060400160405280600c81526020017f696d672f6169362e6a70656700000000000000000000000000000000000000008152506040518060400160405280600d81526020017f416e67656c6f20526f6d616e6f000000000000000000000000000000000000008152506040518060400160405280600481526020017f302e34370000000000000000000000000000000000000000000000000000000081525061144b565b610f8160096040518060400160405280601881526020017f46696f7269747572612064656c2053656e74696d656e746f00000000000000008152506040518060400160405280600c81526020017f696d672f6169372e6a70656700000000000000000000000000000000000000008152506040518060400160405280600f81526020017f4672616e636573636f20507265746500000000000000000000000000000000008152506040518060400160405280600481526020017f302e34310000000000000000000000000000000000000000000000000000000081525061144b565b611063600a6040518060400160405280600781526020017f496c20766f6c6f000000000000000000000000000000000000000000000000008152506040518060400160405280600c81526020017f696d672f6169382e6a70656700000000000000000000000000000000000000008152506040518060400160405280600d81526020017f4c756361204365636368696e6f000000000000000000000000000000000000008152506040518060400160405280600481526020017f302e33370000000000000000000000000000000000000000000000000000000081525061144b565b565b600160205280600052604060002060009150905080600001549080600101805461108e906120ef565b80601f01602080910402602001604051908101604052809291908181526020018280546110ba906120ef565b80156111075780601f106110dc57610100808354040283529160200191611107565b820191906000526020600020905b8154815290600101906020018083116110ea57829003601f168201915b50505050509080600201805461111c906120ef565b80601f0160208091040260200160405190810160405280929190818152602001828054611148906120ef565b80156111955780601f1061116a57610100808354040283529160200191611195565b820191906000526020600020905b81548152906001019060200180831161117857829003601f168201915b5050505050908060030180546111aa906120ef565b80601f01602080910402602001604051908101604052809291908181526020018280546111d6906120ef565b80156112235780601f106111f857610100808354040283529160200191611223565b820191906000526020600020905b81548152906001019060200180831161120657829003601f168201915b505050505090806004018054611238906120ef565b80601f0160208091040260200160405190810160405280929190818152602001828054611264906120ef565b80156112b15780601f10611286576101008083540402835291602001916112b1565b820191906000526020600020905b81548152906001019060200180831161129457829003601f168201915b5050505050908060050160009054906101000a900460ff16905086565b60006001600083815260200190815260200160002090508060050160009054906101000a900460ff16611336576040517f08c379a000000000000000000000000000000000000000000000000000000000815260040161132d906121e3565b60405180910390fd5b6113403383611848565b15611380576040517f08c379a00000000000000000000000000000000000000000000000000000000081526004016113779061224f565b60405180910390fd5b600260003373ffffffffffffffffffffffffffffffffffffffff1673ffffffffffffffffffffffffffffffffffffffff16815260200190815260200160002082908060018154018082558091505060019003906000526020600020016000909190919091505560008160050160006101000a81548160ff021916908315150217905550813373ffffffffffffffffffffffffffffffffffffffff167f1219234621cfbda08eed13673c6e71cbf4b399ec00b0cdc44d8366e22d06670060405160405180910390a35050565b60006001600087815260200190815260200160002060000154146114a4576040517f08c379a000000000000000000000000000000000000000000000000000000000815260040161149b906122e1565b60405180910390fd5b6040518060c00160405280868152602001858152602001848152602001838152602001828152602001600115158152506001600087815260200190815260200160002060008201518160000155602082015181600101908161150691906124ad565b50604082015181600201908161151c91906124ad565b50606082015181600301908161153291906124ad565b50608082015181600401908161154891906124ad565b5060a08201518160050160006101000a81548160ff02191690831515021790555090505060008081548092919061157e9061214f565b91905055505050505050565b60006060806060806000806001600089815260200190815260200160002090508060000154816001018260020183600301846004018560050160009054906101000a900460ff168480546115dd906120ef565b80601f0160208091040260200160405190810160405280929190818152602001828054611609906120ef565b80156116565780601f1061162b57610100808354040283529160200191611656565b820191906000526020600020905b81548152906001019060200180831161163957829003601f168201915b50505050509450838054611669906120ef565b80601f0160208091040260200160405190810160405280929190818152602001828054611695906120ef565b80156116e25780601f106116b7576101008083540402835291602001916116e2565b820191906000526020600020905b8154815290600101906020018083116116c557829003601f168201915b505050505093508280546116f5906120ef565b80601f0160208091040260200160405190810160405280929190818152602001828054611721906120ef565b801561176e5780601f106117435761010080835404028352916020019161176e565b820191906000526020600020905b81548152906001019060200180831161175157829003601f168201915b50505050509250818054611781906120ef565b80601f01602080910402602001604051908101604052809291908181526020018280546117ad906120ef565b80156117fa5780601f106117cf576101008083540402835291602001916117fa565b820191906000526020600020905b8154815290600101906020018083116117dd57829003601f168201915b505050505091509650965096509650965096505091939550919395565b6002602052816000526040600020818154811061183357600080fd5b90600052602060002001600091509150505481565b600080600260008573ffffffffffffffffffffffffffffffffffffffff1673ffffffffffffffffffffffffffffffffffffffff168152602001908152602001600020905060005b81805490508110156118dd57838282815481106118af576118ae612091565b5b9060005260206000200154036118ca576001925050506118e4565b80806118d59061214f565b91505061188f565b5060009150505b92915050565b6040518060c0016040528060008152602001606081526020016060815260200160608152602001606081526020016000151581525090565b6000819050919050565b61193581611922565b82525050565b6000602082019050611950600083018461192c565b92915050565b6000604051905090565b600080fd5b600080fd5b600073ffffffffffffffffffffffffffffffffffffffff82169050919050565b60006119958261196a565b9050919050565b6119a58161198a565b81146119b057600080fd5b50565b6000813590506119c28161199c565b92915050565b6000602082840312156119de576119dd611960565b5b60006119ec848285016119b3565b91505092915050565b600081519050919050565b600082825260208201905092915050565b6000819050602082019050919050565b611a2a81611922565b82525050565b600081519050919050565b600082825260208201905092915050565b60005b83811015611a6a578082015181840152602081019050611a4f565b60008484015250505050565b6000601f19601f8301169050919050565b6000611a9282611a30565b611a9c8185611a3b565b9350611aac818560208601611a4c565b611ab581611a76565b840191505092915050565b60008115159050919050565b611ad581611ac0565b82525050565b600060c083016000830151611af36000860182611a21565b5060208301518482036020860152611b0b8282611a87565b91505060408301518482036040860152611b258282611a87565b91505060608301518482036060860152611b3f8282611a87565b91505060808301518482036080860152611b598282611a87565b91505060a0830151611b6e60a0860182611acc565b508091505092915050565b6000611b858383611adb565b905092915050565b6000602082019050919050565b6000611ba5826119f5565b611baf8185611a00565b935083602082028501611bc185611a11565b8060005b85811015611bfd5784840389528151611bde8582611b79565b9450611be983611b8d565b925060208a01995050600181019050611bc5565b50829750879550505050505092915050565b60006020820190508181036000830152611c298184611b9a565b905092915050565b600081519050919050565b600082825260208201905092915050565b6000819050602082019050919050565b6000611c698383611a21565b60208301905092915050565b6000602082019050919050565b6000611c8d82611c31565b611c978185611c3c565b9350611ca283611c4d565b8060005b83811015611cd3578151611cba8882611c5d565b9750611cc583611c75565b925050600181019050611ca6565b5085935050505092915050565b60006020820190508181036000830152611cfa8184611c82565b905092915050565b611d0b81611922565b8114611d1657600080fd5b50565b600081359050611d2881611d02565b92915050565b600060208284031215611d4457611d43611960565b5b6000611d5284828501611d19565b91505092915050565b600082825260208201905092915050565b6000611d7782611a30565b611d818185611d5b565b9350611d91818560208601611a4c565b611d9a81611a76565b840191505092915050565b611dae81611ac0565b82525050565b600060c082019050611dc9600083018961192c565b8181036020830152611ddb8188611d6c565b90508181036040830152611def8187611d6c565b90508181036060830152611e038186611d6c565b90508181036080830152611e178185611d6c565b9050611e2660a0830184611da5565b979650505050505050565b600080fd5b600080fd5b7f4e487b7100000000000000000000000000000000000000000000000000000000600052604160045260246000fd5b611e7382611a76565b810181811067ffffffffffffffff82111715611e9257611e91611e3b565b5b80604052505050565b6000611ea5611956565b9050611eb18282611e6a565b919050565b600067ffffffffffffffff821115611ed157611ed0611e3b565b5b611eda82611a76565b9050602081019050919050565b82818337600083830152505050565b6000611f09611f0484611eb6565b611e9b565b905082815260208101848484011115611f2557611f24611e36565b5b611f30848285611ee7565b509392505050565b600082601f830112611f4d57611f4c611e31565b5b8135611f5d848260208601611ef6565b91505092915050565b600080600080600060a08688031215611f8257611f81611960565b5b6000611f9088828901611d19565b955050602086013567ffffffffffffffff811115611fb157611fb0611965565b5b611fbd88828901611f38565b945050604086013567ffffffffffffffff811115611fde57611fdd611965565b5b611fea88828901611f38565b935050606086013567ffffffffffffffff81111561200b5761200a611965565b5b61201788828901611f38565b925050608086013567ffffffffffffffff81111561203857612037611965565b5b61204488828901611f38565b9150509295509295909350565b6000806040838503121561206857612067611960565b5b6000612076858286016119b3565b925050602061208785828601611d19565b9150509250929050565b7f4e487b7100000000000000000000000000000000000000000000000000000000600052603260045260246000fd5b7f4e487b7100000000000000000000000000000000000000000000000000000000600052602260045260246000fd5b6000600282049050600182168061210757607f821691505b60208210810361211a576121196120c0565b5b50919050565b7f4e487b7100000000000000000000000000000000000000000000000000000000600052601160045260246000fd5b600061215a82611922565b91507fffffffffffffffffffffffffffffffffffffffffffffffffffffffffffffffff820361218c5761218b612120565b5b600182019050919050565b7f496c2071756164726f206e6f6e20652720646973706f6e6962696c6500000000600082015250565b60006121cd601c83611d5b565b91506121d882612197565b602082019050919050565b600060208201905081810360008301526121fc816121c0565b9050919050565b7f486169206769612720636f6d707261746f2071756573746f2071756164726f00600082015250565b6000612239601f83611d5b565b915061224482612203565b602082019050919050565b600060208201905081810360008301526122688161222c565b9050919050565b7f51756164726f20636f6e206c6f2073746573736f20494420676961272065736960008201527f7374656e74650000000000000000000000000000000000000000000000000000602082015250565b60006122cb602683611d5b565b91506122d68261226f565b604082019050919050565b600060208201905081810360008301526122fa816122be565b9050919050565b60008190508160005260206000209050919050565b60006020601f8301049050919050565b600082821b905092915050565b6000600883026123637fffffffffffffffffffffffffffffffffffffffffffffffffffffffffffffffff82612326565b61236d8683612326565b95508019841693508086168417925050509392505050565b6000819050919050565b60006123aa6123a56123a084611922565b612385565b611922565b9050919050565b6000819050919050565b6123c48361238f565b6123d86123d0826123b1565b848454612333565b825550505050565b600090565b6123ed6123e0565b6123f88184846123bb565b505050565b5b8181101561241c576124116000826123e5565b6001810190506123fe565b5050565b601f8211156124615761243281612301565b61243b84612316565b8101602085101561244a578190505b61245e61245685612316565b8301826123fd565b50505b505050565b600082821c905092915050565b600061248460001984600802612466565b1980831691505092915050565b600061249d8383612473565b9150826002028217905092915050565b6124b682611a30565b67ffffffffffffffff8111156124cf576124ce611e3b565b5b6124d982546120ef565b6124e4828285612420565b600060209050601f8311600181146125175760008415612505578287015190505b61250f8582612491565b865550612577565b601f19841661252586612301565b60005b8281101561254d57848901518255600182019150602085019450602081019050612528565b8683101561256a5784890151612566601f891682612473565b8355505b6001600288020188555050505b50505050505056fe54656d706573746120536f6c6172652073756c6c652043696d6520457465726e65a264697066735822122036a1f5467b09061f490598f4b177f039b2db54d120b8a18452a96211de61a33f64736f6c6343000813003354656d706573746120536f6c6172652073756c6c652043696d6520457465726e65",
  "immutableReferences": {},
  "source": "// SPDX-License-Identifier: MIT\npragma solidity ^0.8.0;\n\n// Contratto per la gestione di una collezione di quadri digitali\ncontract PaintContract {\n    uint public counterPaints;\n\n    // Struttura di un singolo quadro\n    struct Paint {\n        uint id;\n        string title;\n        string img;\n        string artist;\n        string price;\n        bool status;\n    }\n\n    // Mappatura degli ID dei quadri con i loro dettagli\n    mapping (uint => Paint) public paints;\n\n    // Mappatura degli indirizzi degli acquirenti con gli ID dei quadri acquistati\n    mapping (address => uint[]) public purchasedPaints;\n\n    // Evento emesso quando un quadro viene acquistato\n    event purchasedPaint(address indexed buyer, uint indexed paintId);\n\n    // Costruttore del contratto\n    constructor() {\n        counterPaints = 0;\n        loadPaints();\n    }\n\n    function loadPaints() public {\n        createPaint(0,\"Distese Stellate\", \"img/ai1.jpeg\", \"Alessandro Vibrante\", \"0.33\");\n        createPaint(1,\"Sinfonia di Spirali Cosmiche\", \"img/img_ia_1.png\", \"Marco Tessitore\", \"0.43\");\n        createPaint(2,\"Il giorno\", \"img/ai2.jpeg\", \"Vittorio Formale\", \"0.26\");\n        createPaint(3,\"Equilibrio Astratto\", \"img/ai3.jpeg\", \"Silvio Baratta\", \"0.47\");\n        createPaint(4,\"L'Eden\", \"img/ai4.jpeg\", \"Gioele Patternato\", \"0.22\");\n        createPaint(5,\"Alba dorata nel paese\", \"img/img_ia_2.png\", \"Leonardo Luminoso\", \"0.14\");\n        createPaint(6,\"Tempesta Solare sulle Cime Eterne\", \"img/img_ia_3.png\", \"Flavio Sogno\", \"0.15\");\n        createPaint(7,\"Allegria del Villaggio\", \"img/ai5.jpeg\", \"Bruno Elementare\", \"0.47\");\n        createPaint(8,\"Liberta'\", \"img/ai6.jpeg\", \"Angelo Romano\", \"0.47\");\n        createPaint(9,\"Fioritura del Sentimento\", \"img/ai7.jpeg\", \"Francesco Prete\", \"0.41\");  \n        createPaint(10,\"Il volo\", \"img/ai8.jpeg\", \"Luca Cecchino\", \"0.37\");\n    }\n\n    // Funzione per creare un nuovo quadro nella collezione\n    function createPaint(\n        uint id,\n        string memory title,\n        string memory img,\n        string memory artist,\n        string memory price \n    ) public {\n        require(paints[id].id == 0, \"Quadro con lo stesso ID gia' esistente\");\n\n        paints[id] = Paint(\n            id,\n            title,\n            img,\n            artist,\n            price,\n            true\n        );\n        counterPaints++;\n    }\n\n    // Funzione per ottenere i dettagli di un quadro dato il suo ID\n    function getPaintDetails(uint paintId) public view returns (\n        uint id,\n        string memory title,\n        string memory img,\n        string memory artist,\n        string memory price,\n        bool status \n    ){\n        Paint storage paint = paints[paintId];\n        return (\n            paint.id,\n            paint.title,\n            paint.img,\n            paint.artist,\n            paint.price,\n            paint.status\n        );\n    }\n\n    // Funzione per acquistare un quadro\n    function buyPaint(uint paintId) public payable {\n        Paint storage paint = paints[paintId];\n\n        // Verifica se il quadro  disponibile\n        require(paint.status, \"Il quadro non e' disponibile\");\n\n        // Verifica se l'utente ha gi acquistato questo quadro\n        require(!purchasedStatus(msg.sender, paintId), \"Hai gia' comprato questo quadro\");\n\n        // Aggiungi l'ID del quadro agli acquisti dell'utente\n        purchasedPaints[msg.sender].push(paintId);\n\n        // Imposta lo stato del quadro come non disponibile\n        paint.status = false;\n        \n        // Emetti l'evento per registrare l'acquisto\n        emit purchasedPaint(msg.sender, paintId);\n    }\n\n    // Funzione di supporto per verificare se un utente ha gi acquistato un quadro\n    function purchasedStatus(address buyer, uint paintId) internal view returns (bool) {\n        uint[] storage purchasedIds = purchasedPaints[buyer];\n        for (uint i = 0; i < purchasedIds.length; i++) {\n            if (purchasedIds[i] == paintId) {\n                return true;\n            }\n        }\n        return false;\n    }\n\n    // Funzione per ottenere gli ID dei quadri acquistati da un utente\n    function getPurchasedPaintIds(address buyer) public view returns (uint[] memory){\n        uint[] memory purchasedIds = purchasedPaints[buyer];\n        return purchasedIds;\n    }\n\n    // Funzione per ottenere i dettagli dei quadri acquistati da un utente\n    function getPurchasedPaints(address buyer) public view returns (Paint[] memory){\n        uint[] memory purchasedIds = purchasedPaints[buyer];\n        Paint[] memory purchasedPaintsArray = new Paint[](purchasedIds.length);\n\n        for(uint i= 0; i< purchasedIds.length; i++){\n            purchasedPaintsArray[i] = paints[purchasedIds[i]];\n        }\n        return purchasedPaintsArray;\n    }      \n}\n",
  "sourcePath": "/Users/marcociano/Desktop/Chain-Of-Art/contracts/PaintContract.sol",
  "compiler": {
    "name": "solc",
    "version": "0.8.19+commit.7dd6d404.Emscripten.clang"
  },
  "schemaVersion": "3.4.16",
  "updatedAt": "2024-01-14T16:14:57.577Z",
  "networkType": "ethereum",
  "devdoc": {
    "kind": "dev",
    "methods": {},
    "version": 1
  },
  "userdoc": {
    "kind": "user",
    "methods": {},
    "version": 1
  }
}