{
  "contractName": "PaintContract",
  "abi": [
    {
      "inputs": [],
      "stateMutability": "nonpayable",
      "type": "constructor"
    },
    {
      "anonymous": false,
      "inputs": [
        {
          "indexed": true,
          "internalType": "address",
          "name": "buyer",
          "type": "address"
        },
        {
          "indexed": true,
          "internalType": "uint256",
          "name": "paintId",
          "type": "uint256"
        }
      ],
      "name": "purchasedPaint",
      "type": "event"
    },
    {
      "inputs": [],
      "name": "counterPaints",
      "outputs": [
        {
          "internalType": "uint256",
          "name": "",
          "type": "uint256"
        }
      ],
      "stateMutability": "view",
      "type": "function",
      "constant": true
    },
    {
      "inputs": [
        {
          "internalType": "uint256",
          "name": "",
          "type": "uint256"
        }
      ],
      "name": "paints",
      "outputs": [
        {
          "internalType": "uint256",
          "name": "id",
          "type": "uint256"
        },
        {
          "internalType": "string",
          "name": "title",
          "type": "string"
        },
        {
          "internalType": "string",
          "name": "img",
          "type": "string"
        },
        {
          "internalType": "string",
          "name": "artist",
          "type": "string"
        },
        {
          "internalType": "uint256",
          "name": "price",
          "type": "uint256"
        },
        {
          "internalType": "bool",
          "name": "status",
          "type": "bool"
        }
      ],
      "stateMutability": "view",
      "type": "function",
      "constant": true
    },
    {
      "inputs": [
        {
          "internalType": "address",
          "name": "",
          "type": "address"
        },
        {
          "internalType": "uint256",
          "name": "",
          "type": "uint256"
        }
      ],
      "name": "purchasedPaints",
      "outputs": [
        {
          "internalType": "uint256",
          "name": "",
          "type": "uint256"
        }
      ],
      "stateMutability": "view",
      "type": "function",
      "constant": true
    },
    {
      "inputs": [
        {
          "internalType": "uint256",
          "name": "id",
          "type": "uint256"
        },
        {
          "internalType": "string",
          "name": "title",
          "type": "string"
        },
        {
          "internalType": "string",
          "name": "img",
          "type": "string"
        },
        {
          "internalType": "string",
          "name": "artist",
          "type": "string"
        },
        {
          "internalType": "uint256",
          "name": "price",
          "type": "uint256"
        }
      ],
      "name": "createPaint",
      "outputs": [],
      "stateMutability": "nonpayable",
      "type": "function"
    },
    {
      "inputs": [
        {
          "internalType": "uint256",
          "name": "paintId",
          "type": "uint256"
        }
      ],
      "name": "getPaintDetails",
      "outputs": [
        {
          "internalType": "uint256",
          "name": "id",
          "type": "uint256"
        },
        {
          "internalType": "string",
          "name": "title",
          "type": "string"
        },
        {
          "internalType": "string",
          "name": "img",
          "type": "string"
        },
        {
          "internalType": "string",
          "name": "artist",
          "type": "string"
        },
        {
          "internalType": "uint256",
          "name": "price",
          "type": "uint256"
        },
        {
          "internalType": "bool",
          "name": "status",
          "type": "bool"
        }
      ],
      "stateMutability": "view",
      "type": "function",
      "constant": true
    },
    {
      "inputs": [
        {
          "internalType": "uint256",
          "name": "paintId",
          "type": "uint256"
        }
      ],
      "name": "buyPaint",
      "outputs": [],
      "stateMutability": "payable",
      "type": "function",
      "payable": true
    },
    {
      "inputs": [],
      "name": "getAllPaintd",
      "outputs": [
        {
          "components": [
            {
              "internalType": "uint256",
              "name": "id",
              "type": "uint256"
            },
            {
              "internalType": "string",
              "name": "title",
              "type": "string"
            },
            {
              "internalType": "string",
              "name": "img",
              "type": "string"
            },
            {
              "internalType": "string",
              "name": "artist",
              "type": "string"
            },
            {
              "internalType": "uint256",
              "name": "price",
              "type": "uint256"
            },
            {
              "internalType": "bool",
              "name": "status",
              "type": "bool"
            }
          ],
          "internalType": "struct PaintContract.Paint[]",
          "name": "",
          "type": "tuple[]"
        }
      ],
      "stateMutability": "view",
      "type": "function",
      "constant": true
    },
    {
      "inputs": [
        {
          "internalType": "address",
          "name": "buyer",
          "type": "address"
        }
      ],
      "name": "getPurchasedPaintIds",
      "outputs": [
        {
          "internalType": "uint256[]",
          "name": "",
          "type": "uint256[]"
        }
      ],
      "stateMutability": "view",
      "type": "function",
      "constant": true
    },
    {
      "inputs": [
        {
          "internalType": "address",
          "name": "buyer",
          "type": "address"
        }
      ],
      "name": "getPurchasedPaints",
      "outputs": [
        {
          "components": [
            {
              "internalType": "uint256",
              "name": "id",
              "type": "uint256"
            },
            {
              "internalType": "string",
              "name": "title",
              "type": "string"
            },
            {
              "internalType": "string",
              "name": "img",
              "type": "string"
            },
            {
              "internalType": "string",
              "name": "artist",
              "type": "string"
            },
            {
              "internalType": "uint256",
              "name": "price",
              "type": "uint256"
            },
            {
              "internalType": "bool",
              "name": "status",
              "type": "bool"
            }
          ],
          "internalType": "struct PaintContract.Paint[]",
          "name": "",
          "type": "tuple[]"
        }
      ],
      "stateMutability": "view",
      "type": "function",
      "constant": true
    }
  ],
  "bytecode": "0x608060405234801561001057600080fd5b5060008081905550611ce5806100276000396000f3fe6080604052600436106100865760003560e01c80636963ba5c116100595780636963ba5c146101595780636e65db3e14610184578063a8eca8b2146101c6578063c7b92d70146101e2578063f71426941461022457610086565b806303454b461461008b57806310b46615146100b657806315ec8815146100f3578063305b6d8c14610130575b600080fd5b34801561009757600080fd5b506100a0610261565b6040516100ad9190611095565b60405180910390f35b3480156100c257600080fd5b506100dd60048036038101906100d89190611122565b610267565b6040516100ea9190611362565b60405180910390f35b3480156100ff57600080fd5b5061011a60048036038101906101159190611122565b6105b9565b6040516101279190611433565b60405180910390f35b34801561013c57600080fd5b50610157600480360381019061015291906115b6565b610656565b005b34801561016557600080fd5b5061016e610789565b60405161017b9190611362565b60405180910390f35b34801561019057600080fd5b506101ab60048036038101906101a69190611685565b610a2d565b6040516101bd9695949392919061170b565b60405180910390f35b6101e060048036038101906101db9190611685565b610c0e565b005b3480156101ee57600080fd5b5061020960048036038101906102049190611685565b610d6e565b60405161021b9695949392919061170b565b60405180910390f35b34801561023057600080fd5b5061024b60048036038101906102469190611781565b610f71565b6040516102589190611095565b60405180910390f35b60005481565b60606000600260008473ffffffffffffffffffffffffffffffffffffffff1673ffffffffffffffffffffffffffffffffffffffff1681526020019081526020016000208054806020026020016040519081016040528092919081815260200182805480156102f457602002820191906000526020600020905b8154815260200190600101908083116102e0575b505050505090506000815167ffffffffffffffff8111156103185761031761148b565b5b60405190808252806020026020018201604052801561035157816020015b61033e611044565b8152602001906001900390816103365790505b50905060005b82518110156105ae5760016000848381518110610377576103766117c1565b5b602002602001015181526020019081526020016000206040518060c0016040529081600082015481526020016001820180546103b29061181f565b80601f01602080910402602001604051908101604052809291908181526020018280546103de9061181f565b801561042b5780601f106104005761010080835404028352916020019161042b565b820191906000526020600020905b81548152906001019060200180831161040e57829003601f168201915b505050505081526020016002820180546104449061181f565b80601f01602080910402602001604051908101604052809291908181526020018280546104709061181f565b80156104bd5780601f10610492576101008083540402835291602001916104bd565b820191906000526020600020905b8154815290600101906020018083116104a057829003601f168201915b505050505081526020016003820180546104d69061181f565b80601f01602080910402602001604051908101604052809291908181526020018280546105029061181f565b801561054f5780601f106105245761010080835404028352916020019161054f565b820191906000526020600020905b81548152906001019060200180831161053257829003601f168201915b50505050508152602001600482015481526020016005820160009054906101000a900460ff1615151515815250508282815181106105905761058f6117c1565b5b602002602001018190525080806105a69061187f565b915050610357565b508092505050919050565b60606000600260008473ffffffffffffffffffffffffffffffffffffffff1673ffffffffffffffffffffffffffffffffffffffff16815260200190815260200160002080548060200260200160405190810160405280929190818152602001828054801561064657602002820191906000526020600020905b815481526020019060010190808311610632575b5050505050905080915050919050565b60006001600087815260200190815260200160002060000154146106af576040517f08c379a00000000000000000000000000000000000000000000000000000000081526004016106a690611939565b60405180910390fd5b6040518060c0016040528086815260200185815260200184815260200183815260200182815260200160011515815250600160008781526020019081526020016000206000820151816000015560208201518160010190816107119190611b05565b5060408201518160020190816107279190611b05565b50606082015181600301908161073d9190611b05565b506080820151816004015560a08201518160050160006101000a81548160ff02191690831515021790555090505060008081548092919061077d9061187f565b91905055505050505050565b60606000805467ffffffffffffffff8111156107a8576107a761148b565b5b6040519080825280602002602001820160405280156107e157816020015b6107ce611044565b8152602001906001900390816107c65790505b50905060005b600054811015610a2557600160008281526020019081526020016000206040518060c0016040529081600082015481526020016001820180546108299061181f565b80601f01602080910402602001604051908101604052809291908181526020018280546108559061181f565b80156108a25780601f10610877576101008083540402835291602001916108a2565b820191906000526020600020905b81548152906001019060200180831161088557829003601f168201915b505050505081526020016002820180546108bb9061181f565b80601f01602080910402602001604051908101604052809291908181526020018280546108e79061181f565b80156109345780601f1061090957610100808354040283529160200191610934565b820191906000526020600020905b81548152906001019060200180831161091757829003601f168201915b5050505050815260200160038201805461094d9061181f565b80601f01602080910402602001604051908101604052809291908181526020018280546109799061181f565b80156109c65780601f1061099b576101008083540402835291602001916109c6565b820191906000526020600020905b8154815290600101906020018083116109a957829003601f168201915b50505050508152602001600482015481526020016005820160009054906101000a900460ff161515151581525050828281518110610a0757610a066117c1565b5b60200260200101819052508080610a1d9061187f565b9150506107e7565b508091505090565b6001602052806000526040600020600091509050806000015490806001018054610a569061181f565b80601f0160208091040260200160405190810160405280929190818152602001828054610a829061181f565b8015610acf5780601f10610aa457610100808354040283529160200191610acf565b820191906000526020600020905b815481529060010190602001808311610ab257829003601f168201915b505050505090806002018054610ae49061181f565b80601f0160208091040260200160405190810160405280929190818152602001828054610b109061181f565b8015610b5d5780601f10610b3257610100808354040283529160200191610b5d565b820191906000526020600020905b815481529060010190602001808311610b4057829003601f168201915b505050505090806003018054610b729061181f565b80601f0160208091040260200160405190810160405280929190818152602001828054610b9e9061181f565b8015610beb5780601f10610bc057610100808354040283529160200191610beb565b820191906000526020600020905b815481529060010190602001808311610bce57829003601f168201915b5050505050908060040154908060050160009054906101000a900460ff16905086565b60006001600083815260200190815260200160002090508060050160009054906101000a900460ff16610c76576040517f08c379a0000000000000000000000000000000000000000000000000000000008152600401610c6d90611c23565b60405180910390fd5b610c803383610fa2565b15610cc0576040517f08c379a0000000000000000000000000000000000000000000000000000000008152600401610cb790611c8f565b60405180910390fd5b600260003373ffffffffffffffffffffffffffffffffffffffff1673ffffffffffffffffffffffffffffffffffffffff168152602001908152602001600020829080600181540180825580915050600190039060005260206000200160009091909190915055813373ffffffffffffffffffffffffffffffffffffffff167f1219234621cfbda08eed13673c6e71cbf4b399ec00b0cdc44d8366e22d06670060405160405180910390a35050565b600060608060606000806000600160008981526020019081526020016000209050806000015481600101826002018360030184600401548560050160009054906101000a900460ff16848054610dc39061181f565b80601f0160208091040260200160405190810160405280929190818152602001828054610def9061181f565b8015610e3c5780601f10610e1157610100808354040283529160200191610e3c565b820191906000526020600020905b815481529060010190602001808311610e1f57829003601f168201915b50505050509450838054610e4f9061181f565b80601f0160208091040260200160405190810160405280929190818152602001828054610e7b9061181f565b8015610ec85780601f10610e9d57610100808354040283529160200191610ec8565b820191906000526020600020905b815481529060010190602001808311610eab57829003601f168201915b50505050509350828054610edb9061181f565b80601f0160208091040260200160405190810160405280929190818152602001828054610f079061181f565b8015610f545780601f10610f2957610100808354040283529160200191610f54565b820191906000526020600020905b815481529060010190602001808311610f3757829003601f168201915b505050505092509650965096509650965096505091939550919395565b60026020528160005260406000208181548110610f8d57600080fd5b90600052602060002001600091509150505481565b600080600260008573ffffffffffffffffffffffffffffffffffffffff1673ffffffffffffffffffffffffffffffffffffffff168152602001908152602001600020905060005b81805490508110156110375783828281548110611009576110086117c1565b5b9060005260206000200154036110245760019250505061103e565b808061102f9061187f565b915050610fe9565b5060009150505b92915050565b6040518060c0016040528060008152602001606081526020016060815260200160608152602001600081526020016000151581525090565b6000819050919050565b61108f8161107c565b82525050565b60006020820190506110aa6000830184611086565b92915050565b6000604051905090565b600080fd5b600080fd5b600073ffffffffffffffffffffffffffffffffffffffff82169050919050565b60006110ef826110c4565b9050919050565b6110ff816110e4565b811461110a57600080fd5b50565b60008135905061111c816110f6565b92915050565b600060208284031215611138576111376110ba565b5b60006111468482850161110d565b91505092915050565b600081519050919050565b600082825260208201905092915050565b6000819050602082019050919050565b6111848161107c565b82525050565b600081519050919050565b600082825260208201905092915050565b60005b838110156111c45780820151818401526020810190506111a9565b60008484015250505050565b6000601f19601f8301169050919050565b60006111ec8261118a565b6111f68185611195565b93506112068185602086016111a6565b61120f816111d0565b840191505092915050565b60008115159050919050565b61122f8161121a565b82525050565b600060c08301600083015161124d600086018261117b565b506020830151848203602086015261126582826111e1565b9150506040830151848203604086015261127f82826111e1565b9150506060830151848203606086015261129982826111e1565b91505060808301516112ae608086018261117b565b5060a08301516112c160a0860182611226565b508091505092915050565b60006112d88383611235565b905092915050565b6000602082019050919050565b60006112f88261114f565b611302818561115a565b9350836020820285016113148561116b565b8060005b85811015611350578484038952815161133185826112cc565b945061133c836112e0565b925060208a01995050600181019050611318565b50829750879550505050505092915050565b6000602082019050818103600083015261137c81846112ed565b905092915050565b600081519050919050565b600082825260208201905092915050565b6000819050602082019050919050565b60006113bc838361117b565b60208301905092915050565b6000602082019050919050565b60006113e082611384565b6113ea818561138f565b93506113f5836113a0565b8060005b8381101561142657815161140d88826113b0565b9750611418836113c8565b9250506001810190506113f9565b5085935050505092915050565b6000602082019050818103600083015261144d81846113d5565b905092915050565b61145e8161107c565b811461146957600080fd5b50565b60008135905061147b81611455565b92915050565b600080fd5b600080fd5b7f4e487b7100000000000000000000000000000000000000000000000000000000600052604160045260246000fd5b6114c3826111d0565b810181811067ffffffffffffffff821117156114e2576114e161148b565b5b80604052505050565b60006114f56110b0565b905061150182826114ba565b919050565b600067ffffffffffffffff8211156115215761152061148b565b5b61152a826111d0565b9050602081019050919050565b82818337600083830152505050565b600061155961155484611506565b6114eb565b90508281526020810184848401111561157557611574611486565b5b611580848285611537565b509392505050565b600082601f83011261159d5761159c611481565b5b81356115ad848260208601611546565b91505092915050565b600080600080600060a086880312156115d2576115d16110ba565b5b60006115e08882890161146c565b955050602086013567ffffffffffffffff811115611601576116006110bf565b5b61160d88828901611588565b945050604086013567ffffffffffffffff81111561162e5761162d6110bf565b5b61163a88828901611588565b935050606086013567ffffffffffffffff81111561165b5761165a6110bf565b5b61166788828901611588565b92505060806116788882890161146c565b9150509295509295909350565b60006020828403121561169b5761169a6110ba565b5b60006116a98482850161146c565b91505092915050565b600082825260208201905092915050565b60006116ce8261118a565b6116d881856116b2565b93506116e88185602086016111a6565b6116f1816111d0565b840191505092915050565b6117058161121a565b82525050565b600060c0820190506117206000830189611086565b818103602083015261173281886116c3565b9050818103604083015261174681876116c3565b9050818103606083015261175a81866116c3565b90506117696080830185611086565b61177660a08301846116fc565b979650505050505050565b60008060408385031215611798576117976110ba565b5b60006117a68582860161110d565b92505060206117b78582860161146c565b9150509250929050565b7f4e487b7100000000000000000000000000000000000000000000000000000000600052603260045260246000fd5b7f4e487b7100000000000000000000000000000000000000000000000000000000600052602260045260246000fd5b6000600282049050600182168061183757607f821691505b60208210810361184a576118496117f0565b5b50919050565b7f4e487b7100000000000000000000000000000000000000000000000000000000600052601160045260246000fd5b600061188a8261107c565b91507fffffffffffffffffffffffffffffffffffffffffffffffffffffffffffffffff82036118bc576118bb611850565b5b600182019050919050565b7f51756164726f20636f6e206c6f2073746573736f20494420676961272065736960008201527f7374656e74650000000000000000000000000000000000000000000000000000602082015250565b60006119236026836116b2565b915061192e826118c7565b604082019050919050565b6000602082019050818103600083015261195281611916565b9050919050565b60008190508160005260206000209050919050565b60006020601f8301049050919050565b600082821b905092915050565b6000600883026119bb7fffffffffffffffffffffffffffffffffffffffffffffffffffffffffffffffff8261197e565b6119c5868361197e565b95508019841693508086168417925050509392505050565b6000819050919050565b6000611a026119fd6119f88461107c565b6119dd565b61107c565b9050919050565b6000819050919050565b611a1c836119e7565b611a30611a2882611a09565b84845461198b565b825550505050565b600090565b611a45611a38565b611a50818484611a13565b505050565b5b81811015611a7457611a69600082611a3d565b600181019050611a56565b5050565b601f821115611ab957611a8a81611959565b611a938461196e565b81016020851015611aa2578190505b611ab6611aae8561196e565b830182611a55565b50505b505050565b600082821c905092915050565b6000611adc60001984600802611abe565b1980831691505092915050565b6000611af58383611acb565b9150826002028217905092915050565b611b0e8261118a565b67ffffffffffffffff811115611b2757611b2661148b565b5b611b31825461181f565b611b3c828285611a78565b600060209050601f831160018114611b6f5760008415611b5d578287015190505b611b678582611ae9565b865550611bcf565b601f198416611b7d86611959565b60005b82811015611ba557848901518255600182019150602085019450602081019050611b80565b86831015611bc25784890151611bbe601f891682611acb565b8355505b6001600288020188555050505b505050505050565b7f496c2071756164726f206e6f6e20652720646973706f6e6962696c6500000000600082015250565b6000611c0d601c836116b2565b9150611c1882611bd7565b602082019050919050565b60006020820190508181036000830152611c3c81611c00565b9050919050565b7f486169206769612720636f6d707261746f2071756573746f2071756164726f00600082015250565b6000611c79601f836116b2565b9150611c8482611c43565b602082019050919050565b60006020820190508181036000830152611ca881611c6c565b905091905056fea264697066735822122093f099e58066958cb635aa3371e670af69663716a3817a1cbc4e3508c5c2185264736f6c63430008130033",
  "immutableReferences": {},
  "source": "// SPDX-License-Identifier: MIT\npragma solidity ^0.8.0;\n/*All'interno di questo smart contract sono inseriti i seguenti design pattern:\n * n1 Checks-Effects-Interactions Pattern -> stabilisce la sequenza delle operazioni secondo l'ordine check(attuare controlli per verificare le condizioni necessarie), effects (applicazione), interactions(gestite le interazioni).\n * n2 Owner Pattern -> Garantisce che solo il proprietario esegua operazioni \"critiche\".\n * n3 Emergency Stop -> Sospende temporaneamente l'esecuzione in caso di emergenza.\n * n4 Reentrancy Guard Pattern -> Protegge dagli attacchi di reentrancy.\n * n5 Time-Dependent Restrictions Pattern -> Consente di applicare restrizioni basate sul tempo.\n */\n\n\ncontract PaintContract {\n    uint public counterPaints;\n    struct Paint {\n        uint id;\n        string title;\n        string img;\n        string artist;\n        uint price;\n        bool status;\n    }\n\n    mapping (uint => Paint) public paints;\n    mapping (address => uint[]) public purchasedPaints;\n  \n\n    event purchasedPaint(address indexed buyer, uint indexed paintId);\n\n    constructor() {\n       counterPaints = 0;\n        //Inizializzazione del Time-Dependent Restrictions Pattern\n        //contractStartTime = block.timestamp + 1 days; \n    }\n\n\n\n    function createPaint(\n        uint id,\n        string memory title,\n        string memory img,\n        string memory artist,\n        uint price \n    ) public {\n        require(paints[id].id == 0, \"Quadro con lo stesso ID gia' esistente\");\n\n        paints[id] = Paint(\n            id,\n            title,\n            img,\n            artist,\n            price,\n            true\n        );\n        counterPaints++;\n    }\n\n    function getPaintDetails(uint paintId) public view returns (\n        uint id,\n        string memory title,\n        string memory img,\n        string memory artist,\n        uint price,\n        bool status \n    ){\n        Paint storage paint = paints[paintId];\n        return (\n            paint.id,\n            paint.title,\n            paint.img,\n            paint.artist,\n            paint.price,\n            paint.status\n        );\n    }\n\n    function buyPaint(uint paintId) public payable {\n        Paint storage paint = paints[paintId];\n        require(paint.status, \"Il quadro non e' disponibile\");\n\n        require(!purchasedSatus(msg.sender, paintId), \"Hai gia' comprato questo quadro\");\n\n        purchasedPaints[msg.sender].push(paintId);\n\n        emit purchasedPaint(msg.sender, paintId);\n    }\n\n    function purchasedSatus(address buyer, uint paintId) internal view returns (bool) {\n        uint[] storage purchasedIds = purchasedPaints[buyer];\n        for (uint i = 0; i< purchasedIds.length; i++){\n            if (purchasedIds[i] == paintId) {\n                return true;\n            }\n        }\n        return false;\n    }\n\n    function getAllPaintd() public view returns (Paint[] memory){\n        Paint[] memory result = new Paint[](counterPaints);\n        for(uint i = 0; i< counterPaints; i++){\n            result[i] = paints[i];\n        }\n        return result;\n    }\n\n    function getPurchasedPaintIds(address buyer) public view returns (uint[] memory){\n        uint[] memory purchasedIds = purchasedPaints[buyer];\n        return purchasedIds;\n    }\n\n    function getPurchasedPaints(address buyer) public view returns (Paint[] memory){\n        uint[] memory purchasedIds = purchasedPaints[buyer];\n        Paint[] memory purchasedPaintsArray = new Paint[](purchasedIds.length);\n\n        for(uint i= 0; i< purchasedIds.length; i++){\n            purchasedPaintsArray[i] = paints[purchasedIds[i]];\n        }\n        return purchasedPaintsArray;\n    }      \n    \n}\n",
  "sourcePath": "/Users/marcociano/Desktop/Chain-Of-Art/contracts/PaintContract.sol",
  "compiler": {
    "name": "solc",
    "version": "0.8.19+commit.7dd6d404.Emscripten.clang"
  },
  "schemaVersion": "3.4.16",
  "updatedAt": "2024-01-13T18:10:24.876Z",
  "networkType": "ethereum",
  "devdoc": {
    "kind": "dev",
    "methods": {},
    "version": 1
  },
  "userdoc": {
    "kind": "user",
    "methods": {},
    "version": 1
  }
}